:02000000ff00ff
:080002004c6174746963650030
:17000a00694345637562653220323031372e30382e32373934300069
:15002100506172743a2069434534304c50384b2d434d3831003f
:1b003600446174653a2046656220323420323032302031363a33353a35330095
:0200510000ffae
:040053007eaa997e6a
:02005700510056
:0200590001059f
:03005b00920020f0
:03005e00620367d3
:0300610072011019
:0300640082000017
:02006700110086
:02006900010193
:20006b00000000000000000000000000000000001001e00000000000000000000000000084
:20008b00000000000000000000000000000000000000000000000000000000000000000055
:2000ab00000000000000000000000000000000000000000000000000000000000000000035
:0d00cb000000000000000000000000000028
:2000d8000000000000000000000000000000000000002000000000000000000000000000e8
:2000f8000000000000000000000000000000000000000000000000000000000000000000e8
:200118000000000000000000000000000000000000000000000000000000000000000000c7
:0d01380000000000000000000000000000ba
:2001450000000000000000000000000000000000100000000000000000000000000000008a
:2001650000000000000000000000000000000000000000000000000000000000000000007a
:2001850000000000000000000000000000000000000000000000000000000000000000005a
:0d01a500000000000000000000000000004d
:2001b20000000000000000000000000000000000000000000000000000000000000000002d
:2001d20000000000000000000000000000000000000000000000000000000000000000000d
:2001f2000000000000000000000000000000000000000000000000000000000000000000ed
:0d02120000000000000000000000000000df
:20021f0000000000000000000000000000000000200000030000000000000000000000009c
:20023f0000000000000000000000000000000000000000000000000000000000000000009f
:20025f0000000000000000000000000000000000000000000000000000000000000000007f
:0d027f000000000000000000000000000072
:20028c000000000000000000000000000000000000000003c000000000000000000000008f
:2002ac00000000000000000000000000000000000000000000000000000000000000000032
:2002cc00000000000000000000000000000000000000000000000000000000000000000012
:0d02ec000000000000000000000000000005
:2002f900000000000000000000000000000000001000004000000000000000000000000095
:200319000000000000000000000000000000000000000000000000000000000000000000c4
:200339000000000000000000000000000000000000000000000000000000000000000000a4
:0d0359000000000000000000000000000097
:20036600000000000000000000000000000000000000000000000000000000000000000077
:20038600000000000000000000000000000000000000000000000000000000000000000057
:2003a600000000000000000000000000000000000000000000000000000000000000000037
:0d03c600000000000000000000000000002a
:2003d300000000000000000000000000000000000001e040000000000000000000000000e9
:2003f3000000000000000000000000000000000000000000000000000000000000000000ea
:200413000000000000000000000000000000000000000000000000000000000000000000c9
:0d04330000000000000000000000000000bc
:20044000000000000000000000000000000000000003e000000000000000000000000000b9
:2004600000000000000000000000000000000000000000000000000000000000000000007c
:2004800000000000000000000000000000000000000000000000000000000000000000005c
:0d04a000000000000000000000000000004f
:2004ad000000000000000000000000000000000000000003c000000000000000000000006c
:2004cd0000000000000000000000000000000000000000000000000000000000000000000f
:2004ed000000000000000000000000000000000000000000000000000000000000000000ef
:0d050d0000000000000000000000000000e1
:20051a0000000000000000000000000000000000100000024000000000000000000000006f
:20053a000000000000000000000000000000000000000000000000000000000000000000a1
:20055a00000000000000000000000000000000000000000000000000000000000000000081
:0d057a000000000000000000000000000074
:20058700000000000000000000000000000000001001e00000000000000000000000000063
:2005a700000000000000000000000000000000000000000000000000000000000000000034
:2005c700000000000000000000000000000000000000000000000000000000000000000014
:0d05e7000000000000000000000000000007
:2005f4000000000000000000000000000000000010002000000000000000000000000000b7
:200614000000000000000000000000000000000000000000000000000000000000000000c6
:200634000000000000000000000000000000000000000000000000000000000000000000a6
:0d0654000000000000000000000000000099
:20066100000000000000000000000000000000000000000000000000000000000000000079
:20068100000000000000000000000000000000000000000000000000000000000000000059
:2006a100000000000000000000000000000000000000000000000000000000000000000039
:0d06c100000000000000000000000000002c
:2006ce000000000000000000000000000000000020000000000000000000000000000000ec
:2006ee000000000000000000000000000000000000000000000000000000000000000000ec
:20070e000000000000000000000000000000000000000000000000000000000000000000cb
:0d072e0000000000000000000000000000be
:20073b0000000000000000000000000000000000000000000000000000000000000000009e
:200fff000000000004000000000000000000000000000000000000000000000000000000ce
:0d101f0000000000000000000000000000c4
:20102c000000000000000000000000000000000000000000000000000000000000000000a4
:20104c00000000000000000000000000000000000000000000000000000000000000000084
:20106c00000000000000000000000000000000000000000000000000000000000000000064
:0d108c000000000000000000000000000057
:20109900000000000000000000000000000000000000000000000000000000000000000037
:2010b900000000000000000000000000000000000000000000000000000000000000000017
:2010d9000000000000000000000000000000000000000000000000000100000000000000f6
:0d10f90000000000000000000000000000ea
:201106000000000000000000000000000000000000000000000000000000000000000000c9
:201126000000000000000000000000000000000000000000000000000000000000000000a9
:20114600000000000000000000000000000000000000000000000000010000000000000088
:0d116600000000000000000000000000007c
:2011730000000000000000000000000000000000000000000000000000000000000000005c
:2011930000000000000000000000000000000000000000000000000000000000000000003c
:2011b30000000000000000000000000000000000000000000000000000000000000000001c
:0d11d300000000000000000000000000000f
:2011e0000000000000000000000000000000000000000000000000000000000000000000ef
:201200000000000000000000000000000000000000000000000000000000000000000000ce
:201220000000000000000000000000000000000000000000000000000000000000000000ae
:0d12400000000000000000000000000000a1
:20124d00000000000000000000000000000000000000000000000000000000000000000081
:20126d00000000000000000000000000000000000000000000000000000000000000000061
:20128d00000000000000000000000000000000000000000000000000000000000000000041
:0d12ad000000000000000000000000000034
:2012ba00000000000000000000000000000000000000000000000000000000000000000014
:2012da000000000000000000000000000000000000000000000000000000000000000000f4
:2012fa000000000000000000000000000000000000000000000000000000000000000000d4
:0d131a0000000000000000000000000000c6
:201327000000000000000000000000000000000000000000000000000000000000000000a6
:20134700000000000000000000000000000000000000000000000000000000000000000086
:20136700000000000000000000000000000000000000000000000000000000000000000462
:0d1387000000000000000000000000000059
:20139400000000000000000000000000000000000000000000000000000000000000000039
:2013b400000000000000000000000000000000000000000000000000000000000000000019
:2013d4000000000000000000000000000000000000000000000000000000000000000000f9
:0d13f40000000000000000000000000000ec
:201401000000000000000000000000000000000000000000000000000000000000000000cb
:201421000000000000000000000000000000000000000000000000000000000000000000ab
:2014410000000000000000000000000000000000000000000000000000000000000000008b
:0d146100000000000000000000000000007e
:20146e0000000000000000000000000000000000000000000000000000000000000000005e
:20148e0000000000000000000000000000000000000000000000000000000000000000003e
:2014ae0000000000000000000000000000000000000000000000000000000000000000001e
:0d14ce000000000000000000000000000011
:2014db004000000000000000000000000000000000000000000000000000000000000000b1
:2014fb000000000000000000000000000000000000000000000000000000000000000000d1
:20151b000000000000000000000000000000000000000000000000000000000000000000b0
:0d153b0000000000000000000000000000a3
:20154800800000000000000000000000000000000000000000000000000000000000000003
:20156800000000000000000000000000000000000000000000000000000000000000000063
:20158800000000000000000000000000000000000000000000000000000000000000000043
:0d15a8000000000000000000000000000036
:2015b500000000000000000000000000000000000000000000000000000000000000000016
:2015d5000000000000000000000000000000000000000000000000000000000000000000f6
:2015f5000000000000000000000000000000000000000000000000000000000000000000d6
:0d16150000000000000000000000000000c8
:20162200800000000000000000000000000000000000000000000000000000000000000028
:20164200000000000000000000000000000000000000000000000000000000000000000088
:20166200000000000000000000000000000000000000000000000000000000000000000068
:0d168200000000000000000000000000005b
:20168f008d6800000000000000000000000000000000000000000000000000000000000046
:2016af0000000000000000000000000000000000000000000000000000000000000000001b
:2016cf000000000000000000000000000000000000000000000000000000000000000000fb
:0d16ef0000000000000000000000000000ee
:2016fc000e00000000000000000000000000000000000000000000000000000000000000c0
:20171c000000000000000000000000000000000000000000000000000000000000000000ad
:20173c0000000000000000000000000000000000000000000000000000000000000000008d
:0d175c000000000000000000000000000080
:2017690000000000000000000000000000000000000000000000020000000000000000005e
:20178900000000000000000000000000000000000000000000000000000000000000000040
:2017a900000000000000000000000000000000000000000000000000000000000000000020
:0d17c9000000000000000000000000000013
:2017d6000000000000000000000000000000000000000000000000000000000000000000f3
:2017f6000000000000000000000000000000000000000000000000000000000000000000d3
:201816000000000000000000000000100000000000000000000000000000000000000000a2
:0d18360000000000000000000000000000a5
:20184300000000000000000000000000000000000000000000000000000000000000000085
:20186300000000000000000000000000000000000000000000000000000000000000000065
:20188300000000000000000000000000000000000000000000000000000000000000000045
:0d18a3000000000000000000000000000038
:2018b000000200000000000000000000000000001000000000000000000000000000000006
:2018d0000000000000000000000000000000000000000000000000000000000000000000f8
:2018f0000000000000000000000000000000000000000000000000000000000000000000d8
:0d19100000000000000000000000000000ca
:20191d0000000000000000000000000000000000000040000000000000000000000000006a
:20193d0000000000000000000000000000000000000000000000004000000000000000004a
:20195d0000000000000000000000000000000000000000000000000000000000000000006a
:0d197d00000000000000000000000000005d
:20198a0000000000000000000000000000000000000000000000000000000000000000003d
:2019aa0000000000000000000000000000000000000000000000000000000000000000001d
:2019ca000000000000000000000000000000000000000000000000000000000000000000fd
:0d19ea0000000000000000000000000000f0
:2019f7000000000000000000000000000000000000000000000000000000000000000000d0
:201a17000000000000000000000000000000000000000000000000000000000000000000af
:201a370000000000000000000000000000000000000000000000000000000000000000008f
:0d1a57000000000000000000000000000082
:201a6400000000000000000000000000000000000000000000000000000000000000000062
:201a8400000000000000000000000000000000000000000000000000000000000000000042
:201aa400000000000000000000000000000000000000000000000000000000000000000022
:0d1ac4000000000000000000000000000015
:201ad1000028000000000000000000000000000000000000000000000000000000000000cd
:201af1000000000000000000000000000000000000000000000000000000000000000000d5
:201b11000000000000000000000000000000000000000000000000000000000000000000b4
:0d1b310000000000000000000000000000a7
:201b3e00004000000000000000000000000000000000000000000000000000000000000047
:201b5e00000000000000000000000000000000000000000000000000000000000000000067
:201b7e00000000000000000000000000000000000000000000000000000000000000000047
:0d1b9e00000000000000000000000000003a
:201bab0000000000000000000000000000000000000000000000000000000000000000001a
:201bcb000000000000000000000000000000000000000000000000000000000000000000fa
:201beb000000000000000000000000000000000000000000000000000000000000000000da
:0d1c0b0000000000000000000000000000cc
:201c18000000000000000000000000000000000000000000000000000000000000000000ac
:201c380000000000000000000000000000000000000000000000000000000000000000008c
:201c580000000000000000000000000000000000000000000000000000000000000000006c
:0d1c7800000000000000000000000000005f
:201c850000000000000000000000000000000000000000000000000000000000000000003f
:201ca50000000000000000000000000000000000000000000000000000000000000000001f
:201cc5000000000000000000000000100000000000000000000000000000000000000000ef
:0d1ce50000000000000000000000000000f2
:201cf2000000000000000000000000000000000000000000000000000000000000000000d2
:201d12000000000000000000000000000000000000000000000000000000000000000000b1
:201d3200000000000000000000000000000000000000000000000000000000000000000091
:0d1d52000000000000000000000000000084
:201d5f00000000000000000000000000000000000000000000000000000000000000000064
:201d7f00000000000000000000000000000000000000000000000000000000000000000044
:201d9f00000000000000000000000000000000000000000000000000000000000000000024
:0d1dbf000000000000000000000000000017
:201dcc000000000000000000000000000000000000000000000000000000000000000000f7
:201dec000000000000000000000000000000000000000000000000000000000000000000d7
:201e0c000000000000000000000000000000000000000000000000000000000000000000b6
:0d1e2c0000000000000000000000000000a9
:201e3900000000000000000000000000000000000000000000000000000000000000000089
:201e5900000000000000000000000000000000000000000000000000000000000000000069
:201e7900000000000000000000000000000000000000000000000000000000000000000049
:0d1e9900000000000000000000000000003c
:201ea60000000000000000000000000000000000000000000000000000000000000000001c
:201ec6000000000000000000000000000000000000000000000000000000000000000000fc
:201ee6000000000000000000000000000000000000000000000000000000000000000000dc
:0d1f060000000000000000000000000000ce
:201f13000000000000000000000000000000000000000000000000000000000000000000ae
:201f330000000000000000000000000000000000000000000000000000000000000000008e
:201f530000000000000000000000000000000000000000000000000000000000000000006e
:0d1f73000000000000000000000000000061
:201f8000000000000000000000000000000000001000000000000000000000000000000031
:201fa000000000000000000000000000000000000000000000000000000000000000000021
:201fc000000000000000000000000000000000000000000000000000000000000000000001
:0d1fe00000000000000000000000000000f4
:201fed000000010000000000000000000000000000000000000000000000000000000000d3
:20200d000000000000000000000000100000000000000000000000000000000000000000a3
:20202d00000000000000000000000000000000000000000000000000000000000000000093
:0d204d000000000000000000000000000086
:20205a00000002000000000000000000000000000000000000000000000000000000000064
:20207a0000000000000000000000000800000000000000000000000000000000000000003e
:20209a00000000000000000000000000000000000000000000000000000000000000000026
:0d20ba000000000000000000000000000019
:2020c7000000000000000000000000000000000000000000000000000000000000000000f9
:2020e7000000000000000000000000000000000000000000000000000000000000000000d9
:202107000000000000000000000000000000000000000000000000000000000000000000b8
:0d21270000000000000000000000000000ab
:20213400080000000000000000000000000000000000000000000000000000000000000083
:2021540000000000000000000000000000000000000000000000000000000000000000006b
:2021740000000000000000000000000000000000000000000000000000000000000000004b
:0d219400000000000000000000000000003e
:2021a10000000000000000000000000000000000000000000000000000000000000000001e
:2021c1000000000000000000000000000000000000000000000000000000000000000000fe
:2021e1000000000000000000000000000000000000000000000000000000000000000000de
:0d22010000000000000000000000000000d0
:20220e000000000000000000000000100000000000000000000000000000000000000000a0
:20222e00000000000000000000000000000000000000000000000000000000000000000090
:20224e00000000000000000000000000000000000000000000000000000000000000000070
:0d226e000000000000000000000000000063
:20227b00400000000000000000000000000000000000000000000000000000000000000003
:20229b00000000000000000000000000000000000000000000000000000000000000000023
:2022bb00000000000000000000000000000000000000000000000000000000000000000003
:0d22db0000000000000000000000000000f6
:2022e8000000000000000000000000000000000000000000000000000000000000000000d6
:202308000000000000000000000000000000000000000000000000000000000000000000b5
:20232800000000000000000000000000000000000000000000000000000000000000000095
:0d2348000000000000000000000000000088
:202355008000000000000000000000000000000000000000000000000000000000000000e8
:20237500000000000000000000000000000000000000000000000000000000000000000048
:20239500000000000000000000000000000000000000000000000000000000000000000028
:0d23b500000000000000000000000000001b
:2023c20080000000000000000000000000000000000000000000000000000000000000007b
:2023e2000000000000000000000000000000000000000000000000000000000000000000db
:202402000000000000000000000000000000000000000000000000000000000000000000ba
:0d24220000000000000000000000000000ad
:20242f008928000000000000000000000000000000000000000000000000000000000000dc
:20244f0000000000000000000000000000000000000000000000000000000000000000006d
:20246f0000000000000000000000000000000000000000000000000000000000000000004d
:0d248f000000000000000000000000000040
:20249c000e40000000000000000000000000000000000000000000000000000000000000d2
:2024bc00000000000000000000000000000000000000000000000000000000000000000000
:2024dc000000000000000000000000000000000000000000000000000000000000000000e0
:0d24fc0000000000000000000000000000d3
:2025090000040000000000000000000000000000400000000000000000000000000000006e
:20252900000000000000000000000000000000000000000000000000000000000000000092
:20254900000000000000000000000000000000000000000000000000000000000000000072
:0d2569000000000000000000000000000065
:202576000034000000000000000000000000000028000000000000000000000000000000e9
:20259600000000000000000000000000000000000001000000000000000000000000000024
:2025b600000000000000000000000000000000000000000000000000000000000000000005
:0d25d60000000000000000000000000000f8
:2025e3000000000000000000000000000000000000000000000000000000000000000000d8
:202603000000000000000000000000000000000000000000000000000000000000000000b7
:20262300000000000000000000000000000000000000000000000000000000000000000097
:0d264300000000000000000000000000008a
:20265000000200000000000000000000000000000000000000000000000000000000000068
:2026700000000000000000000000000000000000000000000000000000000000000000004a
:2026900000000000000000000000000000000000000000000000000000000000000000002a
:0d26b000000000000000000000000000001d
:2026bd000000000000000000000000000000000000000000000000000000000000000000fd
:2026dd0000000000000000000000000280000000000000000000000000000000000000005b
:2026fd000000000000000000000000000000000000000000000000000000000000000000bd
:0d271d0000000000000000000000000000af
:20272a0000000000000000000000000000000000000000000000000000000000000000008f
:20274a0000000000000000000000000000000000000000000000000000000000000000006f
:20276a0000000000000000000000000000000000000000000000000000000000000000004f
:0d278a000000000000000000000000000042
:20279700000000000000000000000000000000000000000000000000000000000000000022
:2027b700000000000000000000000000000000000000000000000000000000000000000002
:2027d7000000000000000000000000000000000000000000000000000000000000000000e2
:0d27f70000000000000000000000000000d5
:202804000000000000000000000000000000000000000000000000000000000000000000b4
:20282400000000000000000000000000000000000000000000000000000000000000000094
:20284400000000000000000000000000000000000000000000000000000000000000000074
:0d2864000000000000000000000000000067
:20287100000000000000000000000000000000000000000000000000000000000000000047
:20289100000000000000000000000000000000000000000000000000000000000000000027
:2028b100000000000002000000000000000000000000000000000000000000000000000005
:0d28d10000000000000000000000000000fa
:2028de000000000000000000000000000000000000000000000000000000000000000000da
:2028fe000000000000000000000000000000000000000000000000000000000000000000ba
:20291e00000000000004000000000000000000000000000000000000000000000000000095
:0d293e00000000000000000000000000008c
:20294b0000000000000000000000000000000000000000000000000000000000000000006c
:20296b0000000000000000000000000000000000000000000000000000000000000000004c
:20298b0000000000000000000000000000000000000000000000000000000000000000002c
:0d29ab00000000000000000000000000001f
:2029b8000000000000000000000000000000000000000000000000000000000000000000ff
:2029d8000000000000000000000000000000000000000000000000000000000000000000df
:2029f8000000000000000000000000000000000000000000000000000000000000000000bf
:0d2a180000000000000000000000000000b1
:202a2500000000000000000000000000000000000000000000000000000000000000000091
:202a4500000000000000000000000000000000000000000000000000000000000000000071
:202a650000000000040000000000000000000000000000000000000000000000000000004d
:0d2a85000000000000000000000000000044
:202a920018000000000000000000000000000000000000000000000000000000000000000c
:202ab200000000000000000000000000000000000000000000000000000000000000000004
:202ad2000000000000000000000000000000000000000000000000000000000000000000e4
:0d2af20000000000000000000000000000d7
:202aff000000000000000000000000000000000000000000000000000000000000080000af
:202b1f00000000000000000000000000000000000000000000000000000000000000000096
:202b3f0000000000040000000000000000000000000000000000000000000000000000046e
:0d2b5f000000000000000000000000000069
:202b6c00000000000000000000000000000000000000000000000000000000000000000049
:202b8c00000000000000000000000000000000000000000000000000000000000000000029
:202bac00000000000000000000000000000000000000000000000000000000000000000009
:0d2bcc0000000000000000000000000000fc
:202bd9000000000000000000000000000000000000000000000000000000000000000000dc
:202bf9000000000000000000000000000000000000000000000000000000000000000000bc
:202c190000000000000000000000000000000000000000000000000000000000000000009b
:0d2c3900000000000000000000000000008e
:202c460000000000000000000000000000000000000000000000000000000000000000006e
:202c660000000000000000000000000000000000000000000000000000000000000000004e
:202c860000000000000000000000000000000000000000000000000000000000000000002e
:0d2ca6000000000000000000000000000021
:202cb300000000000000000000000000000000000000000000000000000000000000000001
:202cd3000000000000000000000000000000000000000000000000000000000000000000e1
:202cf3000000000000000000000000000000000000000000000000000000000000000000c1
:0d2d130000000000000000000000000000b3
:202d2000000000000000000000000000000000000000000000000000000000000000000093
:202d4000000000000000000000000000000000000000000000000000000000000000000073
:202d6000000000000000000000000000000000000000000000000000000000000000000053
:0d2d80000000000000000000000000000046
:202d8d0000000000000000000000000000000000000000000000000800000000000000001e
:202dad00000000000000000000000000000000000000000000000000000000000000000006
:202dcd000000000000000000000000000000000000000000000000000000000000000000e6
:0d2ded0000000000000000000000000000d9
:202dfa000000000000000000000000000000000000000000000000000000000000000000b9
:20313500000000000000000000000000000000000000000000000000000100000000000079
:0d315500000000000000000000000000006d
:2031620000000000000000000000000000000000000000000000000000000000000000004d
:2031820000000000000000000000000000000000000000000000000000000000000000002d
:2031a20000000000000000000000000000000000000000000000000000000000000000000d
:0d31c2000000000000000000000000000000
:2031cf000000000000000000000000000000000040000000000000000000000000000000a0
:2031ef000000000000000000000000000000000000000000000000000000000000000000c0
:20320f0000000000000000000000000000000000000000000000000000000000000000009f
:0d322f000000000000000000000000000092
:20323c00000000000000000000000000000000004000000000000000000000000000000032
:20325c00000000000000000000000000000000000000000000000000000000000000000052
:20327c00000000000000000000000000000000000000000000000000000000000000000032
:0d329c000000000000000000000000000025
:2032a900000000000000000000000000000000000000000000000000000000000000000005
:2032c9000000000000000000000000000040000000000000000000000000000000000000a5
:2032e9000000000000000000000000000000000000000000000000000000000000000000c5
:0d33090000000000000000000000000000b7
:20331600000000000000000000000000000000000000000000000000000000000000000097
:20333600000000000000000000000000000000000000000000000000000000000000000077
:20335600000000000000000000000000000000000000000000000000000000000000000453
:0d337600000000000000000000000000004a
:2033830000000000000000000000000000000000000000000000000000000000000000002a
:2033a30000000000000000000000000000000000000000000000000000000000000000000a
:2033c3000000000008000000000000000000000000000000000000000000000000000000e2
:0d33e30000000000000000000000000000dd
:2033f0000000000000000000000000000000000000000000000000000000000000000000bd
:2034100000000000000000000000000000000000000000000000000000000000000000009c
:2034300000000000000000000000000000000000000000000000000000000000000000007c
:203bda000000000000000400000000000000000000000000000000000000000000000000c7
:0d3bfa0000000000000000000000000000be
:203c070000000000000000000000000000000000000000000000000000000000000000009d
:203c270000000000000000000000000000000000000000000000000000000000000000007d
:203c470000000000000000000000000000000000000000000000000000000000000000005d
:2041fd0000000040000000000001000000000000040000000000001000000000000040000d
:20421d00000000000100000000000004000000000000000000000004000000000000100068
:20423d0000000000004000000000000100000000000004000000000000100000000000000c
:0d425d004000000000000100000000000013
:20426a00000000000000000000000000000000000000000000000000000000000000000034
:20428a00000000000000000000000000000000000000000000000000000000000000000014
:2042aa000000000000000000000000000000000000000000000000000000000000000000f4
:0d42ca0000000000000000000000000000e7
:204e2900000000000000000000000000000000000000000000000000000100000000000068
:0d4e4900000000000000000000000000005c
:204e560000000000000000000000000000000000000000000000000000000000000000003c
:204e760000000000000000000000000000000000000000000000000000000000000000001c
:204e960000000000000000000000000000000000000000000000000000008000000000007c
:0d4eb60000000000000000000000000000ef
:204ec3000000000000000000000000000000000000000000000000000000000000000000cf
:204ee3000000000000000000000000000000000000000000000000000000000000000000af
:204f030000000000000000000000000000000000000000000000000000000000000000008e
:0d5b0f000000000000000a0000000000007f
:205b1c00000000000000000000000000000000000000000000000000000000000000000069
:205b3c00000000000000000000000000000000000000000000000000000000000000000049
:205b5c00000000000000000000000000000000000000000000000000000000000000000029
:0d5b7c00000000000000000000000000001c
:0d5f5100000000000000001400000000002f
:205f5e00000000000000000000000000000000000000000000000000000000000000000023
:205f7e00000000000000000000000000000000000000000000000000000000000000000003
:205f9e000000000000000000000000000000000000000000000000000000000000000000e3
:0d5fbe0000000000000000000000000000d6
:205fcb00000000000000000000000000000000004000000000000000000000000000000076
:205feb00000000000000000000000040000000000000000000000000000000000000000056
:20600b00000000000400000000000000000000000000000800d369400000000000000000ed
:0d602b000000000000000000003eaf540027
:20603800000000000000000000000000000000004000000000000000000000000000000008
:206058000000000000000000000000400000000000000000000000000000000000000000e8
:206078000000000004000000000000000000000000000001003e284000000000000000005d
:0d6098000000000000000000002c050000ca
:2060a5000000000000000000000000000000000000000000000000000000000000000000db
:2060c5000000000000000000000000000000000000000000000000000000000000000000bb
:2060e50000000000280000c000000000000007e10002828000de0900800000000000000060
:0d610500000000000000b0080000000000d5
:2061120000000000000000000000000000000000000000000000000000000000000000006d
:2061320000000000000000000000000000000000000000000000000000000000000000004d
:20615200000000002000000000000000100277a3801200090f3409400000000000000000ba
:0d617200000000000000801400000000008c
:20617f00000000000000000000000000000000000000000000000000000000000000000000
:20619f000000000000000000000000000000000000000000000000000000000000000000e0
:2061bf000000000030080000000000000000000000000000007789548000000000000000b4
:0d61df00000000000000c0000000000000f3
:2061ec00000000000000000000000000000000000000000000000000000000000000000093
:20620c00000000000000000000000000000000000000000000000000000000000000000072
:20622c0000000000100000000000000002c3c000000000000e18098000000000000000000e
:0d624c0000000000000040034000000000c2
:20625900000000000000000000000000000000000000000000000000000000000000000025
:20627900000000000000000000000000000000000000000000000000000000000000000005
:2062990000000000000000000000000000000dca52000007000000000100000000000000b4
:0d62b90000000000000000000000000000d8
:2062c6000000000000000000000000000000000000000000000000000000000000000000b8
:2062e600000000000000000000000000000000000000000000000000000000000000000098
:2063060000000000000000000000000000001e055000000000000000000000000000000004
:0d632600000000000000000000000000006a
:2063330000000000000000000000000000000000000000000000000000000000000000004a
:2063530000000000000000000000000000000000000000000000000000000000000000002a
:20637300000000000000000f6001660000004000000000000a0000000000000000000004e6
:0d63930000000000000000000000000000fd
:2063a0000000000000000000000000000000000000000000000000000000000000000000dd
:2063c0000000000000000000000000000000000000000000000000000000000000000000bd
:2063e000000000000000009fc0280000000280000000000010000000000000000000000084
:0d640000000000000000000003800000000c
:20640d0000000000000000000000000000000000000000000000000000000000000000006f
:20642d0000000000000000000000000000000000000000000000000000000000000000004f
:20644d00000000000000000000000000020000000000000700000000000000000000000026
:0d646d0000000000000000000040000000e2
:20647a00000000000000000000000000000000000000000000000000000000000000000002
:20649a000000000000000000000000000000000000000000000000000000000000000000e2
:2064ba0000000000000000000000000001c0000000000005000000000000000000000000fc
:0d64da000000000000000000034000000072
:2064e700000000000000000000000000000000000000000000000000000000000000000095
:20650700000000000000000000000000000000000000000000000000000000000000000074
:20652700000000000000001000000000020000000000000001000000000000000000000041
:0d6547000000000000000000000000000047
:20655400000000000000000000000000000000000000000000000000000000000000000027
:20657400000000000000000000000000000000000000000000000000000000000000000007
:2065940000000000000000d00000000002c00000000000000800000000000000000000004d
:0d65b40000000000000000000000000000da
:2065c1000000000000000000000000000000000000000000000000000000000000040000b6
:2065e10000000000000000000000000000000000000000000000000000000000000000009a
:2066010000000000000001e000000000000380000000000000000000000000000000000015
:0d662100000000000000000000000000006c
:20662e00000000000000000000000000000000000000000000000000000000000004000048
:20664e0000000000000000000000000000000000000000000000000000000000000000002c
:20666e00000000000000000000000000000000000000000f000000000000000000000000fd
:0d668e000200000000000003c0000000003a
:20669b0000000000000000000000000015afa60800018000000000000000000000000000ec
:2066bb0000000000000000000000000000000000000000000000000080000000000000003f
:2066db00304af5000000800df2c000004160000000000000010000000000267cfba1000011
:0d66fb000018000000000000001489680075
:20670800000000000000000000000000000fa00000000000000000000000000000000000c2
:20672800000000000000000000000000000000000000000000000000000000000000000051
:206748000030f52800005089ebc0200000200000000000000f00000000001c6168a5004047
:0d67680000000000000000140200d96020b5
:20677500000000000000000000a00000000000028000003729500000000000000000000032
:206795000000000000000000000000000000000000000000000002800f0000000000000053
:2067b50002daa50202000010000000000163800000001000000000000a0020644e475028a0
:0d67d50000800b701000a00742bc9a6c0001
:2067e200000000000000000000800000000000020000001c154000000000000000000000a4
:206802000000000000000000000000000000000000000000000002000780000000000000ed
:2068220000e0a101010000e00000001000c4000000002800000000000840043ae8810020e8
:0d6842000050dbb16800800be42489a00049
:20684f00000000000000000000c0020000000000000000fba81000000000000000000000b4
:20686f00000000000000000000000000000000000000000000000000000100000000000008
:20688f0004000000000010086bdc0000000025a0a000100f9f00000000001c02faa50000a6
:0d68af00000187f78000c0000606984e002b
:2068bc0000000000000000000040004000000000000000bc3d400000000000000000000003
:2068dc00000000000000000000000000000000000000000000000000000e0000000000008e
:2068fc003c0000000000080b27ec600000000500001020070b0000000000020068a1000068
:0d691c0000000fa3c000c00140248de0006a
:20692900000000010000000000000000000000000000000000000000000000000004000049
:20694900000000000000000000000000000000000000000000000000070000000000001c0b
:20696900000000000000000000000000000027cf720400000052bd4000003601f8240200fe
:0d69890000800530050a000066349a6c009d
:206996000000000200000000000001c000000000000000000000000000000000000400001a
:2069b60000000000000000000000000000000000000000000000000000800000000000023f
:2069d60000000000000030e0000000000003358ff200000000043d4600001400f025000028
:0d69f600087001829c200000002689a0008e
:206a0300000000000000000000000000000000000000010000000000000000000000000072
:206a2300000000000000000000000000000000000002000000000040000e00000000000003
:206a430004000000000001a0000000000000278e002000100052bbc840001c604eaf00001b
:0d6a630000701fbc900000000006984c0061
:206a70000000000000000000000000038000000000000d0000000000000000000000000076
:206a90000000000000000000000000000000000000000000000000400000000000000000a6
:206ab00038000000000000000000000000003d0f0100028000dabfc41001420020af000040
:0d6ad00000b08f256000000003a4cde000a1
:206add00000000000000000000000000000000000000000000000000000000000000000099
:206afd000000000000000000000000000000000000000000000000000000764900000016a4
:206b1d0000000000000001e3a3d40000000000000000098000ba3802800f003e5ca50200b0
:0d6b3d0000d0e9bf0c0000c200769a6c0089
:206b4a00000000000000000000000000000000000000090000000000000000000000000022
:206b6a000000000000000000000000000000000000000000000000000000ba0680000000cb
:206b8a0000000000000001f0c3d4800000024000000008000a7c3c000000807ed0520000b7
:0d6baa0000b0057304000000422489a00023
:206bb700000000000000000000000000000000000000010383c02000000000000000000057
:206bd700000000000000000000000000000000000000000000000000801afa8950c200006f
:206bf7000000000000000003b294080000000000000000000000000000003e0000000000ef
:0d6c17000001e000000000006706984c90ae
:206c2400000000000000000000000000000000000000080403c00000000000000000000081
:206c440000000000000000000000000000000000000000000000000000105c09800000003b
:206c64000000000000800001c284200000000000000000000000000000002c0000000000fd
:0d6c840000110000000000000424dde1000c
:206c91000000000000000000000000000000000000000000000000000000000000000000e3
:206cb1000000000000000000000000000000000000000000000000000001000000000000c2
:206cd100000000000000000000000000600380000000200800000000000020236f4750004f
:0d6cf1000000e0000000040000369a6490ee
:206cfe000000000000000000000000000000000000000d0000000000000000000000000069
:206d1e0000000000000000000000000000000000000000000000000000080000000000004d
:206d3e0000000000000000000000000000040000000010250000000000001441c981080154
:0d6d5e0020f0b00000000200002689a18096
:206d6b00000000000000383d0000000000000000010000000000000000001a0f0000000069
:206d8b0000000000000207c0000000000000000000000000000000400000b381000000208b
:206dab0006da4240800031f136940010000000000000008700b7e9400000007f6aa50000f5
:0d6dcb00000007a8100000000000000000fc
:206dd800000000000000003c000000000000000000000000000000000000000f0800000048
:206df800000000000003c3c0000000000000000000000000000000400000b6d684000004a1
:206e18002f78d100000000e5f1480010000000000000000080b7a8440000407e7aa1004078
:0d6e380000040bf1680400000000000000e1
:206e4500000028000000000000000000000000028000003ba8100a0000000000002800005e
:206e650000000000a00040049d26028000000000000001000000028000000000000a002631
:206e85007c00000028105000000000a002070000000000080ff689008000000400000028fe
:0d6ea50000040b681400000202acaf5000a6
:206eb20000002000000000000000000000000002000000383d4008000000000000200000c1
:206ed20000000000800020258f010200000000000000000000000200000000000008002e11
:206ef2006c0000002001f0000000008002440000000000091e380684000000200000002014
:0d6f120038000da894000003c0340ff000fb
:206f1f0000003000000000000000000000c0f0000005180000000000000000000000000055
:206f3f00077a958000000000000000000f0000000000000000000000018e000000000000fe
:206f5f0068df20000000b005751d0200000026cff00403800000000000401e020afa18007a
:0d6f7f0000000f78958c00006066ead020bd
:206f8c000000300000000000000000000000f00400000000000000000000000000000000c1
:206fac000782a80000000000000000000780000000000000000000000d8000000000000080
:206fcc0041dfa501000070092204800000c33f0fa21000000000000000203e3ec0f50100ab
:0d6fec0000f0e5809800000823ee05a000ed
:206ff900000000000000000000100000000000000000007aa81000002e0000000000000008
:20701900000000000000000000000040000000000000000000000000000000000000000017
:2070390064000000001a58000000000002003ce250200005009b3040004014016ea5200039
:0d70590000d185fa94000400000000000042
:20706600000000000000000000100000000000000000003c3d40100e06000000000000001d
:2070860000000000000000000000004000000000000000000000000050000000000000005a
:2070a60020000000000008000000000000401d00a0000005805730c000800231d9f7000056
:0d70c6002070b3c1540000000280000000e3
:2070d3000000000000000000000001600000000000010000000000000e036ca540000000d9
:2070f300000000000000000000000000000100000000000000000000070000000000000471
:2071130022ed4748000039e000000000000396e25520080701964000200a000000000004a1
:0d7133000019d36a88080021e014c0000094
:20714000000000000000000000000000000000000000800000000000020140aa00000000c2
:20716000000000000000000000000000000d00000000000000000000008000000000000280
:2071800042dc8100000008000000000000043c02608000000a970100000000000000000480
:0d71a00000d9df83c4000002e3ee005000c0
:2071ad000000000000000000000008000000000000000100000000000000000000000000b9
:2071cd0000000000000000000000000001805351d4400000000000000701bf01000000366b
:2071ed00040000000000380dfb0c0000000000000000000701000000000000000000000228
:0d720d008018000000000002038180f19055
:20721a000000000000000000000010000000000000000c0000000000000000000000300008
:20723a00000000000000000000000000000057204000000000000000018c3aa940000004c9
:20725a0028000000000010012308000000000000000000070a00000000000020000000017e
:0d727a000008000000000001c70000f00443
:207287000000000000c000000008000000000000000180000000000000000000000000702e
:2072a7001000000000000000000000000000000000000000000000000000fb895480009ec1
:2072c7000079c3000000100730c0080001c6b4be000000000e0000000000007a0aaf0000e2
:0d72e700027893b908000000000ecc1020c2
:2072f4000000000090000000000000000000000000000000000000000000000000000008e2
:20731400800000000000000000000000000000000000000000000000070f7809800001427f
:207334000259c100002a580701c0000001c005ef021000000000000000000c02c05f0000df
:0d73540004d887350c000001c02e0c30104d
:207361000000300078000000000000000000000000001c0283c02100000000000000008062
:2073810000000000000000000000000000000000000000000000000007013a814000008069
:2073a1007c6a2402000038000000000000620000000001238000000000000021e8f7020080
:0d73c10000189fe8c1280008000dc0000062
:2073ce00000030000800000000000000000000000000000003c00100000000000000003073
:2073ee000000000000000000000000000000000000000000000000000088fa8942000140f1
:20740e0034d01a00000008000000000001e40000000028000a0000000000004030f71000aa
:0d742e000098a742c4000010001c00508808
:02743b0000004f
:02743d0011013b
:02743f00010149
:20744100000000000000000000040000000000000000000000000000000000000002000025
:2074610000000000000080000000000000000000000000000000000000000000000000008b
:207481000000000000000000000000000000000000000000000000000000000000000000eb
:0d74a10000000000000000000000000000de
:2074ae000000000000000000000000000000000000000000000000000000000000000000be
:2074ce00000000000000b000000000000000000000000000000000000000000000000000ee
:2074ee0000000000000000000000000000000000000000000000000000000000000000007e
:0d750e000000000000000000000000000070
:20751b0000000000000000000004000000000000000000000000000000000000000100004b
:20753b00000000000000000000000000000000000000000000000000000000000000000030
:20755b00000000000000000000000000000000000000000000000000000000000000000010
:0d757b000000000000000000000000000003
:20758800000000000000000000000000000000000000000000000000000000800000000063
:2075a8000000000000000000000000000000000000000000000000000000000000000000c3
:2075c8000000000000000000000000000000000000000000000000000000000000000000a3
:0d75e8000000000000000000000000000096
:2075f5000000000000000000000800580050000000000000000000000000000000020000c4
:2076150000080000000000000000000000000000000000000000000000000000000000004d
:20763500000000000000000000000000000000000000000000000000000000000000000035
:0d7655000000000000000000000000000028
:2076620000000000000000000000000000d000000000000000000000000000000000000038
:207682000004000000000000000000000000000000000000000000000000000000000000e4
:2076a2000000000000000000000000000000000000000000000000000000000000000000c8
:0d76c20000000000000000000000000000bb
:2076cf00000000000000000000000000000000000000000000000000000100000000003c5e
:2076ef0000000000000000100000000000000000000000000000000000000000000000006b
:20770f0000000000000000000000000000000000000000000000000000000000000000005a
:0d772f00000000000000000000000000004d
:20773c00000000000000000000080000000000000000000000000000000000000000002005
:20775c0000000000000000000000000000000000000000000000000000000000000000000d
:20777c000000000000000000000000000000000000000000000000000000000000000000ed
:0d779c0000000000000000000000000000e0
:2077a9000000000000000000000000001000000000000000000000000000000000000000b0
:2077c9000000000000000000000000000000000000000000000000000000000000000000a0
:2077e900000000000000000000000000000000000000000000000000000000000000000080
:0d7809000000000000000000000000000072
:2078160000000000000000000000000000000000000000000000000003000000000000004f
:20783600000000000000300000000000000000000000000000000000000000000000000002
:20785600000000000000000000000000000000000000000000000000000000000000000012
:0d7876000000000000000000000000000005
:2078830000000000000000000000000800000000000000000000004000000f00000000008e
:2078a3000000000000000000f00000000000000000000000000000000000000000000000d5
:2078c3000000000000000000000000000000000000000000000000000000000000000000a5
:0d78e3000000000000000000000000000098
:2078f0000000000000000000000000500000000000000000000000400000010000000000e7
:207910000000000004000000d0000000000000000000000000000000000000000000000083
:20793000000000000000000000000000000000000000000000000000000000000000000037
:0d795000000000000000000000000000002a
:20795d00000000000000000000000000000000000000000000000000070000000000000003
:20797d000018000000000000000000000000000000000000000000000000000000000000d2
:20799d000000000000000000000000000000000000000000000000000000000000000000ca
:0d79bd0000000000000000000000000000bd
:2079ca0000000000000000000000000000000000000000000000004000000000000000005d
:2079ea00000000000400000000000000000000000000000000000000000000000000000079
:207a0a0000000000000000000000000000000000000000000000000000000000000000005c
:0d7a2a00000000000000000000000000004f
:207a370000000000000000000000000000000000000000000000000000000000000000002f
:207a5700040000000400000000000000000000000000000000000000000000000000000007
:207a77000000000000000000000000000000000000000000000000000000000000000000ef
:0d7a970000000000000000000000000000e2
:207aa400000000000000000000000000000000000000000000000080000000000000000042
:207ac400000000000800000000000000000000000000000000010000000000000000000099
:207ae400000000000000000000000000000000000000000000000000000000000000000082
:0d7b04000000000000000000000000000074
:207b1100000000000080000000000000000000000000100000000000004150ff0000000133
:207b310000368c020001c00000000000000000000000000000000000000000000000a0000f
:207b5100000000000000000000000000000000000000000000000000000000000000000014
:0d7b71000000000000000000000000000007
:207b7e000000000000000000000000000000000000059800000000000071caf70200000115
:207b9e00c36a8c00000200000000000000000000000000000000000000000000000000000c
:207bbe000000000000000000000000000000000000000000000000000000000000000000a7
:0d7bde00000000000000000000000000009a
:207beb0000000000000b034401002040000000000000000000000000244000b12000000092
:207c0b00ff29c8200000000000000000000000000000000000000000000000000000000049
:207c2b00000000000000000003fc82000000000000000000000000000000000000000000b8
:0d7c4b00000000000000000000000000002c
:207c58000000000000086b88090002000000000000000000000000002668dab102000000eb
:207c78001836c40000000000000000000000000000000000000000000000000000000000da
:207c9800000000000000000003fc6600000000000000000000000000000000000000000067
:0d7cb80000000000000000000000000000bf
:207cc500000000000180be8c0000004002ec52000000001a3fc00000002440ff01000001d6
:207ce50000000000000240000000000000000000000000000000000000000000000000003d
:207d050000000000000000000000000000000000000000000000000000000000000000005e
:0d7d25000000000000000000000000000051
:207d3200000000000085668c0100000005cc5000000000167dc0000006045af702000001e7
:207d5200e00000000000000000000000000000000000000000000000000000000000000031
:207d72000000000000000000000000000000000000000000000000000000000000000000f1
:0d7d920000000000000000000000000000e4
:207d9f0000000000100076c4020000000000000000000003f140000002002bf700000079a7
:207dbf0000eb900200024000000000030000000000000000000000000000000000000000e2
:207ddf00000000000000000000000000000000000000000000000000000000000000000084
:0d7dff000000000000000000000000000077
:207e0c000000000080016ec4040000000000000000038036f14000000e0059f7000000183f
:207e2c0083bf9000000203000000000000000000000000000000000000000000000000005f
:207e4c00000000000000000000000000000000000000000000000000000000000000000016
:0d7e6c000000000000000000000000000009
:207e79000000000050d003cc0000000000000000000b000000000000144010c000000200c9
:207e99000000000000140004d0308000000000000000000000000000000000000000000031
:207eb9000000000000000000000000000000000000000000000000000000000000000000a9
:0d7ed900000000000000000000000000009c
:207ee60000000000001033cc0900000000000000000d80000000000034700ec0020001580a
:207f0600000000000000000e8c0000000000000000000000000000000000000000000000c1
:207f260000000000000000000000000000000000000000000000000000000000000000003b
:0d7f4600000000000000000000000000002e
:207f530000000000700077900000094000000000000f001380c040002403c0aa010000001a
:207f7300000000000000000089600000000000000000000000000000000000000000000005
:207f93000000000000000000000000000000000000000000000000000000000000000000ce
:0d7fb30000000000000000000000000000c1
:207fc0000000000000856790000002000000000000080012700000002063dca50000000095
:207fe000000000000001e00499680400000000000000000000000000000000000000000097
:20800000000000000000000000000000000000000000000000000000000000000000000060
:0d8020000000000000000000000000000053
:20802d0000000000b00000000000002004a2100000010002a580000014001ce40000000071
:20804d000000000000014000e9600800000000000000000000000000000000000000000081
:20806d000000000000000000000000000000000000000000000000000100000000000000f2
:0d808d0000000000000000000000000000e6
:20809a000000000080a00000000001c02e884000000d805a25a8000016007de420000000a4
:2080ba0000000000000200149968000000000000000000000000000000000000000000008f
:2080da00000000000000000000000000000000000000000000000000000000000000000086
:0d80fa000000000000000000000000000079
:2081070000000400d001b40c1000000280996040000f090225811000140000000000000014
:208127000000000000000000c9604003000000000000000000000040000000000000080084
:20814700000000000000000000000000000000000000400000000000000c000000000000cc
:0d816700000000000000000000000000000b
:2081740000000400d003a7000000000046896800000d815265a00000143800000000000005
:20819400000000002001e00489680400000000000000000000000040000000000000000091
:2081b4000000000000000000000000000000000000000000000000000000000000000000ab
:0d81d400000000000000000000000000009e
:2081e100000000000100aa5800000002c2b960000000000be58800805c400000000000f119
:20820100e0000000000003c2f96008005009000000000000000000000000000000000000fe
:2082210000000000000000000000000000000000000000000000000000000000000000003d
:0d8241000000000000000000000000000030
:20824e000000000000e7a65a000000000c8968000000001a25a0000020600000000000804d
:20826e00b00000000000005c896800000009000000000000000000000000000000000000ea
:20828e000000000000000000000000000000000000000000000000000000000000000000d0
:0d82ae0000000000000000000000000000c3
:2082bb00000000000000aa5800000003c2d9620000050a0b258000003c65eaff00800008d0
:2082db00000000000003c602d9608000000800000000000000000003800000000000000074
:2082fb00000000000000000000000000000000000000000000000000000000000000000063
:0d831b000000000000000000000000000055
:20832800000000000003a25a00000000568968000008015a65a000002c257bf70000007054
:20834800000000000000079e9968000000010000000000000000000000000000000000006e
:208368000000000000000000000000000000000000000000000000000000000000000000f5
:0d83880000000000000000000000000000e8
:20839500000000000100aa580000034002f962000005000b258000003c2430e300000008f5
:2083b500f0000000000006c2d960802000000bf140200000000000000000000000000000bb
:2083d500000000000000000000000000000000000000000000000000000000000000000088
:0d83f500000000000000000000000000007b
:208402000000000000e7a25a040000000c9968000288001a25a8000020045ee3020000503e
:20842200100000000000029c99680010000032b14010000000000000000000000000000048
:2084420000000000000000000000000000000000000000000000000000000000000000001a
:0d846200000000000000000000000000000d
:20846f00000000000000aa5800000003c29962000020000ae58000001e381dc5000000b8ac
:20848f00e0368c0200002002996000000099da80c04000000000000000000000000000001b
:2084af000000000000000000000000000000000000000000000000000000000000000000ad
:0d84cf0000000000000000000000000000a0
:2084dc00000000000003a65a000001e05c9968000015805a25a800003c04cec5000000b000
:2084fc0007f28c000001c01e89680400018b32300000000000000000000000000000000019
:20851c0000000000000000000000000000000000000000000000000000000000000000003f
:0d853c000000000000000000000000000032
:208549000000000058f0a2580000024240f9600000000f0ba580000004300000000000d0b0
:208569000543fc0000014002a960800000000be58000000000000000000000000000000072
:20858900000000000280000000000000000000000000000000000000000000000000000050
:0d85a90000000000000000000000000000c5
:2085b600000000005017a65a00000200468968000005001a25a80000140400000000047885
:2085d6000f7bdc090002001c9968000000005265a0000000000000000000000000000000a0
:2085f600000000000100000000000000000000000000000000000000000000000000000064
:0d8616000000000000000000000000000057
:20862300000000009800a6580000000282c960000080080aa580000000001da3000000502d
:208643000037148000000002b960001000100b658000000000000000000000000000000021
:208663000000000001000000000000000000000000000000000000000000000000000000f6
:0d86830000000000000000000000000000ea
:20869000000000029803a65a000000001c996a0000000a5a65a800000001efa3000000808a
:2086b000057714000000029e89688000038e1225a0000000000000000000000000000000a1
:2086d000000000000205000000000000000000000000000000000000000000000000000083
:0d86f000000000000000000000000000007d
:2086fd000000000008a026580000014280a9600000000f026580000000001fb100000200a3
:20871d000323fc2000000000c960100200000b258000080000000000000000000000000007
:20873d0000000000000000000000000000000000000000000000000000000000000000001c
:0d875d00000000000000000000000000000f
:20876a00000000001800225a000014000099680000000a0265a800004000ceb1000000006e
:20878a0005b3dc00000000008968000000005225a010000000000000000000000000000023
:2087aa000000000000000000000000000000000000000000000000000000000000000000af
:0d87ca0000000000000000000000000000a2
:2087d70000000000000082584800000000096020000000082580802000301cc50000000871
:2087f700a0a68c0000e002800960200000100be58100000000000000000000000000000024
:20881700000000000000000000000000000000000000000000000000000000000000000041
:0d8837000000000000000000000000000034
:208844000000000000a5a25a001020000c8968000100005225a000440005cfc50000003819
:2088640017f28c000000005c89680400000e1265a2000000000000000000000000000000e7
:208884000000000000000000000000000000000000000000000000000000000000000000d4
:0d88a40000000000000000000000000000c7
:2088b100000000000890438c00000042dd0ff0000000007c1540040004002096000202008f
:2088d1000501b002000827810e20040000190b258000000000000000000000000000000024
:2088f100000000000000000000000000000000000000000000000000000000000000000067
:0d8911000000000000000000000000000059
:20891e00806800007885ab8c08000203bdef70200000001b29440c002001689640000400dd
:20893e000de18c0a00004386ee22200000191a25a0000000000000000000000000000000a4
:20895e000000000000000000000000000000000000000000000000000000000000000000f9
:0d897e0000000000000000000000000000ec
:20898b00800000000080ff1400000026fd053200100d900e28c000000400209600400000c2
:2089ab0080fb1c0000c02000ec500000000e0be5800000000000000000000000000000007b
:2089cb0000000000000000000000000000000000000000000000000000000000000000008c
:0d89eb00000000000000000000000000007f
:2089f800000000000011bf14000000e2808a302000050a3a28c0000026016896c0003018e1
:208a180011eb1c000000428cbc50000000015a65a0400000000000000000000000000000ac
:208a380000000000000000000000000000000000000000000000000000000000000000001e
:0d8a58000000000000000000000000000011
:208a65000b000000008343fc0000100002bb10000000180428c01000440000960000080051
:208a85000f415800000146018f72000000000b6580000000000000000000000000000000f0
:208aa5000000000000000000000000000000000000000000000000000000000000000000b1
:0d8ac50000000000000000000000000000a4
:208ad2004300000001e36bdc0800006004ab100000000f7328c8800000016896c0008200bc
:208af200002aa4080000074fbf70000000001a25a00000000000000000000000000000002a
:208b1200000000000000000000000000000000000000000000000000000000000000000043
:0d8b32000000000000000000000000000036
:208b3f00800200005000671400000800030b1000000008d42a800000000000960000000087
:208b5f0001403002040362010f30000000890b658010000000000000000000000000000051
:208b7f000000000000000000000000000000000000000000000000000000000000000000d6
:0d8b9f0000000000000000000000000000c9
:208bac0000000010d8013f14040000001dab10200000019a294000020001e896e0400000cc
:208bcc00013820080a00e041cf302080018f5a25a0000000000000000000000000000000af
:208bec00000000000000000000000000000000000000000000000000000000000000000069
:0d8c0c00000000000000000000000000005b
:208c190000000000090002c4040000028f8ff01000051054360010000020209608800550e6
:208c3900a52948000402c001ac500000000d0be580200000000000000000000000000000a5
:208c59000000000000000000000000000000000000000000000000000000000000000000fb
:0d8c790000000000000000000000000000ee
:208c86000003000079817ac408000146f6bf700000081883b908800006654896c0000ad94f
:208ca600bdb810000a02c617fc50000000011a65a0000000000000000000000000000000d4
:208cc60000000000000000000000000000000000000000000000000000000000000000008e
:0d8ce6000000000000000000000000000081
:208cf30000000000700bc3fc040003e6830a3100000f0ab43fc04400002020960000001086
:208d130005c15c0010016414bca0001000000a2580000000000000000000000000000e006c
:208d330000000000040000000000000000000000000000000000000000000000000000001c
:0d8d53000000000000000000000000000013
:208d600000000000f98bfbdc08060be3de8a3020000801d63dc0840000654896e0400081a0
:208d80008de2100800004200ac50002800005a65a010000000000000000000000000000077
:208da0000000000004000000000000000000000000000000000000000000000000000000af
:0d8dc00000000000000000000000000000a6
:208dcd0080000000f09903cc0000054342be40000201090af8c0080000000096104000105a
:208ded0000ad000000014000ae400400070d0225800000000000000000400000000000008b
:208e0d00000000000400000000000000000000000000000000000000000000000000000041
:0d8e2d000000000000000000000000000038
:208e3a000000800000bfabdc0800016047ae4000000f1b1e38c00a000001c896c04000818a
:208e5a00a5ed00000001400cee40000008010225a000000000000000000000000000020019
:208e7a000000000000000000000000000000000000000000000000000000000000000000d8
:0d8e9a0000000000000000000000000000cb
:208ea70000000000900023cc00000002818c500000050000000000000030009614000010de
:208ec700006c0c001000002ddff000000000082580c040000000000000000000000000005a
:208ee70000000000000000000000000000000000000000000000000000000000000000006b
:0d8f0700000000000000000000000000005d
:208f140000680000f8002fcc0000000614bc500000081a00000000000005c896c0000098df
:208f3400006c0c0000006025ef70000005007225a000a000000000000000000000000000e5
:208f54000000000000000000000000000000000000000000000000000000000000000000fd
:0d8f740000000000000000000000000000f0
:208f810000000000010b8154000008002ea210100000000000000c0004002096090001d057
:208fa100072bc0000000c23de720010007900eac4410000000000100009000000000002c55
:208fc100400000000000000103fc0040004002096010000000000000000000000000000055
:0d8fe1000000000000000000000000000083
:208fee00000000000083e29400000403ac98400000058a00000004002661e896c00008007f
:20900e00076fa000000b40408b110300079c7b2c4000000000000300079e000000000020b0
:20902e00780000000000000933dc0a4002001689640800000000000000000000000000003b
:0d904e000000000000000000000000000015
:20905b0000000000900000000000000002b960000000007fffc00000040020960100001938
:20907b000d40002200006340ba300000010000000000800000000000008d73b60060003c06
:20909b00380000000000000b3ffc0000004402096000000000000000000000000000000088
:0d90bb000010000000000000000000000098
:2090c8000200000000000000000000000e89680000001c96fdc0000026016896c000003003
:2090e800a970080c0042e05eea3000100f0800000000000000000000079d06f900000020b7
:2091080000000000000001ab73dc0000026216896c000000000000000000000000000000dd
:0d91280000980000000000000000000000a2
:2091350000000000008000000000000002d9600000030000000000000000009601021800ab
:209155000bc02c000002c3800e400410010012728800000000000000011f03314020002c6f
:2091750079ce2108000000a000000000000000096000000000000000000000000000000061
:0d91950000000000000000000000000000cd
:2091a2000000000000000000000000039e89680000090000000000000001e896c0000801ca
:2091c2008320380800020397ee40202800000671400000000000000007885fb140000020e2
:2091e200666884000000581000000000000016896c000000000000000000000000000000a8
:0d920200000000000000000000000000005f
:20920f00000000000100000000000002c2b960000000000000000000003c0096210000016d
:20922f00bf400800000802b70ff20020001e521c800080000000000000000b71440000806a
:20924f00400d96000000500000000000000000096000000000000000000000000000000063
:0d926f0000000000000000000000000000f2
:20927c000000000000c00000000000070e99680000010000000000000005e896c080000038
:20929c00a1e02808000407fe8f702400019e036c4840000000000000078077714800004048
:2092bc0039e996810000d8000000000000001e896c0000000000000000000000000000006e
:0d92dc000000000000000000000000000085
:2092e900000000007005ac0c020001c402996010000009000000000002202096210000194b
:209309000038cc000003602d0ff000000000000000000000000000000f00003cc4000000a2
:20932900000d96008000000000000000000202096000000000000000000000000000000094
:0d9349000000000000000000000000000017
:2093560000000000800fa300000000079e896800000001000000000004054896e04010d146
:209376008064cc000001c604cf7020000000000000000a00000000000b00063cc080000066
:2093960000e896800000000000000000006654896c0000000000000000000000000000000a
:0d93b60000000000000000000000000000aa
:2093c3000000000000d0be58020000040299600000000d3bc0c404000020209601000000fc
:2093e3000f224c000000041cdca200201580043940000c000000000001000bf140000000d4
:20940300002c960000000000000000c000020209600000000000000000000000000000005a
:0d942300000000000000100000000000002c
:20943000000000001011a65a000000078e996800000001d230020c0000654896c000000051
:2094500007ee700000000280fc5000000d0013394080600000000000080017714010000070
:2094700000e9968800000000000000c0000654896c000000000000000000000000000000c6
:0d94900000000000000010000000000000bf
:20949d0000000000f9003a5800000003c0996010000000032580080000000096090000d930
:2094bd00072800000001c0000e400200051e02ac4000000000000200010000000000001c1f
:2094dd00000f9610000008000000008000c0000960000000000000000000000000000020e9
:0d94fd000000000258000000000000000008
:20950a00000000001185225a040001c6c09968000000003a25a00a000001c896c00000502b
:20952a00a76c200000020007ce402280080a77ac4000000000000280080000000000000036
:20954a0000e8968000001800000000a002001c896c00000000000000000000000000002810
:0d956a000000072259000000000000000072
:209577000000000000003e5810000000000960200000000325830000000000961440000010
:20959700803f3000000347dd8ff200000000f24c2040000000000010001efa4c20300000bb
:2095b700000f961400005000000000000000000960400000000000000000000000000000e2
:0d95d700000000025810000000000000001d
:2095e400000000000001a65a200000078689680000001e3a65a001000101c896c80010181a
:20960400106b300000080397df70080005807bcd1200000000000020001e3a8d10000000ae
:2096240001e99680000000000000000800001c896c0000000000000000000000000000000d
:0d964400000007225b000000000000000095
:209651000040000000003a582000002281aa3080000980036580040044002096000001009a
:2096710090728c2010002400dc900010078b0be8c0000000000000000f000ba8c020000094
:209691002c2c960002005000000000c00060020960000000000000000000000000000000ee
:0d96b10000100082580000000000000000c2
:2096be00802800000005a25a000000e01dda30000001007225a04d002061e896c0800870a0
:2096de0011628c001001e287dc9000200b805f68c040000000000001811e1fe8c0000000ae
:2096fe0000e9968000007000000000c003661e896c00000000000000000000680000000039
:0d971e00008187a25b000000000000000039
:20972b0080340000f0d03258000004020000000000000003a58040000400009620000050a8
:20974b0000c28c240003401e055000001008027c4000a040000000000700f340c000002600
:20976b00400f9600000200000000000000400209600000000000000000001402cf52000015
:0d978b0000100082580000000000000000e7
:20979800000000009005a25a0100c940400000000007005265a0000026016896c001018011
:2097b800e56a8c080000002daa51000001017e7c40400000000000000800ba700030a00404
:2097d80079c896800001000000000000026016896c0000000000000000a00003ddf000003c
:0d97f800009805a25b0000000000000000ca
:209805000b0000000000ba58040003e24000000000000002658020002400009600040158df
:2098250000a744200003440cb21080004d08f43fc0000000000000000f080aa582000842a9
:20984500242f9600000000a0000000000000000960000000000000000000002800000000e9
:0d986500000000025800000000000000009c
:209872004f0000000001a25a00000040000000000000007225a0000000016896e04032982a
:2098920081f744000000070c8840000020005b3dc0800000000000000d007a65a000001487
:2098b20000e99681000001b000000000000016896c00200000000000000096040000000020
:0d98d200000005a25b000000000000000087
:2098df0080020000f0003a58040002e0070ff08000009002e58020000038009608400000cc
:2098ff00056ffc00002166c2f9600000000e03b148400e8000000040000002e580000c3c70
:20991f00000e9600040000a701400000000200096080000000000000000000024035000036
:0d993f0000000002580000000000000000c1
:20994c00000080008007225a0000624004ef70200007085225a000000005e896e000005872
:20996c0003fbdc20000343949968001007801eb1400000000000000001003225a040003eea
:20998c0001c8968100000009ea94010000001e896c00000000000000020014020c3a028060
:0d99ac00000007a25b0000000000000000aa
:2099b90000400000b0003a58800012e40cbf300000000002258020001c00209608000000fa
:2099d900a083c4000007400299600000079000000000000000000000071003258200000ce1
