:02000000ff00ff
:080002004c6174746963650030
:17000a00694345637562653220323031372e30382e32373934300069
:15002100506172743a2069434534304c50384b2d434d3831003f
:1b003600446174653a2046656220323420323032302031363a30333a34390095
:0200510000ffae
:040053007eaa997e6a
:02005700510056
:0200590001059f
:03005b00920020f0
:03005e00620367d3
:0300610072011019
:0300640082000017
:02006700110086
:02006900010193
:20006b00000000000000000000000000000000001000000000000000000000000000000065
:20008b00000000000000000000000000000000000000000000000000000000000000000055
:2000ab00000000000000000000000000000000000000000000000000000000000000000035
:0d00cb000000000000000000000000000028
:2000d800000000000000000000000000000000000000000000000000000000000000000008
:2000f8000000000000000000000000000000000000000000000000000000000000000000e8
:200118000000000000000000000000000000000000000000000000000000000000000000c7
:0d01380000000000000000000000000000ba
:2001450000000000000000000000000000000000100000000000000000000000000000008a
:2001650000000000000000000000000000000000000000000000000000000000000000007a
:2001850000000000000000000000000000000000000000000000000000000000000000005a
:0d01a500000000000000000000000000004d
:2001b20000000000000000000000000000000000000000000000000000000000000000002d
:2001d20000000000000000000000000000000000000000000000000000000000000000000d
:2001f2000000000000000000000000000000000000000000000000000000000000000000ed
:0d02120000000000000000000000000000df
:20021f0000000000000000000000000000000000200000020000000000000000000000009d
:20023f0000000000000000000000000000000000000000000000000000000000000000009f
:20025f0000000000000000000000000000000000000000000000000000000000000000007f
:0d027f000000000000000000000000000072
:20028c000000000000000000000000000000000000000001c0000000000000000000000091
:2002ac00000000000000000000000000000000000000000000000000000000000000000032
:2002cc00000000000000000000000000000000000000000000000000000000000000000012
:0d02ec000000000000000000000000000005
:2002f900000000000000000000000000000000000000c040000000000000000000000000e5
:200319000000000000000000000000000000000000000000000000000000000000000000c4
:200339000000000000000000000000000000000000000000000000000000000000000000a4
:0d0359000000000000000000000000000097
:20036600000000000000000000000000000000002000000000000000000000000000000057
:20038600000000000000000000000000000000000000000000000000000000000000000057
:2003a600000000000000000000000000000000000000000000000000000000000000000037
:0d03c600000000000000000000000000002a
:2003d3000000000000000000000000000000000000000040000000000000000000000000ca
:2003f3000000000000000000000000000000000000000000000000000000000000000000ea
:200413000000000000000000000000000000000000000000000000000000000000000000c9
:0d04330000000000000000000000000000bc
:20044000000000000000000000000000000000000000c000000000000000000000000000dc
:2004600000000000000000000000000000000000000000000000000000000000000000007c
:2004800000000000000000000000000000000000000000000000000000000000000000005c
:0d04a000000000000000000000000000004f
:2004ad00000000000000000000000000000000001000c001c000000000000000000000009e
:2004cd0000000000000000000000000000000000000000000000000000000000000000000f
:2004ed000000000000000000000000000000000000000000000000000000000000000000ef
:0d050d0000000000000000000000000000e1
:20051a00000000000000000000000000000000001000000140000000000000000000000070
:20053a000000000000000000000000000000000000000000000000000000000000000000a1
:20055a00000000000000000000000000000000000000000000000000000000000000000081
:0d057a000000000000000000000000000074
:20058700000000000000000000000000000000000001e00000000000000000000000000073
:2005a700000000000000000000000000000000000000000000000000000000000000000034
:2005c700000000000000000000000000000000000000000000000000000000000000000014
:0d05e7000000000000000000000000000007
:2005f4000000000000000000000000000000000010002000000000000000000000000000b7
:200614000000000000000000000000000000000000000000000000000000000000000000c6
:200634000000000000000000000000000000000000000000000000000000000000000000a6
:0d0654000000000000000000000000000099
:20066100000000000000000000000000000000000000000000000000000000000000000079
:20068100000000000000000000000000000000000000000000000000000000000000000059
:2006a100000000000000000000000000000000000000000000000000000000000000000039
:0d06c100000000000000000000000000002c
:2006ce000000000000000000000000000000000020000000000000000000000000000000ec
:2006ee000000000000000000000000000000000000000000000000000000000000000000ec
:20070e000000000000000000000000000000000000000000000000000000000000000000cb
:0d072e0000000000000000000000000000be
:20073b0000000000000000000000000000000000000000000000000000000000000000009e
:2014db004600000000000000000000000000000000000000000000000000000000000000ab
:2014fb000000000000000000000000000000000000000000000000000000000000000000d1
:20151b000000000000000000000000000000000000000000000000000000000000000000b0
:0d153b0000000000000000000000000000a3
:20154800000100000000000000000000000000000000000000000000000000000000000082
:20156800000000000000000000000000000000000000000000000000000000000000000063
:20158800000000000000000000000000000000000000000000000000000000000000000043
:0d15a8000000000000000000000000000036
:2015b500000000000000000000000000000000000000000000000000000000000000000016
:2015d5000000000000000000000000000000000000000000000000000000000000000000f6
:2015f500000000000000000000000000000000000000400000000000000000000000000096
:0d16150000000000000000000000000000c8
:20162200800000000000000000002000000000000000000000000000000000000000000008
:20164200000000000000000000000000000000000000000000000000000000000000000088
:20166200000000000000000000000000000000000000000000000000000000000000000068
:0d168200000000000000000000000000005b
:20168f008d00000000000000000000000000000000000000000000000000000000000000ae
:2016af0000000000000000000000000000000000000000000000000000000000000000001b
:2016cf000000000000000000000000000000000000000000000000000000000000000000fb
:0d16ef0000000000000000000000000000ee
:2016fc000b00000000000000000000000000000000000000000000000000000000000000c3
:20171c000000000000000000000000000000000000000000000000000000000000000000ad
:20173c0000000000000000000000000000000000000000000000000000000000000000008d
:0d175c000000000000000000000000000080
:20176900002800000000000000000000000000000000000000000000000000000000000038
:20178900000000000000000000000000000000000000000000000000000000000000000040
:2017a900000000000000000000000000000000000000000000000000000000000000000020
:0d17c9000000000000000000000000000013
:2017d6000040000000000000000000000000000000000000000000000000000000000000b3
:2017f6000000000000000000000000000000000000000000000000000000000000000000d3
:201816000000000000000000000000000000000000000000000000000000000000000000b2
:0d18360000000000000000000000000000a5
:20184300000000000000000000000000000000000000000000000000000000000000000085
:20186300000000000000000000000000000000000000000000000000000000000000000065
:20188300000000000000000000000000000000000000000000000000000000000000000045
:0d18a3000000000000000000000000000038
:2018b000000200000000000000000000000000000000000000000000000000000000000016
:2018d0000000000000000000000000000000000000000000000000000000000000000000f8
:2018f0000000000000000000000000000000000000000000000000000000000000000000d8
:0d19100000000000000000000000000000ca
:20191d000000000000000000000000000000000000000000000000000000000000000000aa
:20193d0000000000100000000000000000000000000000000000000000000000000000007a
:20195d0000000000000000000000000000000000000000000000000000000000000000006a
:0d197d00000000000000000000000000005d
:20198a0000000000000000000000000000000000000000000000000000000000000000003d
:2019aa0000000000100000000000000000000000000000000000000000000000000000000d
:2019ca000000000000000000000000000000000000000000000000000000000000000000fd
:0d19ea0000000000000000000000000000f0
:2019f7000030000000000000000000000000000000000000000000000000000000000000a0
:201a17000000000000000000000000000000000000000000000000000000000000000000af
:201a370000000000000000000000000000000000000000000000000000000000000000008f
:0d1a57000000000000000000000000000082
:201a640000000000040000000000000000000000000000000000000000000000000000005e
:201a8400000000000000000000000000000000000000000000000000000000000000000042
:201aa400000000000000000000000000000000000000000000000000000000000000000022
:0d1ac4000000000000000000000000000015
:201ad1000000000000000000000000000000000000000000000000000000000000000000f5
:201af1000000000000000000000000000000000000000000000000000000000000000000d5
:201b11000000000000000000000000000000000000000000000000000000000000000000b4
:0d1b310000000000000000000000000000a7
:201b3e00000000000000000000000000000000000000000000000000000000000000000087
:201b5e00000000000000000000000000000000000000000000000000000000000000000067
:201b7e00000000000000000000000000000000000000000000000000000000000000000047
:0d1b9e00000000000000000000000000003a
:201bab0000000000000000000000000000000000000000000000000000000000000000001a
:201bcb000000000000000000000000000000000000000000000000000000000000000000fa
:201beb000000000000000000000000000000000000000000000000000000000000000000da
:0d1c0b0000000000000000000000000000cc
:201c18000000000000000000000000000000000000000000000000000000000000000000ac
:201c380000000000000000000000000000000000000000000000000000000000000000008c
:201c580000000000000000000000000000000000000000000000000000000000000000006c
:0d1c7800000000000000000000000000005f
:201c850000000000000000000000000000000000000000000000000000000000000000003f
:201ca50000000000000000000000000000000000000000000000000000000000000000001f
:201cc5000000000000000000000000100000000000000000000000000000000000000000ef
:0d1ce50000000000000010000000000000e2
:201cf2000000000000000000000000000000000000000000000000000000000000000000d2
:201d12000000000000000000000000000000000000000000000000000000000000000000b1
:201d3200000000000000000000000000000000000000000000000000000000000000000091
:0d1d52000000000000000000000000000084
:201d5f00000000000000000000000000000000000000000000000000000000000000000064
:201d7f00000000000000000000000000000000000000000000000000000000000000000044
:201d9f00000000000000000000000000000000000000000000000000000000000000000024
:0d1dbf000000000000000000000000000017
:201dcc000000000000000000000000000000000000000000000000000000000000000000f7
:201dec000000000000000000000000000000000000000000000000000000000000000000d7
:201e0c000000000000000000000000000000000000000000000000000000000000000000b6
:0d1e2c0000000000000000000000000000a9
:201e3900000000000000000000000000000000000000000000000000000000000000000089
:201e5900000000000000000000000000000000000000000000000000000000000000000069
:201e7900000000000000000000000000000000000000000000000000000000000000000049
:0d1e9900000000000000000000000000003c
:201ea60000000000000000000000000000000000000000000000000000000000000000001c
:201ec6000000000000000000000000000000000000000000000000000000000000000000fc
:201ee6000000000000000000000000000000000000000000000000000000000000000000dc
:0d1f060000000000000000000000000000ce
:201f13000000000000000000000000000000000008000000000000000000000000000000a6
:201f330000000000000000000000000000000000000000000000000000000000000000008e
:201f530000000000000000000000000000000000000000000000000000000000000000006e
:0d1f73000000000000000000000000000061
:201f8000000000000000000000000000000000000000000000000000000000000000000041
:201fa000000000000000000000000000000000000000000000000000000000000000000021
:201fc000000000000000000000000000000000000000000000000000000000000000000001
:0d1fe00000000000000000000000000000f4
:201fed000000010000000000000000000000000000000000000000000000000000000000d3
:20200d000000000000000000000000000000000000000000000000000000000000000000b3
:20202d00000000000000000000000000000000000000000000000000000000000000000093
:0d204d000000000000000000000000000086
:20205a00000002000000000000000000000000000000000000000000000000000000000064
:20207a00000000000000000000000000000000000000000000000000000000000000000046
:20209a00000000000000000000000000000000000000000000000000000000000000000026
:0d20ba000000000000000000000000000019
:2020c7000000000000000000000000000000000000000000000000000000000000000000f9
:2020e7000000000000000000000000000000000000000000000000000000000000000000d9
:202107000000000000000000000000000000000000000000000000000000000000000000b8
:0d21270000000000000000000000000000ab
:20213400080000000000000000000000000000000000000000000000010000000000000082
:2021540000000000000000000000000000000000000000000000000000000000000000006b
:2021740000000000000000000000000000000000000000000000000000000000000000004b
:0d219400000000000000000000000000003e
:2021a10000000000000000000000000000000000000000000000000000000000000000001e
:2021c1000000000000000000000000000000000000000000000000000000000000000000fe
:2021e1000000000000000000000000000000000000000000000000000000000000000000de
:0d22010000000000000000000000000000d0
:20220e000000000000000000000000100000000000000000000000000000000000000000a0
:20222e00000000000000000000000000000000000000000000000000000000000000000090
:20224e00000000000000000000000000000000000000000000000000000000000000000070
:0d226e000000000000000000000000000063
:20227b004000000000000000000000000000000040000000000000000000000000000000c3
:20229b00000000000000000000000000000000000000000000000000000000000000000023
:2022bb00000000000000000000000000000000000000000000000000000000000000000003
:0d22db0000000000000000000000000000f6
:2022e800000000000000000000000000000000004000000000000000000000000000000096
:202308000000000000000000000000000000000000000000000000000000000000000000b5
:20232800000000000000000000000000000000000000000000000000000000000000000095
:0d2348000000000000000000000000000088
:20235500000000000000000000000000000000000000000000000000000000000000000068
:20237500000000000000000000000000000000000000000000000000000000000000000048
:20239500000000000000000000000000000000000000000000000000000000000000000424
:0d23b500000000000000000000000000001b
:2023c20080000000000000000000000000000000000000000000000000000000000000007b
:2023e2000000000000000000000000000000000000000000000000000000000000000000db
:202402000000000000000000000000000000000000000000000000000000000000000000ba
:0d24220000000000000000000000000000ad
:20242f008a0000000000000000000000000000000000000000000000000000000000000003
:20244f0000000000000000000000000000000000000000000000000000000000000000006d
:20246f0000000000000000000000000000000000000000000000000000000000000000004d
:0d248f000000000000000000000000000040
:20249c008e0000000000000000000000000000000000000000000000000000000000000092
:2024bc00000000000000000000000000000000000000000000000000000000000000000000
:2024dc000000000000000000000000000000000000000000000000000000000000000000e0
:0d24fc0000000000000000000000000000d3
:202509000000000000000000000000000000000000000000000000000000000000000000b2
:20252900000000000000000000000000000000000000000000000000000000000000000092
:20254900000000000000000000000000000000000000000000000000000000000000000072
:0d2569000000000000000000000000000065
:20257600003000000000000000000000000000000000000000000100000000000000000014
:20259600000000000000000000000000000000000000000000000000000000000000000025
:2025b600000000000000000000000000000000000000000000000000000000000000000005
:0d25d60000000000000000000000000000f8
:2025e3000004000000000000000000000000000000000000000000000000000000000000d4
:202603000000000000000000000000000000000000000000000000000000000000000000b7
:20262300000000000000000000000000000000000000000000000000000000000000000097
:0d264300000000000000000000000000008a
:20265000002a00000000000000000000000000000000000000000000000000000000000040
:2026700000000000000000000000000000000000000000000000000000000000000000004a
:2026900000000000000000000000000000000000000000000000000000000000000000002a
:0d26b000000000000000000000000000001d
:2026bd000000000000000000000000000000000000000000000000000000000000040000f9
:2026dd000000000000000000000000000000000000000000000000000000000000000000dd
:2026fd000000000000000000000000000000000000000000000000000000000000000000bd
:0d271d0000000000000000000000000000af
:20272a0000000000000000000000000000000000000000000000000000000000000000008f
:20301b00000000000000000000000000000000004000000000000000000000000000000055
:20303b00000000000000000000000000000000000000000000000000000000000000000075
:20305b00000000000000000000000000000000000000000000000000000000000000000055
:0d307b000000000000000000000000000048
:203088000000000000000000000000000000000040000000000000000000000000000000e8
:2030a800000000000000000000000000000000000000000000000000000000000000000008
:2030c8000000000000000000000000000000000000000000000000000000000000000000e8
:0d30e80000000000000000000000000000db
:2030f5000000000000000000000000000000000000000000000000000000000000000000bb
:2031150000000000000000000000000000000000000000000000000000000000000000009a
:20313500000000000000000000000000000000000000000000000000000000000000000476
:0d315500000000000000000000000000006d
:2031620000000000000000000000400000000000000000000000000000000000000000000d
:2031820000000000000000000000000000000000000000000000000000000000000000002d
:2031a20000000000000000000000000000000000000000000000000000000000000000000d
:0d31c2000000000000000000000000000000
:2031cf000000000000000000000000000000000000000000000000000000000000000000e0
:203a5300000000000000000000000000000000004000000000000000000000000000000013
:203a7300000000000000000000000000000000000000000000000000000000000000000033
:203a9300000000000000000000000000000000000000000000000000000000000000000013
:0d3ab3000000000000000000000000000006
:203ac0000000000000000000000000000000000040000000000000000000000000000000a6
:203ae0000000000000000000000000000000000000000000000000000000000000000000c6
:203b00000000000000000000000000000000000000000000000000000000000000000000a5
:0d3b20000000000000000000000000000098
:203b2d00000000000000000000000000000000000000000000000000000000000000000078
:203b4d00000000000000000000000000000000000000000000000000000000000000000058
:203b6d00000000000000000000000000000000000000000000000000000000000000000434
:0d3b8d00000000000000100000000000001b
:203b9a0000000000000000000000000000000000000000000000000000000000000000000b
:203bba000000000000000000000000000000000000000000000000000000000000000000eb
:203bda000000000000000000000000000000000000000000000000000000000000000000cb
:0d3bfa0000000000000000000000000000be
:203c070000000000000000000000000000000000000000000000000000000000000000009d
:203c270000000000000000000000000000000000000000000000000000000000000000007d
:203c470000000000000000000000000000000000000000000000000000000000000000005d
:0d3c67000000000000000000000000000050
:203c7400000000000000000000000000000000000000000000000000000000000000000030
:203c9400000000000000000000000000000000000000000000000000000000000000000010
:203cb4000000000000000000000000000000000000000000000000000000000000000000f0
:0d3cd40000000000000000000000000000e3
:203ce1000000000000000000000000000000000000000000000001000000000000000000c2
:203d01000000000000000000000000000000000000000000000000000000000000000000a2
:203d2100000000000000000000000000000000000000000000000000000000000000000082
:0d3d41000000000000000000000000000075
:203d4e00000000000000000000000000000000000000000000000100000000000000000054
:203d6e00000000000000000000000000000000000000000000000000000000000000000035
:203d8e00000000000000000000000000000000000000000000000000000000000000000015
:0d3dae000000000000000000000000000008
:203dbb000000000000000000000000000000000000000000000000000000000000000000e8
:203ddb000000000000000000000000000000000000000000000000000000000000000000c8
:203dfb000000000000000000000000000000000000000000000000000000000000000000a8
:0d3e1b00000000000000000000000000009a
:203e280000000000000000000000000000000000000000000000000000000000000000007a
:203e480000000000000000000000000000000000000000000000000000000000000000005a
:203e680000000000000000000000000000000000000000000000000000000000000000003a
:0d3e8800000000000000000000000000002d
:203e950000000000000000000000000000000000000000000000000000000000000000000d
:203eb5000000000000000000000000000000000000000000000000000000000000000000ed
:203ed5000000000000000000000000000000000000000000000000000000000000000000cd
:0d3ef50000000000000000000000000000c0
:203f020000000000000000000000000000000000000000000000000000000000000000009f
:203f220000000000000000000000000000000000000000000000000000000000000000007f
:203f420000000000000000000000000000000000000000000000000000000000000000005f
:0d3f62000000000000000000000000000052
:203f6f00000000000000000000000000000000000000000000000000000000000000000032
:203f8f00000000000000000000000000000000000000000000000000000000000000000012
:203faf000000000000000000000000000000000000000000000000000000000000000000f2
:0d3fcf0000000000000000000000000000e5
:203fdc000000000000000000000000000000000000000000000000000000000000000000c5
:203ffc000000000000000000000000000000000000000000000000000000000000000000a5
:20401c00000000000000000000000000000000000000000000000000000000000000000084
:0d403c000000000000000000000000000077
:20404900000000000000000000000000000000004000000000000000000000000000000017
:20406900000000000000000000000000000000000000000000000000000000000000000037
:20408900000000000000000000000000000000000000000000000000000000000000000017
:0d40a900000000000000000000000000000a
:2040b6000000000000000000000000000000000000000000000000000000000000000000ea
:2040d6000000000000000000000000000000000000000000000000000000000000000000ca
:2040f6000000000000000000000000000000000000000000000000000000000000000000aa
:0d411600000000000000000000000000009c
:2041230000000000000000000000000000000000000000000000000000000000000000007c
:2041430000000000000000000000000000000000000000000000000000000000000000005c
:2041630000000000000000000000000000000000000000000000000000000000000000003c
:0d418300000000000000000000000000002f
:2041900000000000000000000000000000000000000000000000000000000000000000000f
:2041b0000000000000000000000000000000000000000000000000000000000000000000ef
:2041d0000000000000000000000000000000000000000000000000000000000000000000cf
:0d41f00000000000000000000000000000c2
:2041fd0000000000000000000000000000000000040000000000001000000000000040004e
:20421d0000000000000000000000000400000000000000000000000000000000000000007d
:20423d0000000000000000000000000000000000000004000000000000000000000000005d
:0d425d004000000000000100000000000013
:20426a00000000000000000000000000000000000000000000000000000000000000000034
:20428a00000000000000000000000000000000000000000000000000000000000000000014
:2042aa000000000000000000000000000000000000000000000000000000000000000000f4
:0d42ca0000000000000000000000000000e7
:204b7b0000000000000000000000008000000000000000000000000000000000000000009a
:204b9b000000000000000000000000000000000000000000000000000000000000000000fa
:0d4bbb0000000000000000000000000000ed
:204bc8000000000000000000000000000000000000000000000000000000000000000000cd
:204be8000000000000000000000000000000000000000000000000000000000000000000ad
:204c080000000000000000000000000000000000000000000000000000000000000000008c
:0d4c2800000000000000000000000000007f
:204c350000000000000000000000000000000000000000000000000000000000000000005f
:204c550000000000000000000000000000000000000000000000000000000000000000003f
:204c750000000000000000000000000000000000000000000000000000000000000000001f
:0d4c95000000000000000000000000000012
:204ca2000000000000000000000000000000000000000000000000000000000000000000f2
:204cc2000000000000000000000000000000000000000000000000000000000000000000d2
:204ce2000000000000000000000000000000000000000000000000000000000000000000b2
:0d4d020000000000000000000000000000a4
:204d0f00000000000000000000000000000000004000000000000000000000000000000044
:204d2f00000000000000000000000000000000000000000000000000000000000000000064
:204d4f00000000000000000000000000000000000000000000000000000000000000000044
:0d4d6f000000000000000000000000000037
:204d7c000000000000000000000000000000000040000000000000000000000000000000d7
:204d9c000000000000000000000000000000000000000000000000000000000000000000f7
:204dbc000000000000000000000000000000000000000000000000000000000000000000d7
:0d4ddc0000000000000000000000000000ca
:204de9000000000000000000000000000000000000000000000000000000000000000000aa
:204e0900000000000000000000000000000000000000000000000000000000000000000089
:204e2900000000000000000000000000000000000000000000000000000000000000000069
:0d4e4900000000000000000000000000005c
:204e560000000000000000000000000000000000000000000000000000000000000000003c
:204e760000000000000000000000000000000000000000000000000000000000000000001c
:204e96000000000000000000000000000000000000000000000000000000000000000000fc
:0d4eb60000000000000000000000000000ef
:204ec30000000000000000000000e0000000000000000000000000000000000000000000ef
:204ee3000000000000000000000000000000000000000000000000000000000000000000af
:204f030000000000000000000000000000000000000000000000000000000000000000008e
:0d4f23000000000000000000000000000081
:204f3000000000000000000000000000000000000000000000000000000000000000000061
:204f5000000000000000000000000000000000000000000000000000000000000000000041
:204f7000000000000000000000000000000000000000000000000000000000000000000021
:0d4f90000000000000000000000000000014
:204f9d000000000000000000000000000000000000000000000000000000000000000000f4
:204fbd000000000000000000000000000000000000000000000000000000000000000000d4
:204fdd000000000000000000000000000000000000000000000000000000000000000000b4
:0d4ffd0000000000000000000000000000a7
:20500a00000000000000000000000000000000000000000000000000000000000000000086
:20502a000000000000800000000000000000000000000000000000000000000000000000e6
:20504a00000000000000000000000000000000000000000000000000000000000000000046
:0d506a000000000000000000000000000039
:20507700000000000000000000000000000000000000000000000000000000000000000019
:205097000000000000000000000000000000000000000000000000000000000000000000f9
:2050b7000000000000000000000000000000000000000000000000000000000000000000d9
:0d50d70000000000000000000000000000cc
:2050e4000000000000000000000000000000000000000000000000000000000000000000ac
:2051040000000000000000000000000000000000000000000000000000000000000000008b
:2051240000000000000000000000000000000000000000000000000000000000000000006b
:0d514400000000000000000000000000005e
:2051510000000000000000000000000000000000000000000000000000000000000000003e
:2051710000000000001400000000000000000000000000000000000000000000000000000a
:205191000000000000000000000000000000000000000000000000000000000000000000fe
:0d51b10000000000000000000000000000f1
:2051be000000000000000000000000000000000000000000000000000000000000000000d1
:2051de000000000000080000000000000000000000000000000000000000000000000000a9
:2051fe00000000000000000000000000000000000000000000000000000000000000000091
:0d521e000000000000000000000000000083
:20522b00000000000000000000000000000000000000000000000000000000000000000063
:20524b00000000000000000000000000000000000000000000000000000000000000000043
:2056ad000000000000000000000000000000000000000000000000000000000000000004d9
:0d56cd0000000000000000000000000000d0
:2056da000000000000000000000000000000000000000000000000000000000000000000b0
:2056fa00000000000000000000000000000000000000000000000000000000000000000090
:20571a0000000000000000000000000000000000000000000000000000000000000000006f
:0d573a000000000000000000000000000062
:20574700000000000000000000000000000000000000000000000000000000000000000042
:20576700000000000000000000000000000000000000000000000000000000000000000022
:20578700000000000000000000000000000000000000000000000000000000000000000002
:0d57a70000000000000000000000000000f5
:2057b4000000000000000000000000000000000000000000000000000000000000000000d5
:2057d4000000000000000000000000000000000000000000000000000000000000000000b5
:2057f400000000000000000000000000000000000000000000000000000000000000000095
:0d5814000000000000000000000000000087
:20582100000000000000000000000000000000004000000000000000000000000000000027
:20584100000000000000000000000000000000000000000000000000000000000000000047
:20586100000000000000000000000000000000000000000000000000000000000000000027
:0d588100000000000000000000000000001a
:20588e000000000000000000000000000000000040000000000000000000000000000000ba
:2058ae000000000000000000000000000000000000000000000000000000000000000000da
:2058ce000000000000000000000000000000000000000000000000000000000000000000ba
:0d58ee0000000000000000000000000000ad
:2058fb0000000000000000000000000000000000000000000000000000000000000000008d
:20591b0000000000000000000000000000000000000000000000000000000000000000006c
:20593b0000000000000000000000000000000000000000000000000000000000000000004c
:0d595b00000000000000000000000000003f
:2059680000000000000000000000000000000000000000000000000000000000000000001f
:205988000000000000000000000000000000000000000000000000000000000000000000ff
:2059a8000000000000000000000000000000000000000000000000000000000000000000df
:0d59c80000000000000000000000000000d2
:2059d5000000000000000000000000000000000000000000000000000000000000000000b2
:2059f500000000000000000000000000000000000000000000000000000000000000000092
:205a1500000000000000000000000000000000000000000000000000000000000000000071
:0d5a35000000000000000000000000000064
:205a4200000000000000000000000000000000000000000000000000000000000000000044
:205a6200000000000000000000000000000000000000000000000000000000000000000024
:205a8200000000000000000000000000000000000000000000000000000000000000000004
:0d5aa20000000000000000000000000000f7
:205aaf000000000000000000000000000000000000000000000000000000000000000000d7
:205acf000000000000000000000000000000000000000000000000000000000000000000b7
:205aef00000000000000000000000000000000000000000000000000000000000000000097
:0d5b0f000000000000000000000000000089
:205b1c00000000000000000000000000000000000000000000000000000000000000000069
:205b3c00000000000000000000000000000000000000000000000000000000000000000049
:205b5c00000000000000000000000000000000000000000000000000000000000000000029
:0d5b7c00000000000000000000000000001c
:205b89000000000000000000000000000000000000000000000000000000000000040000f8
:205ba9000000000000000000000000000000000000000000000000000000000000000000dc
:205bc9000000000000000000000000000000000000000000000000000000000000000000bc
:0d5be90000000000000000000000000000af
:205bf60000000000000000000000000000000000000000000000000000000000000400008b
:205c160000000000000000000000000000000000000000000000000000000000000000006e
:205c360000000000000000000000000000000000000000000000000000000000000000004e
:0d5c56000000000000000000000000000041
:205c6300000000000000000000000000000000000000000000000000000000000000000021
:0d609800000080000000000000000000007b
:2060a5000000000000000000000000000000000000000000000000000100000000000000da
:2060c5000000000000000000000000000000000000000000000000000000000000000000bb
:2060e500000000000000000000000000000000000000000000000000000000000000002873
:0d610500008000000000a00000000000006d
:2061120000000000000000000000000000000000000000000000000000000000000000006d
:206132000000000000c000000000000000000000000000000000000000000000000000008d
:2061520000000000000000000000000000000000000000000000000000000000000000200d
:0d61720000f00000000080000000000000b0
:20617f000000000000000000000000000000000000000000000000000000000000000058a8
:20619f000000000000000000000000000000000000000000000000000000000000000000e0
:2061bf000000000000000000000000000000000000000000000000000000000000000010b0
:0d61df00000000000000c0000000000000f3
:2061ec0000000000000000000000000000000000000000000000000000000000000000088b
:20620c00000000000000000000000000000000000000000000000000000000000000000072
:20622c00000000000000000000000000000000000000000000000000000000000000001042
:0d624c000000000000004000000000000005
:206259000000000000000000000000000000000000004000000000000000000000000000e5
:206279000000000000000000000000400000000000000000000000000000000000000000c5
:206299000000000000000000000000000000000000000000000000000000000000000000e5
:0d62b9000090000000000002000000000046
:2062c6000000000000000000000000000000000000000000000000000000000000000000b8
:2062e600000000000000000000000040000000000000000000000000000000000000000058
:20630600000000000000000000000000000000000000000000000000000000000000000077
:0d6326000018000000000001400000000011
:2063330000000000000000000000000000000000000000000000000000000000000000004a
:2063530000000000000000000000000000000000000000000000000000000000000000002a
:2063730000000000000000000000000000000000000000000000000000000000000000000a
:0d639300000005f529a000000040000000fa
:2063a0000000000000000000000000000000000000000000000000000000000000000000dd
:2063c0000000000000000000000000000000000000000000000000000000000000000000bd
:2063e00000000000000000000000000000000000000000000000000000000000000000009d
:0d64000000000021288500000300000000be
:20640d0000000000000000000000000000000000000000000000000000000000000000006f
:20642d0000000000000000000000000000000000000000000000000000000000000000004f
:20644d00000000000000000000000000000000000000280000000000010000000000000006
:0d646d00005809f941e20000603cf244983b
:20647a00000000000000000000000000000000000000000000000000000000000000000002
:20649a000000000000000000000000000000000000000000000000000000000000000000e2
:2064ba000000000000000000000000000000000000001000000000000100000000000000b1
:0d64da0000000500008100000016c98204ca
:2064e700000000000000000000000000000000000000000000000000000000000000000095
:20650700000000000000000000000000000000000000000000000000000000000000000074
:20652700000000000000000000000000000000000000000000000000000000000000000054
:0d6547000000000000000001e30000000063
:20655400000000000000000000000000000000000000000000000000000000000000000027
:20657400800000000000000000000000004000000000000000000000000000000000000047
:206594000000000000000000000000000000000000000000000000000000000000000000e7
:0d65b40000000000000000000400000000d6
:2065c1000000000000000000001000000000000000000000000000000000000000040000a6
:2065e100cd7b540010000000000000400000000000000000000000000000000000000000ae
:206601000000000000000000000000000000000000000280000000000000000000000010e7
:0d662100005800000000c000e00000000074
:20662e00000000000000000000100000000000000000000000000000000000000004000137
:20664e008f7f4000100000000000004000000000000000000000000300000000000000008b
:20666e000000000000000000000000000000000000000000000000000000000000000030dc
:0d668e00000000000000c00000000000003f
:20669b000000000000000000000000000000000010000000000000000000000000000001ce
:2066bb00e56f95400000000000000000000000000000000000000000000000000000000096
:2066db00000000000000000003fcc20000000000000000000052b950400000000000000043
:0d66fb0000008863e800004000000000007f
:20670800000000000000000000000000000000002800000000000000000000000000000148
:206728000f72140000000000000000000000000000000000000000000000000000000000bc
:20674800000000000000000003fc4000000000000000000000b7e14000000000000000001a
:0d67680000000503d4000000000000000048
:206775000000000000000000000000000000000000000000000000000000000000280000dc
:2067950003ea8840000000000000000000000000000000000000000000000000000000002f
:2067b500000000000000000000000000000000000002800000000000000000000000002919
:0d67d5000050036284cba0c0000000000053
:2067e200000000000000000000000000000000000000000000000000000000000020000077
:2068020007e7c80000000000000000000000000000000000000000000000000000000000c0
:20682200000000000000000000000000000000000002000000000000000000000000002034
:0d68420080500d02946080000000000000f6
:20684f000000000000000000000000000000000000000000000000000000000000000080a9
:20686f00000000000000000000000000000000000000000000000000000000000000000009
:20688f000000000000000000000000000000000000000008010000000000000000000001df
:0d68af0000000f32950cc002000000000038
:2068bc000000000000000000000000000000000000000000000000000000000000000010ac
:2068dc0000000000000000000000000000000000000000000000000000000000000000009c
:2068fc0000000000000000000000000000000000000000010e00000000000000000000026b
:0d691c000000b1c29800c001400000000062
:20692900000004000000000000000000000000000000000000000001000000000004000045
:20694900a0000000000000000000004000000000000000000000000000000000000000400e
:2069690000000000000000000000000000000000000000000000000000000000000000000e
:0d69890000180000000000000000000000e9
:20699600000004000000000000000000000000000000000000000000800000000004000059
:2069b600c00000000000000000000040000000000000000000000000000000000000008041
:2069d6000000000000000000000000000000000000000000000000000000000000000000a1
:0d69f600000800000000000000000000008c
:206a0300000000000000000000000000000000000000000000000040000000000000000033
:206a2300000000000000000000000000000000000000000000000000000000000000000053
:206a4300000000000000000000000000000000000000000000000000000000000000000033
:0d6a63000098ebb795020002000000000053
:206a7000000000000000000000000000000000000000000000000000000000000000000006
:206a90000000000000000000000000000000000000000000000000000000000000000000e6
:206ab00000000000000000000000000000000000000000000e0000000000000000000000b8
:0d6ad00000b103212800000140000000007b
:206add00000000000000000000000000000000000000000000000000000000000000000099
:206afd00000000000000000000000000000000000000000000000000100000000001000068
:206b1d00000000000000000000000000000000000000000000000000000000000000000058
:0d6b3d00009809ba94000000000dde04006d
:206b4a0000000000000000000000000000000000000000000000000000000000000000909b
:206b6a00d0000000000000000000000000000000000000000000000020000000000100001a
:206b8a000000000000000000000000000000000000000020000000000000000000000000cb
:0d6baa0000100766840000000255ef420055
:206bb7000000000000000000000000000000000000000000000000000000000000000000be
:206bd700a000000000000000000000000000000000000000000000000000000000000000fe
:206bf70000000000000000000000000000000000000000000e000000000000000000000070
:0d6c170000009000000000000700000000d9
:206c240000000000000000000000000000000000000000000000000000000000000000f060
:206c4400000000000000000000000000000000000000000000000000000000000000000030
:206c6400000000000000000000000010000000000000000000000000000000000000000000
:0d6c8400000180000000000004000000007e
:206c91000000000000000000000000000000000000000000000000000000000000000000e3
:206cb1000000000000000000000000000000000000000000000000000000000000000000c3
:206cd1000000000000000000000000000000000000000000000000000000000000000000a3
:0d6cf1000080000000000002000000000014
:206cfe00000000000000000000000000000000000000000000000000000000000000000076
:206d1e00000000000000000000000000000000000000000000000000000000000000000055
:206d3e00000000000000000000000000000000000000000000000000000200000000000033
:0d6d5e000070000000000002400000000076
:206d6b00000000000000000000000000000000000000005329500000002148fa6000000079
:206d8b0000000000000000400000000001807ee94000000000000000000000000000000080
:206dab00000000000000000000000010000000000000000798000000000000000000000118
:0d6dcb0000d1e000000010100395e8150055
:206dd80000000000000000000000000000000000000000f02a800000004010fa08000000af
:206df80000000000000003c000000000000073a8401000000000000000000000000000004d
:206e18000000000000000000000000100000000000000000800000000000000000000000ca
:0d6e38000031000000001000001caa7000d6
:206e4500000000000000000000000000000000028000000000000a0000000e0f202800003c
:206e650000000000000000000000028000001e7954000000000000000000000000000000a0
:206e8500000000000000000000000000000000000002800000000000000000000000002942
:0d6ea500008000000000a0000000000000c0
:206eb2000000000000000000000000000000000200000000000008000000100f0020000077
:206ed2000000000000000000000002000f0f1b928000000000000000000000000000000053
:206ef2000000000002800000000000000000000000020000000000000000000000000020dc
:0d6f12008010000000008000000000000062
:206f1f000000000000000000000000000000000000080000000004002028000000000001fd
:206f3f008000000000000000000000000000000000000000000000000000000000000000b2
:206f5f00000000000000000000000000000000000000000000f778000000000000000001a2
:0d6f7f00000007a2bc000017c200000000c7
:206f8c00000000000000000000000000000000000001000000000c00044000000000000094
:206fac000000000000000000000000000000000000000000000000000000000000000000c5
:206fcc0000000000000000000000000000000000000000000032fc00000000000000000077
:0d6fec00000000c2bc00000847800000004b
:206ff900000000000000000000000000000000000000000000000000000000000000000078
:20701900053a950000000024df000000000000000000000000000000000000000000000080
:2070390000000000002000000000000000000000000000000e3b29548000000000000000d1
:0d705900b8000000000000e0000000000092
:2070660000000000000000000000000000000000000000000000000000000000000000000a
:207086000b82a8000000001ecd0000002700000000000000000000000000000000000000a3
:2070a6000000000000000000000000000000000000000000109c1a80000000000000000183
:0d70c60001000000000000000000000000bc
:2070d300000000000000000000000000000000000005000000000000000000000000000098
:2070f300c000000000000000000000000000000000000000000000000000000000000000bd
:2071130000000000000000000000000000000000000000000100000000000000000000005b
:0d7133000050093205020401400ceaf29000
:2071400000000000000000000000000000000000000000000000000000000000000000002f
:207160000000000000024000000000000000000000000000000000000000000000000000cd
:2071800000000000000000000000000000000000000000000e0000000000000000000000e1
:0d71a000000001216c00020000000af01048
:2071ad000000000000000000000000000000000000000000000000000000000000000000c2
:2071cd00000000000000400000000028000000000000000000000002000000000000000038
:2071ed00000000000000000000000000000000000000020701000000000000000000000078
:0d720d0000000000000000000014a0d210de
:20721a0000000000000000000000e000000000000300000000000000000000000000000071
:20723a00000000000000200000000010000000000000000000000000000000000000000004
:20725a0000000000008000000000000000000000000000018c000000000000000000000007
:0d727a0000000000000000000025b0f20040
:207287000000000000000000000000000000000000000c0283c000000068000000000050de
:2072a7000000000000000000000000000100000000000000000000000000000000000000c6
:2072c7000000000000000000000000000000000000000000000000000000000000000000a7
:0d72e700000000000000000060000000003a
:2072f400000000000000000000000000000000000000100003c80000000000000000000897
:207314000000000000000000000000000080000000000000000000000000000000000000d9
:20733400000000000000000000000000040000000000000f00000000000000000000000026
:0d73540000000000000000016000000000cb
:2073610000000000000000000000000000000000000000000000000000000000000000000c
:207381000000000000000000000000000100000000000000000000000000000000000000eb
:2073a1000000000000000000000000000000000000000000005f7088000000000000000075
:0d73c100300000000000000000000000008f
:2073ce0000000000000000000000000000000000000000000000000000000000000000009f
:2073ee000000000000004000000000000b0000000000000000000000000000000000000034
:20740e000000000000000000000000000000000000000000001b30c0010000000000000052
:0d742e002800a00000000001c000000000c8
:02743b0000004f
:02743d0011013b
:02743f00010149
:20744100000000000000000000040000000000000000000000000000000000000002000025
:207461000000000000005800000000000000000000000000000000000000000000000000b3
:207481000000000000000000000000000000000000000000000000000000000000000000eb
:0d74a10000000000000000000000000000de
:2074ae000000000000000000000000000000000000000000000000000000000000000000be
:2074ce0000000000000030000000000000000000000000000000000000000000000000006e
:2074ee0000000000000000000000000000000000000000000000000000000000000000007e
:0d750e000000000000000000000000000070
:20751b00000000000000000000040000000000000000000000000000000000000001002c1f
:20753b00000000000000000000000000000000000000000000000000000000000000000030
:20755b00000000000000000000000000000000000000000000000000000000000000000010
:0d757b000000000000000000000000000003
:20758800000000000000000000000000000000000000000000000000058006000000000058
:2075a800000000000000000000000000000001800000000000000000000000000000000042
:2075c8000000000000000000000000000000000000000000000000000000000000000000a3
:0d75e8000000000000000000000000000096
:2075f5000000000000000000000800000080000000000000000000000000000000020000ec
:20761500000c00000000000000000000000000000000000000000000000000000000000049
:20763500000000000000000000000000000000000000000000000000000000000000000035
:0d7655000000000000000000000000000028
:2076620000000000000000000000000000f000000000000000000000000000000000000018
:207682000004000000000000000000000000000000000000000000000000000000000000e4
:2076a2000000000000000000000000000000000000000000000000000000000000000000c8
:0d76c20000000000000000000000000000bb
:2076cf0000000000000000000000000000000000000000000000000000010000000000009a
:2076ef0000000000000000100000000000000000000000000000000000000000000000006b
:20770f0000000000000000000000000000000000000000000000000000000000000000005a
:0d772f00000000000000000000000000004d
:20773c00000000000000000000080000000000000000000000000000000000000000000025
:20775c0000000000000000000000000000000000000000000000000000000000000000000d
:20777c000000000000000000000000000000000000000000000000000000000000000000ed
:0d779c0000000000000000000000000000e0
:2077a9000000000000000000000000001000000000000000000000000000000000000000b0
:2077c9000000000000000000000000000000000000000000000000000000000000000000a0
:2077e900000000000000000000000000000000000000000000000000000000000000000080
:0d7809000000000000000000000000000072
:207816000000000000000000000000700000000000000000000000000000000000000000e2
:20783600000000000000000000000000000000000000000000000000000000000000000032
:20785600000000000000000000000000000000000000000000000000000000000000000012
:0d7876000000000000000000000000000005
:207883000000000000000000000000000000000000000000000000000000050000000000e0
:2078a3000000000004000000f00000000000000000000000000000000000000000000000d1
:2078c3000000000000000000000000000000000000000000000000000000000000000000a5
:0d78e3000000000000000000000000000098
:2078f00000000000000000000000000000000000000000000000004003000b00000000002a
:207910000000000004000000f0000000000000000000000000000000000000000000000063
:20793000000000000000000000000000000000000000000000000000000000000000000037
:0d795000000000000000000000000000002a
:20795d00000000000000000000000058000000000000000000000040000000000000000072
:20797d00001000000000000000000000000000000000000000000000000001800000000059
:20799d000000000000000000000000000000000000000000000000000000000000000000ca
:0d79bd0000000000000000000000000000bd
:2079ca0000000000000000000000000000000000000000000000004000000000000000005d
:2079ea00000000000400000000000000000000000000000000000000000000000000000079
:207a0a0000000000000000000000000000000000000000000000000000000000000000005c
:0d7a2a00000000000000000000000000004f
:207a370000000000000000000000000000000000000000000000000000000000000000002f
:207a570004000000000000000000000000000000000000000000000000000000000000000b
:207a77000000000000000000000000000000000000000000000000000000000000000000ef
:0d7a970000000000000000000000000000e2
:207aa400000000000000000000000000000000000000000000000080000000000000000042
:207ac40000000000080000000000000000000000000000000000000000000000000000009a
:207ae400000000000000000000000000000000000000000000000000000000000000000082
:0d7b04000000000000000000000000000074
:207b1100000000000000000000000000000000000000000000000000000000000000000054
:207b3100000000000000000000000000000000000000000000000000000000000000000034
:207b5100000000000000000000000000000000000000000000000000000000000000000014
:0d7b71000000000000000000000000000007
:207b7e000000000000000000000000000000000000000000000000000000000000000000e7
:207b9e000000000000000000000000000000000000000000000000000000000000000000c7
:207bbe000000000000000000000000000000000000000000000000000000000000000000a7
:0d7bde00000000000000000000000000009a
:207beb0000000000000000000000000000000000000000000000000000000000000000007a
:207c0b00000000000000000000000000000000000000000000000000010000000000000058
:207c2b00000000000000000000000000000000000000000000000000000000000000000039
:0d7c4b00000000000000000000000000002c
:207c580000000000000000000000000000000000000000000000000000000000000000000c
:207c7800000000000000000000000000000000000000000000000000098000000000000063
:207c98000000000000000000000000000000000000000000000000000000000000000000cc
:0d7cb80000000000000000000000000000bf
:207cc50000000000000000000000000000000000000000000000000000000000000000009f
:207ce50000000000000000000000000000000000000000000000000000000000000000007f
:207d050000000000000000000000000000000000000000000000000000000000000000005e
:0d7d25000000000000000000000000000051
:207d3200000000000000000000000000000000000000000000000000000000000000000031
:207d5200000000000000000000000000000000000000000000000000000000000000000011
:207d72000000000000000000000000000000000000000000000000000000000000000000f1
:0d7d920000000000000000000000000000e4
:207d9f000000000000000000000000000000000000000000000000000000000000000000c4
:207dbf000000000000000000000000000000000000000000000000000000000000000000a4
:207ddf00000000000000000000000000000000000000000000000000000000000000000084
:0d7dff000000000000000000000000000077
:207e0c00000000000000000000000000000000000000000000000000000000000000000056
:207e2c00000000000000000000000000000000000000000000000000000000000000000036
:207e4c00000000000000000000000000000000000000000000000000000000000000000016
:0d7e6c000000000000000000000000000009
:207e79000000000000000000000000000000000000000000000000000000000000000000e9
:207e99000000000000000000000000000000000000000000000000000000000000000000c9
:207eb9000000000000000000000000000000000000000000000000000000000000000000a9
:0d7ed900000000000000000000000000009c
:207ee60000000000000000000000000000000000000000000000000000000000000000007c
:207f060000000000000000000000000000000000000000000000000000000000000000005b
:207f260000000000000000000000000000000000000000000000000000000000000000003b
:0d7f4600000000000000000000000000002e
:207f530000000000000000000000000000000000000000000000000000000000000000000e
:207f730000000000000000000000000000000000000000800000000000000000000000006e
:207f93000000000000000000000000000000000000000000000000000000000000000000ce
:0d7fb30000000000000000000000000000c1
:207fc0000000000000000000000000000000000000000000000000000000000000000000a1
:207fe000000000000000000000000000000000000000000000000000000000000000000081
:20800000000000000000000000000000000000000000000000000000000000000000000060
:0d8020000000000000000000000000000053
:20802d00000000000000000000000000000000000000000000000000000000000000000033
:20804d0000000000000000000000000000000000000000000000020000000025800000006c
:20806d000000000000000000000000000000000000000000000000000000000000000000f3
:0d808d0000000000000000000000000000e6
:20809a000000000000000000000000000000000000000000000000000000000000000000c6
:2080ba000000000000000000000000000000000000000000000002800000722598000000f5
:2080da00000000000000000000000000000000000000000000000000000000000000000086
:0d80fa000000000000000000000000000079
:20810700000000000000000000000000000000000000000000000000000000000000000058
:20812700000000000000000000000000000000000000000000000000000000258100000092
:20814700000000000000000000000000000000000000000000000000000000000000000018
:0d816700000000000000000000000000000b
:208174000000000000000000000000000000000000000000000000000000000000000000eb
:2081940000000000000000000000000000000000000020000000000000007225b80000005c
:2081b4000000000000000000000000000000000000000000000000000000000000000000ab
:0d81d400000000000000000000000000009e
:2081e10000000000000000000000000000000000000000000000000000000000000000007e
:208201000000000000000000000000000000000000000000000000000100082580000000af
:2082210000000000000000000000000000000000000000000000000000000000000000003d
:0d8241000000000000000000000000000030
:20824e00000000000000000000000000000000000000000000000000000000000000000010
:20826e0000000000000000000000000000000000000000000000000008187a25b800000079
:20828e00000000000000008000000000000000000000000000000000000000000000000050
:0d82ae0000000000000000000000000000c3
:2082bb000000000000000000000000000000000000000000000000000000000000000000a3
:2082db000000000000000000000000000100b00d40000000000000000100082580000000d7
:2082fb00000000000000300000000000000000000000000000000000000000000000000033
:0d831b000000000000000000000000000055
:20832800000000000000000000000000000000000000000000000000000000000000000035
:208348000000000000000000000000000000070e848000000000000009805a25b400000040
:208368000000000000000000000000000000000000000000000000000000000000000000f5
:0d83880000000000000000000000000000e8
:208395000000000000000000000000000000000000000000000000000000000000000000c8
:2083b50000000000000000000000000000005fbd40000000000000000000002580000000a7
:2083d500000000000000000000000000000000000000000000000000000000000000000088
:0d83f500000000000000000000000000007b
:2084020000000000000000000000000000000000000000000000000000000000000000005a
:2084220000000000000000000000000001001a38400000000000000000005a25b800000070
:208442000000000000003000000000000000000000000000000000000000000000000000ea
:0d846200000000000000000000000000000d
:20846f000000000000000000000000000000000000000000000000000000000000000000ed
:20848f00000000000000000000000000000800000000000000000000000000258000000020
:2084af000000000000000000000000000000000000000000000000000000000000000000ad
:0d84cf0000000000000000000000000000a0
:2084dc00000000000000000000000000000000000000000000000000000000000000000080
:2084fc0000000000000000000000000000010000000000000000000000007a25b000000010
:20851c0000000000000000000000000000000000000000000000000000000000000000003f
:0d853c000000000000000000000000000032
:2085490000000000000000000000000000000000000000000000000000000000000400000e
:2085690000000000000000000000000000000000000000000000000000080825800000003d
:208589000000000000000000000000000000000000000000000000000000000000000000d2
:0d85a90000000000000000000000000000c5
:2085b6000000000000000000000000000000000000000000000000000000000000040000a1
:2085d60000000000000000000000000000000000000000000000000001815225b0000000dc
:2085f60000000000000000e000000000000000000000000000000000000000000000000085
:0d8616000000000000000000000000000057
:20862300000000000000000000000000000000000000000000000000000000000000000037
:208643000000000000000000000000000d00925680000000000000000008082580000000ed
:208663000000000000000000000000000000000000000000000000000000000000000000f7
:0d86830000000000000000000000000000ea
:208690000000000000000000000000000000000000000000000000000000000000000000ca
:2086b000000000000000000000000000080072f8000000000000000000195225b0000000f8
:2086d00000000000000000000000000000000000000000000000000000000000000000008a
:0d86f000000000000000000000000000007d
:2086fd0000000000000000000000000000000000000000000000000000000000000000005d
:20871d00000000000000000000000000000f00000000000000000200000000258000000086
:20873d000000000000000007b00c0000000000000000000000000000000000000000000059
:0d875d00000000000000000000000000000f
:20876a000000000000000000000000000000000000000000000000000000000000000000ef
:20878a0000000000000010000000000000000000000000000000028000007225b0000000f6
:2087aa000000000000000007a70020000000000000000000000000000000000000000000e1
:0d87ca0000000000000000000000000000a2
:2087d700000000000000000000000000000000000000000000000000000000000000000082
:2087f700000000000000000000000000000f000000000000000000000000002581000000ad
:2088170000000000000000002e58300000000000000000000000000000000000000000008b
:0d8837000000000000000000000000000034
:20884400000000000000000000100000000000000000000000000000000000000000000004
:2088640000000000000000000000000000000000000000000000000000007225b0000000ad
:208884000000000000000007265a000000000000000000000000000000000000000000004d
:0d88a40000000000000000000000000000c7
:2088b1000000000000000000000000000000000000000000000000000000000000000000a7
:2088d1000000000000000000000000000000000000000000000000000100082580000000d9
:2088f100000000000000f000b6580200000000000000000000000000000000000000000067
:0d8911000000000000000000000000000059
:20891e008000000000000000000014000000000000000000000000000000000000000000a5
:20893e0000000000000000000000000000000000000000000000000008187a25b0000000aa
:20895e000000000000000007265a0000000000000000000000000000000000000000000072
:0d897e0000000000000000000000000000ec
:20898b0080000000000000000000000000000000000000000000000001000000000000004b
:2089ab000000000000000000000000000000000000000000000000000100082580000000fe
:2089cb000000000000000000aa58000000000000000000000000000000000000000000008a
:0d89eb00000000000000000000000000007f
:2089f80000000000000000000000000000000000000000000000000000000000000000005f
:208a180000000000000000000000000000000000000000000000000009805a25b000000086
:208a380000000000000000c3265a00000000000000000000000000000000000000000000db
:0d8a58000000000000000000000000000011
:208a65000a00000000000000000000000000000000000000000000000000000000000000e7
:208a850000000000100000000000000000000000000000000000000000000025800000001c
:208aa50000000000000001e036582000000000000000000000000000000000000000000022
:0d8ac50000000000000000000000000000a4
:208ad2004900000000000000000000000000000000000000000000800000000000000000bb
:208af20000000000000000000000000800000000000000000000000000005a25b00000002d
:208b12000000000000000181225a0000000000000000000000000000000000000000000045
:0d8b32000000000000000000000000000036
:208b3f00000200000000000000000000000000000000000000000000000000000000000014
:208b5f0000000000040000000000000000000000000000000000000000000025800000004d
:208b7f0000000000000010f0b65802000000000000000000000000000000000000000000c6
:0d8b9f0000000000000000000000000000c9
:208bac00000080000000000000000000000000000000000000000000000000000000000029
:208bcc00000000000a0000000000000000000000000000000000000000007a25b000000030
:208bec0000000000000000c3265a0000000000000000000000000000000000000000000026
:0d8c0c00000000000000000000000000005b
:208c190000000000000000000000000000000000000000000000000000000000000000003b
:208c3900000000000000000000000000000000000000000000000000000808258000000066
:208c59000000000000000800ba5800000000000000000000000000000000000000000000e1
:0d8c790000000000000000000000000000ee
:208c86000003000000000000000000000000000000000000000000000000000000000000cb
:208ca60000000000000000000000000000000000000000000000000001815225b000000005
:208cc6000000000000003807265a01000000000000000000000000000000000000000000ce
:0d8ce6000000000000000000000000000081
:208cf300003800000000000000000000000000000000000000000000000000000000000029
:208d130000000000000000000000000000000000000000000000000000080825800000008b
:208d3300000000000000b000b6582000000000000000000000000000000000000000000042
:0d8d53000000000000000000000000000013
:208d60000034000000000000000000000000000000000000000000000000000000000000bf
:208d800000000000000000000000000000000000000000000000000300195225b000000090
:208da0000000000000008003225a00000000000000000000000000000000000000000000b4
:0d8dc00000000000000000000000000000a6
:208dcd00800000000000000000000000000000000000000000000000000000000000000006
:208ded000000000000000000000000000000000000000000000002000000002580000000bf
:208e0d000000000000000000aa582000000000000000000000000000000000000000000023
:0d8e2d000000000000001000000000000028
:208e3a00000080080000000000000000000000000000000000000000000000000000000090
:208e5a0000000000000000000000000000000000000000000000028000007225b00000002f
:208e7a000000000000000007225a0000000000000000000000000000000000000000000055
:0d8e9a0000000000000000000000000000cb
:208ea7000000000000000000000a00000000000000000000000000000100000000000000a0
:208ec7000000000000000000000000000000000000000000000000004000002581000000a5
:208ee7000000000000003000b2581000000000000000000000000000000000000000000021
:0d8f0700000000000000000000000000005d
:208f140000000000000000000000000000000000000000000000000000000000000000003d
:208f340000000000000000000000000000000000000000000000000020007225b0000000b6
:208f54000000000000008003225a01000000000000000000000000000000000000000000fd
:0d8f740000000000000000000000000000f0
:208f810000000000000000000000000000000000000000000000000000000000000000d000
:208fa100b0000000000020000000000001000000000000000000000001000825800000042d
:208fc1006829e400000290002258000000000000000000000000000000000000000000000f
:0d8fe1000000000000000000000000000083
:208fee0000000000000000000000000000000000000000000000000000000000000000b0b3
:20900e0010000000000062000000000008000000000000000000000008187a25b000000059
:20902e0079fae40000048003a25a0000000000000000000000000000000000000000000048
:0d904e000000000000000000000000000015
:20905b0000000000000000000000000000000000000000000000000000000000000000d025
:20907b0009a3fc000000224100f08000031006e8c020000000000000010008258000202487
:20909b0024ca720840009000ae580000000000000000000000000000000000000000000077
:0d90bb0000000000000000000000000000a8
:2090c800000000000000000000000000000000000000000000000000000000000000008008
:2090e80005ebdc000000604080f00000001872a8c00000000000000009805a25b0000000e2
:20910800361ab10000008005a25a00000000000000000000000000000000000000000000c5
:0d912800000000000000000000000000003a
:2091350000000000000000000000000000000000000000000000000000000000000000001a
:20915500c00000000000c6440ff00000098012d9884000000000000100000025800000143b
:209175000020a3080000300026582000000000000000000000000000000000000000000041
:0d91950000000000000000000000000000cd
:2091a2000000000000000000000000000000000000000000000000000000000000000000ad
:2091c200000000000000077def7020000980b829400000000000000000005a25b000002091
:2091e20000caa32200000003a65a00000000000000000000000000000000000000000000db
:0d920200000000000000000000000000005f
:20920f0000000000000000000000000000000000000000000000000000000000000000003f
:20922f000000f0200000072c00000000009907e8c0400000000000000000002580000002ad
:20924f002819c5000000000032580000080000000000030000000000000000000000000064
:0d926f0000000000000000000000000000f2
:20927c000000000000000000000000000000000000000000000000000000000000000000d2
:20929c000000f0080000c6040a50000001995aa8c00000000000000000007a25b0000006e5
:2092bc0005e9c50000003805a65a000014000000000000000000000000000000000000008e
:0d92dc000000000000000000000000000085
:2092e900000000000000000000000000000000000000000000000000000000000000005015
:20930900e143fc00000002ae0ff080000500743fc2000000000000000008082580000004c2
:209329000050ff00000030c03a580000000000000000000000000000000000000000000053
:0d9349000000000000000000000000000017
:209356000000000000000000000000000000000000000000000000000100000000000039bd
:20937600c5ebdc2800006055af702000018adebdc08000000000000001815225b000001c04
:209396000048f70200008013a25a00000000000000000000000000000000000000000000e7
:0d93b60000000000000000000000000000aa
:2093c300000000000000000000000000000000000000000000000000000000000000000189
:2093e3008dc3fc000000042faff0000000080a7440000000000000000008082580000002cf
:20940300280ae40080000000a25800000000000000000000000000000000000000000000b9
:0d942300000000000000000000000000003c
:2094300000000000000000000000000000000000000000000000000000000000000000011b
:20945000c7abdc080001c73daf700000000e5774480000000000000000195225b00000061b
:2094700000cee400000000e5a65a0000000000000000000000000000000000000000000045
:0d94900000000000000000000000000000cf
:20949d000000000000000000000000000000000000000000000000000000000000000000af
:2094bd0007bbfc000000000000000000000a3b7fc020000000000200000000258000000482
:2094dd003b4fca00800051003a5800000000000000000000000000000000000000000000b8
:0d94fd000000000000000000000000000062
:20950a00000000000000000000000000000000000000000000000000000000000000000041
:20952a000bfbdc000001c000000000000500373dc00000000000028000007225b00000205c
:20954a00000bc520000081c0265a0000000000000000000000000000000000000000000050
:0d956a0000000000000000000000000000f4
:20957700000000000000000000000000000000000000000000000000000000000000005084
:20959700e00000000000203dcff0100000000000000000000000000000000025808000245f
:2095b700205fff00000008000258280000000000000000000000000000000000000000008c
