:02000000ff00ff
:080002004c6174746963650030
:17000a00694345637562653220323031372e30382e32373934300069
:15002100506172743a2069434534304c50384b2d434d3831003f
:1a003600446174653a20466562203420323032302032323a31303a333500d2
:0200500000ffaf
:040052007eaa997e6b
:02005600510057
:020058000105a0
:03005a00920020f1
:03005d00620367d4
:030060007201101a
:0300630082000018
:02006600110087
:02006800010194
:20006a00000000000000000000000000000000002000000000000000000000000000000056
:20008a00000000000000000000000000000000000000000000000000000000000000000056
:2000aa00000000000000000000000000000000000000000000000000000000000000000036
:0d00ca000000000000000000000000000029
:2000d700000000000000000000000000000000000000000000000000000000000000000009
:2000f7000000000000000000000000000000000000000000000000000000000000000000e9
:200117000000000000000000000000000000000000000000000000000000000000000000c8
:0d01370000000000000000000000000000bb
:2001440000000000000000000000000000000000100000000000000000000000000000008b
:2001640000000000000000000000000000000000000000000000000000000000000000007b
:2001840000000000000000000000000000000000000000000000000000000000000000005b
:0d01a400000000000000000000000000004e
:2001b10000000000000000000000000000000000000000000000000000000000000000002e
:2001d10000000000000000000000000000000000000000000000000000000000000000000e
:2001f1000000000000000000000000000000000000000000000000000000000000000000ee
:0d02110000000000000000000000000000e0
:20021e000000000000000000000000000000000020000000000000000000000000000000a0
:20023e000000000000000000000000000000000000000000000000000000000000000000a0
:20025e00000000000000000000000000000000000000000000000000000000000000000080
:0d027e000000000000000000000000000073
:20028b00000000000000000000000000000000000000000000000000000000000000000053
:2002ab00000000000000000000000000000000000000000000000000000000000000000033
:2002cb00000000000000000000000000000000000000000000000000000000000000000013
:0d02eb000000000000000000000000000006
:2002f8000000000000000000000000000000000000000000000000000000000000000000e6
:200318000000000000000000000000000000000000000000000000000000000000000000c5
:200338000000000000000000000000000000000000000000000000000000000000000000a5
:0d0358000000000000000000000000000098
:20036500000000000000000000000000000000000000000000000000000000000000000078
:20038500000000000000000000000000000000000000000000000000000000000000000058
:2003a500000000000000000000000000000000000000000000000000000000000000000038
:0d03c500000000000000000000000000002b
:2003d20000000000000000000000000000000000000000800000000000000000000000008b
:2003f2000000000000000000000000000000000000000000000000000000000000000000eb
:200412000000000000000000000000000000000000000000000000000000000000000000ca
:0d04320000000000000000000000000000bd
:20043f0000000000000000000000000000000000000000000000000000000000000000009d
:20045f0000000000000000000000000000000000000000000000000000000000000000007d
:20047f0000000000000000000000000000000000000000000000000000000000000000005d
:0d049f000000000000000000000000000050
:2004ac00000000000000000000000000000000000000000000000000000000000000000030
:2004cc00000000000000000000000000000000000000000000000000000000000000000010
:2004ec000000000000000000000000000000000000000000000000000000000000000000f0
:0d050c0000000000000000000000000000e2
:200519000000000000000000000000000000000020000000000000000000000000000000a2
:200539000000000000000000000000000000000000000000000000000000000000000000a2
:20055900000000000000000000000000000000000000000000000000000000000000000082
:0d0579000000000000000000000000000075
:20058600000000000000000000000000000000000000000000000000000000000000000055
:2005a600000000000000000000000000000000000000000000000000000000000000000035
:2005c600000000000000000000000000000000000000000000000000000000000000000015
:0d05e6000000000000000000000000000008
:2005f3000000000000000000000000000000000010000000000000000000000000000000d8
:200613000000000000000000000000000000000000000000000000000000000000000000c7
:200633000000000000000000000000000000000000000000000000000000000000000000a7
:0d065300000000000000000000000000009a
:2006600000000000000000000000000000000000000000400000000000000000000000003a
:2006800000000000000000000000000000000000000000000000000000000000000000005a
:2006a00000000000000000000000000000000000000000000000000000000000000000003a
:0d06c000000000000000000000000000002d
:2006cd000000000000000000000000000000000020000000000000000000000000000000ed
:2006ed000000000000000000000000000000000000000000000000000000000000000000ed
:20070d000000000000000000000000000000000000000000000000000000000000000000cc
:0d072d0000000000000000000000000000bf
:20073a0000000000000000000000000000000000000000000000000000000000000000009f
:2071ec00000000000000000000000000001000000000000000000000000000000000000073
:0d720c000000000000000000000000000075
:20721900000000000000000000000000000000000000000000000000000000000000000055
:20723900000000000000000000000000000000000000000000000000000000000000000035
:20725900000000000000000000000000000000000000000000000000000000000000000015
:0d7279000000000000000000000000000008
:207286000000000000000000000000000000000000000000000000000000000000000000e8
:2072a6000000000000000000000000000000000000000000000000000000000000000000c8
:2072c6000000000000000000000000000000000000000000000000000000000000000000a8
:0d72e600000000000000000000000000009b
:2072f30000000000000000000000000000000000000000000000000000000000000000007b
:2073130000000000000000000000000000000000000000000000000000000000000000005a
:2073330000000000000000000000000000000000000000000000000000000000000000003a
:0d735300000000000000000000000000002d
:2073600000000000000000000000000000000000000000000000000000000000000000000d
:207380000000000000000000000000000000000000000000000000000000000000000000ed
:2073a0000000000000000000000000000000000000000000000000000000000000000000cd
:0d73c00000000000000000000000000000c0
:2073cd000000000000000000000000000000000000000000000000000000000000000000a0
:2073ed00000000000000000000000000000000000000000000000000000000000000000080
:20740d0000000000000000000000000000000000000000000000000000000000000000005f
:0d742d000000000000000000000000000052
:02743a00000050
:02743c0011013c
:02743e0001014a
:2074400000000000000000000000000000000000000000000000000000000000000200002a
:2074600000000000000000000000000000000000000000000000000000000000000000000c
:207480000000000000000000000000000000000000000000000000000000000000000000ec
:0d74a00000000000000000000000000000df
:2074ad000000000000000000000000000000000000000000000000000000000000000000bf
:2074cd0000000000000000000000000000000000000000000000000000000000000000009f
:2074ed0000000000000000000000000000000000000000000000000000000000000000007f
:0d750d000000000000000000000000000071
:20751a00000000000000000000040000000000000000000000000000000000000001003c10
:20753a00000000000000000000000000000000000000000000000000000000000000000031
:20755a00000000000000000000000000000000000000000000000000000000000000000011
:0d757a000000000000000000000000000004
:207587000000000000000000000000000000000000000000000000000000000000000020c4
:2075a7000000000000000000000000000000000000000000000000000000000000000000c4
:2075c7000000000000000000000000000000000000000000000000000000000000000000a4
:0d75e7000000000000000000000000000097
:2075f400000000000000000000000000000000000000000000000000000000000002000075
:20761400000c0000000000000000000000000000000000000000000000000000000000004a
:20763400000000000000000000000000000000000000000000000000000000000000000036
:0d7654000000000000000000000000000029
:207661000000000000000000000000004000000000000000000000000000000000000000c9
:207681000004000000000000000000000000000000000000000000000000000000000000e5
:2076a1000000000000000000000000000000000000000000000000000000000000000000c9
:0d76c10000000000000000000000000000bc
:2076ce0000000000000000000000000000000000000000000000000000000000000000009c
:2076ee0000000000000000000000000000000000000000000000000000000000000000007c
:20770e0000000000000000000000000000000000000000000000000000000000000000005b
:0d772e00000000000000000000000000004e
:20773b0000000000000000000000000000000000000000000000000000000000000000002e
:20775b0000000000000000000000000000000000000000000000000000000000000000000e
:20777b000000000000000000000000000000000000000000000000000000000000000000ee
:0d779b0000000000000000000000000000e1
:2077a8000000000000000000000000001000000000000000000000000000000000000000b1
:2077c800000000000000002000000000000000000000000000000000000000000000000081
:2077e800000080000000000000000000000000000000000000000000000000000000000001
:0d7808000000000000000000000000000073
:20781500000000000000000000000000000000000000000000000000000000000000000053
:2078350000000000000000000800000000000000000000000000000000000000000000002b
:20785500000000000000000000000000000000000000000000000000000000000000000013
:0d7875000000000000000000000000000006
:207882000000000000000000000000000000000000000000000000000000000000000000e6
:2078a2000000000000000000000000000000000000000000000000000000000000000000c6
:2078c2000000000000000000000000000000000000000000000000000000000000000000a6
:0d78e2000000000000000000000000000099
:2078ef00000000000000000000000000000000000000000000000000000000000000000079
:20790f00000000000800000000000000000000000000000000000000000000000000000050
:20792f00000000000000000000000000000000000000000000000000000000000000000038
:0d794f00000000000000000000000000002b
:20795c0000000000000000000000000000000000000000000000000000000000000000000b
:20797c000000000000000000000000000000000000000000000000000000000000000000eb
:20799c000000000000000000000000000000000000000000000000000000000000000000cb
:0d79bc0000000000000000000000000000be
:2079c90000000000000000000000000000000000000000000000000000000000000000009e
:2079e90000000000040000000000000000000000000000000000000000000000000000007a
:207a090000000000000000000000000000000000000000000000000000000000000000005d
:0d7a29000000000000000000000000000050
:207a3600000000000000000000000000100000000000000000000000000000000000000020
:207a560004000000000000000000000000000000000000000000000000000000000000000c
:207a76000000000000000000000000000000000000000000000000000000000000000000f0
:0d7a960000000000000000000000000000e3
:207aa3000000000000000000000000000000000000000000000000000000000000000000c3
:207ac30000000000080000000000000000000000000000000000000000000000000000009b
:207ae300000000000000000000000000000000000000000000000000000000000000000083
:0d7b03000000000000000000000000000075
:207b1000000010000000000000080340018a3010000709000000000024034aff000100b0fe
:207b300095794c200002c240000000000d0cfac84040000000000328000008258010000074
:207b500001d0fa0000000000403c00000026c505000000000f00000000002c400000000063
:0d7b700000908000000000000000000000f8
:207b7d000000300000000000000402038e8a301000000000000000000003dacf200200b8d1
:207b9d0008628c01000200400000000008003a21000000000000010003005a259000000019
:207bbd000078a04100000000283c800000e24ecf540000000f000000000020700000000079
:0d7bdd0000981000000000000000000000f3
:207bea0000000000100000000000002254fff00000000090168000012e0008a3080030f0de
:207c0a009000000000000003da300000090803a58200000000000000000a082580000e2c91
:207c2a000150ac2000001080403c000002400debb00000070000000000010003cd5a0000f5
:0d7c4a0000000901680000000000000000bb
:207c570000000000980000000000006055ddf00000058000295400008e01dfa30000008060
:207c7700000000000001600dea30080001005225a00000000000000000017225a00000000d
:207c970000185c0200009800683c8000000001f770040000000000000000966b5f825100fc
:0d7cb7000000080295000000000000000021
:207cc40000000000f0000000000000e40100f00000000a77ff4000003c00000000000000df
:207ce400a06a8c0000000000000000000b0e03e580000000000000000000022580000000c2
:207d040003585200000000f00000000002600000f10000000cf42a820000002000000000a3
:0d7d240000000701680000000000000000e2
:207d31000000000080000000000000660080f0040000019e7fc44000200000000000000096
:207d510017e28c030000e0000000000008005a25a00000000000000000000265a400000078
:207d710002dbc300000000100000000001e601c0f080000008871540000000040000000042
:0d7d91000000080295000000000000000046
:207d9e00000000000000000000000a440fefb00000000adb80c200001c000000000000b0d6
:207dbe0000e6c402000142760f700000000803a588000000000000000000082588000014c0
:207dde000340fa20000000000000000001c2c0000000000000000000000080000000000025
:0d7dfe000000000000000000000000000078
:207e0b000000000000000000000016038eeff00000000192300000001c00000000000000f2
:207e2b0001bec402000247a7ce30200000007225a000000000000000001a5a25a000002410
:207e4b00005aa0400000000000000000020740000000000000000000000040000000000054
:0d7e6b00000000000000000000000000000a
:207e7800000000000000000000000240148030100007000aa5800000002830c50000007011
:207e98000183fc000000425fbf20000000000be58000000000000000001f00258000000492
:207eb80064000f000000009f43e800000000000000000000000c154000000000000000000c
:0d7ed8000000a10168200000000000000073
:207ee500000000000000000000000000249c000000000e3265a00040160558c52a000018be
:207f050003b3dc08000202779f70000001003225a200000000000000030e7a25a8000024c2
:207f2500641a0f00000000057281810000000000000000001a7e95400002000000000000c7
:0d7f4500000008029501000000000000008f
:207f5200000000000000000000000140028960000009000ae580000004002ca30000009008
:207f72009125c8010000000000000000230c03a58000000000000000000908258000000063
:207f920068000f00000009000000000000003e0a500000000000000000002c240000000067
:0d7fb20000000d4000000000000000000075
:207fbf000000000000000000000003600c996a000008001a65a0100000685fa3000000107f
:207fdf00b07ec401000000000000000058017a25a20000000000000000015225a0000006d7
:207fff00340e0f00000078800000000000002eef00000000000000000000200400000000d8
:0d801f00000181e8c0080000000000000022
:20802c0000002000000002580000164000a9600200050a0aa58400000c24100f01000010b7
:20804c00a943fc02000006a50d700100000003e580000000000002000f8000258048003edd
:20806c006b58e300200000000258008000000100f000000000bfb740480000005b400020aa
:0d808c000008afbbfc000000000000000079
:208099000000280000072259000000600e99680280081b3a65a000000004180f000000811e
:2080b900c1abdc080000061dae70a00000003a25a00000000000028005801a25a00a000681
:2080d9003edbf10028000007225980a0000000c0f100000000df9dc00a000001ce020028c3
:0d80f900001019fccc210000000000000068
:208106000000000000000258100000c30089604000000902e581000000000ca30000007073
:2081260005ebfc000000000cbf90000080000ba58100000000000000000008258100000291
:208146000050f508000000000258100000000e0f50000000000000000000020000000000f3
:0d816600000000000000000000000000000c
:20817300000000000007225b000002605e99690000001a5265a800000070dea308000051e3
:208193008d7bdc000000038dbf50000000007a25a00000000000000000003225a200000c05
:2081b30002caa04800000007225b000000c02dca040000000000000000000e0000000000ab
:0d81d300000000000000000000000000009f
:2081e0000000300010008258000020020089620000050a0325800000823820f7000100f8d7
:20820000904390000008001df7200000000c0aa580000000000000000000082580000024b3
:208220003c000f00000010008258000000440000000302800e0000000000024000000001ef
:0d824000000001afb480000240010c0200fc
:20824d00000030009187a25b0000000014896800080d817a25a00004040458f702008038dd
:20826d0013a3900b00114381cb10000050017265a00000000000000000001225a000000051
:20828d00000a0f0000008187a25b00000202000000030003810000000000066800000002b8
:0d82ad00800009a61100000200018c0020d5
:2082ba000000000010008258000080000299620002808a0ba588000140341ea3000000d0f3
:2082da000b0000060000c61d0d7000000010022580000000000000000000082580000000af
:2082fa000030550000381000825800000802870a1000000000bc29400000240000000000c9
:0d831a000018093778000001c01c9fc20048
:20832700000000009805a25b800000000c8968000003817225a000009c057ba30040000065
:20834700037020280000c68eee702000000c1265a00000000000000000003a25a8000080df
:20836700005a550080009805a25b0000056674ea70200000007ebc140040342800000001e9
:0d83870000d181a613000003e01dfd83005e
:2083940000000000000002580000000002f9600000090003258800001c3d4b6600000078d9
:2083b400b943fc000081422e0e30000003000aa5800000000000000000000825820000267b
:2083d40000000000000000000258000800201505000000000000000000002425600500023d
:0d83f40000118b2268000000000000000056
:20840100000000000005a25b000000c0049969000000003225a000002004e1a5000000f8fa
:208421000973dc0800036624ce70200000001a65a000000000000000001a5a25a000002c6c
:208441000000000000000005a25b000000c01daf5000000000000000000020055a000000be
:0d84610000819da69b0000000000000000af
:20846e000000000000000258400004038099600000058003a580000000003da3008030385f
:20848e00b567fc000000400f9fb00000005c0a258000000000000000000000258040000028
:2084ae000050552000000000025800000003c2055000000d08000000000000416850200047
:0d84ce0000b0d53378000000000000000071
:2084db00000000000007a25b000000424c896a000003807a25a8000000315ba3000000f80b
:2084fb000f23dc00000007bd9f100000001c7a65a00000000000000000005225a00000002e
:20851b0002f8a57000000007a25b00000047ccc550000000000000000000162a4bd2600048
:0d853b00008011a6130000000000000000e9
:208548000000000000808258000000000289600000001003258010060420000000000000dc
:208568000f03fc0000000282fb10000009080aa580000000000000000b0000258000000c5a
:208588002170fa0000000080825800000242ed05000000200a00000000000000000000008e
:0d85a8000000e9a2680000000000000000d3
:2085b500000000001815225b800000000c896a000000183a25a0000100000000000000580d
:2085d5000d33dc080000005deb10800000003265a00000400000000008081a25a8000020fc
:2085f500695aa04800001815225b00000002c68f500000038100000000001c0000000000ca
:0d86150000181f269b000000000000000060
:20862200000000000080825800000003009960040050090ba58000003c3439a3000002b057
:208642000027900200000003fa30080380000a2580000000000000000b8908258000800c2b
:2086620000100f0000000080825800000342050c7000000010d4168000000c7bce000000ea
:0d8682000001a72378200000000000000088
:20868f00000000000195225b000020404e8968000320015225a010002004dba3000001f03b
:2086af0007af900400e0000dba30800000005a65a00000000000000009815225a0000024e6
:2086cf00381e0f0000000195225b000000006fac102000000a1e2b4080000071cc30000048
:0d86ef00005191a6130000000000000000e3
:2086fc00000020000000025800000003028960000000000b25800000042fc95310000800df
:20871c008063140400a0024000000002890e02a580000000000000000700002580080004e8
:20873c0001e0fa00600000000258000400401f0f000202809000154008028402d05a0020d3
:0d875c000070ada268240000038000000042
:20876900000028000007225b0000000046896a000000005a25a8000020740fa30800007125
:20878900b7e71420000002800000000000003a65a00000000000000000005225a00a0020fc
:2087a9003b5ca06028000007225b000002003eee202280051c3695400a013401fcad12282e
:0d87c9000050a3269b0000000000000000ef
:2087d600000000000000025808000022429960400000000ba58500000c28705500410050c5
:2087f600a0000000000002800000004000800a258100000000000000000e002581400000dd
:208816000340a02000000000025810000006ee00f00000000000000000408040df5a0000b8
:0d8836000000b32d580802000000000000f3
:20884300000000000007225b0000004014896a000000007a25a000002001faa500020080c9
:20886300b0000000080000000000000007803265a20000000000000000005a25a000001648
:20888300605af56000000007225b0000000785aa5000000000000000008140726bad000071
:0d88a3000000072257000000000000000048
:2088b00000000000300043140100024002b962000000100b258200000041dbd8000000f912
:2088d00090c31420002142170d70000200000be580000000000000000000082580400000ab
:2088f0003ff0fa0001001000825800000043af050003000008000000000000656f4000003e
:0d891000000007fc10000000000000000047
:20891d000000000030056b14080000000489680000000e7a25a000201c280ee4004000f1b5
:20893d00816314080002003dae70200000001a25a02000000000000000001225a0000000c7
:20895d0002eca05000008187a25b000002026d8f5003000500000000000014705f100000cc
:0d897d000000057080000000038000000075
:20898a000000000001cd23280002042600a9600800010f0a2580000004201db10840000975
:2089aa0000fa8c80000342340ff0001000890a258000000000000000000000258000000042
:2089ca0002d9d100000510008258000008003f0f500000000b08154000001c00e908004097
:0d89ea0000f0cd742000000000000000002f
:2089f70000000000008063140004c1c31e8968000000003a25a0000000315bb10000001185
:208a1700e3a68c0000b7428cef70200801007225a02000000000000000003a25a0000000c7
:208a3700021ae25000029805a25b000004002dea04100080015e954000000001ea20000047
:0d8a570000801f3c04000000000000000033
:208a640000000000908000000000000000e9600400001f0a65880000242810c5000000114d
:208a840090431484000060250eb00000001003e580200000000000000000002580000000e7
:208aa40030100f000000000002580008014280000000000d80902a800000043c10550000d2
:0d8ac4000000e901080000000000000000b3
:208ad1000000000010100000000000000499680000000e7a65a00000a000fcc5224114817a
:208af100f763140a0001c02fae70200000083225a00000000000000005883225a00000003c
:208b110004080f0000000005a25b000a0363c0000000000f88061540000026057e55000007
:0d8b31000000080204080000000000000021
:208b3e002402400010000000000000000299600000000003e580000000003aa30000000160
:208b5e00006b14000000428cb6600000070003a580000000000000000500082580000200b1
:208b7e002ed0a020400000000258000000027f0f50000009000015400000140000550000d8
:0d8b9e0000000d43fc00000000000000007e
:208bab000400000080000000000000020c8968100001005265a8000200786aa3000000012f
:208bcb0087a714800000601e1a500000000c5225a002000000000000081a3225a000014061
:208beb00026af54000000007a25b0000000225aa04000000001a9540000000016e550080bd
:0d8c0b000000056bdc080000038000000085
:208c180000000000000d439c0000000002e962000180000a25804006002800000000000065
:208c38008dc3fc000002c403fc50000000000be58000004000000000000e08258000000050
:208c580028000f00000000808258000400038505300000010d0815420000162800000000ff
:0d8c780000d1a1ebfc000008000205f00097
:208c85000003000001e37394880000039c9968000000007a65a000000004000000000579b8
:208ca500bdf3dc080006020dac50000000001225a80000000000000000005225a80000000c
:208cc50004180f0000001815225b000201c021ca302800000157154000000e0000000000f9
:0d8ce5000000ade7dc000000029785f00004
:208cf20000000000088083140000000200b960040017000b6580008096703bc50000020095
:208d120001f0000000200025b64000100b100ba580004000000000238000082580200e00fc
:208d320030100f0000000080825800000003000a30010001000415400000140000000000cc
:0d8d520000d1000000000010003d0ff000f7
:208d5f000000000019c76314880000401e99680013c8003a65a020015e75cac500000138e0
:208d7f000b6684000a0006069a400020081c3a25a200800000000000000a3a25a000001c05
:208d9f00041e0f0000000195225b000000001fca302100000c3b95401000200000000000ea
:0d8dbf000000a000000000000024cfc02034
:208dcc00800000000800728c0200000002f960100000900be580000c02001dc50041015012
:208dec00b183fc000000240dfd700000000c0be58010000000000000000000258008002c34
:208e0c0000000f0020000000025800900002b40500020005000000000001142860ff2000af
:0d8e2c0000d9b77c1000000140020fa0002b
:208e3900000080007807be8c00000000048968000001987a25a800049431fcc5000000f081
:208e5900afabdc080200663dbe70000000015225a00000000000000000001225a04a001699
:208e7900000a0f0028000007225b00a001400faf5002800b000000000000360678f70200eb
:0d8e9900005181f08000000200178fa00042
:208ea6000000000030003314000001c3c0e9604000090003e58100800002cfd11040000044
:208ec600f0fe8c440008028000000000030d0ba58110000000000000070d082580800000b2
:208ee60034100f00000000000258100000000000000000000e3c03e010000020ddff000076
:0d8f0600000000000000000020000000003e
:208f1300000000008007e714400000105e896a000008007265a80040000219e20000000057
:208f3300f7a28c00001402800000000008013225a00000000000000000015a25a040000003
:208f5300040a0f0000000007225b000000070000000000001d3f801800000002fbad0000b8
:0d8f730000000000000000a1c00000000090
:208f800000000000010003c0800003c2c2e9600002800f03e582000424002ca300000001ca
:208fa000cd4340000008275d0f30080001000aa58000000000000000000c00000001000051
:208fc0000150c30000001000825800000400000000010001000825800000000000000000e0
:0d8fe000007000000000000000020fa00063
:208fed000000000000e073c140000000169968102800005225a000003c017ba3010038799d
:20900d00f07b80080010e2d68f10200018001265a000000000000000800100000000000415
:20902d00636ad10200008187a25b00000000000000010008005a2590000000000000000066
:0d904d0000000000000000000017cfa4107c
:20905a000000000000000000000003400089620000000a0265804001640050ff00001000d3
:20907a0005794c0000a043830c50000000000825800000800000000000000003c000012c2d
:20909a0043c05500000010008258000001c22c0a00000001000825800000002c70f500003c
:0d90ba000000e043d40000000000000000b2
:2090c7000000000000000000000040000e9968000000011265a000002001ccf7020000003c
:2090e700087e8c800000004cac50282800005a25a00000400000000000000303c04000805a
:20910700385aa50000029805a25b000002000eef50000009805a25b000000039ccfd02006a
:0d912700000007bbd40000000000000000a5
:209134000000000090000000000400000099600000050003658000001e402aa3200280f8dc
:2091540080f2c400040024260aa010400080780480000a000000000000000403c000000030
:2091740001dbff0000000000025800006420160fa0000000000025800000003c2055000007
:0d919400000000000000000340000000008b
:2091a1000000000080000000000201e0008968100080000225a000003c78daa30000009042
:2091c100f3b6c4030201e2b7ea5000200180d221200000000000000000000603c04000008b
:2091e10001e8ef1000000005a25b000001c016ca04040000005a25b000000004f85501005a
:0d9201000000000000000000000000000060
:20920e00000000000080000000000002c0a9620000100003258000001e3010c50040293877
:20922e00f0328c20000007efaff0000000080b658000000000000000208000000000000223
:20924e00244fc320000000000258000003c24305501000400000258000000043c0a000005b
:0d926e0000000000000000000000000000f3
:20927b000000000010000000000000000089680010001a0265a00000266c7cc5024000b8d4
:20929b0013728c000000074fef70000000005225a000000000000000338000000000001e05
:2092bb003b6bd10000000007a25b00000207c6e550800000007a25b000000e286cf540402e
:0d92db000000000000000000000000000086
:2092e80000000000b80182800200000002e96000000f1002a580000000000cc5000000083f
:209308000983fc0000200400bb100800210a0825804004000000000000800003c000001e49
:2093280000f00f00000000808258000a0402ef0ff00401a0080825800000140010f300005d
:0d9348000000000000000000000000000018
:2093550000000000980b2a94000000021689680400001e5225a800041438dac5000000302e
:20937500092bdc08000147858b10000040001a25a00000000000000007800683c000002643
:20939500787aa50000301815225b000420028d8f70200051995225b0000176681af3220056
:0d93b50000000000000000000600000000a5
:2093c200000000000809280c0500002000d9608000170002e58000003c00cad8008018086c
:2093e200e0628c20006022819a300000000a036580000000000000001f800403c040001602
:209402003c000000000000808258000000c0010551000000080825800000140240ff000093
:0d94220000000000000040000000000000fd
:20942f00000000005005a70000000860008968000003800265a8000020021fe400000050c1
:20944f0011fa8c000001c006ba300000001b3a25a0000000000000000f800783c00200843c
:20946f006400000000000195225b0000020005a550000000195225b0000020025af70200b5
:0d948f000000000000004000000000000090
:20949c0000002000b800aa580000a24402f9600020000902a580000000002db1008000786f
:2094bc00033744000002c305bd801000000a00258020000000000000000f0003c00800143e
:2094dc002c00000020000000025800800006c000000200190000258008008e2959ff0000ad
:0d94fc0000000000000080000000000000e3
:2095090000002800b807a65a04000207169968000000015265a8000016005fb1200200b8d7
:20952900a867880100036341ee40800000011225a00000400000000000010283c02a0400a9
:209549000000000028000007225b00a00007400000028008007225b00a013e0568f70000f1
:0d956900000000000000a000000000000055
:209576000000000000e0225810000000020962200000000825808000066c1ab10000007004
:20959600af314c0100014202eb101003870a0b40008000000000000000000003c0400002d4
:2095b600395dca00000000000258080000200000000000000000258100001c2800000000c9
:0d95d600000000000000000002c0000000c6
:2095e300000000000003265a00000002868968000003807a25a400042e7849b10000000002
:2096030018768c000002e05ddb108000001c1000200000000000000000000283c0000006ec
:20962300000cc54040000007225b00000060000000000000007225b00000166c0000000029
:0d964300000000000000000000000000001a
:20965000000000003000325800000000000000000027800668c000003e2400000000000009
:20967000e0be8c040003c003da3084200008083140000e000000000000000003c0000000e6
:20969000035ce20001000000403c000003e66400f005001100082580100024400000000088
:0d96b00000000000000000000000000000ad
:2096bd00000000000005a25a0000000000000000005b803668c040003e04000000000001d0
:2096dd00d36e8c4000020016da30000010001e3140c0000000000000001c0683c040001c1e
:2096fd000209d141020001a0203c000003e6448f06030008187a25b00001202800000000b4
:0d971d0000000000000000400000000000ff
:20972a0000000004d000ba58800a0340019b1000000109937440100c402ed07200400570ee
:20974a00a06e8c040061428e040004000f000ea8c0000000000000000000702940000000ca
:20976a0000e0fa000000000d003c0100000382996000000100082580000024034ada000044
:0d978a0000080000000000000000000000ca
:2097970000000002b801a25a00046800079b10880000018378804000007e1cb10201328099
:2097b70015be8c210002071de85020000f1e3aa8c0008c000000000001000016840001009d
:2097d700396aa040000000096294000000001c996d000009805a25b040002001cda5000043
:0d97f7000010000000000000000000000055
:209804000000000000003258400000024100f00800001f07f1480000007dfd000140000025
:2098240007b40c02000364370aa0000280100af9003000000000000000000403c000400047
:2098440020000f00000001f5f7fc0000002400a960000005000025800040022000000000b3
:0d98640000000000000000000000000000f7
:20987100000000000001225a000000000180f00000059956314040000e3b6a082000000168
:20989100c7a300800001e614ca500000000e76b9004000000000000007800683c400800ed9
:2098b100041e0f01000001e1a8cc0004084214996c080008005a25b040000604000000001f
:0d98d100000000000000000000000000008a
:2098de002402820000003a58800001400cd5320000098a026c4000003c402fa300010000cc
:2098fe00e0be580202106216d6608000071e1e77400000000000000040000003c000003cd9
:20991e004260c3000000000000000000000002f9601000000000258000000237d0a5000006
:0d993e000000e0000000000000000000003c
:20994b00040000003801a25a0000420000ba3000002f1f76ec400000207978a30140880129
:20996b00b5a65a00040147c40a520820000f7e1dc80000000000001020000683c0400c203c
:20998b0032d8cb02000001e00000000000000e996c000000007a25b0400006065a520300a7
:0d99ab00000010000000000000000000009f
:2099b800000000000800b258000001c001bc5200000f0adc3fc00100002800f0010400d1ca
:2099d800f03658000003400003c0084000800003c0400000000000000f9c0403c01100009d
:2099f8003c3055080006708dc3e8000001c002c9608000000808258000000029f0ff00009f
:0d9a18000000000000000000000000000041
:209a25000002000019c5a25a80000000158c5000000819db3dc080a014700af06004005980
:209a4500d1a65a000000038003c0200007800603c040010000000000079c0783c00100004b
:209a6500395c55000001f9aff281000023e014996c000081815225b02000146ae8f7020116
:0d9a850000000000000000000000000000d4
:209a92000000000408003a58000803c3009e400000008a0679005000c60250ff00001001e9
:209ab200003e58000008239500000000009a0ee8c040a000000000001050043c0000003c32
:209ad2004340a5000000700502a800040000029960100000080825840000142a6dff0010ab
:0d9af2000010000000000000000000000057
:209aff00000000023807a25a2000c1c05dbe42084187807f790000007e6b4ef70201087813
:209b1f0081265a0000c1e20ec0802400179f32a8c000000000000000001e023c1000002034
:209b3f006a005a20000081886954000800c31e896e000000195225b00000366f58f7003018
:0d9b5f000080000000000000000000000079
:209b6c00000000000100325800000802418a311000091a077140080000286cf0000100f0e0
:209b8c0000b658000223c00d0ff00010231b0af9004000000000020003000403c048000213
:209bac0028000000200008a5c2940080000380996016000000002580000000295cff0022f1
:0d9bcc00010000000000000000000000008b
:209bd900800000003985225a00000546c58a300800001e1e31400a000604fbf10002000031
:209bf90005265a8004020006ef7020080f8c3339020000000000028000000283c00a0006d4
:209c19002800000028001011abc000a00007de996c028000007225b0000016055bf7002867
:0d9c3900100000000000000000000000000e
:209c46001000000090003a58100002c0000000000000000ba8c010000001dcca00000008c8
:209c660000aa581404080034cff000291f0f03a8c00000800000000000100a28c040000045
:209c860027f05000000000f0403c0000014780a960400000000025850000402c00000000c4
:0d9ca600000007003c12000000000000005c
:209cb300000000388007225a80000360000000000000005768c0000016021ec52080005009
:209cd30003a25a00061406bdbf70002820007628c80001000000000000085f68c4004000e4
:209cf30000d8f50000005010703c00000206de996e000000007225b400000600000000003a
:0d9d130000000523c16000000000000000fa
:209d200000000000b8003a5800000002c39b1000000008941c80100a02014bd800000000f1
:209d400000be580000024381ba300040070007f900000000000000100f800c2a802000047d
:209d60000000b10000003090003c0000002402e96011004100082580100074400000000004
:0d9d8000000000aa5821000140030f500010
:209d8d0000000000f007a65a40000006568b1000000001072c40c00094000de421000000ae
:209dad0003a25a000006000c9a308000081c36b900400000000000280f80372a8010002020
:209dcd0001ccb1020000f8a0703c0000004294896e030028187a25b80001c0600000000129
:0d9ded00001805a65b000003668def500016
:209dfa000000000008003a58000000003d0ff00001091b140002100024243da301000010ef
:209e1a00e03658000060c2439e400400001b0003c000814000000000008898194000003e1d
:209e3a0001c0ff0040007000003c00000242429962000001000825840000140369ff0000aa
:0d9e5a00000100365820000340068000087b
:209e67000000000070e7a25a00000007b4af7020000819368204800026047aa300000001e9
:209e8700c7225a000c22605dee400000000e0683c40040800000000101015aa9508000046a
:209ea70068400000000081e0783c000000005c996c000009805a25b0000020695ff70000e6
:0d9ec7000019e5a65b0400000016f800007d
:209ed40000000000b000225880040002819e400000098f7632804008343ae0ff000000000a
:209ef400d03e580400026643ca3004000f10000000000000000000100f08dbc88000008052
:209f1400000000000100700d83c0000081e00289600020150000258000000224f0ff000031
:0d9f34000010802a5820000002800000006c
:209f4100000000008003a65a0008000046ae400000099803f148000000676ef70200000096
:209f610083225a00000063569a300000001c00000000000000000020001f1622000001408a
:209f8100000000000200d9ef7be0080000400c996e000000005a25b04000067ffcf500005b
:0d9fa100008017a65b800400004000000057
:209fae000000000801a02258800000030000000000078e383fc020e03c3c50ff000001b1a8
:209fce00e036580000a542ed9d8080000f8ffe7c0000000000000000000870000000000400
:209fee000250a600000000e041540000000382e96010000000002580100000647ddd000095
:0da00e0000000032580000014280000000f8
:20a01b000000003800f7a65a0000000000000000000981d73dc0806020044af702000080d1
:20a03b00c5225a0108000380ce4200005701befc4000000000000000070137a840900026f9
:20a05b0001fa65420000001721540400000306996c000000007a25b000009666ec770100f6
:0da07b00000005a65b8400034040000000cb
:20a088000000000000e02e588010080283ba300400000af694c40000002800f3000008903c
:20a0a80000be5800000002800f300000011a043dc0000000000000000f08037800000e0005
:20a0c80028d0a101000070f3c3e8010003c002c9611000000808258040000040000000009b
:0da0e800001000aa58000044028000000093
:20a0f500000000000013a65a001004e247da320010200103a8c000000c3c1cf302000000fa
:20a1150007225a00000007c0ef302000079e523dc08001000000000008013ff800000000ec
:20a135000448850a0008001fb281000003e004996c000001815225b00000006000000001df
:0da15500000181a65b8100000040000000b9
:20a162000000008400003e580000004703ac500000030a0768c040001c3c3da30140807098
:20a1820000b65800000000009e400400008007e8c010000000000000010b043c000000142e
:20a1a2002830550000000100403c0000014400c960100000080825801002002800000030d6
:0da1c2000000002658200000001c00008056
:20a1cf00000001020007a25a400002065e9c500000081b3fa8c000000001dba300013080de
:20a1ef0003225a000000001eee40000005007ba8c020000000000000080002bc10000200a5
:20a20f00015a550000000180703c0000020694996c000000195225b00008006c00000030cd
:0da22f00000005a25b200000002de80020cb
:20a23c000000000098003658000009c2439b1010000000bc3fc00000002010f70000000031
:20a25c0000aa580000e00403dc500400000b07ec40000000000002000f0f0403c00840005c
:20a27c0000d8da002030000fc1548082002382a9610210200000258010023c28000000227c
:0da29c000000f02a5820000140020a0000d6
:20a2a900000000009803a25a80001402dccb1000010500d23dc08000002df8f7020000003e
:20a2c90003265a800000030e9c50800000005b2c482000000000028008010603c80aa016ea
:20a2e9000049a4402800000d7a9500a401c35e996c02a010007225b00000000400000028f4
:0da30900000017265b200002000eca0000b5
:20a316000000000000003658100001c3870aa0000007083714c010001c001aa310028000ff
:20a3360000b65830000002c3cc511000000b0728c00001000000000000099b4440000014a0
:20a356002bc0500000000100003c0000000282a9614800000000258150060003cbff0100cf
:0da376000010802258100a01400000000075
:20a38300000000000007a25a01000002868a500000001987a8c80004b601dba30081120078
:20a3a30003a25a00040803069c510000000033e8c2200c8000000000000156a21000003ec9
:20a3c30005caf500000000a0683c000000004c996c000000007225b000000000cff7000014
:0da3e300008015a25b400402000000000095
:20a3f0000000000000e02a58200000022dad80000000000628c21000063b5d53100000006e
:20a41000d022582000016400000000000b0d00000000010000000000000d0403c0000e0062
:20a4300064000f20010078f0000000041407c0c960110001000825824000340020f51000ae
:0da45000000000ae582000000000000000d9
:20a45d00000000000015265a0000000600ce400000001c52a8c000020f021da3000010007d
:20a47d0007225a00000047000000000007000000000000800000000000010283c400000024
:20a49d00640c0f00020090100000000a0007dc896c030008187a25b000003c007af500007f
:0da4bd00001805a65b0400c00000000000b0
:20a4ca000000000000002e58200000022db72000000b0e96dc820000a424000000000000f1
:20a4ea00802e58000000c217dff000000f9bd43fc0000c0000000000030014280000001cc0
:20a50a0040100f080000f0f0c3d40000002002b960000001000825800000142ae0520000fa
:0da52a00000000b658020a024000000000c8
:20a53700000000005001225a0000c046a08b1014000101022c400001000000000000007001
:20a5570001265a00000207c6ff7000001f8a133dc0800140000000000100723d50000000ab
:20a57700381e0f0000008015a3d4000001c016996e000009805a25b06000206dcaa502005f
:0da59700001885a65b24040006800000006b
:20a5a4000000013000002a5800000002c19c50000020000be8c00000007c100f200210088d
:20a5c4000036580000064342ec500400098b9c3fc00000000000000380000003c8000000a1
:20a5e40000100f000000008743fc8000202780a9600040210000258000000040208000023a
:0da604008010802e588000154000000000de
:20a61100000002800000225a010001605cbc50000050007ba8c0000080381c0f200100101a
:20a63100e5265a000000004dec5000000d00bbbdc08000000000000000000283c00000040d
:20a65100000e0f2000000019f3dc0800804256996e000050005a25b0200000787a8002008a
:0da67100008017a65b840022068000000018
:20a67e000000040000008258010001c7830e4000000008b6dc880000000030e00000000012
:20a69e00002a5800000026fc0ca000000090143fc000208000000000000c00000000403e7f
:20a6be0000100f000000000943940000000002f960000000000025801000002859ff0000ed
:0da6de00000000b2580000000280000000e3
:20a6eb00000004000001225a0000c203d7ee4020000000062c48000080007ee0020000008a
:20a70b0003a25a000220e281ac50200007083a3dc080404000000000000000000000201612
:20a72b00700c0f1000000001fa94080000c00e996c080000007a25b00000160248f700005b
:0da74b00000005a65b8400014040000000f6
:20a758000000010070f02658000201c34e00029000010078154000020029c0aa08000001f0
:20a77800002e5800000160029a300400200003a8c0100000000000280000143e8000000273
:20a7980028c0a500000170f57c00000009c682c9601000200808258000000240000000028f
:0da7b800840090ae58400000042d0ff0000a
:20a7c500000000808005265a800402006ec080200000085ba94000400003eaa5000000007d
:20a7e500c5225a0000004797ea300000100077a8c200000000000000001c9328100000162d
:20a8050076005a200000f80daa00000016c386996c000011815225b8000006600000000108
:0da825000a0195265b00000002afaf702015
:20a832000000000058003a5800000043fefff000000b0d06f9040000000019a320400000b5
:20a85200f0aa58000040203c0ff00001001f3838c2002100000000000090d415400000002d
:20a872004000f000000010e0003c0000000000d9610000000808258000000401d8c30130aa
:0da89200000000a258200000002cfff00084
:20a89f000000000059e0225a020000063d8f7000100d1b52b90000001c01cfa3000010308e
:20a8bf0007a25a000001e027ef702020500bf7bdc0804c8000000000079e962940500000c0
:20a8df00680ef040000001e0383c0000000004996e000000195225b000002003fccb0030f9
:0da8ff00000185a65b800000001ccf7000ea
:20a90c000000013000003e580000082414b0300000001000000000000078000000000000bc
:20a92c00003e580400a00400da300400801033d4c00000000000020050800003c02800802b
:20a94c0000f0500000003800000000800003829960061000000025800080242400000020d2
:0da96c0001f0002e58200000000000000047
:20a979000000028000a5265a020014662c8c020000071e0000000000002400000000380060
:20a9990005225a001000628fea300800000a8768c000000000000280258a0383c00a0a4076
:20a9b90001faf52000007000000000a0600784996d02a000007225b4004a200400000028ea
:0da9d900108007265b400000000000000019
:20a9e600000000000800825808000002c099604000208a02ec420000000000000000000092
:20aa0600a026581000000014e66004000d8007b9000020800000000009900403c040000017
:20aa2600017ba500000001b78280000001e38289603000000000258080000667cbff00005a
:0daa4600001000a258100a000000000000df
:20aa53000000000058a5a25a20000003ce89680000038e5e2c4000008000000000000830f5
:20aa730011225a80000006ac1a500000051a32f90020404000000000039a0783c0000000c9
:20aa93006a5a3000000000fd2bd4a00003e01e896d000000007225b402000665cdf70000a0
:0daab300008005a25b800400000000000090
:20aac0000000000000806f140000000000f96010000d000bb1400001246d408000000008a7
:20aae00000ba58040000039daf6000000000d21580100d40000000000000b803c800020048
:20ab0000003be220000059ef039c2000000740fa300000001000000000001400000000005c
:0dab20008000a0b658020002c2000051944f
:20ab2d00000000000013bf14040000001c89680000081a5671400000e029588102000030d4
:20ab4d0005225a000001c38edf50000000005a6550004000000000000180da3c1a400000a6
:20ab6d000179e2000008999902040a0060064eba321000000e000000000000000000000163
:0dab8d00000013a65b000023604fe05000a5
:20ab9a000000028050a33dc801001003c2d9600000000b0000000000362c09c5000000b027
:20abba0000ba58040002c436bdf004000008b255800000000000000000000b658000001425
:20abda0000000f00002070a03788000400038000f0000000000000000000000000000000e6
:0dabfa00000000a658200000200f0e801063
:20ac07000000010080b03ac4040008c00c89681000078100000000002e01dec5004000701b
:20ac270001225a000002022dae5000000000ba25701000000000000001883a65b400002006
:20ac470000180f00000080137f88000a016040a0f0000000000000000000000000000000f1
:0dac67000019e7a65b000001c027ef0420e4
:20ac740000000000108fc2a80000004000f96000039100543fc00000347000000000000093
:20ac94000036580100e267ac0f6000000189ba158000a0000000000051180365880080005b
:20acb4000039e22000009090bf90000a01c380c96000400080000000000040240000000437
:0dacd4000010a0a258001001e20d0aa0001f
:20ace1000000004001813a940400c00016896810040018b7bdc080100020000000000000e8
:20ad010000225a00020042758f502004031eda65780000000000000408097a65b0405600e8
:20ad2100016ae200004080137f90000112004089600004070000000000100000000000008c
:0dad4100708193a65b8001004045ca500060
:20ad4e000000000078f17dc800000143c2d960000001001c3fc00000340010f0010000089f
:20ad6e00d03a58010001461d00000c1007009255800000000000000000000b2588010000bb
:20ad8e0000100f00010071e073140000042000d96000000000000000000000000000000050
:0dadae00020000b2580000c023c0000000e9
:20adbb0000000000f9b032c4040002028689681000080016bdc0800000001cf060000010b3
:20addb00e0265a00000003f5e080200028009225701000000000000000003a65b0000000d2
:20adfb00000a0f00020099977f140000096000996800000780000000000000000000000069
:0dae1b00055807a65b800001c04000000044
:20ae28000000000000f0f3140100002000f96000000b1fb43fc000008203c0ff100000f078
:20ae480000b258000000401dbff00028001bd21580002e010000000000000b658040821435
:20ae680028000f000020000f0388020000000089600000000000000000800000000000006e
:0dae8800050000a65820000000000000009a
:20ae9500000000000013bb140000a0600c896800000919d6bdc080000e02cef70200008072
:20aeb50005225a010002020d8f700038031bd265780040000000000800185265b0004b20b4
:20aed5006c0a0f00000000083344080000001c996800000000000000000200000000000032
:0daef500020003a25b00000003000000004b
:20af0200000000001001c3fc0000000002c9600000000056360000020443fcff0000000163
:20af220000365840000343fe0eb000018b1fda55880001000000030000000a6580400000aa
:20af42002b494000000000034360000401e000896000000000000000000000000000003097
:0daf6200380000a65820000000000000008c
:20af6f0000000000018fa3dc080000021c99680000050883f90000002663d9f700000001a9
:20af8f00e0225a000001c395ae702000031f7225700000800000030000183a25b000a01626
:20afaf002e0f8000002800083b90080803e0009968000000000000000000000000000030a6
:0dafcf00010007a25b000000000000000070
:20afdc0000000000580bc2000000000400f960000305000228c0084174403eb101000000f4
:20affc0000a25801000342cdaf900200000e921584000140000002002000036580400140e2
:20b01c0028093c0004000000c2000000014000f96000302900003fc60180002c70000020ac
:0db03c000000803258009000000207400024
:20b0490000800000580d3204080000028489680000001c7628c00a2000295db11000000062
:20b0690005225a000000002dff50028203813265700000000000029000007265b00000168c
:20b0890000003c00001800a3fa00080003601c896800201000003fc8600000005880222885
:0db0a900001817225b01a000078ee7402071
:20b0b6000000000071903ec40000024002b96040020580363604000002340aa311010009e5
:20b0d6000002580a0200002c0aa00000008e3255810000000000000001080a2581200000af
:20b0f60000000f0001053003fb4c0000000000f9602000000013c00000000222c05000002b
:0db11600000080b4000000004034d0f000c4
:20b123000000000080e1aac4800002001c89680000039c867900000006045fa300000011f3
:20b14300e5a25a0000c00035aa500000078dd225780000000000000088013a25b000000081
:20b16300681a0f000280000b679c0002000000996800000000b76004000404021ea00000c5
:0db183000001978402000002002fe8f00098
:20b1900000000401019000000000000000b9600000010f7c30c000003e00d0ff000000095e
:20b1b00000003c040006640000000000000d9ad5880020000000000041400b658020000020
:20b1d000000e960000000000f388000000038000f00000000900000000000240000f000073
:0db1f0000000a000000000000000000000b2
:20b1fd000000040030e00000000000028c896800000900d73880c0002601faf702000071bc
:20b21d00e0703c00000847000000000000019a65700040000000000028003a65b0400200cd
:20b23d000008962000805c052388000000004180f01000000100000000001c201a0f01007f
:0db25d0000001000000000000000000000d4
:20b26a000000020400e0000000000000009960044050000b28c00001024029a30100000846
:20b28a0009314c000a0000340ff0000040109a15800000000000000001100b65802000043d
:20b2aa00000c9600000051b92b6000000020000000002800000e28c00001060018c0000030
:0db2ca000010800000000000043d85308071
:20b2d70000000000500000000000e140168968004020001fe8c000009e715aa3200000701c
:20b2f700002a8c420401e39f8f702800000e3225701000000000000008085a65b00000002d
:20b3170000099680000001e03b9000000140000000001000007ee8c0400084001ac0000036
:0db3370000580000000000000780ca300828
:20b3440000000000000000000000000002b9600401810c5036000008003c1ea300003890e9
:20b36400f0000000000020160e300000000fdad5800001400000000000080a258001082cfa
:20b38400000b9600000000008344200001e3c1be40804000000000000000000000000000be
:0db3a400000000000000000000000000009c
:20b3b1000000004001a00000000000068c89680003800187b900c0000405cfa30180000098
:20b3d10010000000000040278f702004001f3265701000800000000400183a65b40000a0fd
:20b3f10000099680000050053344080003c04f9e400000000000000000001e00000000003b
:0db4110000000000000000000780000000a7
:20b41e00000000800000e3140000024282f96004000f005c000250003e0000000000003049
:20b43e000783cc040001c402ca300000000d1a158010000000000000000003658810000007
:20b45e00000896000000f8a06b900000000241da30082821000000000000023dcfff0000f2
:0db47e00001100403c000000000000000034
:20b48b00000001000003fb14060002001499680000010097820080001400000000000018ab
:20b4ab0005338c080002020daa300000000ffa25700000000000000001807a65b00000001c
:20b4cb0000089680000070b1b3900000000056aa301010180000000000000600eff700800b
:0db4eb00000180303c2000000780000000c0
:20b4f80000000000d80543fc010003e002d96010000908103fc0000014000a3c010000303e
:20b5180000aa8c00000360160e300010000e12d5801040000000000000080a65800040001a
:20b538002c089600000000094360000002c34000000000500d0000000000002a40a5080004
:0db5580000000000000000000000000000e6
:20b5650000000000500da3dc0800006004996800000f087e3dc080002068013c0000008026
:20b5850007fe8c200000403fef7020200380d265700080000000000020013a25b0100000ed
:20b5a500000896a0010018006390090002004000000000800f00000000000c06005a0000f6
:0db5c5000000000000000000000000000079
:20b5d2000000028070007a8c8000000242a960040049000b28c000000278c050008080903a
:20b5f20090003c0100034000ea30000300885215880000000000030000080b658200010295
:20b612000008960000001805830c00001002830d100000000000000000000000000000001c
:0db6320000000538840000000380000000c7
:20b63f000000010080057a8c020000001499680000a81e5e28c0200004705cf50040000017
:20b65f0000603c000000060faa3000280380922570000e000000031000015265b200001ec5
:20b67f00000996800000d0e9ab8c2800880017ed10a0000000000000000000280000000010
:0db69f0000700722102000000000000000d5
:20b6ac0000000000000f41540000000402996010000500379c8040000000100f20400208aa
:20b6cc0000268c0002026640000002000f1dbad5800000000000020000000b2580000034df
:20b6ec0000099600000001d3fc80000003c2828c50000005000aec480000004030d1018027
:0db70c008000003e580000054034d21008b7
:20b71900000000000007fa94800000060499680000038e06ec40000000000a0f00000071a3
:20b73900c17e8c2000014280000002820f1fba65780000000000028281803a25b200400023
:20b7590000089680001058bf2a84010000004eec50000000005b6c40000000714cd10201ba
:0db77900000005265a20000200069840003e
:20b786001000008450b000000000000202e96044400710023144000000316d21050000707c
:20b7a6009b81400600000015f0000000870dfa1581000000000000200000036587000036b3
:20b7c600400a9604000009ab7bc8000400200000f00000008002e581000094001ec5000015
:0db7e600000000b2581000004002f9604061
:20b7f3000000010200000000000000001489680040071c57b14000001c6449840000000135
:20b81300e963d4000000003580800000031e1225780000000000000100187265b00000143c
:20b8330028089680400010b127d4000a014001c0f00800050012658000004000d9c52000b5
:0db85300000007225a01000200148968005d
:20b8600000000000000000000004000000e9600000008003b140100024642f960040051055
:20b8800009638c02000000000000004013993355800000000000000000000a65804000008b
:20b8a000000c96000000000037880110000640000000000d0d0a65800001024350500000e1
:0db8c0000030003a58020003c002b96000d9
:20b8cd000000000000000000000800001489680803071c163148000e003de8968002020044
:20b8ed0009679c0000000000000000402908ba25780000000000000000187a25b000000000
:20b90d0000089680080500c33b8800002007400000000000003265a000008678daf50000fe
:0db92d00008001a65a000002071e89680074
:20b93a0000000000f100000000000143c0a96004000909000000008000240c960000000093
:20b95a000000000000000000000000020b90f3d5800000000000000000100b658400008064
:20b97a00380b96010000088063140000000603fa300000200e0a25800041407820c10001e9
:0db99a00000000265802000047c2c96000ee
:20b9a7000000000000e00000000003600c896800000d8100000000000000c99681000010c2
:20b9c700000000000000000000000000039c9a25701000000000000001881265b040014051
:20b9e7000408968000005011af1400002002c4fa30001050017a65a000008064fac1030266
:0dba0700800007a65a00000007ce996800d5
:20ba140000000000080d4154000003e000b9600000000f301540000026002f9600000008e5
:20ba34000131c804000043f60a0010100f9d135580100000000000000108026584000000f9
:20ba5400340996000018f0d0274480004002830d1004000000026580000000003dc5080065
:0dba74000030002e58020001c000e9600003
:20ba8100000000005805b295400001c00099681000000156294020000600c896810000101a
:20baa100003ec4800000006ecf5200080f897a25700000000000000008015a25b00000008d
:20bac100040896900002519377440400000055cd11200000000225a0004000604ac50000c5
:0dbae100008000225a000002070099680052
:20baee000000000000e000000000000000c96010008008f43fc000085e2c2c960000000050
:20bb0e00cd0108020003c3af050008000d90bbd5801000000000000800000b258040000206
:20bb2e00000d9600000031a1838c0000000403ac500038200e0265800000264040990000e4
:0dbb4e000008002e58000003c000c9600070
:20bb5b0000000000001000000000c1470099680000010093bdc080001c01e9968000000004
:20bb7b0080020408000000178f501000031cba25700000000000000000001265b00000443d
:20bb9b0000099680400080e72b9c0800000716fc50003010000265a00000142240a5020028
:0dbbbb00005000265a000002078089680033
:20bbc800000000000000f28c00000803c0f9601020010006b900000140000f9601000000e4
:20bbe80000bb14220000024000f004100000fb84800000000000000000000a6580400000d8
:20bc08003c0b961000000000ef9001000142820e40000000000ba58000000440d00009004f
:0dbc280000510032580000000002d96000f9
:20bc35000000000078053e8c81000400548968000003807f3900000e8000c8968000000037
:20bc5500e32f140000000000a0f000080000f22df01000000000000001805225b00000004a
:20bc750000099680000050032390000003405d8e40200000003265a000602071f81a1200b0
:0dbc950000d983a25a200000001e8968001b
:20bca2000000000400b0003c2000002000e9601000078a763600400000000c9601000000d9
:20bcc200000000000007400000f00000000093d5801000000000032000000a25800000025f
:20bce200400a9600008010b06b1400040004160ff0000385000225800000343040fa0000b9
:0dbd02000000902a58000000030009608036
:20bd0f00000000020090383c000020400089680000018002790800000000e99680000010aa
:20bd2f00800000000001e000a0f000000000fa25700000000000030080181265b800000e9c
:20bd4f00380896808000d003ab14000a01661fae50200008000225a0000000604ae502005e
:0dbd6f00000010265a800000001c896800aa
:20bd7c000000200079f043dc0100000000c96000000d000af14010a14000099600000000fd
:20bd9c00b0b7140000e0040000000200000d335580108000000002000f0002658400000085
:20bdbc00000f960801005800af904000014001bc000000050a0aa5800000342c38a300402b
:0dbddc000050902a580000000002f961009c
:20bde9000000280099e163dc080000001499680810000036314000448000e896800000516a
:20be0900e5ab14a0000003800000028007817225700040000000028008007225b010000020
:20be290000089680000051a3eb900000000000fc000000080b3225a000003e01efa3200075
:0dbe49000001b3a65a000000001e89680029
:20be5600000000007000628c0000000002096020002900521c84000080000c96040000980a
:20be7600000000000a000000c3c00000000a9b04888000000000000001000a258300002c8f
:20be960000089604000090a0ff1440000140038c5080000500082588800014383fb1000051
:0dbeb60000000082580800000000f9602024
:20bec300000000008001e68c0000c0000c896808000d1886ec4800000069e99680000098c8
:20bee300000000000000000013c100000701322df00000000000000008081225b00000001d
:20bf0300780896a000000003af14000000028cec500003001a7225a000001c6dc8b1200062
:0dbf2300000001a25a000000000089690022
:20bf30000000000010812c0c04000020020c500000000fd29980100002000b9600010000f8
:20bf5000000000000400c0000000000180805776080000000000002801000b65800000001e
:20bf7000000d960002003000000000000022ceb03004000d8b17f6000000002940d00080aa
:0dbf900000d9a582a800000040019a3000f1
:20bf9d000000000000052300000000621ccc502800000118694000000e01e99680002000aa
:20bfbd00000000000800e00000000000018003b9002000000000001208003a65b040000076
:20bfdd0000089681000080e00000000000e3a68c00000105180639000000006e1ce00200e7
:0dbffd000018a7e294000000000cea3000dc
:20c00a0000000000100026580000000402aa308400009f0ab14010021c382996080000005d
:20c02a00000000000000200000f00400001f0671400000000000002201100b6580100c00cd
:20c04a00400d96200000019f3c840000036000e96000028f1b07f1420000002438a30800da
:0dc06a0000009063900000004400fb1000f7
:20c077000000000001a7a25a0000000395ba300000018e7eb14000002005c99680028000ff
:20c097000000000000214001a0f00000078932f14400000000000010081e5a65b0000000fb
:20c0b700780896800000008fa210000001400e89680000000a1a314400440005cca3000001
:0dc0d700007005f790000001c39f8b100062
:20c0e400000000000000a258000002c600ab120000090f0eb900000002242b960102b8003c
:20c10400a06b902000e340360f7000000000b03d400000000000000380090a2584002800f4
:20c12400000a96200000080032580000002000f96000000008083dc0000004000d3c0000d6
:0dc14400003007214c020000000000000048
:20c15100000000000003225a000002c615fb100020081a32790040000604c9968001000050
:20c1710011af9000000240378e702000000012a8004000000000000000183a65b000400026
:20c191007809968000003000265a000000e0009968004000013fbdc080003600003c010076
:0dc1b1000081a8628c00000000000000006a
:20c1be00000000000080a65804001640240ca004000b0f00000000002438099600000000a0
:20c1de0009b40c200000001c0ff0000000000bb14410000000000000000003658000000045
:20c1fe003c099601000000d0365800000006c0f96000000d80f41c804000022fc06608000c
:0dc21e00000100e344000403c78000f000ad
:20c22b00000000000087a25a0000084001ac522000080100000000002000e996810180005f
:20c24b000127008000000024af702000830e7671400000000000000001807a65b8000000f8
:20c26b003c08968000000010225a0000000280996800100380862c408000066240a52200d6
:0dc28b000058a37b44000a03e7c1a0f01097
:20c29800000000000000ba580000024283cc50000005000368c040a00c2c2b96010005186a
:20c2b800002258200400c2740ff0000000000003c80000000000000000080a658040003c55
:20c2d8000020961000000100be580400000240d960000000007c0000500004004000018059
:0dc2f80000d00f200c200001400f080000b6
:20c30500000000000001225a80000363cfec50000000003b68c000410004e99680000218e9
:20c3250085225a000802e2c5cf702000000e0383c00000000000000000013a25b000002063
:20c3450001c89680000000a7a25a000000005e89680000071adf8200c0001e027a08020021
:0dc36500000003a7000100000616c810200c
:20c372000000020208b03e580000002342cc500400001cd82a800000800009960100020113
:20c3920080a658000001c740ef3000000f0c7c2a800000000000030000080b65804000006a
:20c3b2000008960000000000225800000002c0d96010000000f800000000140150400000ab
:0dc3d20000d800ba580000000004f99000e7
:20c3df00000001003801225a000000604fbc520000438976a94800000001c99680000011a7
:20c3ff0085225a2000000741ef30000007811329482000000000030000015265b0000000ff
:20c41f000009968040000000265a00000000008968000005807b284080403400dea0020051
:0dc43f00001807265a000000003c0a5000bb
:20c44c00000000000000b658000001c034ad8084000900983c000040002c0b96000035b04d
:20c46c00002258000001e00c9810000000090403c8000c000000020000000b2580000024e7
:20c48c00380d960000009400a2580000000280e9600000009a70308000002403dcc20000dd
:0dc4ac00009000325800000364140e2000c0
:20c4b900000001000001225a80000000219e4000000018bbbc4080200004c9968000028092
:20c4d90005a25a800a1063b61e70000007000683c00000000000028181803a25b8000620f0
:20c4f9000009968100000007a25a000220005e89680000050b033040800014001fc1000098
:0dc5190000d807225a00000142a0ed1020ba
:20c526000000000009e0a6583000000280ba300000000d03e8c010000000099604042008db
:20c54600e02e581000024000ba3000000710000000000000000000000000002584800000f3
:20c5660024099605020008002e58080000000209602000000056b280000026001da3080054
:0dc58600003800aa581000000403fb10103c
:20c593000000000058b1225a000000004fba310000070116a8c0000000016996800400714e
:20c5b300d1265a0000026007aa320000080e0000000000000000000000187225b00000005d
:20c5d3000009968000001000265a020000001689680000071883b1400000266948a3200063
:0dc5f300005007225a020000028d8b10003c
:20c60000000000001000ae5800000146400f300012019900000000403c402e9620000050a2
:20c6200000265800080040039c50040020000f714000e0400000000010000403c00000006a
:20c64000000996000100f000003c00000807c40a0008000f000403c0000a0028100f010001
:0dc6600000f000ba580000002400000000a7
:20c66d00000000000003225a0000026741af3020280f1c000000008020294996800000808a
:20c68d0003225a00040006869c500000500056b14010ae000000000000000683c0000000f4
:20c6ad000009968003000000383c01000407e7cf50040000000383c040001600080f00000e
:0dc6cd0000d803225a000000e70000000022
:20c6da0000000000118026580000000402fc520000001e0228c00008346c2c960101000069
:20c6fa0000ae58000000403c0ff000000389943d400000000000000010000003c00000002f
:20c71a00000a9600000008000000000000003d050000000f90f02a800000022830c50000bd
:0dc73a0000f0f03a58200009e42c0ff00840
:20c74700000000380087225a0000000697fc500400000b5fa8c020000020499680000050e9
:20c7670083a25a000003621d8f70200003811239408000000000001080000683c0000480a6
:20c78700000996900000780000000008000787ef501880071e7ba94200081c01c8c503003e
:0dc7a700008017265a0000174704cf7020ad
:20c7b400000000000000ae580000004294ed800000091f042c4000021c400e960000000082
:20c7d40000aa5800000002838a300000000033dc800040000000000000000403c000c000ae
:20c7f40000099600000000f00000000003c4050a00800107000003c000000066cad800006d
:0dc814000000002e5800000342430e40803b
:20c82100000000000001265a00000366619e4200000819372c40a00a2020089681000001fe
:20c84100a5265a000001c01e8a300000000806ac4040a0000000000000000603c000e00096
:20c861000008968080000000000000000203a5ef5200000f000303c010001e220ee4000017
:0dc88100000000265a000000001c8e402020
:20c88e00000000000080265800000140009a3000000990f40000400080000f96000002503d
:20c8ae0000ba5801000340009b10000000800000000000000000002010000003c000800076
:20c8ce000009960000007000403c000000000100f000002f80302a805000c2003ac5010033
:0dc8ee0000f0a02a58000000062f000100f5
:20c8fb00000000000007a25a0000020015fa3200000998b38200c000000009968080009012
:20c91b0001225a000000001eab101000071e0000000000000000000007000283c00002160d
:20c93b00000996a000008000203c0000000001e0f200001f8033a94000014468c8c50000f9
:0dc95b00008010225a000000636c808028cc
:20c968000000010000b0aa5800040143400f7000000900b6bfc00000000029960000009068
:20c9880000ba58000001c2819a300010201b000000000000000000000d900003c0000000c4
:20c9a800000c960100060005c280440000000000000000008078280440000003c972000099
:0dc9c8000008b03e580000004001af7000b4
:20c9d500000002800011225a800a034044cf7020004800bbbdc000000001c8968080018063
:20c9f50005265a000000101c8a300028111c00000000000000000000050a0683c0000016f4
:20ca150000089680000101a173d40400000000000000000700573d40400000021eb12000e9
:0dca3500005003225a000002000f8f700015
:20ca42000000000491f0be58000001c002fc5000000500383fc0000200002096080000002e
:20ca620000be58020000c03dc53100000010043800000000000000000d8b0403c0000040be
:20ca8200000996000000f00d014044000c000100f00000000070140000003c0000000000b6
:0dcaa2000000002a5800000b4024e5300081
:20caaf00000000028195225a400000061fec520000000036bdc080000078e8968000000087
:20cacf00e1225a0000020001aa320000001c36b8008002000000000085000283c0010400b0
:20caef00000896800010000d7bd40000000001c0f20000000c773d480000360000000000ac
:0dcb0f00005800265a0100040021ba300031
:20cb1c00000000000000be584000a1e2850ff00008030c0bec40004000002f960100000048
:20cb3c0000b2580200002703ca300000000c742a8000000000000000000b0003c00000149d
:20cb5c002808960040000000003c000003424100f0000000000a3140000000243ae4000044
:0dcb7c00000100265800000002c1ab1000af
:20cb8900000000000001225a000001406eaf70201000011fec440000000148968000000062
:20cba90005225a000001464e9a300800000176a9420000000000000000000283c0000020bd
:20cbc9006c08968000000000303c000003e00180f00800000016b148000000007ce400008b
:0dcbe9000000a3265a0000c0000ffb100042
:20cbf6000000000000f0ae58100003402deff000020b000a28c01000000000960240007073
:20cc160000a258100002c6849d810000000b0e68c40000000000000000000003c010000072
:20cc360028089602000000a00000000002400000f0000000890000000000007a40aa010056
:0dcc5600000000025808000026dc0aa08043
:20cc6300000000000015225a400000002fdf700000000037e8c000001e7848968000098006
:20cc8300e1225a2000064701ae400000059a3be8c00000000000002000000303c000021658
:20cca3006c099680411000900000000000000180f2000001000000000000002cdca50040a4
:0dccc300000007a25a0000014284ea500060
:20ccd00000000000000022580100024203da300000008a0000000000002bcad828002801d0
:20ccf000c0a65800000162240d82001000180771400000000000004001000000000000042b
:20cd1000003bc508000001002f90060000026c0500000000000000000000000000000000c2
:0dcd300000d1b0b28c4000000000000000f7
:20cd3d00000000003007a25a0004020014ca321000071b0000000000542a0be400000001ed
:20cd5d00d3a65a000802c041ee422000011973b14010000000000040259c00000000001cdd
:20cd7d0000cac500008010e16f900000004047ef51000003000000000000160000000001b6
:0dcd9d000001c16a8c80004003800000008e
:20cdaa008000000010003a58000000c281de410000000e00000000000039c8ca0800000004
:20cdca0090be58000000069f000194000010b83fc000000000000000000000000000401c46
:20cdea00340000000000300083dc200003c0050a0080000500000000000000001ca30040f0
:0dce0a0000500002c400000003c000000042
:20ce1700000000301007265a000002000fee401000001c000000000000021ac500000000e8
:20ce3700a7a65a000000e2cda08220000118bebdc080000000000000000000000000200649
:20ce57000400000000000003ebdc080000003dcf5004000d800000000000000059a30000fc
:0dce770000d0013ac4880000000000000057
:20ce840000004000000032580004016000ca301000001f3c30c0004002682ae40002080147
:20cea400c03658000000000dbd8010000009043dc00040000000000001000f314050001497
:20cec400003dc510000000a16dc802000000000a00000000003208402000542800f3000051
:0dcee40000b0ef4000020000000000f00070
:20cef100000000000000225a010a006017ca30000000183eb8c08000067dfbe40001000078
:20cf1100f0225a8004f40000ce400003001932bdc080a00000000000010032b140000020df
:20cf3100786bc500000051887ec40000000787aa0008008300f261001000066c0af3020086
:0dcf51000001c970200a00006001a0f00876
:20cf5e000000000000003a580400002601de4000000008fc3fc00040a4003cc500000200ee
:20cf7e000082580000016781aa3000020900fa39c040000000000000008832dc8040000062
:20cf9e0031cb66000000000742a8020000068100f00000000003a580000002382eb1010065
:0dcfbe000011a903fc0000000024f2110086
:20cfcb00000000001080225a000001461c8e401400419afb3dc080002000e8c52008045158
:20cfeb00a7225a800002665eaa321000081e58204000000000000000079a86ac48000000d8
:20d00b0007c0a5200000000bea9400000003c1c0f0100007807265a000001c044db1000050
:0dd02b000058a163dc080000002e984000b2
:20d038000000000000e036580000a2c203ba3000000000fc3fc000423c0170ff000025b05b
:20d0580000b25800000362c00b101000250d000000000000000000000b00943fc0400080ce
:20d0780003e0e300000098a9836c0000002000000000000f1f0325800000022d40c3000278
:0dd098000001a037cc0000000002f961008b
