:02000000ff00ff
:080002004c6174746963650030
:17000a00694345637562653220323031372e30382e32373934300069
:15002100506172743a2069434534304c50384b2d434d3831003f
:1b003600446174653a204a616e20323920323032302031383a33323a34300089
:0200510000ffae
:040053007eaa997e6a
:02005700510056
:0200590001059f
:03005b00920020f0
:03005e00620367d3
:0300610072011019
:0300640082000017
:02006700110086
:02006900010193
:20006b00000000000000000000000000000000002000000000000000000000000000000055
:20008b00000000000000000000000000000000000000000000000000000000000000000055
:2000ab00000000000000000000000000000000000000000000000000000000000000000035
:0d00cb000000000000000000000000000028
:2000d800000000000000000000000000000000000000000000000000000000000000000008
:2000f8000000000000000000000000000000000000000000000000000000000000000000e8
:200118000000000000000000000000000000000000000000000000000000000000000000c7
:0d01380000000000000000000000000000ba
:2001450000000000000000000000000000000000100000000000000000000000000000008a
:2001650000000000000000000000000000000000000000000000000000000000000000007a
:2001850000000000000000000000000000000000000000000000000000000000000000005a
:0d01a500000000000000000000000000004d
:2001b20000000000000000000000000000000000000000000000000000000000000000002d
:2001d20000000000000000000000000000000000000000000000000000000000000000000d
:2001f2000000000000000000000000000000000000000000000000000000000000000000ed
:0d02120000000000000000000000000000df
:20021f0000000000000000000000000000000000200000000000000000000000000000009f
:20023f0000000000000000000000000000000000000000000000000000000000000000009f
:20025f0000000000000000000000000000000000000000000000000000000000000000007f
:0d027f000000000000000000000000000072
:20028c00000000000000000000000000000000000000000000000000000000000000000052
:2002ac00000000000000000000000000000000000000000000000000000000000000000032
:2002cc00000000000000000000000000000000000000000000000000000000000000000012
:0d02ec000000000000000000000000000005
:2002f9000000000000000000000000000000000000000000000000000000000000000000e5
:200319000000000000000000000000000000000000000000000000000000000000000000c4
:200339000000000000000000000000000000000000000000000000000000000000000000a4
:0d0359000000000000000000000000000097
:20036600000000000000000000000000000000000000000000000000000000000000000077
:20038600000000000000000000000000000000000000000000000000000000000000000057
:2003a600000000000000000000000000000000000000000000000000000000000000000037
:0d03c600000000000000000000000000002a
:2003d30000000000000000000000000000000000000000800000000000000000000000008a
:2003f3000000000000000000000000000000000000000000000000000000000000000000ea
:200413000000000000000000000000000000000000000000000000000000000000000000c9
:0d04330000000000000000000000000000bc
:2004400000000000000000000000000000000000000000000000000000000000000000009c
:2004600000000000000000000000000000000000000000000000000000000000000000007c
:2004800000000000000000000000000000000000000000000000000000000000000000005c
:0d04a000000000000000000000000000004f
:2004ad0000000000000000000000000000000000000000000000000000000000000000002f
:2004cd0000000000000000000000000000000000000000000000000000000000000000000f
:2004ed000000000000000000000000000000000000000000000000000000000000000000ef
:0d050d0000000000000000000000000000e1
:20051a000000000000000000000000000000000020000000000000000000000000000000a1
:20053a000000000000000000000000000000000000000000000000000000000000000000a1
:20055a00000000000000000000000000000000000000000000000000000000000000000081
:0d057a000000000000000000000000000074
:20058700000000000000000000000000000000000000000000000000000000000000000054
:2005a700000000000000000000000000000000000000000000000000000000000000000034
:2005c700000000000000000000000000000000000000000000000000000000000000000014
:0d05e7000000000000000000000000000007
:2005f4000000000000000000000000000000000010000000000000000000000000000000d7
:200614000000000000000000000000000000000000000000000000000000000000000000c6
:200634000000000000000000000000000000000000000000000000000000000000000000a6
:0d0654000000000000000000000000000099
:20066100000000000000000000000000000000000000004000000000000000000000000039
:20068100000000000000000000000000000000000000000000000000000000000000000059
:2006a100000000000000000000000000000000000000000000000000000000000000000039
:0d06c100000000000000000000000000002c
:2006ce000000000000000000000000000000000020000000000000000000000000000000ec
:2006ee000000000000000000000000000000000000000000000000000000000000000000ec
:20070e000000000000000000000000000000000000000000000000000000000000000000cb
:0d072e0000000000000000000000000000be
:20073b0000000000000000000000000000000000000000000000000000000000000000009e
:02743b0000004f
:02743d0011013b
:02743f00010149
:20744100000000000000000000000000000000000000000000000000000000000002000029
:2074610000000000000000000000000000000000000000000000000000000000000000000b
:207481000000000000000000000000000000000000000000000000000000000000000000eb
:0d74a10000000000000000000000000000de
:2074ae000000000000000000000000000000000000000000000000000000000000000000be
:2074ce0000000000000000000000000000000000000000000000000000000000000000009e
:2074ee0000000000000000000000000000000000000000000000000000000000000000007e
:0d750e000000000000000000000000000070
:20751b0000000000000000000000000000000000000000000000000000000000000100004f
:20753b00000000000000000000000000000000000000000000000000000000000000000030
:20755b00000000000000000000000000000000000000000000000000000000000000000010
:0d757b000000000000000000000000000003
:207588000000000000000000000000000000000000000000000000000000000000000000e3
:2075a8000000000000000000000000000000000000000000000000000000000000000000c3
:2075c8000000000000000000000000000000000000000000000000000000000000000000a3
:0d75e8000000000000000000000000000096
:2075f500000000000000000000000000000000000000000000000000000000000002000074
:20761500000400000000000000000000000000000000000000000000000000000000000051
:20763500000000000000000000000000000000000000000000000000000000000000000035
:0d7655000000000000000000000000000028
:20766200000000000000000000000000000000000000000000000000000000000000000008
:20768200000c000000000000000000000000000000000000000000000000000000000000dc
:2076a2000000000000000000000000000000000000000000000000000000000000000000c8
:0d76c20000000000000000000000000000bb
:2076cf0000000000000000000000000000000000000000000000000000000000000000009b
:2076ef0000000000000000000000000000000000000000000000000000000000000000007b
:20770f0000000000000000000000000000000000000000000000000000000000000000005a
:0d772f00000000000000000000000000004d
:20773c0000000000000000000000000000000000000000000000000000000000000000002d
:20775c0000000000000000000000000000000000000000000000000000000000000000000d
:20777c000000000000000000000000000000000000000000000000000000000000000000ed
:0d779c0000000000000000000000000000e0
:2077a900000000000000000000000000000000000000000000000000000000000000000eb2
:2077c900000000000000002000000000000000000000000000000000000000000000000080
:2077e900000000000000000000000000000000000000000000000000000000000000000080
:0d7809000000000000000000000000000072
:20781600000000000000000000000000000000000000000000000000000000000000000250
:20783600000000000000000000000000000000000000000000000000000000000000000032
:20785600000000000000000000000000000000000000000000000000000000000000000012
:0d7876000000000000000000000000000005
:207883000000000000000000000000000000000000000000000000000000000000000000e5
:2078a3000000000000000000000000000000000000000000000000000000000000000000c5
:2078c3000000000000000000000000000000000000000000000000000000000000000000a5
:0d78e3000000000000000000000000000098
:2078f000000000000000000000000000000000000000000000000000000000000000000078
:2079100000000000080000000000000000000000000000000000000000000000000000004f
:20793000000000000000000000000000000000000000000000000000000000000000000037
:0d795000000000000000000000000000002a
:20795d0000000000000000000000000000000000000000000000000000000000000000000a
:20797d000000000000000000000000000000000000000000000000000000000000000000ea
:20799d000000000000000000000000000000000000000000000000000000000000000000ca
:0d79bd0000000000000000000000000000bd
:2079ca0000000000000000000000000000000000000000000000000000000000000000009d
:2079ea00000000000400000000000000000000000000000000000000000000000000000079
:207a0a0000000000000000000000000000000000000000000000000000000000000000005c
:0d7a2a00000000000000000000000000004f
:207a370000000000000000000000000000000000000000000000000000000000000000002f
:207a570004000000000000000000000000000000000000000000000000000000000000000b
:207a77000000000000000000000000000000000000000000000000000000000000000000ef
:0d7a970000000000000000000000000000e2
:207aa4000000000000000000000000000000000000000000000000000000000000000000c2
:207ac40000000000080000000000000000000000000000000000000000000000000000009a
:207ae400000000000000000000000000000000000000000000000000000000000000000082
:0d7b04000000000000000000000000000074
:207b1100000000000000000000000000000000000000000000000000000000000000000054
:207b3100000000000000000000000000000000000000000000000000000000000000000034
:20893e00000000000000100000000000000000000000000000000000000000000000000009
:20895e000000000000000000000000000000000000000000000000000000000000000000f9
:0d897e0000000000000000000000000000ec
:20898b000000000000000000000000000000000000000000000000000000000000000000cc
:2089ab000000000000000000000000000000000000000000000000000000000000000000ac
:2089cb0000000000000000000000000000000000000000000000000000000000000000008c
:0d89eb00000000000000000000000000007f
:2089f80000000000000000000000000000000000000000000000000000000000000000005f
:208a180000000000000000000000000000000000000000000000000000000000000000003e
:208a380000000000000000000000000000000000000000000000000000000000000000001e
:0d8a58000000000000000000000000000011
:208a65000000000000000000000000000000000000000000000000000000000000000000f1
:208a85000000000000000000000000000000000000000000000000000000000000000000d1
:208aa5000000000000000000000000000000000000000000000000000000000000000004ad
:0d8ac50000000000000000000000000000a4
:208ad200000000000000000000000000000000000000000000000000000000000000000084
:208af200000000000000000000000000000000000000000000000000000000000000000064
:208b1200000000000000000000000000000000000000000000000000000000000000000043
:0d8b32000000000000000000000000000036
:208b3f00000200000000000000000000000000000000000000000000000000000000000014
:208b5f000000000000000000000000000000000000000000000000000000000000000000f6
:208b7f000000000000000000000000000000000000000000000000000000000000000000d6
:0d8b9f0000000000000000000000000000c9
:208bac000000000000000000000000000000000000000000000000000000000000000000a9
:208bcc00000000000000000000000000000000000000000000000000000000000000000089
:208bec00000000000000000000000000000000000000000000000000000000000000000069
:0d8c0c00000000000000000000000000005b
:208c190000000000000000000000000000000000000000000000000000000000000000003b
:208c390000000000000000000000000000000000000000000000000000000000000000001b
:208c59000000000000000000000000000000000000000000000000000000000000000000fb
:0d8c790000000000000000000000000000ee
:208c86000001000000000000000000000000000000000000000000000000000000000000cd
:208ca6000000000000000000000000000000000000000000000000000000000000000000ae
:208cc60000000000000000000000000000000000000000000000000000000000000000008e
:0d8ce6000000000000000000000000000081
:208cf300000000000000000000000000000000000000000000000000000000000000000061
:208d1300000000000000000000000000000000000000000000000000000000000000000040
:208d3300000000000000000000000000000000000000000000000000000000000000000020
:0d8d53000000000000000000000000000013
:208d60000000000000000000000000000000000000000000000000000000000000000000f3
:208d80000000000000000000000000000000000000000000000000000000000000000000d3
:208da0000000000000000000000000000000000000000000000000000000000000000000b3
:0d8dc00000000000000000000000000000a6
:208dcd00800000000000000000000000000000000000000000000000000000000000020004
:208ded00000000000000000000000000000000000000000000000000000000000000000066
:208e0d00000000000000000000000000000000000000000000000000000000000000000045
:0d8e2d000000000000000000000000000038
:208e3a00000080000000000000000000000000000000000000000000000000000000010097
:208e5a000000000000000000000000000000000000000000000000000000000000000000f8
:208e7a000000000000000000000000000000000000000000000000000000000000000000d8
:0d8e9a0000000000000000000000000000cb
:208ea7000000000000000000000000000000000000000000000000000000000000000000ab
:209c47001000000000000000000000000000000000000000000000000000000000000000ed
:209c67000000000000000000000000000000000000000000000000000000000000000000dd
:209c87000000000000000000000000000000000000000000000000000000000000000000bd
:0d9ca70000000000000000000000000000b0
:209cb400000000000000000000000000000000000000000000000000000000000000000090
:20b78700100000000000000000000000000000000000000000000000000000000000000092
:20b7a700000000000000000000000000000000000000000000000000000000000000000082
:20b7c700000000000000000000000000000000000000000000000000000000000000000062
:0db7e7000000000000000000000000000055
:20b7f400000000000000000000000000000000000000000000000000000000000000000035
:20d2c700100000000000000000000000000000000000000000000000000000000000000037
:20d2e700000000000000000000000000000000000000000000000000000000000000000027
:20d30700000000000000000000000000000000000000000000000000000000000000000006
:0dd3270000000000000000000000000000f9
:20d334000000000000000000000000000000000000000000000000000000000000000000d9
:20d354000000000000000000000000000000000000000000000000000000000000000000b9
:20d37400000000000000000000000000000000000000000000000000000000000000000099
:0dd39400000000000000020000000000008a
:20d3a10000000000000000000000000000000000000000000000000000000000000000006c
:20d3c10000000000000000000000000000000000000000000000000000000000000000004c
:20d3e10000000000000000000000000000000000000000000000000000000000000000002c
:0dd40100000100000000000000000000001d
:20d40e000000000000000000000000000000000000000000000000000000000000000000fe
:20d42e000000000000000000000000000000000000000000000000000000000000000000de
:20d44e000000000000000000000000000000000000000000000000000000000000000000be
:0dd46e000000800000000000000000000031
:20d47b00000000000000000000000000000000000000000000000000000000000000000091
:20d49b00000000000000000000000000000000000000000000000000000000000000000071
:20d4bb00000000000000000000000000000000000000000000000000000000000000000051
:0dd4db000000000000000000000000000044
:20d4e800000000000000000000000000000000000000000000000000000000000000000024
:20d50800000000000000000000000000000000000000000000000000000000000000000003
:20d528000000000000000000000000000000000000000000000000000000000000000000e3
:0dd5480000000000000000000000000000d6
:20d555000000000000000000000000000000000000000000000000000000000000000000b6
:20d57500000000000000000000000000000000000000000000000000000000000000000096
:20d59500000000000000000000000000000000000000000000000000000000000000000076
:0dd5b50000700000000000000000000000f9
:20d5c200000000000000000000000000000000000000000000000000000000000000000049
:20d5e200000000000000000000000000000000000000000000000000000000000000000029
:20d60200000000000000000000000000000000000000000000000000000000000000000008
:0dd6220000100000000000000000000000eb
:20d62f000000000000000000000000000000000000000000000000000000000000000000db
:20d64f000000000000000000000000000000000000000000000000000000000000000000bb
:20d66f0000000000000000000000000000000000000000000000000000000000000000009b
:0dd68f00000000000000000000000000008e
:20d69c0000000000000000000000000000000000000000000000000000000000000000006e
:20d6bc0000000000000000000000000000000000000000000000000000000000000000004e
:20d6dc0000000000000000000000000000000000000000000000000000000000000000002e
:0dd6fc000000000000000000000000000021
:20d70900000000000000000000000000000000000000000000000000000000000000000000
:20d729000000000000000000000000000000000000000000000000000000000000000000e0
:20d749000000000000000000000000000000000000000000000000000000000000000000c0
:0dd769000000034028000000000000000048
:20d77600000000000000000000000000000000000000000000000000000000000000000093
:20d79600000000000000000000000000000000000000000000000000000000000000000073
:20d7b600000000000000000000000000000000000000000000000000000000000000000053
:0dd7d60000000bf97c0200000000000000c4
:20d7e300000000000000000000000000000000000000000000000000000000000000000026
:20d80300000000000000000000000000000000000000000000000000000000000000000005
:20d823000000000000000000000000000000000000000000000000000000000000000000e5
:0dd8430000000000000000000000000000d8
:20d850000000000000000000000000000000000000000000000000000000000000000000b8
:20d87000000000000000000000000000000000000000000000000000000000000000000098
:20d89000000000000000000000000000000000000000000000000000000000000000000078
:0dd8b000000000000000000000000000006b
:20d8bd0000000000000000000000000000000000000000000000000000000000000000004b
:20d8dd0000000000000000000000000000000000000000000000000000000000000000002b
:20d8fd0000000000000000000000000000000000000000000000000000000000000000000b
:0dd91d0000000000000000000000000000fd
:20d92a000000000000000000000000000000000000000000000000000000000000000000dd
:20d94a000000000000000000000000000000000000000000000000000000000000000000bd
:20d96a0000000000000000000000000000000000000000000000000000000000000000009d
:0dd98a000000000000000000000000000090
:20d99700000000000000000000000000000000000000000000000000000000000000000070
:20d9b700000000000000000000000000000000000000000000000000000000000000000050
:20d9d700000000000000000000000000000000000000000000000000000000000000000030
:0dd9f7000000000000000000000000000023
:20da0400000000000000000000000000000000000000000000000000000000000000000002
:20da24000000000000000000000000000000000000000000000000000000000000000000e2
:20da44000000000000000000000000000000000000000000000000000000000000000000c2
:0dda640000000000000000000000000000b5
:20da7100000000000000000000000000000000000000000000000000000000000000000095
:20da9100000000000000000000000000000000000000000000000000000000000000000075
:20dab100000000000000000000000000000000000000000000000000000000000000000154
:0ddad10000000000000000c0000000000088
:20dade00000000000000000000000000000000000000000000000000000000000000000028
:20dafe00000000000000000000000000000000000000000000000000000000000000000008
:20db1e000000000000000000000000000000000000000000000000000000000000000002e5
:0ddb3e00800000000000000000000000005a
:20db4b000000000000000000000000000000000000000000000000000000000000000000ba
:20db6b0000000000000000000000000000000000000000000000000000000000000000009a
:20db8b0000000000000000000000000000000000000000000000000000000000000000007a
:0ddbab00000000000000000000000000006d
:20e1ae00400000000000000000000000000000000000000000000000000000000000000011
:20e1ce00000000000000000000000000000000000000000000000000000000000000000031
:20e1ee00000000000000000000000000000000000000000000000000000000000000000011
:0de20e000000000000000000000000000003
:20e21b0080280000000000000000000000000000000000000000000000000000000000003b
:20e23b000000000000000000000000000000000000000000000000000000000000000000c3
:20e25b000000000000000000000000000000000000000000000000000000000000000000a3
:0de27b000000000000000000000000000096
:20e28800000400000000000000000000000000000000000000000000000000000000000072
:20e2a800000000000000000000000000000000000000000000000000000000000000000056
:20e2c800000000000000000000000000000000000000000000000000000000000000000036
:0de2e8000000000000000000000000000029
:20e2f500000000000000000000000000000000000000000000000000000000000000000009
:20e315000000000000000000000000000000000000000000000000000000000000000000e8
:20e335000000000000000000000000000000000000000000000000000000000000000000c8
:0de3550000000000000000000000000000bb
:20e3620040000000000000000000000000000000000000000000000000000000000000005b
:20e3820000000000000000000000000000000000000000000000000000000000000000007b
:20e3a20000000000000000000000000000000000000000000000000000000000000000005b
:0de3c200000000000000000000000000004e
:20e3cf0000000000000000000000000000000000000000000000000000000000000000002e
:20e3ef0000000000000000000000000000000000000000000000000000000000000000000e
:20e40f000000000000000000000000000000000000000000000000000000000000000000ed
:0de42f0000000000000000000000000000e0
:20e43c000000000000000000000000000000000000000000000000000000000000000000c0
:20e45c000000000000000000000000000000000000000000000000000000000000000000a0
:20e47c00000000000000000000000000000000000000000000000000000000000000000080
:0de49c000000000000000000000000000073
:20e4a900000000000000000000000000000000000000000000000000000000000000000053
:20e4c900000000000000000000000000000000000000000000000000000000000000000033
:20e4e900000000000000000000000000000000000000000000000000000000000000000013
:0de509000000000000000000000000000005
:20e516000000000000000000000000000000000000000000000000000000000000000000e5
:20e536000000000000000000000000000000000000000000000000000000000000000000c5
:20e556000000000000000000000000000000000000000000000000000000000000000000a5
:0de576000000000000000000000000000098
:20e58300300000000000000000000000000000000000000000000000000000000000000048
:20e5a300000000000000000000000000000000000000000000000000000000000000000058
:20e5c300000000000000000000000000000000000000000000000000000000000000000038
:0de5e300000000000000000000000000002b
:20e5f0002000000000000000000000000000000000000000000000000000000000000000eb
:20e610000000000000000000000000000000000000000000000000000000000000000000ea
:20e630000000000000000000000000000000000000000000000000000000000000000000ca
:0de6500000000000000000000000000000bd
:20e65d0000000000000000000000000000000000000000000000000000000000000000009d
:20e67d0000000000000000000000000000000000000000000000000000000000000000007d
:20e69d0000000000000000000000000000000000000000000000000000000000000000005d
:0de6bd000000000000000000000000000050
:20e6ca00000000000000000000000000000000000000000000000000000000000000000030
:20e6ea00000000000000000000000000000000000000000000000000000000000000000010
:20e70a000000000000000000000000000000000000000000000000000000000000000000ef
:0de72a0000000000000000000000000000e2
:20e737000002000000000000000000000000000000000000000000000000000000000000c0
:20e757000000000000000000000000000000000000000000000000000000000000000000a2
:20e77700000000000000000000000000000000000000000000000000000000000000000082
:0de797000000000000000000000000000075
:20e7a400000000000000000000000000000000000000000000000000000000000000000055
:20e7c400000000000000000000000000000000000000000000000000000000000000000035
:20e7e400000000000000000000000000000000000000000000000000000000000000000015
:0de804000000000000000000000000000007
:02e81100000005
:02e813001102f0
:02e815000101ff
:20e817000000000000000000000000000000000000000000000000000000000000000000e1
:20e837000000000000000000000000000000000000000000000000000000000000000000c1
:20e857000000000000000000000000000000000000000000000000000000000000000000a1
:0de877000000000000000000000000000094
:20f624000002000000000000000000000000000000000000000000000000000000000000c4
:20f644000000000000000000000000000000000000000000000000000000000000000000a6
:20f66400000000000000000000000000000000000000000000000000000000000000000086
:0df684000000000000000000000000000079
:20f69100000000000000000000000000000000000000000000000000000000000000000059
:20f9f9004000000000000000000000000000000000000000000000000000000000000000ae
:20fa19000000000000000000000000000000000000000000000000000000000000000000cd
:20fa39000000000000000000000000000000000000000000000000000000000000000000ad
:0dfa590000000000000000000000000000a0
:20fa6600000000000000000000000000000000000000000000000000000000000000000080
:20fa8600000000000000000000000000000000000000000000000000000000000000000060
:20faa600000000000000000000000000000000000000000000000000000000000000000040
:0dfac6000000000000000000000000000033
:20fad300000000000000000000000000000000000000000000000000000000000000000013
:20faf3000000000000000000000000000000000000000000000000000000000000000000f3
:20fb13000000000000000000000000000000000000000000000000000000000000000000d2
:0dfb330000000000000000000000000000c5
:20fb4000800000000000000000000000000000000000000000000000000000000000000025
:20fb6000000000000000000000000000000000000000000000000000000000000000000085
:20fb8000000000000000000000000000000000000000000000000000000000000000000065
:0dfba0000000000000000000000000000058
:20fbad004000000000000000000000000000000000000000000000000000000000000000f8
:20fbcd00000000000000000000000000000000000000000000000000000000000000000018
:20fbed000000000000000000000000000000000000000000000000000000000000000000f8
:0dfc0d0000000000000000000000000000ea
:20fc1a000000000000000000000000000000000000000000000000000000000000000000ca
:020000040001f9
:2003c4000030000000000000000000000000000000000000000000000000000000000000e9
:2003e4000000000000000000000000000000000000000000000000000000000000000000f9
:200404000000000000000000000000000000000000000000000000000000000000000000d8
:0d04240000000000000000000000000000cb
:200431000000000000000000000000000000000000000000000000000000000000000000ab
:2004510000000000000000000000000000000000000000000000000000000000000000008b
:2004710000000000000000000000000000000000000000000000000000000000000000006b
:0d049100000000000000000000000000005e
:20049e0000000000000000000000000000000000000000000000000000000000000000003e
:2004be0000000000000000000000000000000000000000000000000000000000000000001e
:2004de000000000000000000000000000000000000000000000000000000000000000000fe
:0d04fe0000000000000000000000000000f1
:20050b000000000000000000000000000000000000000000000000000000000000000000d0
:20052b000000000800000000000000000000000000000000000000000000000000000000a8
:20054b00000000000000000000000000000000000000000000000000000000000000000090
:0d056b000000000000000000000000000083
:20057800000000000000000000000000000000000000000000000000000000000000000063
:20059800000000000000000000000000000000000000000000000000000000000000000043
:2005b800000000000000000000000000000000000000000000000000000000000000000023
:0d05d8000000000000000000000000000016
:2005e5000000000000000000000000000000000000000000000000000000000000000000f6
:200605000000000000000000000000000000000000000000000000000000000000000000d5
:200625000000000000000000000000000000000000000000000000000000000000000000b5
:0d06450000000000000000000000000000a8
:20065200000000000000000000000000000000000000000000000000000000000000000088
:20067200000000000000000000000000000000000000000000000000000000000000000068
:20069200000000000000000000000000000000000000000000000000000000000000000048
:0d06b200000000000000000000000000003b
:2006bf0000000000000000000000000000000000000000000000000000000000000000001b
:2006df000000000000000000000000000000000000000000000000000000000000000000fb
:2006ff000000000000000000000000000000000000000000000000000000000000000000db
:0d071f0000000000000000000000000000cd
:20072c000000000000000000000000000000000000000000000000000000000000000000ad
:20074c0000000000000000000000000000000000000000000000000000000000000000008d
:20076c0000000000000000000000000000000000000000000000000000000000000000006d
:0d078c000000000000000000000000000060
:200799004400000000000000000000000000000000000000000000000000000000000000fc
:2007b900000000000000000000000000000000000000000000000000000000000000000020
:2007d900000000000000000000000000000000000000000000000000000000000000000000
:0d07f90000000000000000000000000000f3
:200806000e3000000000000000000000000000000000000000000000000000000000000094
:200826000000000000000000000000000000000000000000000000000000000000000000b2
:20084600000000000000000000000000000000000000000000000000000000000000000092
:0d0866000000000000000000000000000085
:20087300000000000000000000000000000000000000000000000000000000000000000065
:20089300000000000000000000002000000000000000000000000000000000000000000025
:2008b300000000000000000000000000000000000000000000000000000000000000000025
:0d08d3000000000000000000000000000018
:2008e000800000000000000000000000000000000000000000000000000000000000000078
:200900000000000000000000000000000000000000000000000000000000000000000000d7
:200920000000000000000000000000000000000000000000000000000000000000000000b7
:0d09400000000000000000000000000000aa
:20094d0080000000000000000000000000000000000000000000000000000000000000000a
:20096d0000000000000000000000000000000000000000000000000000000000000000006a
:20098d0000000000000000000000000000000000000000000000000000000000000000004a
:0d09ad00000000000000000000000000003d
:2009ba0000000000000000000000000000000000000000000000000000000000000000001d
:2055370000000008000000000000000000000000000000000000000000000000000000004c
:20555700000000000000000000000000000000000000000000000000000000000000000034
:0d5577000000000000000000000000000027
:20558400000000000000000000000000000000000000000000000000000000000000000007
:2055a4000000000000000000000000000000000000000000000000000000000000000000e7
:2055c4000000000000000000000000000000000000000000000000000000000000000000c7
:0d55e40000000000000000000000000000ba
:2055f10000000000000000000000000000000000000000000000000000000000000000009a
:20561100000000000000000000000000000000000000000000000000000000000000000079
:20563100000000000000000000000000000000000000000000000000000000000000000059
:0d565100000000000000000000000000004c
:20565e0000000000000000000000000000000000000000000000000000000000000000002c
:20567e0000000000000000000000000000000000000000000000000000000000000000000c
:20569e00000000000000000000000000000000001c000000000000000000000000000000d0
:0d56be0000000000000000000000000000df
:2056cb000000000000000000000000000000000000000000000000000000000000000000bf
:2056eb0000000000000000000000000000000000000000000000000000000000000000009f
:20570b0000000000000000000000000000000000000000000000000000000000000000007e
:0d572b000000000000000000000000000071
:20573800000000000000000000000000000000000000000000000000000000000000000051
:20575800000000000000000000000000000000000000000000000000000000000000000031
:20577800000000000000000000000000000000000000000000000000000000000000000011
:0d5798000000000000000000000000000004
:2057a5000000000000000000000000000000000000000000000000000000000000000000e4
:2057c500000000000000000000000000000000000000000000a00000000000000000000024
:2057e5000000000000000000000000000000000000000000000000000000000000000000a4
:0d5805000000000000000000000000000096
:20581200000000000000000000000000000000000000000000000000000000000000000076
:20583200000000000000000000000000000000000000000000400000000000000000000016
:20585200000000000000000000000000000000000000000000000000000000000000000036
:0d5872000000000000000000000000000029
:20587f00000000000000000000000000000000000000000000000000000000000000000009
:20589f000000000000000000000020000000000000000000000000000000000000000000c9
:2058bf000000000000000000000000000000000000000000000000000000000000000000c9
:0d58df0000000000000000000000000000bc
:2058ec0000000000000000000000000000000000000000000000000000000000000000009c
:20590c0000000000000000000000000000000000000000000000000000000000000000007b
:20592c0000000000000000000000000000000000000000000000000000000000000000005b
:0d594c00000000000000000000000000004e
:2059590000000000000000000000000000000000000000000000000000000000000000002e
:205979000000000800000000000000000000000000000000001400000000000000000000f2
:205999000000000000000000000000000000000000000000000000000000000000000000ee
:0d59b90000000000280000000000000000b9
:2059c6000000000000000000000000000000000000000000000000000000000000000000c1
:2059e6000000000000000000000000000000000000000000000000000000000000000000a1
:205a0600000000000000000000000000000000000000000000000000000000000000000080
:0d5a26000000000010000000000000000063
:205a3300000000000000000000000000000000000000000000000000000000000000000053
:205a5300000000000000000000000000000000000000000000000000000000000000000033
:205a7300000000000000000000000000000000000000000000000000000000000000000013
:0d5a93000000000000000000000000000006
:205aa0000000000000000000000000000000000000000000000000000000000000000000e6
:205ac0000000000000000000000000000000000000000000000000000000000000000000c6
:205ae0000000000000000000000000000000000000000000000000000000000000000000a6
:0d5b00000000000000000000000000000098
:205b0d00000000000000000000000000000000000000000000000000000000040000000074
:205b2d00000000000000000000000000000000000000000000000000000000000000000058
:205b4d00000000000000000000000000000000000000000000000000000000000200000036
:0d5b6d00000000000000000000000000002b
:205b7a000000000000000000000000000000000000000000000000000000000a0000000001
:205b9a000000000000000000000000000000000000000000000000000000000000000000eb
:205bba000000000000000000000000000000000000000000000000000000000000000000cb
:0d5bda0000000000000000000000000000be
:025be7000000bc
:025be9001103a6
:025beb000101b6
:205bed00000000000000000000000000000000000000000000010000000000000000000097
:205c0d00000000100000000000000000000000000000000000004000000000000000000027
:205c2d00000000000000000000000000000000000000000000000000000000000000000057
:0d5c4d00000000000000000000000000004a
:205c5a0000000000000000000000000000000000000000000000000000000000000000002a
:205c7a0000000000000000000000000000000000000000000000000000000000000000000a
:205c9a000000000000000000000000000000000000000000000000000000000000000000ea
:0d5cba0000000000000000000000000000dd
:205cc7000000000000000000000000000000000000000000000200000000000000000000bb
:205ce7000000002000000000000000000000000000000000000080000000000000000000fd
:205d070000000000000000000000000000000000000000000000000000000000000000007c
:0d5d2700000000000000000000000000006f
:205d340000000000000000000000000000000000000000000000000000000000000000004f
:205d540000000000000000000000000000000000000000000000000000000000000000002f
:205d740000000000000000000000000000000000000000000000000000000000000000000f
:0d5d94000000000000000000000000000002
:205da1000000000000000000000000000000000000000000000100000000000000000000e1
:205dc100000000100000000000000000000000000000000000004000000000000000000072
:205de1000000000000000000000000000000000000000000000000000000000000000000a2
:0d5e01000000000000000000000000000094
:205e0e00000000000000000000000000000000000000000000000000000000000000000074
:205e2e00000000000000000000000000000000000000000000000000000000000000000054
:205e4e00000000000000000000000000000000000000000000000000000000000000000034
:0d5e6e000000000000000000000000000027
:205e7b00000000000000000000000000000000000000000000000000000000000000000007
:205e9b000000000000000000000000000000000000000000000000000000000000000000e7
:205ebb000000000000000000000000000000000000000000000000000000000000000000c7
:0d5edb0000000000000000000000000000ba
:205ee80000000000000000000000000000000000000000000000000000000000000000009a
:205f0800000000000000000000000000000000000000000000000000000000000000000079
:205f2800000000000000000000000000000000000000000000000000000000000000000059
:0d5f4800000000000000000000000000004c
:205f550000000000000000000000000000000000000000000000000000000000000000002c
:205f75000000000000000010000000000000000000000000000000000000400000000000bc
:205f95000100000000000000000000000000000000000000000000000000000000000000eb
:0d5fb50000000000000000000000000000df
:205fc2000000000000000000000000000000000000000000000000000000000000000000bf
:205fe20000000000000000000000000000000000000000000000000000000000000000009f
:2060020000000000000000000000000000000000000000000000000000000000000000007e
:0d6022000000000000000000000000000071
:20602f00000000000000000000000000000000000000000000000000000000000000000051
:20604f00000000000000000000000000000000000000000000000000000000000000000031
:20606f00000000000000000000000000000000000000000000000000000000000000000011
:0d608f000000000000000000000000000004
:20609c000000000000000000000000000000000000000000000000000000000000000000e4
:2060bc00000000000000000000004000000000000000000000000000000000000100000083
:2060dc000000000400000000000000000000000000000000000000000000000000000000a0
:0d60fc000000000000000000000000000097
:20610900000000000000000000000000000000000000000000000000000000000000000076
:20612900000000000000000000000000000000000000000000000000000000000000000056
:20614900000000000000000000000000000000000000000000000000000000000000000036
:0d6169000000000000000000000000000029
:20617600000000000000000000000000000000000000000000000000000000000000000009
:20619600000000000000000000008000000000000000000000000000000000000200000067
:2061b6000000000800000000000000000000000000000000000000000000000000000000c1
:0d61d60000000000000000000000000000bc
:2061e30000000000000000000000000000000000000000800000000000000000000000001c
:20620300080000000000000000000000000000000000002000000000000000000000000053
:2062230000000000000000000000000000000000000000000000000000000000000000005b
:0d624300000000000000000000000000004e
:2062500000000000000000000000000000000000000000000000000000000000000000002e
:206270000000000000000000000040000000000000000000000000000000000001000000cd
:206290000000000400000000000000000000000000000000000000000000000000000000ea
:0d62b00000000000000000000000000000e1
:2062bd000000000000000000000000000000000000000000000000000000000000000000c1
:2062dd000000000000000000000000000000000000000000000000000000000000000000a1
:2062fd00000000000000000000000000000000000000000000000000000000000000000081
:0d631d000000000000000000000000000073
:20632a00000000000000000000000000000000000000000000000000000000000000000053
:20634a00000000000000000000000000000000000000000000000000000000000000000033
:20636a00000000000000000000000000000000000000000000000000000000000000000013
:0d638a000000000000000000000000000006
:206397000000000000000000000000000000000000000000000000000000000000000000e6
:2063b7000000000000000000000000000000000000000000000000000000000000000000c6
:2063d700000000000000000000000000000000000000000000000000000000001000000096
:0d63f7000000000000000000000000000099
:20640400000000000000000000000000000000000000000000000000000000000000000078
:20642400000000000000000000000000000000000000000000000000000000000000000058
:20644400000000000000000000000000000000000000000000000000000000000000000038
:0d646400000000000000000000000000002b
:2064710000000000000000000000000000000000000000000000000000000000000000000b
:206491000000000000000000000000000000000000000000000000000000000000000000eb
:2064b100000000000000000000000000000000000000000000000000000000003980000012
:0d64d10000000000000000000000000000be
:2064de0000000000000000000000000000000000000000000000000000000000000000009e
:2064fe0000000000000000000000000000000000000000000000000000000000000000007e
:20651e0000000000000000000000000000000000000000000000000000000000d980000004
:0d653e000000000000000000000000000050
:20654b00000000000000000000000000000000000000000000000000000000000000000030
:20656b00000000000000000000000000000000000000000000000000000000000000000010
:20658b00000000000000000000000000000000000000000000000000000000009000000060
:0d65ab0000000000000000000000000000e3
:2065b8000000000000000000000000000000000000000000000000000000000000000000c3
:2065d8000000000000000000000000000000000000000000000000000000000000000000a3
:2065f800000000000000000000000000000000000000000000000000000000008000000003
:0d6618000000000000000000000000000075
:20662500000000000000000000000000000000000000000000000000000000000000000055
:20664500000000000000000000000000000000000000000000000000000000000000000035
:20666500000000000000000000000000000000000000000000000000004302df00000000f1
:0d6685000000000000000000000000000008
:206692000000000000000000000000000000000000000000000000000000000000000000e8
:2066b2000000000000000000000000000000000000000000000000000000000000000000c8
:2066d20000000000000000000000000000000000000000000000000000400e4c000000000e
:0d66f200000000000000000000000000009b
:2066ff0000000000000000000000000000000000000000000000000000000000000000007b
:20671f0000000000000000000000000000000000000000000000000000000000000000005a
:20673f000000000000000000000000000000000000000000000000000001a4c000000000d5
:0d675f00000000000000000000000000002d
:20676c0000000000000000000000000000000000000000000000000000000000000000000d
:20678c000000000000000000000000000000000000000000000000000000000000000000ed
:2067ac000000000000000000000000000000000000000000000000000045a658000000008a
:0d67cc0000000000000000000000000000c0
:2067d9000000000000000000000000000000000000000000000000000000000000000000a0
:2067f900000000000000000000000000000000000000000000000000000000000000000080
:206819000000000000000000000000000000000000000000000000000001a7d001000000e6
:0d6839000000000000000000000000000052
:20684600000000000000000000000000000000000000000000000000000000000000000032
:20686600000000000000000000000000000000000000000000000000000000000000000012
:206886000000000000000000000000000000000000000000000000000045a45c01c00000ec
:0d68a60000000000000000000000000000e5
:2068b3000000000000000000000000000000000000000000000000000000000000000000c5
:2068d3000000000000000000000000000000000000000000000000000000000000000000a5
:2068f3000000000000000000000000000000000000000000000000000081a4c000000000a0
:0d6913000000000000000000000000000077
:20692000000000000000000000000000000000000000000000000000000000000000000057
:20694000000000000000000000000000000000000000000000000000000000000000000037
:206960000000000000000000000000000000000000000000000000000045a65c00000000d0
:0d698000000000000000000000000000000a
:20698d000000000000000000000000000000000000000000000000000000000000000000ea
:2069ad000000000000000000000000000000000000000000000000000000000000000000ca
:2069cd000000000000000000000000000000000000000000000000000041a64030e0000073
:0d69ed00000003c3000000000000000000d7
:2069fa0000000000000000000000000000000000000000000000000000000000000000007d
:206a1a0000000000000000000000000000000000000000000000000000000000000000005c
:206a3a000000000000000000000000000000000000000000000000000005a64a80c0000007
:0d6a5a0000000000400000000000000000ef
:206a670000000000000000000000000000000000000000000000000000000000000000000f
:206a87000000000000000000000000000000000000000000000000000000000000000000ef
:206aa7000000000000000000000000000000000000000000000400000001a4d00000000056
:0d6ac70000000000000000000000000000c2
:206ad4000000000000000000000000000000000000000000000000000000000000000000a2
:206af400000000000000000000000000000000000000000000000000000000000000000082
:206b14000000000000000000000000000000000000000000000000000405a658000000005a
:0d6b34000000000000000000000000000054
:206b4100000000000000000000000000000000000000000000000000000000000000000034
:206b6100000000000000000000000000000000000000000000000000000000000000000014
:206b81000000000000000000000000000000000000000000000400010001a64000b0000058
:0d6ba1000c5540c300000000000000000083
:206bae000000000000000000000000000000000000000000000000000000000000000000c7
:206bce000000000000000000000000000000000000000000000000000000000000000000a7
:206bee000000000000000000000000000000000000000000000000000405a65e001000105a
:0d6c0e000c5d680040000000000000000068
:206c1b00000000000000000000000000000000000000000000000000000000000000000059
:206c3b00000000000000000000000000000000000000000000000000000000000000000039
:206c5b000000000000000000000000000000000000000000000020000041a75000000000c1
:0d6c7b00000000000000000000000000000c
:206c88000000000000000000000000000000000000000000000000000000000000000000ec
:206ca8000000000000000000000000000000000000000000000000000000000000000000cc
:206cc8000000000000000000000000000000000000000000001c00000005a64a000000009b
:0d6ce800000000000000000000000000009f
:206cf50000000000000000000000000000000000000000000000000000000000000000007f
:206d150000000000000000000000000000000000000000000000000000000000000000005e
:206d35000000000000000000000000000000000000000000000000000001a4500800000041
:0d6d5500000000030000000000000000002e
:206d6200000000000000000000000000000000000000000000000000000000000000000011
:206d82000000000000000000000000000000000000000000000000000000000000000000f1
:206da2000000000000000000000000000000000000000000000000000805a65a10000000b4
:0d6dc2000000014040000000000000000043
:206dcf000000000000000000000000000000000000000000000000000000000000000000a4
:206def00000000000000000000000000000000000000000000000000000000000000000084
:206e0f000000000000000000000000000000000000000000000000000001a740310000004a
:0d6e2f000c0571c400000000000000000010
:206e3c00000000000000000000000000000000000000000000000000000000000000000036
:206e5c00000000000000000000000000000000000000000000000000000000000000000016
:206e7c000000000000000000000000000000000000000000000000000805a65e81c000089c
:0d6e9c0000312e0700000000000000000083
:206ea9000000000000000000000000000000000000000000000000000000000000000000c9
:206ec9000000000000000000000000000000000000000000000000000000000000000000a9
:206ee90000000000000000000000000000000000000018c0b24000000801a65008000010a8
:0d6f0900069740000000000000000000009e
:206f160000000000000000000000000000000000000000000000000000000000000000005b
:206f360000000000000000000000000000000000000000000000000000000000000000003b
:206f56000000000000000000000000000000000000000003130000000005a64810e0000022
:0d6f760016997000000000000000000000ef
:206f83000000000000000000000000000000000000000000000000000000000000000000ee
:206fa3000000000000000000000000000000000000000000000000000000000000000000ce
:206fc3000000000000000000000000000000000000003069b40200000281a7509000000253
:0d6fe30006934000000000000000000000c8
:206ff000000000000000000000000000000000000000000000000000000000000000000081
:20701000000000000000000000000000000000000000000000000000000000000000000060
:207030000000000000000000000000000000000000000169938400000005a65e00000001b5
:0d705000169978000000000000000000000c
:20705d00000000000000000000000000000000000000000000000000000000000000000013
:20707d000000000000000000000000000000000000000000000000000000000000000000f3
:20709d000000000000000000000000000000000000000069940024000401a64000000000c7
:0d70bd00069300000000000000000000002d
:2070ca000000000000000000000000000000000000000000000000000000000000000000a6
:2070ea00000000000000000000000000000000000000000000000000000000000000000086
:20710a000000000000000000000000000000000000000169120030000005a65c00000400ae
:0d712a001691200000000000000000000091
:20713700000000000000000000000000000000000000000000000000000000000000000038
:20715700000000000000000000000000000000000000000000000000000000000000000018
:207177000000000000000000000000000000000000000869d00000000401a400000000000e
:0d71970006974042000000000000090000c3
:2071a4000000000000000000000000000000000000000000000000000000000000000000cb
:2071c4000000000000000000000000000000000000000000000000000000000000000000ab
:2071e4000000000000000000000000000000000000000169168000000005a45a0000002068
:0d720400169138038000000000000000001b
:2072110000000000000000000000000000000000000000000000000000000000000000005d
:2072310000000000000000000000000000000000000000000000000000000000000000003d
:207251000000000000000000000000000000000000001069900000020401a7400090001086
:0d7271000693000200000000000000000075
:20727e000000000000000000000000000000000000000000000000000000000000000000f0
:20729e000000000000000000000000000000000000000000000000000000000000000000d0
:2072be000000000000000000000200000000000000000169128000040005a64000001400af
:0d72de00169170000000000000000000008c
:2072eb00000000000000000000000000000000000000000000000000000000000000000083
:20730b00000000000000000000000000000000000000000000000000000000000000000062
:20732b000000000000000000000000000000000000001069d40400000001a7400000000801
:0d734b00069300020000000000000000009a
:20735800000000000000000000000000000000000000000000000000000000000000000015
:207378000000000000000000000000000000000000000000000000000000000000000000f5
:207398000000000000000000000000000000000000000169160000000805a6400000000062
:0d73b800169130038000000000000000006e
:2073c5000000000000000000000000000000000000000000000000000000000000000000a8
:2073e500000000000000000000000000000000000000000000000000000000000000000088
:207405000000000000000000080000000000000000001069940024000401a54071c0000112
:0d74250006970000000000000007000000b6
:2074320000000000000000000000000000000000000000000000000000000000000000003a
:2074520000000000000000000000000000000000000000000000000000000000000000001a
:207472000000000000000000000000000000000000000169130004020005a44071d000004d
:0d7492001691380200000000000800000004
:20749f000000000000000000000000000000000000000000000000000000000000000000cd
:2074bf000000000000000000000000000000000000000000000000000000000000000000ad
:2074df000000000000000000000000000000000000001069d00278000001a540f0c0000034
:0d74ff000697404240000000000000000021
:20750c0000000000000000000000000000000000000000000000000000000000000000005f
:20752c0000000000000000000000000000000000000000000000000000000000000000003f
:20754c000000000000000000000000000000000000000169128470000205a640801000082a
:0d756c00169128004000000000001e0000e5
:207579000000000000000000000000000000000000000000000000000000000000000000f2
:207599000000000000000000000000000000000000000000000000000000000000000000d2
:2075b9000000000000000000000000000000000000001069900200000001a44000000001c1
:0d75d900069500000000000000000000000a
:2075e600000000000000000000000000000000000000000000000000000000000000000085
:20760600000000000000000000000000000000000000000000000000000000000000000064
:207626000000000000000000000000000000000000000169178600000805a65c38a0000056
:0d7646001691380000000000000000000058
:20765300000000000000000000000000000000000000000000000000000000000000000017
:207673000000000000000000000000000000000000000000000000000000000000000000f7
:207693000000000000000000000000000000000000002069d02400000501a410000000039d
:0d76b3000695000280000028d600000000af
:2076c0000000000000000000000000000000000000000000000000000000000000000000aa
:2076e00000000000000000000000000000000000000000000000000000000000000000008a
:20770000000000000000000000000000000000000000016917a400000005a44a0000000051
:0d7720001699300040008028d6e0000000df
:20772d0000000000000000000000000000000000000000000000000000000000000000003c
:20774d0000000000000000000000000000000000000000000000000000000000000000001c
:20776d0000000000000000000000002028e600000002006950000000000000009002000081
:0d778d000695000400000000000010000040
:20779a000000000000000000000000000000000000000000000000000000000000000000cf
:2077ba000000000000000000000000000000000000000000000000000000000000000000af
:2077da0000000000000000000000002028cd801800c00169930000010000000080040000a0
:0d77fa00169138038000000000000e000012
:20780700000000000000000000000000000000000000000000000000000000000000000061
:20782700000000000000000000000000000000000000000000000000000000000000000041
:20784700000000000000000000000000000001200000046904003c000000000000a00001b2
:0d786700069d0003c000000000000b0000a3
:207874000000000000000000000000000000000000000000000000000000000000000000f4
:207894000000000000000000000000000000000000000000000000000000000000000000d4
:2078b4000000000000000000000000000000080000000169168006000000000000000000a6
:0d78d4001699000680000000000001000071
:2078e100000000000000000000000000000000000000000000000000000000000000000087
:20790100000000000000000000000000000000000000000000000000000000000000000066
:20792100000000000000000000000000328e9008000010699000007008019bda10000001e6
:0d7941000697002200000000000b0000006f
:20794e00000000000000000000000000000000000000000000000000000000000000000019
:20796e000000000000000000000000000000000000000000000000000000000020000000d9
:20798e00000000000000000000000021314c1001a0000169900000100402960c5000040084
:0d79ae00169101c00000000000080000005c
:2079bb000000000000000000000000000000000000000000000000000000000000000000ac
:2079db0000000000000000000000000000000000000000000000000000000000000000008c
:2079fb0000000000000000000000000206eca90b00000069d0003c00004236d0f001000016
:0d7a1b0006970040000040302dc00b000019
:207a280000000000000000000000000000000000000000000000000000000000000000003e
:207a480000000000000000000000000000000000000000000000000000000000000000001e
:207a680000000000000000000000000009c6190900020169100004000802377c81e000006f
:0d7a88001699000000000000e4c781000016
:207a95000000000000000000000000000000000000000000000000000000000000000000d1
:207ab5000000000000000000000000000000000000000000000000000000000000000000b1
:207ad5000000000000000000000000000000050080000069501422000000000000e8000035
:0d7af500069040201200001a44000000001e
:207b0200000000000000000000000000000000000000000000000000000000000000000063
:207b2200000000000000000000000000000000000000000000000000000000000000000043
:207b4200000000000000000000000000000001080000116910042800000000000010000054
:0d7b6200169130e02000805a44c100000060
:207b6f000000000000000000000000000000000000000000000000000000000000000000f6
:207b8f000000000000000000000000000000000000000000000000000000000000000000d6
:207baf0000000000000000000000000206eeb00000200069500034000000000000a18010d2
:0d7bcf0006990003c000001a7400000000b9
:207bdc00000000000000000000000000000000000000000000000000000000000000000089
:207bfc00000000000000000000000000000000000000000000000000000000000000000069
:207c1c0000000000000000000000000009d610000020116990140400000000000010000007
:0d7c3c00169900004000805a44e10000004d
:207c490000000000000000000000000000000000000000000000000000000000000000001b
:207c69000000000000000000000000000000000000000000000000000000000000000000fb
:207c89000000000000000000000000043fc0f00e000000697402003100028c709000080034
:0d7ca900069501c00000001a5c00000000fc
:207cb6000000000000000000000000000000000000000000000000000000000000000000ae
:207cd60000000000000000000000000000000000000000000000000000000000000000008e
:207cf6000000000000000000000000103bdfc50a00001169168e000000028cf88000100041
:0d7d1600169170000000805a45e00000004a
:207d2300000000000000000000000000000000000000000000000000000000000000000040
:207d4300000000000000000000000000000000000000000000000000000000000000000020
:207d6300000000000000000000000028302dc0000000c06900000000000236c00100000495
:0d7d8300069040000000481a740000000047
:207d90000000000000000000000000000000000000000000000000000000000000000000d3
:207db0000000000000000000000000000000000000000000000000000000000000000000b3
:207dd00000000000000000000000000000c4c5000000016912007000000236ce00e0000038
:0d7df000169170000000005a64e0080000c9
:207dfd00000000000000000000000000000000000000000000000000000000000000000066
:207e1d00000000000000000000000000000000000000000000000000000000000000000045
:207e3d000000000000000000002000001a7d00002000000308047c000001542c90900430ee
:0d7e5d0008d040428000041a6c01000000b3
:207e6a000000000000000000000000000000000000000000000000000000000000000000f8
:207e8a000000000000000000000000000000000000000000000000000000000000000000d8
:207eaa000000050000000000000000005a45a00040004003500038020212947d000400043a
:0d7eca0008d52a068000005a44a0000000e0
:207ed70000000000000000000000000000000000000000000000000000000000000000008b
:207ef70000000000000000000000000000000000000000000000000000000000000000006b
:207f17000000000000000000000000001a750790000000ca7a84392000022c0900918808ab
:0d7f37000ff3b8028000041a64000000007f
:207f440000000000000000000000000000000000000000000000000000000000000000001d
:207f64000000000000000000000000000000000000000000000000000000000000000000fd
:207f84000000000000000000000000005a64ab9c000000c5f07e6c800f011c610000100814
:0d7fa4000efb38028000005a648780000048
:207fb1000000000000000000000000000000000000000000000000000000000000000000b0
:207fd100000000000000000000000000000000000000000000000000000000000000000090
:207ff1000000000000000000000010001a4d000000000099f3fe000000011cf000b00000b2
:0d801100000001c3c000401a6c0000000018
:20801e00000000000000000000000000000000000000000000000000000000000000000042
:20803e00000000000000000000000000000000000000000000000000000000000000000022
:20805e000000000000000000001400005a45a000000000a502dc000002011cca00880000bb
:0d807e00000000004000005a45a000000076
:20808b000000000000000000000000000000000000000000000000000000000000000000d5
:2080ab000000000000000000000000000000000000000000000000000000000000000000b5
:2080cb000000000000000000000000001a7d0118000000a3780640200002374091f1480021
:0d80eb000ff731c28000401a7d00800000b8
:2080f800000000000000000000000000000000000000000000000000000000000000000068
:20811800000000000000000000000000000000000000000000000000000000000000000047
:208138000000000000000000000000005a45810e014080a373842001021235de788010004e
:0d8158000efb7963c000005a44c580000092
:208165000000000000000000000000000000000000000000000000000000000000000000fa
:208185000000000000000000000000000000000000000000000000000000000000000000da
:2081a5000000000000000000000000001a6400000000004e0a4240000003fc0a00a0002099
:0d81c50008df40200000401a6c0000008020
:2081d20000000000000000000000000000000000000000000000000000000000000000008d
:2081f20000000000000000000000000000000000000000000000000000000000000000006d
:208212000000000000000000001400005a64e38001c0408d381e60200103bc6d01f0000194
:0d82320008ddf1478000005a45800801007a
:20823f0000000000000000000000000000000000000000000000000000000000000000001f
:20825f000000000000000000000000000000000000000000000000000000000000000000ff
:20827f000000000000000000000000001a6d0100000100ff0b4040000202377008000830e1
:0d829f000c5980240000001a7500800000ba
:2082ac000000000000000000000000000000000000000000000000000000000000000000b2
:2082cc00000000000000000000000000000000000000000000000000000000000000000092
:2082ec000000000000000000000000045a458000000240ef33866200000234c818041000d9
:0d830c000c57a1460000805a44c70800002d
:20831900000000000000000000000000000000000000000000000000000000000000000044
:20833900000000000000000000000000000000000000000000000000000000000000000024
:208359000000000000000000000000001a640000000000ff0fbc38000003142059d0000024
:0d837900027f80000000001a7d030f00004d
:208386000000000000000000000000000000000000000000000000000000000000000000d7
:2083a6000000000000000000000000000000000000000000000000000000000000000000b7
:2083c6000000008000000000000000005a64c380000040ef76e005000543147a98f000210d
:0d83e600027db8000000045a658f81000080
:2083f30000000000000000000000000000000000000000000000000000000000000000006a
:20841300000000000000000000000000000000000000000000000000000000000000000049
:208433000000000000000000000000081a750000008000ff1a4200200202377008000021c3
:0d8453000a3b824400000c1a650010000076
:208460000000000000000000000000000000000000000000000000000000000000000000fc
:208480000000000000000000000000000000000000000000000000000000000000000000dc
:2084a0000000000000000000000000005a64c020014000efbb4600000002347e1000000128
:0d84c0000a37ba028020005a65801e0000b5
:2084cd0000000000000000000000000000000000000000000000000000000000000000008f
:2084ed0000000000000000000000000000000000000000000000000000000000000000006f
:20850d000000000000000000002000001a5d00080002008dd8260000000316e0d000002039
:0d852d0008dd00000000201a5c000b0000bb
:20853a00000000000000000000000000000000000000000000000000000000000000000021
:20855a00000000000000000000000000000000000000000000000000000000000000000001
:20857a000000000000000000000000005a6480000000008d7b9c7800080315ce780400001d
:0d859a0008db21600000005a64e38100004e
:2085a7000000000000000000000000000000000000000000000000000000000000000000b4
:2085c700000000000000000000000000000000000000000000000000000000000000000094
:2085e7000000000000000000000000041a410108008000a33c24200000032a6d01000010be
:0d8607000000e6c3c000041a40000000009f
:20861400000000000000000000000000000000000000000000000000000000000000000046
:20863400000000000000000000000000000000000000000000000000000000000000000026
:208654000000000000000000000000005a44e000004080a3d79e24000c0315e158e000044b
:0d867400001572000010005a45801a000029
:208681000000000000000000000000000000000000000000000000000000000000000000d9
:2086a1000000000000000000000000000000000000000000000000000000000000000000b9
:2086c1000000000000000000000000001a5c010800000081000c28000000000070000000f5
:0d86e100003081c20000001a41000b0000b3
:2086ee0000000000000000000000000000000000000000000000000000000000000000006c
:20870e0000000000000000000000000000000000000000000000000000000000000000004b
:20872e000000000000000000000200005a44000000004081022601400000000050a000046d
:0d874e00003583400000015a45e0010000a5
:20875b000000000000000000000000000000000000000000000000000000000000000000fe
:20877b000000000000000000000000000000000000000000000000000000000000000000de
:20879b000000000000000000000000001a6c01080000804e035628200000002c50a0002084
:0d87bb000c5fc0024000041a4400000000e2
:2087c800000000000000000000000000000000000000000000000000000000000000000091
:2087e800000000000000000000000000000000000000000000000000000000000000000071
:208808000000000000000000000000015a6403800000408d707c0001010004fc50100000f3
:0d8828000c5db8000000005a4407800000fd
:20883500000000000000000000000000000000000000000000000000000000000000000023
:20885500000000000000000000000000000000000000000000000000000000000000000003
:208875000000000000000000000010001a400000000080ff0b402a0108028d6000901000ed
:0d889500000003640000041a6c07090000d5
:2088a2000000000000000000000000000000000000000000000000000000000000000000b6
:2088c200000000000000000000000000000000000000000000000000000000000000000096
:2088e2000000000000000000000000005a45c000000040ef1640000200028cd80000080022
:0d890200000001420000005a44080100007e
:20890f00000000000000000000000000000000000000000000000000000000000000000048
:20892f00000000000000000000000000000000000000000000000000000000000000000028
:20894f000000000000000000000000001a6c0700000000ff07b4010202019bcf00f18020c0
:0d896f000a3580424000041a640000000038
:20897c000000000000000000000000000000000000000000000000000000000000000000db
:20899c000000000000000000000000000000000000000000000000000000000000000000bb
:2089bc000000000000000000000000005a440000000040ef5bc00081000294090000000093
:0d89dc004a3daa005000005a44000000006f
:2089e90000000000000000000000000000000000000000000000000000000000000000006e
:208a090000000000000000000000000000000000000000000000000000000000000000004d
:208a29000000000000000000000000001a7400000140008dd8002e8402014d6c00e000109b
:0d8a49000a3700060200041a540010000055
:208a5600000000000000000000000000000000000000000000000000000000000000000000
:208a76000000000000000000000000000000000000000000000000000000000002000000de
:208a96000000000000000000000700005a44c0000c81008d7300010200028fc10010000069
:0d8ab6000a33e0064000005a65c01e0000b3
:208ac300000000000000000000000000000000000000000000000000000000000000000093
:208ae300000000000000000000000000000000000000000000000000000000000000000073
:208b03000000000000000000000000101a410700000080a3bc1428000c028c70d8f40020cf
:0d8b23000a3b8343c000141a410f0f0000ed
:208b3000000000000000000000000000000000000000000000000000000000000000000025
:208b5000000000000000000000000000000000000000000000000000000000000000000005
:208b70000000000000000000000000005a44c000000000a35300000000028de81898000169
:0d8b90000a3de0000020005a45a801000049
:208b9d000000000000000000000000000000000000000000000000000000000000000000b8
:208bbd0000000000201a410099000000f0080000000000000000000000000000000000008c
:208bdd0000080000080595200000000000000b004080000000142e80000000000000000021
:0d8bfd00027d400750084028fd05090000da
:208c0a0000000000000000000000000000000000000000000000000000000000000000004a
:208c2a0000000000801a458199000000f058000000000000000000000000000000000000e9
:208c4a00003801400806596c000000000000080e80400000003c69000000000000a000089b
:0d8c6a00027730c368080028cded800000bf
:208c77000000000000000000000000000000000000000000000000000000000000000000dd
:208c970000000000041a5c0019000000f00800000000000000000000000000000000000032
:208cb70000000000000591202740000006de910000000000002400000203bc3010000018ce
:0d8cd7000c5000061010000000030000000b
:208ce400000000000000000000000000000000000000000000000000000000000000000070
:208d040000000000005a640019000100f0580000000000000000000000000000000000002f
:208d24000000000028165929e600002009e6180000000000002078000103bc6800a00004fe
:0d8d44000c5779e208000000000800000054
:208d5100000000000000000000000000000000000000000000000000000000000000000002
