:02000000ff00ff
:080002004c6174746963650030
:17000a00694345637562653220323031372e30382e32373934300069
:15002100506172743a2069434534304c50384b2d434d3831003f
:1b003600446174653a204a616e20323920323032302031323a32383a30390085
:0200510000ffae
:040053007eaa997e6a
:02005700510056
:0200590001059f
:03005b00920020f0
:03005e00620367d3
:0300610072011019
:0300640082000017
:02006700110086
:02006900010193
:20006b00000000000000000000000000000000002000000000000000000000000000000055
:20008b00000000000000000000000000000000000000000000000000000000000000000055
:2000ab00000000000000000000000000000000000000000000000000000000000000000035
:0d00cb000000000000000000000000000028
:2000d800000000000000000000000000000000000000000000000000000000000000000008
:2000f8000000000000000000000000000000000000000000000000000000000000000000e8
:200118000000000000000000000000000000000000000000000000000000000000000000c7
:0d01380000000000000000000000000000ba
:2001450000000000000000000000000000000000100000000000000000000000000000008a
:2001650000000000000000000000000000000000000000000000000000000000000000007a
:2001850000000000000000000000000000000000000000000000000000000000000000005a
:0d01a500000000000000000000000000004d
:2001b20000000000000000000000000000000000000000000000000000000000000000002d
:2001d20000000000000000000000000000000000000000000000000000000000000000000d
:2001f2000000000000000000000000000000000000000000000000000000000000000000ed
:0d02120000000000000000000000000000df
:20021f0000000000000000000000000000000000200000000000000000000000000000009f
:20023f0000000000000000000000000000000000000000000000000000000000000000009f
:20025f0000000000000000000000000000000000000000000000000000000000000000007f
:0d027f000000000000000000000000000072
:20028c00000000000000000000000000000000000000000000000000000000000000000052
:2002ac00000000000000000000000000000000000000000000000000000000000000000032
:2002cc00000000000000000000000000000000000000000000000000000000000000000012
:0d02ec000000000000000000000000000005
:2002f9000000000000000000000000000000000000000000000000000000000000000000e5
:200319000000000000000000000000000000000000000000000000000000000000000000c4
:200339000000000000000000000000000000000000000000000000000000000000000000a4
:0d0359000000000000000000000000000097
:20036600000000000000000000000000000000000000000000000000000000000000000077
:20038600000000000000000000000000000000000000000000000000000000000000000057
:2003a600000000000000000000000000000000000000000000000000000000000000000037
:0d03c600000000000000000000000000002a
:2003d30000000000000000000000000000000000000000800000000000000000000000008a
:2003f3000000000000000000000000000000000000000000000000000000000000000000ea
:200413000000000000000000000000000000000000000000000000000000000000000000c9
:0d04330000000000000000000000000000bc
:2004400000000000000000000000000000000000000000000000000000000000000000009c
:2004600000000000000000000000000000000000000000000000000000000000000000007c
:2004800000000000000000000000000000000000000000000000000000000000000000005c
:0d04a000000000000000000000000000004f
:2004ad0000000000000000000000000000000000000000000000000000000000000000002f
:2004cd0000000000000000000000000000000000000000000000000000000000000000000f
:2004ed000000000000000000000000000000000000000000000000000000000000000000ef
:0d050d0000000000000000000000000000e1
:20051a000000000000000000000000000000000020000000000000000000000000000000a1
:20053a000000000000000000000000000000000000000000000000000000000000000000a1
:20055a00000000000000000000000000000000000000000000000000000000000000000081
:0d057a000000000000000000000000000074
:20058700000000000000000000000000000000000000000000000000000000000000000054
:2005a700000000000000000000000000000000000000000000000000000000000000000034
:2005c700000000000000000000000000000000000000000000000000000000000000000014
:0d05e7000000000000000000000000000007
:2005f4000000000000000000000000000000000010000000000000000000000000000000d7
:200614000000000000000000000000000000000000000000000000000000000000000000c6
:200634000000000000000000000000000000000000000000000000000000000000000000a6
:0d0654000000000000000000000000000099
:20066100000000000000000000000000000000000000004000000000000000000000000039
:20068100000000000000000000000000000000000000000000000000000000000000000059
:2006a100000000000000000000000000000000000000000000000000000000000000000039
:0d06c100000000000000000000000000002c
:2006ce000000000000000000000000000000000020000000000000000000000000000000ec
:2006ee000000000000000000000000000000000000000000000000000000000000000000ec
:20070e000000000000000000000000000000000000000000000000000000000000000000cb
:0d072e0000000000000000000000000000be
:20073b0000000000000000000000000000000000000000000000000000000000000000009e
:200c9700000000000000000000000000000000000000000000000000000000000000000439
:0d0cb7000000000000000000000000000030
:200cc400000000000000000000000000000000000000000000000000000000000000000010
:200ce4000000000000000000000000000000000000000000000000000000000000000000f0
:200d04000000000000000000000000000000000000000000000000000000000000000000cf
:20507700000000000000000000000000000000000000000000000100000000000000000018
:205097000000000000000000000000000000000000000000000000000000000000000000f9
:2050b7000000000000000000000000000000000000000000000000000000000000000000d9
:0d50d70000000000000000000000000000cc
:2050e4000000000000000000000000000000000000000000000000000000000000000000ac
:2051040000000000000000000000000000000000000000000000000000000000000000008b
:2051240000000000000000000000000000000000000000000000000000000000000000006b
:0d514400000000000000000000000000005e
:2051510000000000000000000000000000000000000000000000000000000000000000003e
:2051710000000000000000000000000000000000000000000000000000000000000000001e
:205191000000000000000000000000000000000000000000000000000000000000000000fe
:0d51b10000000000000000000000000000f1
:2051be000000000000000000000000000000000000000000000000000000000000000000d1
:2051de000000000000000000000000000000000000000000000000000000000000000000b1
:2051fe00000000000000000000000000000000000000000000000000000000000000000091
:0d521e000000000000001000000000000073
:20522b00000000000000000000000000000000000000000000000000000000000000000063
:20524b00000000000000000000000000000000000000000000000000000000000000000043
:20526b00000000000000000000000000000000000000000000000000000000000000000023
:0d528b000000000000000000000000000016
:205ca3000000000000000000000000000000000000000000000000000000000000000004dd
:0d5cc30000000000000000000000000000d4
:205cd0000000000000000000000000000000000000000000000000000000000000000000b4
:205cf000000000000000000000000000000000000000000000000000000000000000000094
:205d1000000000000000000000000000000000000000000000000000000000000000000073
:20684f00000000000000000000100000000000000000000000000000000000000000000019
:20686f00000000000000000000000000000000000000000000000000000000000000000009
:20688f000000000000000000000000000000000000000000000000000000000000000000e9
:0d68af0000000000000000000000000000dc
:2068bc000000000000000000000000000000000000000000000000000000000000000000bc
:2068dc0000000000000000000000000000000000000000000000000000000000000000009c
:2068fc0000000000000000000000000000000000000000000000000000000000000000007c
:0d691c00000000000000000000000000006e
:2069290000000000000000000000000000000000000000000000000000000000000000004e
:2069490000000000000000000000000000000000000000000000000000000000000000002e
:2069690000000000000000000000000000000000000000000000000000000000000000000e
:0d6989000000000000000000000000000001
:206996000000000000000000000000000000000000000000000000000000000000000000e1
:2069b6000000000000000000000000000000000000000000000000000000000000000000c1
:2069d6000000000000000000000000000000000000000000000000000100000000000000a0
:0d69f600080000000000000000000000008c
:206a0300000000000000000000000000000000000000000000000000000000000000000073
:206a2300000000000000000000000000000000000000000000000000000000000000000053
:206a4300000000000000000000000000000000000000000000000000000000000000000033
:0d6a63000000000000000000000000000026
:206a7000000000000000000000000000000000000000000000000000000000000000000006
:206a90000000000000000000000000000000000000000000000000000000000000000000e6
:206ab0000000000000000000000000000000000000000000000000000000000000000000c6
:0d6ad00000000000000000000000000000b9
:206add00000000000000000000000000000000000000000000000000000000000000000099
:206afd00000000000000000000000000000000000000000000000000000000000000000079
:206b1d00000000000000000000000000000000000000000000000000000000000000000058
:0d6b3d00000000000000000000000000004b
:206b4a0000000000000000000000000000000000000000000000000000000000000000002b
:206b6a0000000000000000000000000000000000000000000000000000000000000000000b
:206b8a000000000000000000000000000000000000000000000000000000000000000000eb
:0d6baa0000000000000000000000000000de
:206bb70000000000000000000000000000000000400000000000000000000000000000007e
:206bd70000000000000000000000000000000000000000000000000000000000000000009e
:206bf70000000000000000000000002000000000000000000000000000000000000000005e
:0d6c17000000000000000000000000000070
:206c2400000000000000000000000000000000000000000000000000000000000000000050
:206c4400000000000000000000000000000000000000000000000000000000000000000030
:206c6400000000000000000000000000000000000000000000000000000000000000000010
:0d6c84000000000000000000000000000003
:206c91000000000000000000000000000000000000000000000000000000000000000000e3
:206cb1000000000000000000000000000000000000000000000000000000000000000000c3
:206cd1000000000000000000000000000000000000000000000000000000000000000000a3
:0d6cf1000000000000000000000000000096
:206cfe00000000000000000000000000000000000000000000000000000000000000000076
:206d1e00000000000000000000000000000000000000000000000000000000000000000055
:206d3e00000000000000000000000000000000000000000000000000000000000000000431
:0d6d5e000000000000000000000000000028
:206d6b00000000000000000000000000000000000000000000000000000000000000000008
:206d8b000000000000000000000000000000000000000000000000000000000000000000e8
:206dab000000000000000000000000000000000000000000000000000000000000000000c8
:0d6dcb0000000000000000000000000000bb
:206dd80000000000000000000000000000000000000000000000000000000000000000009b
:206df80000000000000000000000000000000000000000000000000000000000000000007b
:206e180000000000000000000000000000000000000000000000000000000000000000005a
:0d6e3800000000000000000000000000004d
:206e450000000000000000000000000000000000000000000000000000000000000000002d
:206e650000000000000000000000000000000000000000000000000000000000000000000d
:206e85000000000000000000000000000000000000000000000000000000000000000000ed
:0d6ea50000000000000000000000000000e0
:206eb2000000000000000000000000000000000000000000000000000000000000000000c0
:206ed2000000000000000000000000000000000000000000000000000000000000000000a0
:206ef200000000000000000000000000000000000000000000000000000000000000000080
:0d6f12000000000000000000000000000072
:206f1f00000000000000000000000000000000000000000000000100000000000000000051
:206f3f00000000000000000000000000000000000000000000000000000000000000000032
:206f5f00000000000000000000000000000000000000000000000000000000000000000012
:0d6f7f000000000000000000000000000005
:206f8c000000000000000000000000000000000000000000000000000000000000000000e5
:206fac000000000000000000000000000000000000000000000000000000000000000000c5
:206fcc000000000000000000000000000000000000000000000000000000000000000000a5
:0d6fec000000000000000000000000000098
:206ff900000000000000000000000000000000000000000000000000000000000000000078
:20701900000000000000000000000000000000000000000000000000000000000000000057
:20703900000000000000000000000000000000000000000000000000000000000000000037
:0d705900000000000000000000000000002a
:2070660000000000000000000000000000000000000000000000000000000000000000000a
:207086000000000000000000000000000000000000000000000000000000000000000000ea
:2070a6000000000000000000000000000000000000000000000000000000000000000000ca
:0d70c60000000000000010000000000000ad
:2070d30000000000000000000000000000000000000000000000000000000000000000009d
:2070f30000000000000000000000000000000000000000000000000000000000000000007d
:2071130000000000000000000000000000000000000000000000000000000000000000005c
:0d713300000000000000000000000000004f
:2071400000000000000000000000000000000000000000000000000000000000000000002f
:2071600000000000000000000000000000000000000000000000000000000000000000000f
:207180000000000000000000000000000000000000000000000000000000000000000000ef
:0d71a00000000000000000000000000000e2
:2071ad000000000000000000000000000000000000000000000000000000000000000000c2
:2071cd000000000000000000000000000000000000000000000000000000000000000000a2
:2071ed00000000000000000000000000000000000000000000000000000000000000000082
:0d720d000000000000000000000000000074
:20721a00000000000000000000000000000000000000000000000000000000000000000054
:20723a00000000000000000000000000000000000000000000000000000000000000000034
:20725a00000000000000000000000000000000000000000000000000000000000000000014
:0d727a000000000000000000000000000007
:207287000000000000000000000000000000000000000000000000000000000000000000e7
:2072a7000000000000000000000000000000000000000000000000000000000000000000c7
:2072c7000000000000000000000000000000000000000000000000000000000000000000a7
:0d72e700000000000000000000000000009a
:2072f40000000000000000000000000000000000000000000000000000000000000000007a
:20731400000000000000000000000000000000000000000000000000000000000000000059
:20733400000000000000000000000000000000000000000000000000000000000000000039
:0d735400000000000000000000000000002c
:2073610000000000000000000000000000000000000000000000000000000000000000000c
:207381000000000000000000000000000000000000000000000000000000000000000000ec
:2073a1000000000000000000000000000000000000000000000000000000000000000000cc
:0d73c10000000000000000000000000000bf
:2073ce0000000000000000000000000000000000000000000000000000000000000000009f
:2073ee0000000000000000000000000000000000000000000000000000000000000000007f
:20740e0000000000000000000000000000000000000000000000000000000000000000005e
:0d742e000000000000000000000000000051
:02743b0000004f
:02743d0011013b
:02743f00010149
:20744100000000000000000000000000000000000000000000000000000000000002000029
:2074610000000000000000000000000000000000000000000000000000000000000000000b
:207481000000000000000000000000000000000000000000000000000000000000000000eb
:0d74a10000000000000000000000000000de
:2074ae000000000000000000000000000000000000000000000000000000000000000000be
:2074ce0000000000000000000000000000000000000000000000000000000000000000009e
:2074ee0000000000000000000000000000000000000000000000000000000000000000007e
:0d750e000000000000000000000000000070
:20751b0000000000000000000000000000000000000000000000000000000000000100004f
:20753b00000000000000000000000000000000000000000000000000000000000000000030
:20755b00000000000000000000000000000000000000000000000000000000000000000010
:0d757b000000000000000000000000000003
:207588000000000000000000000000000000000000000000000000000000000000000000e3
:2075a8000000000000000000000000000000000000000000000000000000000000000000c3
:2075c8000000000000000000000000000000000000000000000000000000000000000000a3
:0d75e8000000000000000000000000000096
:2075f500000000000000000000000000000000000000000000000000000000000002000074
:20761500000000000000000000000000000000000000000000000000000000000000000055
:20763500000000000000000000000000000000000000000000000000000000000000000035
:0d7655000000000000000000000000000028
:20766200000000000000000000000000000000000000000000000000000000000000000008
:207682000004000000000000000000000000000000000000000000000000000000000000e4
:2076a2000000000000000000000000000000000000000000000000000000000000000000c8
:0d76c20000000000000000000000000000bb
:2076cf0000000000000000000000000000000000000000000000000000000000000000009b
:2076ef0000000000000000000000000000000000000000000000000000000000000000007b
:20770f0000000000000000000000000000000000000000000000000000000000000000005a
:0d772f00000000000000000000000000004d
:20773c0000000000000000000000000000000000000000000000000000000000000000002d
:20775c0000000000000000000000000000000000000000000000000000000000000000000d
:20777c000000000000000000000000000000000000000000000000000000000000000000ed
:0d779c0000000000000000000000000000e0
:2077a9000000000000000000000000000000000000000000000000000000000000000000c0
:2077c900000000000000002000000000000000000000000000000000000000000000000080
:2077e900000000000000000000000000000000000000000000000000000000000000000080
:0d7809000000000000000000000000000072
:20781600000000000000000000000000000000000000000000000000000000000000000052
:20783600000000000000000000000000000000000000000000000000000000000000000032
:20785600000000000000000000000000000000000000000000000000000000000000000012
:0d7876000000000000000000000000000005
:207883000000000000000000000000000000000000000000000000000000000000000000e5
:2078a3000000000000000000000000000000000000000000000000000000000000000000c5
:2078c3000000000000000000000000000000000000000000000000000000000000000000a5
:0d78e3000000000000000000000000000098
:2078f000000000000000000000000000000000000000000000000000000000000000000078
:2079100000000000080000000000000000000000000000000000000000000000000000004f
:20793000000000000000000000000000000000000000000000000000000000000000000037
:0d795000000000000000000000000000002a
:20795d0000000000000000000000000000000000000000000000000000000000000000000a
:20797d000000000000000000000000000000000000000000000000000000000000000000ea
:20799d000000000000000000000000000000000000000000000000000000000000000000ca
:0d79bd0000000000000000000000000000bd
:2079ca0000000000000000000000000000000000000000000000000000000000000000009d
:2079ea00000000000400000000000000000000000000000000000000000000000000000079
:207a0a0000000000000000000000000000000000000000000000000000000000000000005c
:0d7a2a00000000000000000000000000004f
:207a370000000000000000000000000000000000000000000000000000000000000000002f
:207a570004000000000000000000000000000000000000000000000000000000000000000b
:207a77000000000000000000000000000000000000000000000000000000000000000000ef
:0d7a970000000000000000000000000000e2
:207aa400000000000000000000000000000000000000000000000000000000000000001ca6
:207ac40000000000080000000000000000000000000000000000000000000000000000009a
:207ae400000000000000000000000000000000000000000000000000000000000000000082
:0d7b04000000000000000000000000000074
:207b1100000000000000000000000000000000000000000000000000000000000000000054
:207b3100000000000000000000000000000000000000000000000000000000000000000034
:207b5100000000000000000000000000000000000000000000000000000000000000000014
:0d7b71000000000000000000000000000007
:207b7e000000000000000000000000000000000000000000000000000000000000000000e7
:207b9e000000000000000000000000000000000000000000000000000000000000000000c7
:207bbe000000000000000000000000000000000000000000000000000000000000000000a7
:0d7bde00000000000000000000000000009a
:207beb0000000000000000000000000000000000000000000000000000000000000000106a
:207c0b00000000000000000000000000000000000000000000000000000000000000000059
:207c2b00000000000000000000000000000000000000000000000000000000000000000039
:0d7c4b00000000000000000000000000002c
:207c5800000000000000000000000000000000000000000000000000000000000000009874
:207c78000000000000000000000000000000000000000000000000000000000000000000ec
:207c98000000000000000000000000000000000000000000000000000000000000000000cc
:0d7cb80000000000000000000000000000bf
:207cc50000000000000000000000000000000000000000000000000000000000000000009f
:20802d00000000000000000000000000000000000000000000000000000000000020000013
:20804d000002580000000000000000000000000000000000000000000000000000000000b9
:20806d000000000000000000000000000000000000000000000000000000000000000000f3
:0d808d0000000000000000000000000000e6
:20809a0000000000000000000000000000000000000000000000000000000000002800009e
:2080ba00072259000000000000000000000000000000000000000000000000000000000024
:2080da00000000000000000000000000000000000000000000000000000000000000000086
:0d80fa000000000000000000000000000079
:20810700000000000000000000000000000000000000000000000000000000000000000058
:208127000002581000000000000000000000000000000000000000000000000000000000ce
:20814700000000000000000000000000000000000000000000000000000000000000000018
:0d816700000000000000000000000000000b
:208174000000000000000000000000000000000000000000000000000000000000000000eb
:2081940007225b000000000000000000000000000000000000000000000000000000000047
:2081b4000000000000000000000000000000000000000000000000000000000000000000ab
:0d81d400000000000000000000000000009e
:2081e10000000000000000000000000000000000000000000000000000000000000000106e
:20820100008258000000000000000000000000000000000000000000000000000000000083
:2082210000000000000000000000000000000000000000000000000000000000000000003d
:0d8241000000000000000000000000000030
:20824e00000000000000000000000000000000000000000000000000160000000000008179
:20826e0087a25b00000000000000000000000000000000000000000000000000000000006c
:20828e000000000000000000000000000000000000000000000000000000000000000000d0
:0d82ae0000000000000000000000000000c3
:2082bb0000000000000000000000000000000000000000000000000014000000000000107f
:2082db000082580000000000000000000000000000000000000000000000000000000000a9
:2082fb00000000000000000000000000000000000000000000000000000000000000000063
:0d831b000000000000000000000000000055
:2083280000000000000000000000000000000000000000000000000000000000000000989d
:2083480005a25b000000000000000000000000000000000000000000000000000000000013
:208368000000000000000000000000000000000000000000000000000000000000000000f5
:0d83880000000000000000000000000000e8
:208395000000000000000000000000000000000000000000000000000028000000000000a0
:2083b50000025800000000000000000000000000000000000000000000000000000000004e
:2083d500000000000000000000000000000000000000000000000000000000000000000088
:0d83f500000000000000000000000000007b
:20840200000000000000000000000000000000000000000000000000006c000000000000ee
:2084220005a25b000000000000000000000000000000000000000000000000000000000038
:2084420000000000000000000000000000000000000000000000000000000000000000001a
:0d846200000000000000000000000000000d
:20846f000000000000000000000000000000000000000000000000000000005c0040000051
:20848f00000258000000000000000000000000000000000000000000000000000000000073
:2084af000000000000000000000000000000000000000000000000000000000000000000ad
:0d84cf0000000000000000000000000000a0
:2084dc0000000000000000000000000000000000000000000000000014014c5c02000000c1
:2084fc0007a25b00000000000000000000000000000000000000000000000000000000005c
:20851c0000000000000000000000000000000000000000000000000000000000000000003f
:0d853c000000000000000000000000000032
:208549000000000000000000000000000000000000000000000000000001eda10000000083
:20856900808258000000000000000000000000000000000000000000000000000000000098
:208589000000000000000000000000000000000000000000000000000000000000000000d2
:0d85a90000000000000000000000000000c5
:2085b6000000000000000000000000000000000000000000000000000000fff0000000189e
:2085d60015225b0000000000000000000000000000000000000000000000000000000000f3
:2085f600000000000000000000000000000000000000000000000000000000000000000065
:0d8616000000000000000000000000000057
:20862300000000000000000000000000000000000000000000000000040000000000000033
:208643008082580000000000000000000000000000000000000000000000000000000000bd
:208663000000000000000000000000000000000000000000000000000000000000000000f7
:0d86830000000000000000000000000000ea
:208690000000000000000000000000000000000000000000000000002000000000000001a9
:2086b00095225b000000000000000000000000000000000000000000000000000000000098
:2086d00000000000000000000000000000000000000000000000000000000000000000008a
:0d86f000000000000000000000000000007d
:2086fd0000000000000000000000000000000000000000000000000000000000002000003d
:20871d000002580000000000000000000000000000000000000000000000000000000000e2
:20873d0000000000000000000000000000000000000000000000000000000000000000001c
:0d875d00000000000000000000000000000f
:20876a000000000000000000000000000000000000000000000000000000000000280000c7
:20878a0007225b00000000000000000000000000000000000000000000000000000000004b
:2087aa000000000000000000000000000000000000000000000000000000000000000000af
:0d87ca0000000000000000000000000000a2
:2087d7000000000000000000000000000000000000000000000000000002dee300000000bf
:2087f7000002581000000000000000000000000000000000000000000000000000000000f8
:20881700000000000000000000000000000000000000000000000000000000000000000041
:0d8837000000000000000000000000000034
:208844000000000000000000000000000000000000000000000000000003ddf10000000043
:2088640007225b000000000000000000000000000000000000000000000000000000000070
:208884000000000000000000000000000000000000000000000000000000000000000000d4
:0d88a40000000000000000000000000000c7
:2088b100000000000000000000000000000000000000000000000000000000000000001097
:2088d1000082580000000000000000000000000000000000000000000000000000000000ad
:2088f100000000000000000000000000000000000000000000000000000000000000000067
:0d8911000000000000000000000000000059
:20891e000000000000000000000000000000000000000000000000000000000000000081b8
:20893e0087a25b000000000000000000000000000000000000000000000000000000000095
:20895e000000000000000000000000000000000000000000000000000000000000000000f9
:0d897e0000000000000000000000000000ec
:20898b000000000000000000000000000000000000000000000000000000000000000010bc
:2089ab000082580000000000000000000000000000000000000000000000000000000000d2
:2089cb0000000000000000000000000000000000000000000000000000000000000000008c
:0d89eb00000000000000000000000000007f
:2089f8000000000000000000000000000000000000000000000000000000000000000098c7
:208a180005a25b00000000000000000000000000000000000000000000000000000000003c
:208a380000000000000000000000000000000000000000000000000000000000000000001e
:0d8a58000000000000000000000000000011
:208a65000000000000000000000000000000000000000000000000000000000000000000f1
:208a8500000258000000000000000000000000000000000000000000000000000000000077
:208aa5000000000000000000000000000000000000000000000000000000000000000000b1
:0d8ac50000000000000000000000000000a4
:208ad200000000000000000000000000000000000000000000000000000000000000000084
:208af20005a25b000000000000000000000000000000000000000000000000000000000062
:208b1200000000000000000000000000000000000000000000000000000000000000000043
:0d8b32000000000000000000000000000036
:208b3f00000200000000000000000000000000000000000000000000000000000000000014
:208b5f0000025800000000000000000000000000000000000000000000000000000000009c
:208b7f000000000000000000000000000000000000000000000000000000000000000000d6
:0d8b9f0000000000000000000000000000c9
:208bac000000000000000000000000000000000000000000000000000000000000000000a9
:208bcc0007a25b000000000000000000000000000000000000000000000000000000000085
:208bec00000000000000000000000000000000000000000000000000000000000000000069
:0d8c0c00000000000000000000000000005b
:208c190000000000000000000000000000000000000000000000000000000000000000003b
:208c39008082580000000000000000000000000000000000000000000000000000000000c1
:208c59000000000000000000000000000000000000000000000000000000000000000000fb
:0d8c790000000000000000000000000000ee
:208c86000001000000000000000000000000000000000000000000000000000000000018b5
:208ca60015225b00000000000000000000000000000000000000000000000000000000001c
:208cc60000000000000000000000000000000000000000000000000000000000000000008e
:0d8ce6000000000000000000000000000081
:208cf300000000000000000000000000000000000000000000000000000000000000000061
:208d13008082580000000000000000000000000000000000000000000000000000000000e6
:208d3300000000000000000000000000000000000000000000000000000000000000000020
:0d8d53000000000000000000000000000013
:208d60000000000000000000000000000000000000000000000000000000000000000001f2
:208d800095225b0000000000000000000000000000000000000000000000000000000000c1
:208da0000000000000000000000000000000000000000000000000000000000000000000b3
:0d8dc00000000000000000000000000000a6
:208dcd008000000000000000000000000000000000000000000000000000000000200000e6
:208ded0000025800000000000000000000000000000000000000000000000000000000000c
:208e0d00000000000000000000000000000000000000000000000000000000000000000045
:0d8e2d000000000000000000000000000038
:208e3a00000080000000000000000000000000000000000000000000000000000028000070
:208e5a0007225b000000000000000000000000000000000000000000000000000000000074
:208e7a000000000000000000000000000000000000000000000000000000000000000000d8
:0d8e9a0000000000000000000000000000cb
:208ea7000000000000000000000000000000000000000000000000000000000000000000ab
:208ec700000258100000000000000000000000000000000000000000000000000000000021
:208ee70000000000000000000000000000000000000000000000000000000000000000006b
:0d8f0700000000000000000000000000005d
:208f140000000000000000000000000000000000000000000000000000000000000000003d
:208f340007225b000000000000000000000000000000000000000000000000000000000099
:208f54000000000000000000000000000000000000000000000000000000000000000000fd
:0d8f740000000000000000000000000000f0
:208f81000000000000000000000000000000000000000000000000000000000000000010c0
:208fa1000082580000000000000000000000000000000000000000000000000000000000d6
:208fc100000000000000000000000000000000000000000000000000000000000000000090
:0d8fe1000000000000000000000000000083
:208fee000000000000000000000000000000000000000000000000000000000000000081e2
:20900e0087a25b0000000000000000000000000000000000000000000000000000000000be
:20902e00000000000000000000000000000000000000000000000000000000000000000022
:0d904e000000000000000000000000000015
:20905b000000000000000000000000000000000000000000000000000000000000000010e5
:20907b000082580000000000000000000000000000000000000000000000000000000000fb
:20909b000000000000000000000000000000000000000000000000000000000000000000b5
:0d90bb0000000000000000000000000000a8
:2090c8000000000000000000000000000000000000000000000000000000000000000098f0
:2090e80005a25b000000000000000000000000000000000000000000000000000000000066
:20910800000000000000000000000000000000000000000000000000000000000000000047
:0d912800000000000000000000000000003a
:2091350000000000000000000000000000000000000000000000000000000000000000001a
:209155000002580000000000000000000000000000000000000000000000000000000000a0
:209175000000000000000000000000000000000000000000000000000000000000000000da
:0d91950000000000000000000000000000cd
:2091a2000000000000000000000000000000000000000000000000000000000000000000ad
:2091c20005a25b00000000000000000000000000000000000000000000000000000000008b
:2091e20000000000000000000000000000000000000000000000000000000000000000006d
:0d920200000000000000000000000000005f
:20920f0000000000000000000000000000000000000000000000000000000000000000003f
:20922f000002580000000000000000000000000000000000000000000000000000000000c5
:20924f000000000000000000000000000000000000000000000000000000000000000000ff
:0d926f0000000000000000000000000000f2
:20927c000000000000000000000000000000000000000000000000000000000000000000d2
:20929c0007a25b0000000000000000000000000000000000000000000000000000000000ae
:2092bc00000000000000000000000000000000000000000000000000000000000000000092
:0d92dc000000000000000000000000000085
:2092e900000000000000000000000000000000000000000000000000000000000000000065
:209309008082580000000000000000000000000000000000000000000000000000000000ea
:20932900000000000000000000000000000000000000000000000000000000000000000024
:0d9349000000000000000000000000000017
:209356000000000000000000000000000000000000000000000000000000000000000018df
:2093760015225b000000000000000000000000000000000000000000000000000000000045
:209396000000000000000000000000000000000000000000000000000000000000000000b7
:0d93b60000000000000000000000000000aa
:2093c30000000000000000000000000000000000000000000000000000000000000000008a
:2093e300808258000000000000000000000000000000000000000000000000000000000010
:20940300000000000000000000000000000000000000000000000000000000000000000049
:0d942300000000000000000000000000003c
:2094300000000000000000000000000000000000000000000000000000000000000000011b
:2094500095225b0000000000000000000000000000000000000000000000000000000000ea
:209470000000000000000000000000000000000000000000000000000000000000000000dc
:0d94900000000000000000000000000000cf
:20949d0000000000000000000000000000000000000000000000000000000000002000008f
:2094bd00000258000000000000000000000000000000000000000000000000000000000035
:2094dd0000000000000000000000000000000000000000000000000000000000000000006f
:0d94fd000000000000000000000000000062
:20950a00000000000000000000000000000000000000000000000000000000000028000019
:20952a0007225b00000000000000000000000000000000000000000000000000000000009d
:20954a00000000000000000000000000000000000000000000000000000000000000000001
:0d956a0000000000000000000000000000f4
:209577000000000000000000000000000000000000000000000000000000000000000000d4
:20959700000258080000000000000000000000000000000000000000000000000000000052
:2095b700000000000000000000000000000000000000000000000000000000000000000094
:0d95d7000000000000000000000000000087
:2095e400000000000000000000000000000000000000000000000000000000000000000067
:2096040007225b0000000000000000000000000000000000000000000000000000000000c2
:20962400000000000000000000000000000000000000000000000000000000000000000026
:0d9644000000000000000000000000000019
:209651000000000000000000000000000000000000000000000000000000000000000000f9
:209671000000000000000000000000000000000000000000000000000000000000000000d9
:209691000000000000000000000000000000000000000000000000000000000000000000b9
:0d96b10000000000000000000000000000ac
:2096be0000000000000000000000000000000000000000000000000000000000000000008c
:2096de0000000000000000000000000000000000000000000000000000000000000000006c
:2096fe0000000000000000000000000000000000000000000000000000000000000000004c
:0d971e00000000000000000000000000003e
:20972b0000000000000000000000000000000000000000000000000000000000000000001e
:20974b000000000000000000000000000000000000000000000000000000000000000000fe
:20976b000000000000000000000000000000000000000000000000000000000000000000de
:0d978b0000000000000000000000000000d1
:209798000000000000000000000000000000000000000000000000000000000000000000b1
:2097b800000000000000000000000000000000000000000000000000000000000000000091
:2097d800000000000000000000000000000000000000000000000000000000000000000071
:0d97f8000000000000000000000000000064
:209805000000000000000000000000000000000000000000000000000000000000000070d3
:20982500000000000000000000000000000000000000000000000000000000000000000023
:20984500000000000000000000000000000000000000000000000000000000000000000003
:0d98650000000000000000000000000000f6
:209872000000000000000000000000000000000000000000000000000000000000000000d6
:209892000000000000000000000000000000000000000000000000000000000000000000b6
:2098b200000000000000000000000000000000000000000000000000000000000000000096
:0d98d2000000000000000000000000000089
:2098df00000000000000000000000000000000000000000000000000000000000000000069
:2098ff00000000000000000000000000000000000000000000000000000000000000000049
:20991f00000000000000000000000000000000000000000000000000000000000000000028
:0d993f00000000000000000000000000001b
:20994c000000000000000000000000000000000000000000000000000000000000000000fb
:20996c0080000000000000000000000000000000000000000000000000000000000000005b
:20998c000000000000000000000000000000000000000000000000000000000000000000bb
:0d99ac0000000000000000000000000000ae
:2099b90000000000000000000000000000000000000000000000000000000000000000008e
:2099d90000000000000000000000000000000000000000000000000000000000000000006e
:2099f90000000000000000000000000000000000000000000000000000000000000000004e
:0d9a19000000000000000000000000000040
:209a2600000000000000000000000000000000000000000000000000000000000000000020
:209a4600000000000000000000000000000000000000000000000000000000000000000000
:209a66000000000000000000000000000000000000000000000000000000000000000000e0
:0d9a860000000000000000000000000000d3
:209a93000000000000000000000000000000000000000000000000000000000000000001b2
:209ab300900000000000000000000000000000000000000000000000000000000000000003
:209ad300000000000000000000000000000000000000000000000000000000000000000073
:0d9af3000000000000000000000000000066
:209b0000000000000000000000000000000000000000000000000000000000000000000045
:209b20008000000000000000000000000000000000000000000000000000000000000000a5
:209b4000000000000000000000000000000000000000000000000000000000000000000005
:0d9b600000000000000000000000000000f8
:209b6d000000000000000000000000000000000000000000000000000000000000000000d8
:209b8d000d340c00000000000000000000000000000000000000000000000000000000006b
:209bad00000000000000000000000000000000000000000000000000000000000000000098
:0d9bcd00000000000000000000000000008b
:209bda0000000000000000000000000000000000000000000000000000000000000000006b
:209bfa0003a300200000000000000000000000000000000000000000000000000000000085
:209c1a0000000000000000000000000000000000000000000000000000000000000000002a
:0d9c3a00000000000000000000000000001d
:209c47001000000000000000000000000000000000000000000000000000000000000000ed
:209c670000ae581000000000000000000000000000000000000000000000000000000000c7
:209c87000000000000000000000000000000000000000000000000000000000000000000bd
:0d9ca70000000000000000000000000000b0
:209cb400000000000000000000000000000000000000000000000000000000000000000090
:209cd40005225a2000000000000000000000000000000000000000000000000000000000cf
:209cf400000000000000000000000000000000000000000000000000000000000000000050
:0d9d14000000000000000000000000000042
:209d2100000000000000000000000000000000000000000000000000000000000001000819
:209d4100b026580000002400000000000000000000000000000000000000000000000000b0
:209d61000000000000000000000000000000000000000000000000000000000000000000e2
:0d9d810000000000000000000000000000d5
:209d8e00000000000000000000000000000000000000000000000000000000000000801025
:209dae0017a25a00000067000000000000000000000000000000000000000000000000001b
:209dce00000000000000000000000000000000000000000000000000000000000000000075
:0d9dee000000000000000000000000000068
:209dfb0000000000000000000000000000000000000000000000000000000000000000d078
:209e1b00b036580200002000000000000000000000000000000000000000000000000000c7
:209e3b00000000000000000000000000000000000000000000000000000000000000000007
:0d9e5b0000000000000000000000000000fa
:209e680000000000000000000000000000000000000000000000000000000000000000805a
:209e880010225a0000014000000000000000000000000000000000000000000000000000ed
:209ea80000000000000000000000000000000000000000000000000000000000000000009a
:0d9ec800000000000000000000000000008d
:209ed50000000000000000000000000000000000000000000000000000000000000000006d
:209ef50000825800000004000000000000000000000000000000000000000000000000006f
:209f150000000000000000000000000000000000000000000000000000000000000000002c
:0d9f3500000000000000000000000000001f
:209f42000000000000000000000000000000000000000000000000000000000000000000ff
:209f620005a25a0000000700000000000000000000000000000000000000000000000000d7
:209f82000000000000000000000000000000000000000000000000000000000000000000bf
:0d9fa20000000000000000000000000000b2
:209faf00000000000000000000000000000000000000000000000000000000000000000092
:209fcf00c082582000000000000000000000000000000000000000000000000000000000b8
:209fef00000000000000000000000000000000000000000000000000000000000000000052
:0da00f000000000000000000000000000044
:20a01c00000000000000000000000000000000000000000000000000000000000000000024
:20a03c0007225a000000000000000000000000000000000000000000000000000000000081
:20a05c000000000000000000000000000000000000000000000000000000000000000000e4
:0da07c0000000000000000000000000000d7
:20a089000000000000000000000000000000000000000000000000000000000000000000b7
:20a0a900003a582000000000000000000000000000000000000000000000000000000000e5
:20a0c900000000000000000000000000000000000000000000000000000000000000000077
:0da0e900000000000000000000000000006a
:20a0f60000000000000000000000000000000000000000000000000000000000000000004a
:20a1160080225a000001c0000000000000000000000000000000000000000000000000006c
:20a13600000000000000000000000000000000000000000000000000000000000000000009
:0da1560000000000000000000000000000fc
:20a1630000000000000000000000000000000000000000000000000000000000000000706c
:20a18300002658000002c03ce21088000000000000000000000000000000000000000000c6
:20a1a30000000000000000000000000000000000000000000000000000000000000000009c
:0da1c300000000000000000000000000008f
:20a1d00000000000000000000000000000000000000000000000000000000000000000006f
:20a1f00000265a0000020034884000000000000000000000000000000000000000000000d1
:20a2100000000000000000000000000000000000000000000000000000000000000000002e
:0da230000000000000000000000000000021
:20a23d00000000000000000000000000000000000000000000000000000000000000000001
:20a25d00d03e580000000000d9600000000000000000000000000000000000000000000042
:20a27d000000000000000000000000000000000000000000000000000000000000000000c1
:0da29d0000000000000000000000000000b4
:20a2aa00000000000000000000000000000000000000000000000000000000000000000094
:20a2ca0017a65a0000000016996880000000000000000000000000000000000000000000c6
:20a2ea00000000000000000000000000000000000000000000000000000000000000000054
:0da30a000000000000000000000000000046
:20a31700000000000000000000000000000000000000000000000000000000000000000026
:20a337000002580a00000002e960c000000000000000000000000000000000000000000097
:20a357000000000000000000000000000000000000000000000000000000000000000000e6
:0da3770000000000000000000000000000d9
:20a384000000000000000000000000000000000000000000000000000000000000000000b9
:20a3a400e5225a000000000e99680000000000000000000000000000000000000000000029
:20a3c400000000000000000000000000000000000000000000000000000000000000000079
:0da3e400000000000000000000000000006c
:20a3f10000000000000000000000000000000000000000000000000002002aa320800000dd
:20a411000032c4000004000099600000000000000000000000000000000000000000000038
:20a4310000000000000000000000000000000000000000000000000000000000000000000b
:0da4510000000000000000000000000000fe
:20a45e000000000000000000000000000000000000000000000000000600cfa300000071f5
:20a47e00c53ac40000080004996800000000000000000000000000000000000000000000ee
:20a49e0000000000000000000000000000000000000000000000000000000000000000009e
:0da4be000000000000000000000000000091
:20a4cb00000000000000000000000000000000000000000000000000000000000000000170
:20a4eb000000000000000000b9601000200000000000000000000000000000000000000008
:20a50b00000000000000000000000000000000000000000000000000000000000000000030
:0da52b000000000000000000000000000023
:20a53800000000000000000000000000000000000000000000000000047800000000003156
:20a55800a00000000000000089680000100000000000000000000000000000000000000042
:20a578000000000000000000000000000000000000000000000000000000000000000000c3
:0da5980000000000000000000000000000b6
:20a5a500000000000000000000000000000000000000000000000000000008c50180000048
:20a5c500c3a79c2000080000c960000000000000000000000000000000000000000001001e
:20a5e500000000000000000000000000000000000000000000000000000100000000000055
:0da605000000000000000000000000000048
:20a612000000000000000000000000000000000000000000000000000401eec50000000070
:20a63200138604000004000089680000000000000000000000000000000000000000000076
:20a652000000000000000000000000000000000000000000000000000000000000000000e8
:0da6720000000000000000000000000000db
:20a67f000000000000000000000000000000000000000000000000000023ee030080000027
:20a69f0000be8c0000082000996008000000000000000000000000000000000000000080a8
:20a6bf0000000000000000000000000000000000000000000000000000000000000000007b
:0da6df00000000000000000000000000006e
:20a6ec00000000000000000000000000000000000000000000000000007c68c00000001892
:20a70c00c5368c000000600089680000000000000000000000000000000000000000000055
:20a72c0000000000000000000000000000000000000000000000000000000000000000000d
:0da74c000000000000000000000000000000
:20a759000000000000000000000000000000f00000000000000000001c000d9600000050e1
:20a779000131c80004014000a9600000000000000000000000000000000000000000000078
:20a799000000000000000000000000000000000000000000000000000000000000000000a0
:0da7b9000000000000000000000000000093
:20a7c60000000000000000000000000000a0f080000000000000000000004896a0000038ad
:20a7e600087ac4200202068099680000000000000000000000000000000000000000000062
:20a80600000000000000000000000000000000000000000000000000000000000000000032
:0da826000000000000000000000000000025
:20a8330000000000000000000000002000000000100000000000000000000f960000001818
:20a85300bf43600000000280b96000000000000000000000000000000000000000000000e8
:20a873000000000000000000000000000000000000000000000000000000000000000000c5
:0da8930000000000000000000000000000b8
:20a8a0000000000000000000000000e00000000000000000000000000001689680000050e9
:20a8c000e02390080000068099680000000000000000000000000000000000000000000056
:20a8e000000000000000000000000000000000000000000000000000000000000000000058
:0da90000000000000000000000000000004a
:20a90d0000000000000000000000000000000000000000000000000000400d96000000093e
:20a92d0005c3fc2100080000b9600000000000000000000000000000000000000000000004
:20a94d000000000000000000000000000000000000000000000000000000000000000000ea
:0da96d0000000000000000000000000000dd
:20a97a000000000000000000000000000000000000000000000000000071e89680000050fe
:20a99a00a3abdc0800140284896800000000000000000000000000000000000000000000e0
:20a9ba0000000000000000000000000000000000000000000000000000000000000000007d
:0da9da000000000000000000000000000070
:20a9e7000000000000000000000000000000000000000000000000002c000f96044000013a
:20aa0700076b00000001c280096020000000000000000000000000000000000000000200ef
:20aa270000000000000000000000000000000000000000000000000000020000000000000d
:0daa4700000000000000000000000ff19072
:20aa54000000000000000000000000000000000000000000000000002600e89680000000be
:20aa7400a5b600000002e04489680800000000000000000000000000000000000000000048
:20aa94000000000000000000000000000000000000000000000000000000000000000000a2
:0daab400000000000000000000000ff0187e
:20aac1000000000000000000000000000000000000000000000000001c002d9600800018fe
:20aae100ebc1548000036402ce401000000000000000000000000000001800000000000036
:20ab0100000000000000000000000000000000000000000000000000000000000000000034
:0dab210000000000000000002340000000c4
:20ab2e0000000000000000000000000000000000000000000000000020016896800000392f
:20ab4e00afe294000000e295ee400000000000000000000000000000011e000000000200fc
:20ab6e000000000000000000000000000000000000000000000000000000000000000000c7
:0dab8e000000000000000000c040000000ba
:20ab9b000000000000000000000000032f050210000010000000004000400d960000000816
:20abbb0007299801000002c70800000040000000000000000000000001000000000000009f
:20abdb0000000000000000000000000000000000000000000000000000000000000000005a
:0dabfb00000000000000000000000000004d
:20ac08000000000000000000000000005daf500000001e00000000000030099681000078ea
:20ac28000d8294000000e02ca8102000200000000000000000000000019e00000000000046
:20ac48000000000000300000000000000000000000000000000000000000000000000000bc
:0dac680000000000000000000000000000df
:20ac7500000000000000000000000000000000000000080eb14000800264089600800000b4
:20ac9500007714000000067de00000000000000000000000000000000000000000000000b1
:20acb50000000000000000000000000000000000000000000000000000000000000000007f
:0dacd5000000000000000003c000000000af
:20ace200000000000000000000000000000000000000007731400040066409968000415010
:20ad0200a1e31401000002d5f80000000000000000000000000000000000000000000000c9
:20ad2200000000000000000000000000000000000000000000000000000000000000000011
:0dad42000000000000000000000000000004
:20ad4f0000000000000000000000000340000000000000000000000000400096008000b09b
:20ad6f00070140000000240000000000000000000000000000000000000000000000000058
:20ad8f000000000000000000000000000000000000000000000000000000000000000000a4
:0dadaf000000000000000000000000000097
:20adbc00000000000000000000000000000000000000000000000000003148968000008068
:20addc00a1fbd4040001428000000000000000000000000000000000000000000000000020
:20adfc00000000000000000000000000000000000000000000000000000000000000000037
:0dae1c000000000000000000000000000029
:20ae290000000000000000000000000380000000000000000000000000000d96008000b0b3
:20ae49000003000000014005053100000000000000000000000000000000f03fc00000007b
:20ae69000000000000000000000000000000000000000000000000000000000000000000c9
:0dae89000000000000000001c000000000fb
:20ae96000000000000000000000000000000000000000000000000000028099680000098bd
:20aeb600006b000800020001ca302000000000000000000000000000050093bdc080000057
:20aed60000000000000000000000000000000000000000000000000000000000000000005c
:0daef600000000000000000200000000004d
:20af03000000000000000000000000000000000010050000000000400c00089600800008a7
:20af2300c90344000000061c055000000000000000000000000000000000027142000000d2
:20af43000000000000000000000000000000000000000000000000000000000000000000ee
:0daf630000000000000000034004c03100a9
:20af700000000000000000000000c000000000000000000000000000200008968000005073
:20af90001873888800016756ca500000000000000000000000000000000013f140000000ea
:20afb000000000000000000000000000000000000000000000000000002c00000000000055
:0dafd000000000000000000000169c0000c2
:20afdd0000000000000000000000000000000000000000000000000000002c96008000d83a
:20affd00a02e8c000002c003da309000004000000000000000000000000a0bb9000000006d
:20b01d00000000000000000000000000000000000000000000000000000000000000000013
:0db03d0000000000000000000000a96100fc
:20b04a000000000000000000000000000000000000000000000000001401c99680000010e2
:20b06a00032a8c0000020005da30000000000000000000000000000000007eb900100000b5
:20b08a000000000000000000000000000000000000000000000000000000000000000000a6
:0db0aa000000000000000000001e8968008a
:20b0b7000000000000000000000000000000000000000000000000001c0000960240000085
:20b0d700006b9000000022c000000000000000000000000000000000018073c8414000003f
:20b0f700000000000000000000000000000000000000020000000000000000000000000037
:0db1170000000000000000034002896050ad
:20b124000000000000000000000000000000000000000000000000000001e89680000038d4
:20b14400017b900000014000000000000000000000000000000000000b80f2210000000000
:20b164000000000000000000000000000000000000000000000000000000000000000000cb
:0db184001800000000000000001e89680097
:20b19100000000000000000000000000000960080000000e6c40000016243fc50100000034
:20b1b100a083dc000014000d0ca100000000000000000000000000000100026580000004c5
:20b1d10000000000000008918154000000028000000000001900000000003c003bc5000019
:0db1f10000300000000000002002e96000b6
:20b1fe0000000000000000000000000214896004000780162c4000003404cbc5000000015c
:20b21e00a32bdc0800e80001ac50300000000000000000000000000000003225a00000262c
:20b23e0000000000000018112a94050000004000000000000e0000000000000159c5200077
:0db25e000080000000000001e01c896a0073
:20b26b000000000000000000000000000099600800010006e8c0000014380bb1000000010a
:20b28b00dfc3fc01000343c19c500000500000000000000000000000010002a58000003c5d
:20b2ab000000000002b0000000000000000035d720800000000f7140000000000000000065
:0db2cb0005000102a8000001c782c960044f
:20b2d800000000000000000000000000009968000000001a28c4002020045eb101000050ab
:20b2f800977bdc080000001dac500002a0000000000000000000000000005a25a000003630
:20b318003000000001200000000000000000008b11100007807ef1400000000000000000e2
:0db33800000007aa9400000003d6896800f9
:20b3450000000000000000000000000000d96080000008727600000024681ca300011001e2
:20b36500f0c3d40000000000dc508000000000000000000000000000000803a58000000065
:20b38500003ab100800098002b140000004003ba3200000f880f7900000000242ec52000e1
:0db3a50000000000000000100000e9600042
:20b3b2000000000000000000000100e70099680000000006b90000003464eba3000080002d
:20b3d20091ebd40000000006cc50000000000000000000000000000000005225a0000000d2
:20b3f200015bb1100000f801ab144400000016ca300000099e5ff90040000000fbc5000013
:0db412004000000000000008001e896a00d4
:20b41f0000000000000000000000000200d960000000000000000000002870ff29400000d2
:20b43f00e0f744000001c40000000000000000000000010000000000010002a580200002c2
:20b45f004250db000000f1f76b6000000003c000000000030007314a000200000000000261
:0db47f008000000000000001c002c9610053
:20b48c00000000000000000000000000008968040001000000000000000058f70200080051
:20b4ac00a5bf44800002420000000000000000000000008000000000001e7a25a000000631
:20b4cc002bc8e502003081b8339004000000000000000008001731400000000000000000c6
:0db4ec00000000000000000000068968005c
:20b4f90000000000000000000000000000c9600800000ed240c01000002340ff00000001af
:20b519008183cc000a0002800000000000000000000000000000000007800a65800000162a
:20b539002a50000000000000268c20000003d4803100000009043cc01000023c00000000c7
:0db559000008f00000000000c3c2e960001f
:20b5660000000000000000000000000000996800000381fa300000000007eaf702028000aa
:20b58600f563c408040006c00000000000000000000008000000000007801a25a000000643
:20b5a6003b4e800200000003768c0000a0038e8c000000000f02bcc080001c00000000008f
:0db5c6000038000000000200004689680007
:20b5d30000000000000000000000000400b9600000070003a5800000802b50d100400009f7
:20b5f30007fc0000000000000000000010000000000008000000001000800aa5800000005e
:20b613000008a3008280b0056788040001e6428960000003000028c2002040000000000063
:0db6330000f00581542000080000c960806f
:20b640000000000000000000000000470089680400081e5265a00001142c1ce202000539b2
:20b6600083260000000003000000000020000000000000000000000007803225a00000146c
:20b6800068daa3000100d9807f44c000e2671e89680000081a3aa8c090408070000000000c
:0db6a00000800daa940000040016896800c7
:20b6ad000000000000000000000000074099600800000d03258000a000243fc500000010a8
:20b6cd00b00000000000c002fc500000000000000000000000000000000e02658000002486
:20b6ed007b40ff20000051d043cc0000000000a96000000080d238800000002800000000f8
:0db70d0000000000000000000680896000c0
:20b71a00000000000000000000000007409968000005011225a0000000607cc500000080c9
:20b73a000000000000000014cc50800000000000000000000000000000005a25a8000020f8
:20b75a00626ef70a000001d02bcc080000001489680400071e8774420000000000000000c3
:0db77a000000000000000000c34c996800b2
:20b7870010000000000000000000000000f96040005f1a036581000044002bb10100000175
:20b7a70000e68c40000002400000000000000000000000000000000000100b658100000c81
:20b7c700016eff00000000a33788200011c0028960400000000fa8c200008000000000007d
:0db7e70000b00000000000000002c960403a
:20b7f400000000000000000000000000009968800020183265a0000036694eb11000007027
:20b81400a3ee8c00000000000000000000000000000000000000000000081265a8000020b0
:20b8340072dff70000003818734440000ae6968968000003001f28c800004000000000009c
:0db854000000000000000000001c896800da
:20b8610000000000000000000000000340b9600000010003a5800000026c09c5018000087d
:20b881000b2b2800001004240ff00400500900000000000000000000008f0a25880000006f
:20b8a100401ae4000000f0e13b28200000000089600000008a0ae8c00000820000e4010069
:0db8c10000080b6d4c40100004029960005f
:20b8ce00000000000000000000000000409968000000087265a000001429f8c50000001090
:20b8ee000833140200084337cf70200020000000000000000000000007093265a00000069b
:20b90e00285fe401000090186714000000000e99680800050136e8c050001401f8e403004b
:0db92e00005000668c010001e31e996800c6
:20b93b0000000000000000000008000000f9601028000000258000000003d8d809000000f2
:20b95b00e063cc00080003800f300008008c00000000000000000000078003a588000002a6
:20b97b00014dca00000070003b140000200000d96010000d0f06ac42000e346940ff090069
:0db99b00005000000000000002c0e9600044
:20b9a80000000000000000000000c0038089680010051c3225a00000002a19e400020000fa
:20b9c8000033cc00048000418f3020000380000000000000000000000f000265a000001e05
:20b9e800001ac5000000800537144004014006996800000381776c4040001e7af8f7020094
:0dba080000000000000000000000996a002e
:20ba150000000000000000000000002400f9600000000002e5800000002808a32101000137
:20ba350000be8c04006042c2ae400000000002b14800000000000000090003a58000003ee7
:20ba55007b50d80080007100228ca000054200896000000f0f57fec00000402960ff0000c4
:0dba75000000007b1440000000008960000c
:20ba8200000000000000000000000066009969000000000265a00000010459a300028000b2
:20baa200c5328c02000200179e400c0001007371440000000000000001000225a000003ecd
:20bac2007c0ae40200008183e28c00000a001c99680000080b073dc000009e00eef70200c3
:0dbae2000001a7e3140400000000996810a3
:20baef000000000000000000000a000600d96004000080026580000000255072000000900c
:20bb0f00002b00000000001e05500800010c072c4800000000000000000e03a58020000092
:20bb2f002dd0ff0802381880e2c4000001c202a9600000000b3632820000be3ff0db0000ef
:0dbb4f0001000000000000000400896000fb
:20bb5c00000000000000000000040006008968000001000265a000001e741ab103000099cd
:20bb7c00e03700040000003daa500800000157ac400000000000000027810225a00000009c
:20bb9c00005cf7030038d007aec4000002000499680800000087b14000003e044ee50200b4
:0dbbbc000250a00000000000038089681006
:20bbc90000000000000000000000002200d9600000090f022580000004387dff0100000089
:20bbe900800000000208c0030a310000030c0b314000000000000000000003e580000004bd
:20bc09000040f3000000000933600000002402896008000d8b00000000000200d0000000cb
:0dbc29000030b0731444001000008960105a
:20bc3600000000000000000000000040009968080008010225a000002004eef700000018b4
:20bc56000000000004e2e39fca30200008013371480000000000000000000265a00000361a
:20bc76003aeaf102000050083390c00001c38c99680000039e00000000001400cc80020068
:0dbc960080000163140000080000896800b0
:20bca30000000000000000000000140000a9600000000003e580000000001dc000011258b4
:20bcc30005b2640504000365050010085300171c8800000000000000000003e580000e0232
:20bce3003eeb0000010050c0ab142000000400b960000003007c3fc200c094000ec0000267
:0dbd0300800000000000000000009960803a
:20bd1000000000000000000000000800009968000000000225a0000c16001ec00000847847
:20bd3000a18294000a000044af500010280003ac401000000000000000000265a800061c87
:20bd50006b5d8000028b8003b7148000000386896a000000003ebdc0804120000fc0000049
:0dbd700020000000000000000000996800a5
:20bd7d0000000000000000000000080000c9600000000e0a658000003640d0c00000000072
:20bd9d0001254c0100014000000000000000000000000000000000000080032580000002a8
:20bdbd000000c00000005807b00c040000200289600000000007f90000003c000000000040
:0dbddd000000a000000000142382f9601097
:20bdea0000000000000000000000100000996a000000017a25a000001421e88002000050f7
:20be0a00a8328c02000142800000000000000000000000000000000007803a65a000000e19
:20be2a00001ec0020000b9a32300800001c0169968040005007ef9000000160000000000ab
:0dbe4a000000100000000009e35e896800a0
:20be570000000000000000000000000002096040000090002582800026200f80000038d18b
:20be770007b00c9000002300000000000500072c42000000000000000000002580c0805482
:20be9700000ac50002000800b6581000000000c960c020070033bfc0000000400000000092
:0dbeb70080f000a6c4200001e00209612017
:20bec4000000000000000000000000000c89680000078e5a25a0000014257980000000017a
:20bee400cda3000000a1c00000000003050016ac480000000000000000003225a0004a9486
:20bf040000fbc500402c7001a25a0000000786896800000800de7dc00000003800000000ab
:0dbf2400000003eec4800001e00c896800fd
:20bf3100000000000180403c0000000000b9600000000f982802000024002ec50080000072
:20bf510000ae580004024384081010000000d28840000080000000000f0007b14010003e66
:20bf71003000a300000000e0a658010000000299600008470a07ec4800010000000000006e
:0dbf910000d00343fc000a00000000000087
:20bf9e00000000000080283c0008140000996800000000dbbd40000000004dc50100000097
:20bfbe0003a25a00000200440e70280001007a21044001000000000188001e714040003ec1
:20bfde0005d8a30300000083265a000000001c9968001029007f6c40000080280000000094
:0dbffe0000808bf3d4000400000000000060
:20c00b0000000000500000000002000000a960000000809c2a800000640000000000200070
:20c02b0000325800000803429c508039030002e58800a14000000000010e06790000a002f6
:20c04b00403fc50000000000be588000000000b960100000100000000000140000000000ae
:0dc06b000030000000000000000000000098
:20c07800000000000000000000040000008968000383003e2946000000000000000002007e
:20c0980000225a000010004dcc500038000c7265a000408000000000000173f90040a00ebd
:20c0b80079ecc50100000001265a000000078089680000001e0000000000402800000000be
:0dc0d80000008000000000000000000000db
:20c0e500000000000000403c0000a04300896010000010943d40000000000ec50040180097
:20c1050090325800000022268030800000000ae58800000000000000000000000000000011
:20c125003b70ff00000000b0a6580000000000d960800000080fb14000000000feff0040a4
:0dc145000030c000000000000000000000fd
:20c15200000000000000203c000000004089680000000adb2800400006606cc5010100005a
:20c1720010225a000001c0768c00000003007225a0000000000000000000000000000e0016
:20c192007778f70200000005a65a000000068089680000000072714010001403def700000a
:0dc1b20000118000000000c000000000002f
:20c1bf0000000000000000000000000000c9620000000b00000000002c016055004000996f
:20c1df00002e580000880002b960000000000ae58800000000000002000fbac0c200000053
:20c1ff003c1ec500000071f0be580000816000c96000000709000000000000000000000070
:0dc21f000000d00000000000000000000042
:20c22c000000000000000000000000e20099680000000a000000000020007aa50100089924
:20c24c0080265a000004079c9968000000005225a000000000000000001d3270080040000c
:20c26c0079edc501008401c3265a800012e68089680000000f0000000000000000000000c6
:0dc28c0000000000000000000000000000a5
:20c29900000000000000403c0004080300c9600000070000000001001e6c00000004000833
:20c2b9000026580000034402f960000000100a65880000000000000000100a65800000003f
:20c2d900203de4014000d000a658040000000089600000001b53dc8000000000000000003e
:0dc2f900a0500540000000100000000000f3
:20c30600000000000000603c0002100040896810000f1a000000010034280000000010385a
:20c32600e0225a000002039699688000001a5a65a00000000000000000085225a0000006e1
:20c346006cece400000001a3a65a000000038099688000200a036c48000000000000000111
:0dc3660000500de0210c0008000000000058
:20c3730000000000000942a82000002000d9600800001006f1401000426b500000000031b1
:20c39300e02a580400000000996080000b0f0a658000000000000000000b0b658020001473
:20c3b3003418a30080000000b2588000200400896080000f8adc3fc2000a00000000000064
:0dc3d3000000a5c3fc0000000000000000f9
:20c3e00000000000008f7a94400001e00099680039000a5b314000001e72fc800200000160
:20c40000b0265a000000001699680010081d5225a800000000000000079f5225a002003e84
:20c42000655ca30800000001a25a0000000700896800000d00d6bdc08000000000000000bb
:0dc4400000500523dc080000000000000093
:20c44d000000000000e0403c000000040099600400000a000000000034400bc00000000029
:20c46d0000b65800000003c2e960000000100a6580000000000000000f8f026580000034db
:20c48d002860ff0000000000be580100000002d96008102f00b41540100000000000002036
:0dc4ad000000a743fc00000000000000009c
:20c4ba00000000000000783c000000070099680000001d000000000000781bc00000000036
:20c4da0005225a0000e007d699688000001c5a25a0000000000000000f015225a010000c05
:20c4fa00075af702002800c7a65a000000e396996800000f805329440000000000000028e8
:0dc51a003800017bdc08100000000000006c
:20c527000000000000e00000000000000209604001000d9c14004100142b58ff004103018f
:20c5470000025808000043c0d9604040000e02e58100010000000000100003658100003c0a
:20c56700003ac501013001003e5814080240000960200000080a344000000000000000007f
:0dc5870000500f77fc0000000000000000d5
:20c594000000000000000000000001600c8968080380019fbd4001001c044ae5000084012c
:20c5b400c5225a000003c05699680000000e3a65a000008000000000000c1a25a000002034
:20c5d400014cc500020001e5a65a000002000c896a000000007e744000000000000000001a
:0dc5f4000000a7f3dc0000000000000000c4
:20c6010000000000000000000000a000000960000280000403c0400014240000000000014e
:20c621008902a82000000002d9600000000003258020000000000000010003a5802000005a
:20c64100001dc508000000d0be580100026241ea308400801800000000000c0000a0000081
:0dc661000000003cf0000000000003c000dd
:20c66e0000000000000000000000000014896a000000000683c000002c6c000000000001c3
:20c68e0097729400000000049968002801007265a00000000000000005801265a0000a04a0
:20c6ae00014cc52000000013225a000000e2c68a300000070a00000000000000dca00000bc
:0dc6ce0000580000f00000c1c00003c020b3
:20c6db00000000000000000000000000008960000180000000000000000349d80100007838
:20c6fb0090f2c4000003c3c0d9600400008002a5804000000000000000000a658200002e10
