:02000000ff00ff
:080002004c6174746963650030
:17000a00694345637562653220323031372e30382e32373934300069
:15002100506172743a2069434534304c50384b2d434d3831003f
:1b003600446174653a2046656220313720323032302031313a34383a3130009b
:0200510000ffae
:040053007eaa997e6a
:02005700510056
:0200590001059f
:03005b00920020f0
:03005e00620367d3
:0300610072011019
:0300640082000017
:02006700110086
:02006900010193
:20006b00000000000000000000000000000000002000000000000000000000000000000055
:20008b00000000000000000000000000000000000000000000000000000000000000000055
:2000ab00000000000000000000000000000000000000000000000000000000000000000035
:0d00cb000000000000000000000000000028
:2000d800000000000000000000000000000000000000000000000000000000000000000008
:2000f8000000000000000000000000000000000000000000000000000000000000000000e8
:200118000000000000000000000000000000000000000000000000000000000000000000c7
:0d01380000000000000000000000000000ba
:2001450000000000000000000000000000000000100000000000000000000000000000008a
:2001650000000000000000000000000000000000000000000000000000000000000000007a
:2001850000000000000000000000000000000000000000000000000000000000000000005a
:0d01a500000000000000000000000000004d
:2001b20000000000000000000000000000000000000000000000000000000000000000002d
:2001d20000000000000000000000000000000000000000000000000000000000000000000d
:2001f2000000000000000000000000000000000000000000000000000000000000000000ed
:0d02120000000000000000000000000000df
:20021f0000000000000000000000000000000000200000000000000000000000000000009f
:20023f0000000000000000000000000000000000000000000000000000000000000000009f
:20025f0000000000000000000000000000000000000000000000000000000000000000007f
:0d027f000000000000000000000000000072
:20028c00000000000000000000000000000000000000000000000000000000000000000052
:2002ac00000000000000000000000000000000000000000000000000000000000000000032
:2002cc00000000000000000000000000000000000000000000000000000000000000000012
:0d02ec000000000000000000000000000005
:2002f9000000000000000000000000000000000000000000000000000000000000000000e5
:200319000000000000000000000000000000000000000000000000000000000000000000c4
:200339000000000000000000000000000000000000000000000000000000000000000000a4
:0d0359000000000000000000000000000097
:20036600000000000000000000000000000000000000000000000000000000000000000077
:20038600000000000000000000000000000000000000000000000000000000000000000057
:2003a600000000000000000000000000000000000000000000000000000000000000000037
:0d03c600000000000000000000000000002a
:2003d30000000000000000000000000000000000000000800000000000000000000000008a
:2003f3000000000000000000000000000000000000000000000000000000000000000000ea
:200413000000000000000000000000000000000000000000000000000000000000000000c9
:0d04330000000000000000000000000000bc
:2004400000000000000000000000000000000000000000000000000000000000000000009c
:2004600000000000000000000000000000000000000000000000000000000000000000007c
:2004800000000000000000000000000000000000000000000000000000000000000000005c
:0d04a000000000000000000000000000004f
:2004ad0000000000000000000000000000000000000000000000000000000000000000002f
:2004cd0000000000000000000000000000000000000000000000000000000000000000000f
:2004ed000000000000000000000000000000000000000000000000000000000000000000ef
:0d050d0000000000000000000000000000e1
:20051a000000000000000000000000000000000020000000000000000000000000000000a1
:20053a000000000000000000000000000000000000000000000000000000000000000000a1
:20055a00000000000000000000000000000000000000000000000000000000000000000081
:0d057a000000000000000000000000000074
:20058700000000000000000000000000000000000000000000000000000000000000000054
:2005a700000000000000000000000000000000000000000000000000000000000000000034
:2005c700000000000000000000000000000000000000000000000000000000000000000014
:0d05e7000000000000000000000000000007
:2005f4000000000000000000000000000000000010000000000000000000000000000000d7
:200614000000000000000000000000000000000000000000000000000000000000000000c6
:200634000000000000000000000000000000000000000000000000000000000000000000a6
:0d0654000000000000000000000000000099
:20066100000000000000000000000000000000000000004000000000000000000000000039
:20068100000000000000000000000000000000000000000000000000000000000000000059
:2006a100000000000000000000000000000000000000000000000000000000000000000039
:0d06c100000000000000000000000000002c
:2006ce000000000000000000000000000000000020000000000000000000000000000000ec
:2006ee000000000000000000000000000000000000000000000000000000000000000000ec
:20070e000000000000000000000000000000000000000000000000000000000000000000cb
:0d072e0000000000000000000000000000be
:20073b0000000000000000000000000000000000000000000000000000000000000000009e
:2058fb000000000000000000000001c39c896800000000000000000000000000000000003c
:20591b0000000000000000000000000000000000000000000000000000000000000000006c
:20593b0000000000000000000000000000000000000000000000000000000000000000004c
:0d595b00000000000000000000000000003f
:20596800000000000000000000000020000960300000000000000000000000000000000066
:205988000000000000000000000000000000000000000000000000000000000000000000ff
:2059a8000000000000000000000000000000000000000000000000000000000000000000df
:0d59c80000000000000000000000000000d2
:2059d5000000000000000000000001c00689680000000000000001000000000000000000f9
:2059f5000000000000c00000000000000000000000000000000000000000000000000000d2
:205a1500000000000000000000000000000000000000000000000000000000000000000071
:0d5a35000000000000000000000000000064
:205a42000000000000000000000002e0009960040000000000000000000000000000000065
:205a6200000000000000000000000000000000000000000000000000000000000000000024
:205a8200000000000000000000000000000000000000000000000000000000000000000004
:0d5aa20000000000000000000000000000f7
:205aaf0000000000000000000000000780896804000000000000000000000000000000005b
:205acf000000000000000000000000000000000000000000000000000000000000000000b7
:205aef00000000000000000000000000000000000000000000000000000000000000000097
:0d5b0f000000000000000000000000000089
:205b1c0000000000000000000000000400b96000000000000000000000000000000000004c
:205b3c00000000000000000000000000000000000000000000000000000000000000000049
:205b5c00000000000000000000000000000000000000000000000000000000000000000029
:0d5b7c00000000000000000000000000001c
:205b89000000000000000000000000c01e99680000200000000000000000000000000000fd
:205ba9000000000000080000000000000000000000000000000000000000000000000000d4
:205bc9000000000000000000000000000000000000000000000000000000000000000000bc
:0d5be90000000000000000000000000000af
:205bf60000000000000000000000e02002f9600400400000000000000000000000000000f0
:205c160000000000001400000000000000000000000000000000000000000000000000005a
:205c360000000000000000000000000000000000000000000000000000000000000000004e
:0d5c56000000000000000000000000000041
:205c6300000000000000000000000000009968000000000000000000000000000000000020
:205c8300000000000000000000000000000000000000000000000000000000000000000001
:205ca3000000000000000000000000000000000000000000000000000000000000000000e1
:0d5cc30000000000000000000000000000d4
:205cd00000000000000000000000000000a96010000000000000000000000000000000009b
:205cf000000000000000000000000000000000000000000000000000000000000000000094
:205d1000000000000000000000000000000000000000000000000000000000000000000073
:0d5d30000000000000000000000000000066
:205d3d00000000000000000000000000008968000000000000000100000000000001000053
:205d5d00000000000000000000000000000000000000000000000000000000000000000026
:205d7d00000000000000000000000000000000000000000000000000000000000000000006
:0d5d9d0000000000000000000000000000f9
:205daa0000000000000000000000000000896200000000000000000000000000000280006c
:205dca000000000000000000000000000000000000000000000000000000000000000000b9
:205dea00000000000000000000000000000000000000000000000000000000000000000099
:0d5e0a00000000000000000000000000008b
:205e17000000000000000000000002078489680000000000000000000000000000000000ed
:205e370000000000000000000000000000000000000000000000000000000000000000004b
:205e570000000000000000000000000000000000000000000000000000000000000000002b
:0d5e7700000000000000000000000000001e
:205e84000000000000000000000003c002f9600400000000000000000000000000000000dc
:205ea4000000000000000000000000000000000000000000000000000000000000000000de
:205ec4000000000000000000000000000000000000000000000000000000000000000000be
:0d5ee40000000000000000000000000000b1
:205ef1000000000000000000000000021e99680800000000000000008000000000000000e8
:205f1100000000000000000000000000000000000000000000000000000000000000000070
:205f3100000000000000000000000000000000000000000000000000000000000000000050
:0d5f51000000000000000000000000000043
:205f5e000000000000000000000000074289600000000000000000010000000000000000f0
:205f7e00000000000000000000000000000000000000000000000000000000000000000003
:205f9e000000000000000000000000000000000000000000000000000000000000000000e3
:0d5fbe0000000000000000000000000000d6
:205fcb00000000000000000000000040048968080000085a25a02000000000000000000032
:205feb00000000000000000000000000000000000000000000000000000000000000000096
:20600b00000000000000000000000000000000000000000000000000000000000000000075
:0d602b000000000000000000000000000068
:2060380000000000000000000000002000e960400000180025808000000000000000000062
:20605800000000000000000000000000000000000000000000000000000000000000000028
:20607800000000000000000000000000000000000000000000000000000000000000000008
:0d60980000000000000000000000000000fb
:2060a5000000000000000000000000000c9968000000001265a0200e000000000000000089
:2060c50000000000000000000000000000000000000000000000004000000000000000007b
:2060e50000000000000000000000000000000000000000000000000000000000000000009b
:0d610500000000000000000000000000008d
:2061120000000000000000000000000002e961000000000b25800000000000000000000071
:2061320000000000000000000000000000000000000000000000000000000000000000004d
:2061520000000000000000000000000000000000000000000000000000000000000000002d
:0d6172000000000000000000000000000020
:20617f000000000000000000000000078499680800001e0225a00000000000000000000087
:20619f000000000000000000000000000000000000000000000000000000000000000000e0
:2061bf000000000000000000000000000000000000000000000000000000000000000000c0
:0d61df0000000000000000000000000000b3
:2061ec0000000000000000000000000400c960000000190325801000000000000000000095
:20620c00000000000000000000000000000000000000000000000000000000000000000072
:20622c00000000000000000000000000000000000000000000000000000000000000000052
:0d624c000000000000000000000000000045
:206259000000000000000000000000001c8968040300001265a0202c000000000000380076
:20627900000000000000000000000000000000000000000000000000000000000000000005
:206299000000000000000000000000000000000000000000000000000000000000000000e5
:0d62b90000000000000000000000000000d8
:2062c600000000000000000000000000028960000003000be580000000000000000000005a
:2062e600000000000000000000000000000000000000000000000000000000000000000098
:20630600000000000000000000000000000000000000000000000000000000000000000077
:0d632600000000000000000000000000006a
:206333000000000000000000000a01c3849968000000000225a01000000000000000000020
:2063530000000000000000000000000000000000000000000000000000000000000000002a
:2063730000000000000000000000000000000000000000000000000000000000000000000a
:0d63930000000000000000000000000000fd
:2063a00000000000000000000000002240e9600400050002e58000000000000000000000c2
:2063c0000000000000000000000000000000000000000000000000000000000000000000bd
:2063e00000000000000000000000000000000000000000000000000000000000000000009d
:0d640000000000000000000000000000008f
:20640d000000000000000000000000000c8968100003800225a020000000000000010000f7
:20642d0000000000040000000000000000000000000000000000000000000000000000004b
:20644d0000000000000000000000000000000000000000000000000000000000000000002f
:0d646d000000000000000000000000000022
:20647a0000000000000000000000024002d960000009800265800000000000000002800093
:20649a00000000000a000000000000000000000000000000000000000000000000000000d8
:2064ba000000000000000000000000000000000000000000000000000000000000000000c2
:0d64da0000000000000000000000000000b5
:2064e7000000000000000000000001e2048968080000005265a0200000000000000000003e
:20650700000000000000000000000000000000000000000000000000000000000000000074
:20652700000000000000000000000000000000000000000000000000000000000000000054
:0d6547000000000000000000000000000047
:2065540000000000000000000000002400b960000000000b2580000000000000000000003a
:20657400000000000000000000000000000000000000000000000000000000000000000007
:206594000000000000000000000000000000000000000000000000000000000000000000e7
:0d65b40000000000000000000000000000da
:2065c1000000000000000000000000400c8968800040001265a01000000000000000000096
:2065e10000000000000000000000000000000000000000000000000000000000000000009a
:20660100000000000000000000000000000000000000000000000000000000000000000079
:0d662100000000000000000000000000006c
:20662e000000000000000000000003e002c96000402f0a0ba5800000000000000000000095
:20664e0000000000000000000000000000000000000000000000000000000000000000002c
:20666e0000000000000000000000000000000000000000000000000000000000000000000c
:0d668e0000000000000000000000000000ff
:20669b000000000000000000000001c3969968000000003a25a020000001cfe400000000b1
:2066bb000000000000000000000000000000000000000000000000000000000000000000bf
:2066db0000000000000000000000000000000000000000000000000000000000000000009f
:0d66fb000000000000000000000000000092
:206708000000000000000000000003e400f960440000000ba581000000002ee401000000a9
:20672800000000000000000000000000000000000000000000000000000000000000000051
:20674800000000000000000000000000000000000000000000000000000000000000000031
:0d6768000000000000000000000000000024
:206775000000000000000000000000001c9968800000005a25a0110c000000000004000027
:206795000000000004c0000000000000000000000000000000000000000000000000000020
:2067b5000000000000000000000000000000000000000000000000000000000000000000c4
:0d67d50000000000000000000000000000b7
:2067e20000000000000000000000000000d960000000000b6580000000000000000000006e
:20680200000000000a0000000000000000000000000000000000000000000000000000006c
:20682200000000000000000000000000000000000000000000000000000000000000000056
:0d6842000000000000000000000000000049
:20684f00000000000000000000000003049968080000003a25a0000000000000000000001a
:20686f00000000000000000000000000000000000000000000000000000000000000000009
:20688f000000000000000000000000000000000000000000000000000000000000000000e9
:0d68af0000000000000000000000000000dc
:2068bc0000000000000000000000000400f960000000000be58040001c0000000000000093
:2068dc0000000000000000000000000000000000000000000000000000000000000000009c
:2068fc0000000000000000000000000000000000000000000000000000000000000000007c
:0d691c00000000000000000000000000006e
:206929000000000000000000000210001499680800000e5a65a000000000000000010000b1
:2069490000000000040000000000000000000000000000000000000000000000000000002a
:2069690000000000000000000000000000000000000000000000000000000000000000000e
:0d6989000000000000000000000000000001
:20699600000000000000000000046ac002d960000000000b25804000000000000002800006
:2069b6000000000002000000000000000000000000000000000000000000000000000000bf
:2069d6000000000000000000000000000000000000000000000000000000000000000000a1
:0d69f6000000000000000000000000000094
:206a03000000000000000000000001c04c99681000010a3a65a040000000000000000000cb
:206a2300000000000000000000000000000000000000000000000000000000000000000053
:206a4300000000000000000000000000000000000000000000000000000000000000000033
:0d6a63000000000000000000000000000026
:206a700000000000000000000000002380f960000000800ba580000000000000000000005a
:206a90000000000000000000000000000000000000000000000000000000000000000000e6
:206ab0000000000000000000000000000000000000000000000000000000000000000000c6
:0d6ad00000000000000000000000000000b9
:206add000000000000000000000000038c9968002807085a25a02000000000000000000093
:206afd00000000000000000000000000000000000000000000000000000000000000000079
:206b1d00000000000000000000000000000000000000000000000000000000000000000058
:0d6b3d00000000000000000000000000004b
:206b4a0000000000000000000000000002d960040380000be58000000000000000000000f9
:206b6a0000000000000000000000000000000000000000000000000000000000000000000b
:206b8a000000000000000000000000000000000000000000000000000000000000000000eb
:0d6baa0000000000000000000000000000de
:206bb7000000000000000000000001e00499680000050e3265a020000005ebe4000000009a
:206bd70000000000000000000000000000000000000000000000000000000000000000009e
:206bf70000000000000000000000000000000000000000000000000000000000000000007e
:0d6c17000000000000000000000000000070
:206c240000000000000000000000000002f9608000001a02e58000000c300ee420000000a6
:206c4400000000000000000000000000000000000000000000000000000000000000000030
:206c6400000000000000000000000000000000000000000000000000000000000000000010
:0d6c84000000000000000000000000000003
:206c9100000000000000000000000003849968080013805a65a0204c2400000000000000d1
:206cb1000000000000000000000000000000000000000000000000000000000000000000c3
:206cd1000000000000000000000000000000000000000000000000000000000000000000a3
:0d6cf1000000000000000000000000000096
:206cfe0000000000000000000000000000d960000009800ba58000a00e00000000000000d6
:206d1e00000000000000000000000000000000000000000000000000000000000000000055
:206d3e00000000000000000000000000000000000000000000000000000000000000000035
:0d6d5e000000000000000000000000000028
:206d6b00000000000000000000000000148960000100003a65a00001467bc98100000000bf
:206d8b00033f9000000000000000000000000000000000000000000000003225a000041cff
:206dab0001f8c500000080000000000000000000000000000000000000000000000000008a
:0d6dcb0000000000000000000000000000bb
:206dd80000000000000000000000000000e96044000d0003e58500000001da800000000039
:206df80000bf900000000000000000000000000000000000000000000009002584800002f8
:206e1800001dc5000000500000000000000000000000000000000000000000000000000028
:0d6e3800000000000000000000000000004d
:206e4500000000000000000000000000000000000007817a25a00001542a0cc500003800de
:206e6500000000000000001ddc520030500f0000000000400000000000001265a0000000dc
:206e850079d8c50200000000000000040000000000000000000000000000000000000000d1
:0d6ea50000000000000000000000000000e0
:206eb20000000000000000000000000000000000000089032584000402424fca01013800f0
:206ed2000000000000000000ec500038201e0000000000800000000000000be584000034c6
:206ef2004020c50900000090000000020000000000000000000000000000000000000000c0
:0d6f12000000000000000000000000000072
:206f1f00000000000000000000000200000000000008007265a000004060ecb12000000074
:206f3f0000000000000000000000000000000000000000000000000000000265a800000023
:206f5f00000000000000000bfa940000000000000000000000000000000000000000000079
:0d6f7f000000000000000000000000000005
:206f8c000000000000000000000003c00000000000090003a588000000242cb100000000e8
:206fac00000000000000000000000000000000000000000000000000000003e5800000005d
:206fcc00000000000000000901540400000000000000000000000000000000000000000043
:0d6fec000000000000000000000000000098
:206ff900000000000000000000000000000000000050007265a000000639ccc520000200bf
:2070190000000000000000000000000020000000000000000000000000001265a000000020
:2070390000000000000098096b940804c000000000000000000000000000000000000000cb
:0d705900000000000000000000000000002a
:207066000000000000000000000000000000000000200b032580100034400bc500000500de
:20708600000000000000000000000003d0000000000000000000000009000b25840000005a
:2070a600000000000000700503d4000200000000000000000000000000000000000000007c
:0d70c60000000000000000000000000000bd
:2070d300000000000000000000000000000000000007005a6108000004796ee40100000003
:2070f300a0000000000000000000000000010000000000000000000007000225a800000006
:20711300380000000000000000000000000000000000000000000000000000000000000024
:0d713300000000000000000000000000004f
:2071400000000000000000000000000000000000000080fb8840000026380ce40800000096
:20716000000000000000000000000000000d00000000000000000000000003a580000000da
:20718000780000000000000000000000000000000000000000000000000000000000000077
:0d71a00000000000000000000000000000e2
:2071ad0000000280000000000000000000000000001700000000000000216ca300000000f9
:2071cd0000000000000a00000000000000001b714020000000000000059a0265a000000006
:2071ed0001f8a32000007807f79000000800000000001000000000000000000000000000a8
:0d720d000000000000000000000000000074
:20721a0000000100000000000000000000000000000080000000000000003da300000200f1
:20723a00000000000015c0000000000000000e714400000000000000000003658040001460
:20725a00000fa310000000f07b90000014000000000008000000000000000000000000003b
:0d727a000000000000000000000000000007
:20728700000000000000000000000040000000000007889ab9404000240018d10300000035
:2072a700000000000001e0000000000000000000000000000000000005805a65a000000002
:2072c700284fb101000000000000000000000000000000000000000000000000000000007e
:0d72e700000000000000000000000000009a
:2072f40000000000000000000000002000000000008710923e8000001628c0e2080000f09b
:20731400000000000000200000000000000000000000000000000000000e03a580400014af
:207334002808b1080000000000000000000000000000000000000000000000000000000050
:0d735400000000000000000000000000002c
:207361000000000000000000000a000000000000200708000000000014295ef7020100003e
:20738100800000000008000000000000000000000000808000000000050b1225a040001627
:2073a10000f8c5010000780000000000000000000000038000000000000000000000000013
:0d73c10000000000000000000000000000bf
:2073ce0000000000000000000000000000000000118080000000000a000070ff0000a00174
:2073ee00000000000015c00000000000000000000000410000000000000a0be58000003cb3
:20740e00000dc5010000580000000000000000000000000000000000000000000000000033
:0d742e000000000000000000000000000051
:02743b0000004f
:02743d0011013b
:02743f00010149
:20744100000000000000000000000000000000000000000000000000000000000002000029
:2074610000000000000000000000000000000000000000000000000000000000000000000b
:207481000000000000000000000000000000000000000000000000000000000000000000eb
:0d74a10000000000000000000000000000de
:2074ae000000000000000000000000000000000000000000000000000000000000000000be
:2074ce0000000000000000000000000000000000000000000000000000000000000000009e
:2074ee0000000000000000000000000000000000000000000000000000000000000000007e
:0d750e000000000000000000000000000070
:20751b0000000000000000000004000000000000000000000000000000000000000100004b
:20753b00000000000000000000000000000000000000000000000000000000000000000030
:20755b00000000000000000000000000000000000000000000000000000000000000000010
:0d757b000000000000000000000000000003
:207588000000000000000000000000000000000000000000000000000000000000000000e3
:2075a8000000000000000000000000000000000000000000000000000000000000000000c3
:2075c8000000000000000000000000000000000000000000000000000000000000000000a3
:0d75e8000000000000000000000000000096
:2075f500000000000000000000000000000000000000000000000000000000000002000074
:2076150000080000000000000000000000000000000000000000000000000000000000004d
:20763500000000000000000000000000000000000000000000000000000000000000000035
:0d7655000000000000000000000000000028
:207662000000000000000000000000004000000000000000000000000000000000000000c8
:207682000004000000000000000000000000000000000000000000000000000000000000e4
:2076a2000000000000000000000000000000000000000000000000000000000000000000c8
:0d76c20000000000000000000000000000bb
:2076cf00000000000000000000000000000000000000000000000000000000000000003467
:2076ef0000000000000000000000000000000000000000000000000000000000000000007b
:20770f0000000000000000000000000000000000000000000000000000000000000000005a
:0d772f00000000000000000000000000004d
:20773c0000000000000000000000000000000000000000000000000000000000000000002d
:20775c0000000000000000000000000000000000000000000000000000000000000000000d
:20777c000000000000000000000000000000000000000000000000000000000000000000ed
:0d779c0000000000000000000000000000e0
:2077a9000000000000000000000000001000000000000000000000000000000000000000b0
:2077c900000000000000002008000000000000000000000000000000000000000000000078
:2077e900000000000000000000000000000000000000000000000000000000000000000080
:0d7809000000000000000000000000000072
:20781600000000000000000000000000000000000000000000000000000000000000000052
:20783600000000000000000000000000000000000000000000000000000000000000000032
:20785600000000000000000000000000000000000000000000000000000000000000000012
:0d7876000000000000000000000000000005
:207883000000000000000000000000000000000000000000000000000000000000000000e5
:2078a3000000000000000000000000000000000000000000000000000000000000000000c5
:2078c3000000000000000000000000000000000000000000000000000000000000000000a5
:0d78e3000000000000000000000000000098
:2078f000000000000000000000000000000000000000000000000000000000000000000078
:2079100000000000080000000000000000000000000000000000000000000000000000004f
:20793000000000000000000000000000000000000000000000000000000000000000000037
:0d795000000000000000000000000000002a
:20795d0000000000000000000000000000000000000000000000000000000000000000000a
:20797d000000000000000000000000000000000000000000000000000000000000000000ea
:20799d000000000000000000000000000000000000000000000000000000000000000000ca
:0d79bd0000000000000000000000000000bd
:2079ca0000000000000000000000000000000000000000000000000000000000000000009d
:2079ea00000000000400000000000000000000000000000000000000000000000000000079
:207a0a0000000000000000000000000000000000000000000000000000000000000000005c
:0d7a2a00000000000000000000000000004f
:207a370000000000000000000000000010000000000000000000000000000000000000001f
:207a570004000000000000000000000000000000000000000000000000000000000000000b
:207a77000000000000000000000000000000000000000000000000000000000000000000ef
:0d7a970000000000000000000000000000e2
:207aa4000000000000000000000000000000000000000000000000000000000000000000c2
:207ac400000000000800000000000000000000000000000000000000000001800000000019
:207ae400000000000000000000000000000000000000000000000000000000000000000082
:0d7b04000000000000000000000000000074
:207b11000000100000000000000000028000000000000f08314040002c7c000000000090c2
:207b3100f0bac4820000000000000000134ed003c020000000000000000000000000000030
:207b51000000000000000000000000000020010a3080000000f41c800000000000000000a9
:0d7b71000000000000000000000000000007
:207b7e0000003000000000000000000040000000000100163140800020700000000000f9e6
:207b9e00f37ec40000000000000000002801da3c0000000000000000000000000000000053
:207bbe0000000000000000000000000001e01eea3020000000032c48800000000000000077
:0d7bde00000000000000000000000000009a
:207beb000000000010000000000000000000000000a0000739000000240379ff00000030bb
:207c0b0000b68ca00400c0000000000000000225820000000000000003007c17c2000004ae
:207c2b00000000000000900941c800000260150a100000000f542a804000000240ff080070
:0d7c4b00000000000000000000000000002c
:207c58000000000098000000000000000000000000000017f90000000e015ef70000008080
:207c7800e7fe8c00080200000000000000005265a0000000000000000d8052028000002693
:207c980000000000000010c862c408000266378b5020000001039540400000025af70200be
:0d7cb80000000000000000000000000000bf
:207cc50000000000900000000000000024c030000009100ae8c80000022400000000000002
:207ce500d943fc000800000000000000070002e58200000000000000000c000000000000e3
:207d050000000000000500008154000000201f85a0000000000000000000000159ff0000c7
:0d7d25000000000000000000000000000051
:207d3200000000000000000000000160068c011000001c1f68c000000c040000000000704a
:207d520019e3dc08000000000000000008001265a000000000000000000000000000000012
:207d72000000000000000001e15400000060158ad0000000000000000000000168f700008c
:0d7d920000000000000000000000000000e4
:207d9f0000000080000000000000000002b96000000000000000000024000ca31000000046
:207dbf00e903dc0000000000000000000f00022582000000000000000000b03d48000000ef
:207ddf00000000000000b0000000000000001faf400000000b003fc00000000000000000bc
:0d7dff000000000000000000000000000077
:207e0c0000000100000000000000016006896800000000000000000020005ea300000000dc
:207e2c00172b8c08000000000000000008007a65a0000000000000000100f32810000000ad
:207e4c00000000000000800000000000004005be0000000001003fce300000000000000055
:0d7e6c000000000000000000000000000009
:207e79000000000000000000000000200099600000050e0371400000040150ff0000005065
:207e990000f28c000200000000000000090e02e580000000000000000000000000000000cb
:207eb90000000000000000fd42a80200004281055000000000000000000014000000000094
:0d7ed900000000000000000000000000009c
:207ee600000000000000000000000060168968000008007f71480000362378f7020000808b
:207f060007268c00000000000000000003013265a200000000000000000000000000000065
:207f260000000000000001cb6a94000003605e8550000000000000000000140000000000c7
:0d7f4600000000000000000000000000002e
:207f530000000000000000000004000402b960000080000a39000000047bd0ff000000b02a
:207f730000000000041c0000000000000b000a258000000000000000000a0000000000000a
:207f93000000000000000000000000000004000000000000000000000000140000000000b6
:0d7fb30000000000000000000000000000c1
:207fc0000000000000000000000000039e89680000000016790800000062e8f702000080b5
:207fe000000000000a0400000000000040007a65a2000000000000000000000000000000b2
:20800000000000000000000000000000000600000000000100000000000000000000000059
:0d8020000000000000000000000000000053
:20802d00000020000000025800000244009962000009090003c00000002970ff00000050bb
:20804d00a00000008000001c05a000000d0002e582000000000002000000000000080000b2
:20806d0000009600208090a78280000000029e0ff0804000000000000000002800000000fd
:0d808d0000000000000000000000000000e6
:20809a0000002800000722590100020604896800000d0a0603c200000004faf70200000045
:2080ba00b0000000a00000000a54800008003a65a00000000000028000000000000a0000a5
:2080da0001c89640280000a73bd5800000029daf702040000000000000000000000000006a
:0d80fa000000000000000000000000000079
:208107000000040000000258300003c400b9624000000a0a2c42000000340ea3000400003d
:20812700d03e8c0000000000000000108f0002258100000000000000000000000000000057
:20814700000096040000000000000000000264bfb000000000000000000000280000000081
:0d816700000000000000000000000000000b
:20817400000004000007225b000002038e89680000051b1eec4c00001c6ddea3200400003b
:2081940015fe8c81000000000000000008005a65a000000000000000000a0000000000003a
:2081b40001c896c000000000000000000142aecff0000000000000000000142800000000a0
:0d81d400000000000000000000000000009e
:2081e10000003000180082580000000282b9620000000e0368c000004243ca99000000009c
:208201009d83ac000003c280fa30000000000325800000000000000000000029400000040d
:2082210000209600000000cbc29400000043dd07200308010900000004000400209600004c
:0d824100000000403c00c0002400000000d0
:20824e0000003000b187a25b000000025c99680000000036a8c00000043841a5100000007c
:20826e000dab9c08000166c4fa30000000001225a000000000000000001a10295020002085
:20828e0061e896c00000009d33c000000003808b102110078e0000000c0020016896400052
:0d82ae00000000603d40c000c20000000064
:2082bb0000000280100082580002000002e960040050080eb9000000007c2ca3000280f802
:2082db0090ab900000002000000000000f0f0a2580000000000000000500000000000004c2
:2082fb00002096000000008503d4000002624105500000000000000000a0040020960000fd
:0d831b0000000000000000000436fa8000a1
:20832800000001009805a25b000400428c89680000278117f9000000067d7aa3100100f876
:2083480017e3900000006000000000000f811225a00000000000000000000000000000269e
:20836800016896c0000000097281000000601de55000000000000000004026016896c00063
:0d838800000000000000000007a6b5140072
:2083950000000000000002580000000002b96200000000b3d4c00000003c30e4000502f1c2
:2083b500f02e8c00000162e60eb00000000002258000000000000000090a0000000000003d
:2083d500000096000000010df3fc000002402d00a00000000000000000002400009600002c
:0d83f5000000b000000000000000000000cb
:20840200000000000005a25b000000000c99680000000886a8c0000000607ce403000199f8
:20842200c12a8c000003402eee70201007807265a000000000000000059900000000000028
:20844200016896c00000308963dc000002e22de00000000000000000004020016896c00053
:0d846200000000000000000000000000000d
:20846f000000028000000258000202c3c2e9620000070052484000001e397800018000000c
:20848f000babe40004c9440eef900000008f0225800000000000000000001e5000200000d1
:2084af0000009600000000c00000000003c3c000f08028000e000000000000000096000095
:0d84cf0000000000000000000000000000a0
:2084dc00000001000007a25b000442079e8968000000181a210000003c0669082000000079
:2084fc008b73d4000a14660ccf50000007807225a00000000000000000005700800000004a
:20851c0001e896c0000078d000000000016681c0f00010000000000000000001e896c000d1
:0d853c000000000000000000000000000032
:2085490000000000008082580000000342b960800009000225800000042ae0ff00010250ca
:20856900e1035c000003c2940d70000000000225840000000000000000007f28400000004a
:2085890020209600000000ab4140000000003d00f000000000742a800000002020960000af
:0d85a90000000000000000000000000000c5
:2085b600000000001815225b000000005e9968000001003225a000003607eef702000481fb
:2085d600b1ab9c080002063eee70200003005a65a00000000000000000403ff0c00000062a
:2085f600054896c000001005fbd50000044016ca5000000588879540000206654896c00075
:0d8616000001a00000000000068000000030
:2086230000000000008082580000140002e962000000000aa580000000302da3200000002d
:20864300e0eac4000001400cef90000000000a258400000000000000000eb3f84000000011
:208663002020960000000809c280000000401e050001000000000000000000202096000094
:0d868300000000000000c002c00000000068
:20869000000000000195225b00000800048968000007003a25a00000002d5aa3000000503a
:2086b0001772c40000024035cf50000000007225a000000000000000000ebbf9c00000000e
:2086d000654896c0000079893bd4010002000d8f5001000000000000000000654896c00083
:0d86f000000000000000c0000000000000bd
:2086fd0000002000000002580000a00000b960000000800225800006143c30f70000007016
:20871d00092b60000000041e0d700000008003258400000000000200000e983fc00800002e
:20873d00000096002000009bbffc008001c01cc5a0020000100c15400800400000960020dd
:0d875d000000c0c3d4008000000000000038
:20876a00000028000007225b000000000c996a000053007225a00001e16d4ef7020000d83c
:20878a00c87790800000023eee70200003801265a000000000000280001cd715440a000050
:2087aa0001c896c02800001d2ccc00a0014027cad00280005c3695480a000001c896c0286f
:0d87ca00000015f3d402a000030000000021
:2087d70000000000000002580800142400e9604000000c02a58100002c400ea32000055099
:2087f700003a8c000000c037afb000000700036585000000000000400d0d1e500200a000e8
:2088170000009604000009ed42a8000000020ef5a00000000d7c02a200000000009604005b
:0d8837000000000000000000000000000034
:20884400000000000007225b0000e8e70489690000070b5a25a000002028dba3000000983c
:20886400076a8c80000006368f500000000c1a25a0000000000000400801574080004000d1
:2088840001c896c0000011807154000200004eb905040000009f941400000001c896c000e7
:0d88a40000000000000000000000000000c7
:2088b10000000000000543600000000002a9620000030002e58000003c0050ff000000d924
:2088d100f0000000000a47c0000000000000036580000000000000000000be80000000045c
:2088f100002096000000f000000000008062650f0000120f0f0000000400840020960030cd
:0d89110000780000000000000000000000e1
:20891e000000000000006b9148000040049968000018003a65a04100200268f7020000791c
:20893e0080000000001607400000008003807a25a400000000000080001c5fc0c00000205b
:20895e0061e896c0000000000000000000607ecf802020081b00000004022061e896c030d5
:0d897e0000b000000000000000000000003c
:20898b0000000280710d83fc000a00000289600000198f0325801000003c0ea30000007992
:2089ab00903a8c8000024034a98000030300032580000000000000000000dfc00000ac44fa
:2089cb000020960000003001036c000000038205500000000a5016800000040020960000b2
:0d89eb0000000d8168800000000000000009
:2089f800000001000085ebec0d0400000c9968000007003a65a000001e055aa3100000f876
:208a1800a3fe8c000003c03dea40000008007265a0000000000000000000b24c000040a684
:208a3800016896c0000000056bbc080000e005c55000000009802950000026016896c10049
:0d8a5800280001fbc100000000000000002c
:208a65000000000070892fdc0000002400a960000003900ba5800000003f5cf6000000b8b4
:208a8500b983fc000002440c0d7000000780032580000000000000000000be80000000005d
:208aa500000096000000010d42a8000000235f05000001890a77cd0800000000009608001e
:0d8ac50000000000000000000000000000a4
:208ad2000000000080192bfc000000661e996900000f1c1a65a0008000076cf50100049176
:208af200e3f3dc080000e72eae7020900f807a25a80000000000000000005f80c000000052
:208b1200016896c0000111c06954000000e2668f500000258bdb6c18004000016896c100bf
:0d8b32000000000000000000000000000036
:208b3f002402000008c13dfc000000064089620000000003258000003c282cc52000005848
:208b5f0001ebfc00000240150f7000000f9f032580000000000000000010043d4000000051
:208b7f000000960000007000c154000001c62de5a00010050cd8168040000000009600409d
:0d8b9f0000000000000000000000000000c9
:208bac0004000000380f63fc000000064e9968000020007265a010041605dac500000090b5
:208bcc0005abdc000001c704ce3020000f9f7225a800000000000000001a12bd40000000fd
:208bec0001e896c0000080817154000000c3d4ead008200d81ba948080000001e896c000d0
:0d8c0c00000000000000000000000000005b
:208c19000000000010b3c3fc0000024000d960000000080ba580000036201ab120000000c5
:208c3900d77b60000002667c0d700000800003258400020000000000051a903fc800000024
:208c5900202096000000199761680000e0038c0f5000000900503fc000803c2020961000e4
:0d8c790000000000000000000000000000ee
:208c8600180300008183733c0b00000006996a000040005265a00000160459b1000002002f
:208ca600107f90800001422cae70200000007a65a000000000000000050a163dc290000629
:208cc600054896c0000091f926b4010000004d8a040003198ad73dc0800026054896c000e8
:0d8ce6000000000000000000000000000081
:208cf3000000000019b933b8000001c000d962000040100b258400000e000da320000008be
:208d1300a0c39000000000150e300000001002e58000000000000000050a567fc0000000df
:208d330020209600000018d383e82000005003055000000100bbffc0000a0000009600020f
:0d8d53000001000000000000000000000012
:208d600000000000d0a92ddc000001c01689680000201c3a65a000003661fba300000050a9
:208d8000077b90080001600daf702000001c7225a0000000000000000000de7dc00000009e
:208da000654896c00000b8133a81000002000de55000000d00f73dc0000000616896e001a5
:0d8dc0000000e000000000000000000000c6
:208dcd0080002000d9a003c00000024000a9600000000e03a5800008062cd0f70101020024
:208ded0003a400460000002caf200000000002658000000000000010010abec000080200f4
:208e0d00000096002000900b03d4408008c26d07200200008000000008001400009610209b
:0d8e2d000000000000000000000000000038
:208e3a000000a80050b073c14000000006896a000000007265a2000034054ae3020201001f
:208e5a00a734200000016035bf70000000407a25a400000000000020080a5fc0c00a00009a
:208e7a0001c896c028001801aa8100a01603e1cb10229001800000000a002001c896c02834
:0d8e9a000001a0000000000000000000002a
:208ea70004000005d00901680002140380a960440000000b258100003c6028c5000000d070
:208ec70000ba8c040000203eeff000000000036581000000000000000500dfc00000000077
:208ee70000009604028051c96bd40000000383055000000000f33fc000000000009614007f
:0d8f0700000000000000000000000000005d
:208f1400000000321808029500040800168968000000007265a00000203c4dc5000000015b
:208f340083fa8c800000403f8f700000000c7225a800000000000000050ab2cc000000003e
:208f540001c896c0010001f3eff40000e0060fa550000000009b3dc000000001c896c00065
:0d8f740000000000000000000000000000f0
:208f81000000000000a0ea8c200003e240f9608000001e0b2580000026214ae7010200084b
:208fa1000d63fc00000002c0000000000b8f03e580400000000000000008bb91c000000428
:208fc100002096000000008f778800004043c000000000090ddbbfc00400040020960100da
:0d8fe1000000000000001000000000000073
:208fee000000000000033e8c000000600e99680000000e3a25a800003407e0810000007006
:20900e000fe3dc0000000000000000000b817a25a00000000000000000019a3890400020e6
:20902e0061e896c00000100823450000024000000000000001b77dc00c002061e896c00001
:0d904e0038000000000000000000000000dd
:20905b0000000000f1f3c3fc0000142002e9600000000f0a65800000260010c100000008d6
:20907b00e000000000c0229ec0e00000070f02e5880000000000000007005a668000000405
:20909b000020960000005005c14000000002c50aa00000050008154000000400209600001c
:0d90bb0000000000000000000000000000a8
:2090c80000000000808173dc080008401e9968040180007a65a00008260048c10200003854
:2090e800100000000001400f8080040008010225a00000000000000001007a69b00000267a
:20910800016896c00000800fabd50000000321e55010000d803f1540400026016896c100c9
:0d912800000000000000000000000000003a
:20913500000000000000fe8c4000084400a96100000f0e0ae584000004340ab1000000096e
:20915500002e8c0400e002b6cf70000009005384800001400000000000009b378000000072
:2091750000009600000010804154000000000000f000000500f01080008034000096000060
:0d91950000000000000000000000000000cd
:2091a2000000000001853a8c00000407008968000000003a65a0000020054fb120000018c9
:2091c200a5aa8c8000006704ea70000009008221204000800000000001981a61300000009d
:2091e200016896c0020081952954040001c001e0f00000059e802042900000016896c000af
:0d920200000000000000000000000000005f
:20920f000000000010d0831404000000020960000000100b25800000344008c5000000094f
:20922f0000bb90800001c29f0f7000000f00032580000000000000000080d2668000000084
:20924f00000096000000080ba3740000000406ba100000000ada86804000000000960000ab
:0d926f0000000000000000000000000000f2
:20927c00000000308007e31408008000148968040007887a65a000000061fbc520000079cb
:20929c00e3739000000366cc8e30240008007a25a0000000000000000118da69b000000062
:2092bc0001e896c00000388be5dc0000000385db500000070b7b6fc000000001e896e00001
:0d92dc000000000000000000000000000085
:2092e9000000000070f0fb140000000380d9620000000f0b658800049431dad810000001a5
:20930900b0a714000001400ea4000000010003e58000000000000000019bdb77800000000f
:209329002020960000000007030c0000a1441407200000008830168000a000202096100044
:0d9349000000000000000000000000000017
:209356000000000080013b14000008005c9968000000013a25a0000700041de400000011a5
:20937600e5bb14800000002cf850000008000265a0000000000000000d0a9a213000000618
:20939600054896c000005003fb4408000402a0ab1020000500002950004006054896c8008a
:0d93b60000000000000000000000000000aa
:2093c3000000000001e17dc8000003c3809962000000000a258400402e00d040004000d0e1
:2093e3009043dc000000021d0e30100000000325800000000000000001881a66800000001d
:209403002020960000000980028c000000200105501000000096b740400000202096010032
:0d942300000000000000000000000000003c
:209430000000003800902ac401000000408968000020007a65a0002026027e8102000070dc
:209450000573dc0800000004ef702000000e7a65a0000000000000000d015269b0000c000b
:20947000654896c0000078e33a8c080001461785500000000eb25dc0000000654896c0009d
:0d94900000000000000000000000000000cf
:20949d0000000000000000000000000000b9610000790d0be584002024014d811000005028
:2094bd00903e8c0100002002fc500000000008258000000000000200000d3a3780480000d1
:2094dd00000096002000780b4168000402441f05208200000bb7b6800800000000960000e7
:0d94fd000000000000000000000000000062
:20950a000000000078000000000000001c9968000010013a25a00040340240e7000000d827
:20952a0011ba8c800201400efc50000000401225a00002000000028000011a21300a00009c
:20954a0001c896c02805d809f3c000080207bcab50228000007229400a0e0001c896d00095
:0d956a0000000000000000000000000000f4
:2095770000000105b0f07ec401002003c00960300000000be581000026002ca311000008f0
:20959700003b90000000020000000000000c038000800000000000000d00539580800140a2
:2095b70000009602000000e08154000000400305500000000a0000000000000000960c0003
:0d95d7000000000000000000000000000087
:2095e40000000082f9916ac4000000001e8968000000007a65a000003c617aa300000019cc
:20960400a36390800001468000000000000138402000000000000000018ad225700000805e
:2096240001c896c000000003e154000002069cc5500000001800000000000001c896c000df
:0d9644000000000000000000000000000019
:209651000000010050a003c0200003c003ae400000000f0a658000004c680000000000902f
:20967100e00000000003430000000000508b000000000040000000000080000000004002d6
:2096910000000000300000000258040020040000f000005f1ab029400c00040020960100be
:0d96b10000000000000000000000000000ac
:2096be0000000000d8106bc10200000784ce40101000015265a40000942400000000008029
:2096de00100000000001c780000000002300000000000480000000000300000000008004e6
:2096fe000000000010000005a259000000038180f00000259900168804002661e896c10022
:0d971e00000000000000000000000000003e
:20972b0000000000500703fc0000000000ca30040020000aa580000000400000000000013a
:20974b00f9c3fc0000034414000000000000000000000000000000000000000000000000eb
:20976b0001ed00000000f0a00258000000001705000000000a00000000000400209608001e
:0d978b00000000000000000000240000901d
:2097980000000030f00fb3dc080028000cba30040000001225a000a00078000000000001d9
:2097b800fba3dc08000002beea102028000000000000000000000000000000000000060007
:2097d800035acc5080005813a25a0200000006cf540000019b000000000026016896c10064
:0d97f80000000000000000000004a8002098
:2098050000004100108d77600106014283ae40000000000225800000027c20e40000087929
:20982500f34100000000002d0d000000000f0403c010004000000003070c381540100000dc
:209845002000aa000000000002580000000237aa500000408ed403c0000040000096000071
:0d986500000000000000000000000a0000ec
:209872000000020001b83390000e00078eae40100000000265a2000006644ce422000019d9
:209892009922040800000220ee002000001d0703c0000600000000000981b72950500000c8
:2098b20005faaa00800051a7225a000008005fc3001003859b1ba94020020001e896c10036
:0d98d200000000000000000000058a0000fa
:2098df002402000071e0fb140102016242ca301000050002258000000602c0000880000134
:2098ff0000ab14000000039f0aa00003200f0403c01000000000000000090000000000002c
:20991f003800000000005000825800000000060fa000000010f02800000000000096000053
:0d993f00000000000000000000000000001b
:20994c000400000079e533144004e06044aa30100088000225a000002423ec0823000000f3
:20996c00e7ff1480002003f4ca50000040010703c000000000000000000000000000000025
:20998c000000000000008003a25a0000000327aa0400000018fabd5040000001e896c100c5
:0d99ac0000000000000000000000000000ae
:2099b9000000000018c0ba8c840002c66cb030040000000aa58000401400f0ff0000000062
:2099d90000b714040000000100f0800000000003c01000000000000000009a200000001e83
:2099f9000000000000000800825800004940259d1004000000d7f740000000202096000029
:0d9a19000000000000000000000000000040
:209a260000020000f005328c00000007e49c02000000005225a00082003bd8f70200003805
:209a460003f3140000014000c0f0000000000783c000400000000000001cd7c08000003612
:209a66000000000000007801a25a00005f4020ae24002805001b9dc800001e054896c0006c
:0d9a860000000000000000000000000000d3
:209a93000000000501b00000000203c402b9608020870e0325800000140060ff0000005079
:209ab300000380000000024100f0801000000403c0000000000000000f007c2fc020a00448
:209ad30038000000000000008258000001e3a40a5000000b0d7c3fc0000e002020960010f8
:0d9af3000010000000000001c00000000095
:209b00000000000000d00000000400060e996800000d1f0225a0000000026af70200009074
:209b200001ab800800000301e0f0000800000783c200000000000000081e9a3f40800020ea
:209b40000400000000300007225a800002e6c005a00000080dff3d40000000654896c010dd
:0d9b60000080000000000000000000000078
:209b6d000000200000bbc3fc8000080002e960000010900ae5800100246adfff00000008e7
:209b8d00a93a644000000003de40040000000403c80000000000020000900c3e80080000d9
:209bad0000000000200000f00258008001400000f002000b00381c0248000000009610200c
:0d9bcd000030000000000001c0000000009a
:209bda000000a800000be3dc080004001e996a000021985225a000002073fff700000078fb
:209bfa00ed0694000000001eae40000000000303c000000000000280050e5f3e800a000036
:209c1a000000000028000003225a02a0000281a0f002810800d3bc548a000001c896c0288f
:0d9c3a00008000000000000000000000009d
:209c47001000000000b367fc000000c200f96040001f00082580800000282ba300003810f2
:209c670080bf1440000000000000000000000000000000000000000000000003c80000007f
:209c870041dd6500000200000258100000028005a000002000b28880000000000096120025
:0d9ca7000000e1003c540002c380000000fa
:209cb40000000000000dfbdc000002039699680000001e7a25a000000004dba300000080b1
:209cd400b77b14000060000000000000000000000000000000000000001e0283c000000067
:209cf4006b49a54800010007225a020001428405a00010538097620400000001c896c000be
:0d9d140000000d23c12000034000000000ee
:209d210000000004019043dc0000014202f962000035000ae8c00000bc795ed110002091c2
:209d4100f00000000001c340000000000308db5588000000000000400f000403c80000002d
:209d610043d0aa00400000008258000003c42e00f00010000000000000803c0340a5080268
:0d9d8100000000a25841c0002000000000ba
:209d8e000000000070c763dc08000200169968000050005f28c0400056660be2000000019d
:209dae00e0000000000200400000000008005a25500000000000004008000303c00002008c
:209dce0070c8a540000001e5225a40002007be8f071820000000000000001e00005a00008b
:0d9dee00001805a25b00c00040000000004e
:209dfb000000000850806b90000a21c000e9600000090e030f004000002bd05001008811f3
:209e1b0000a3140400000000000000000190bbd580000000000000000000000000000424a3
:209e3b007a50f501400508008258000401c400b960040000000000000040044000000000b6
:0d9e5b0000000036588000004000000000ac
:209e6800000000009815b790010402401e896800000100004f00000200077ef500010001c2
:209e880087ef14000000000000000000071c12257400000000000000000000000000000062
:209ea8007dcca04000007801a25a040a03e79c896c0000010000000000002038000000001a
:0d9ec800001801265b04000260000000008d
:209ed50000000030080f43fc8000000402f96200100580d0328010005c3fd072100200f000
:209ef50003abcc0000000003ea30040000007ac48000000000000000000e0403c800860091
:209f150040100f00000209000258000013e002e96010284010003c000000003c0000000129
:0d9f350000108022584000000000000000d5
:209f4200000000007007ebdc080000039499680028098087314080043e201cb10200009037
:209f620009f38c000000000dba3000000000f26df40000000000000000010703c0004016ec
:209f8200701e0f00002578e5a25a00000ae20c996c0000001803bc180000000000000002b6
:0d9fa200108017a25b00040000000000000a
:209faf000000000010f383fc000a03c000e962002840000a314000001e00d0001140007066
:209fcf0080be8c000000c34100f01000001d5bd58000000000000000000f0c17c010401481
:209fef0000100f20000a0100025801000023c0b96000000000dc3d4000003c3c000f004091
:0da00f000000d032584000000000000000aa
:20a01c000000000081f563dc080600000689680013a0001bb14000002432da0802000080f1
:20a03c0005ee8c8400000041e0f00000001c1a257040400000000003000f5317c000002049
:20a05c0068080f00000001e3a25a000001e00e996c00000000baa810420000001e0f0000b0
:0da07c00000011265b040000000000000041
:20a089000000000a98003f140004000400f9600000001a0b28c04002043860ff0000005027
:20a0a900a06b9040000002a4b53000000b1e5b8488000000000000000000b4140040000297
:20a0c90000205500400000000258000003c78089600000000000000000011c00000f1000f9
:0da0e900000000a258000000000000000070
:20a0f60000000001f1856f1482080006049968000020191768c400003403f8f70200008097
:20a11600033f9080000007a19a308000081e722df000000000000000010002280000061ce3
:20a13600007a550000025807225a00000203ce996c0000001a0000000046a0001e0f000058
:0da15600000181a25b8024000000000000d9
:20a163000000000008cb29980400000400e9600000000a9032825000004260ff0000007840
:20a1830090368c400000438000000028038e13d580000e0100000000000e0003c80000005e
:20a1a30003c0a5000000000082580000002000e9600400000c00000000029c32c0ff08103a
:0da1c3000000002258000000000000000015
:20a1d00000000000180706940000c0079c89680000000f87b14080000062fcf702000038cc
:20a1f00017628c00000140000000000017815a25780004000000000000000783c000000c20
:20a2100000005a20000001e3a25a0200e0e78c896c00000000000000000020036ef70230d0
:0da23000000001265ba000000000000000ff
:20a23d000600000000b0a68c0400000000f9620000009b0a314000001427cdf00000005854
:20a25d00e0000000000bc0000c50020003901355800000000000000000000003c40800008e
:20a27d0028000f200000010082580180002000a960124000800000000000020030f50024c8
:0da29d0000f0f02258408804000009600025
:20a2aa00000000005017ea8c000001e00c99680000011c57714400406e05faf100000038ca
:20a2ca0000000000000203958c50a280070e9a25780000000000000200000683c00a00003b
:20a2ea00000a0f00000001c7a25a00a001c014996c0281038000000000020400cef5002806
:0da30a00008017225b00a000001c89640089
:20a317000000008091012b600400024002e9604000071a0fa8c0600000000ca3010001000f
:20a3370000ab900600000002ca30000001107bd58900000000000000000e000000000000d1
:20a357002e60f5010080000082581000000002f960c00020000003c4004000264cff000045
:0da3770000f0002258500000000009614075
:20a384000000013881807790000000000e89680001001c13a8c800000000faa3200000001c
:20a3a400057b900400000014aa320000001e7a2570000080000000000000000000000000e8
:20a3c40034fca05000000003225a0000000016896c000050000603c000a000006af70000b5
:0da3e40000f001225b800000001c896c006d
:20a3f1000000020090d000000000080000d960000000000aec400000026770a008000000f2
:20a41100f06f144000000026d2100840000e33d5880000000000000007000403c0000014a8
:20a4310020000f200000000082580000002400d9600000209f00000000014028d00000008d
:0da451000000003658004000400209608005
:20a45e000000000000900000000004000489680000000013ac4000401e7ddef50000800028
:20a47e00013714000800001c9840004003887a65700000000000000008000703c80000364c
:20a49e007c1a0f0000000005225a000001e386996c8000070a0000000000806fdc8002002b
:0da4be00000003a65b40c002061e896c0072
:20a4cb000000008530800000000001400089600800000d0003c200002460100f000284b857
:20a4eb000b339c2000024742b96000010700bb5588000000000000000f0e0403c000003cf3
:20a50b004350a0000200000082580400000002a9601002411f143fc000001428e000000071
:0da52b00000080b25880000040020960006e
:20a5380000000032800000000000e2000699680000079f0603c000002e380a0f010102b8be
:20a55800070604000002065c896800000f9e3a65700000000000000000010383c400002056
:20a5780039ecf54001000005225a0000000004896c0000200e16bdc08000142ae0a50000ea
:0da598000001f5a65b4000026016896c1002
:20a5a50000000002180943280100000002d960000185000268c01000004250ff00000091ea
:20a5c50000003c0000000602e9600003000e5bd588000000000000000f0e00000000000201
:20a5e50002f0500040300000025800000bc382c96000000f90d43e800100142450a0010076
:0da605000090002258400003c000096000d2
:20a612000000000538086b140c0000000c8968000000001768c8000000626cf702000079d4
:20a63200e0383c060000069489680000000e7a6570000000000000000801000000000004b9
:20a652006b4ef54000280005a25a000003e254896e00000f0a03bd40000a342f4af540009c
:0da67200008183a65b8000020016896c1039
:20a67f000000000000803314800200068289600028011000000000003c2260ff0000050105
:20a69f0090f6c44000000002d9600000000b735588000000000000000700302948000000d3
:20a6bf0000000f000000000082580000002602e96000082019000000000a002000000000b6
:0da6df00000000325840000000000960003b
:20a6ec000000000000076f14000400024699680011000a00000000003604eef70200020138
:20a70c00f7b2c40000000204996a000001011a657000000000000000080000168000000028
:20a72c00380e0f2000000005a25a000201c786996c101000190000000000002c00000000dd
:0da74c00001805a65b000000001e896c10bf
:20a7590000000400f00f42a802000003809960000000000b68c0100034034f81100000100b
:20a77900c0eb14040000000289600000098c53d5800000000000004000000003c8000002c8
:20a7990040d0aa00000250a08258800000030289600000000f36768000000003f900000273
:0da7b900841080265804000002020960048c
:20a7c6000400040090e5b29480000000468968000000005728c000014029c0e700000001a8
:20a7e6009137140000000014896804000381d265740000000000000000000703c000000c69
:20a806002beaa56000055001225a000400004e996e000380019a294800000003df800001fb
:0da82600328013a25b8000e06054896c005a
:20a8330000000005000d0388800a00000289600000001907e8c000009629c0ff00000000ad
:20a853000000000000176402a96000000f009355800000000000000000800003c0000002a3
:20a8730003c0a500000000d002580000002002f9611000200ffc2800400426406cff00300f
:0da89300001000b25844000002020960806d
:20a8a0000000000250087b44080400079699680400001912a8c0000164034cf70200000091
:20a8c000000000000008e204896800002900f265780000000000000007000783c400001e2e
:20a8e0003a005a20000000a1a25a800001630c996c00004000fb3d5000000c79ddf70030c1
:0da90000008007265b0000000654896c00f3
:20a90d000000228001006b902400026402d96000000080000000000014034fe708000010e2
:20a92d000983fc0000000002a96002000009d3d5880000000000000000000003c2080080ef
:20a94d00382055000000f0000258008403e400b96002002700b4280048000229705a00200d
:0da96d0005000032584080000000096080a5
:20a97a000000280001857f90000001d61489680000059a00000000000060c1810000008063
:20a99a0005e3dc0800000014896802800380da65700080000000000000000283c00a004009
:20a9ba00006a550000007001a25a40a003c38e996f02805800bb3d500a080e7cd8ad0228a8
:0da9da00021803a25b00a000001c896c00a5
:20a9e7000000000010018154000202440089604000050e0f28c20040002b4a530000007075
:20aa0700d0b6c40000000002b960c0038000f355890000000000000000000003c8000000eb
:20aa270003705a10000000a002580900000400d960d0000d8ef7800000000403eeff00001c
:0daa4700000000325850000000000960506f
:20aa5400000000008007f295420402069c99680000038072a8c0000000061aa30080000148
:20aa740093f2c4400000e20c8968000001001265700000000000000000000383c00000002c
:20aa94007a5ef00000000005a25a000000030e896c00000f8b73e00000000002cef700001f
:0daab400000185265b000a00001c896c0073
:20aac100000000000180ab148600000240f9600000200eb694c04028243cdf720002880039
:20aae1000f4154400002600089620002a01e925580100000000000000000002580500000f8
:20ab01002c100f2000005400003c0000000402e96080000010be3fc000000441c0f50001a2
:0dab2100180000365840c0004002096010c6
:20ab2e000000000000d56b14000000000e9968000010018368c000403c041ab101018050cb
:20ab4e0005a294040000401e99680000539fba25700000000000000005803a2580000000a4
:20ab6e007c1e0f000000d9a0603c000000039e896c0000000e1efdc00000203b5aa0000233
:0dab8e00000001a65b804002661e896c007d
:20ab9b0000000005f08067888000002380e9601020000e0228c040a0002000000000001092
:20abbb0080f3142100000200a96010080f00f2d58000000000000000000a02e58040003474
:20abdb0040100f2000005000003c0000084400b96004000000f42840000034000035200001
:0dabfb000000003658000000400209600014
:20ac08000000003a00016b8800000040168968000000015328c0004e0e040000000000011a
:20ac2800c1eb14000000001e996800000f0e5a257400000000000000001b0225a000002615
:20ac4800301c0f0000008000783c0000041784896c08000000b72940800000005e3502008c
:0dac6800001805a65b8000026016896e00d2
:20ac750000000000010f314c0100036300c9600400491900000000005e380dc501000408c7
:20ac9500096f604200000200a96000000f103a5588000000000000000500002582604002f6
:20acb50040000f0000000000003c000001c380c9600028000f54100001001e01fc3c000292
:0dacd50089108022588000000000096000f6
:20ace2000000004030c02e8c010001c040996800002f190000000000063cfec5008002187e
:20ad0200002f90400100401e896a00040f8efa25700001400000000408005225a000b00e8e
:20ad2200780c0f0000400000783c000103e04e996d00070018872000801004615bbc000080
:0dad4200788191a65ba001e0001e896e00e3
:20ad4f00000000007000eac40400140000d9601000008a0aa8c001001e643dc5010000f0f3
:20ad6f000027904000000000d9608000000e52d58800000000000000000003e58060000c83
:20ad8f0000100f1001000000003c0000000402a96000000090963fc000000003d0ad004044
:0dadaf0005088032584000000000096000d7
:20adbc00000000008007a2c400000800009968000001817b28c04100262deec52000100025
:20addc00017390040000001e9968000000007225700000000000000000000225a800060054
:20adfc00001e0f08028001a0383c0000016394996e0000010e56bdc000000003fca14200a8
:0dae1c00027015a65b800000001e896c040a
:20ae290000000000f8800000000003e000f960100009981c3fc000000001d072004000986e
:20ae4900a02cf02000002000896000030b00b2558000000000000000000002658000000088
:20ae6900400e3c00000030d0403c0000000000896000000f0eb4000000003c4060ff00002e
:0dae89008250002658400003e202096000dc
:20ae960000000000f8800000000003c01699680000039996bdc08000c0321cb1220000b882
:20aeb6000004f0000010e71e89688000080e9a25740000000000008000080265a810000012
:20aed60020003c0000280000783c000000c004996c0000070f5e20008000062a5cf70a01b9
:0daef600058001a25b400003e054896e005e
:20af030000000280780f2c84810000000009601000018d3c3fc000004201d00018410071d5
:20af23000063140200044000e96000000f00bad58000000000000000000002e58000002c57
:20af430000000f0000000000403c0000080342a96004000f0f043d400000027850ff001091
:0daf630000000036580000000000096000ea
:20af700000000100f08da6100000000786896800000381dabdc080401c28dc080a00300111
:20af9000c5ef14000020000e996880000f8c7a25740000000000000007080265a010002036
:20afb000000a0f0000000000303c000014c7c6896c000000005abd400000142d6af500105f
:0dafd000000005a25b4000000616896e001f
:20afdd0000000000000036580000000002f96100200000bb3fc000001400d0ff000000703d
:20affd000d03880100200000f9600a0029005a558800400000000000001003e580480000b8
:20b01d004250a6000100b00502940080002002d96010280b0f0003c0080002000000002075
:0db03d000050003258408000000009610002
:20b04a00008000000003265a0000016014996800000380befdc0000020026af702000001e9
:20b06a00e87b44080001c01e89680290401e5a257000a0000000000000180225a00a0000df
:20b08a0023c8654202000008016800a001c68e896c040007000603c00a001e000000002893
:0db0aa00029807225b00a000001c896c00ca
:20b0b7000000000008803e581000000002096020000b0a3b598000800000daff000000013d
:20b0d700a03f140000042000b960480000007b848080000000000000000003a581000002b7
:20b0f7003fcb120080020000403c0000814000f9602000030e00000000001e3c000000007a
:0db117000000c020000000000000096120c1
:20b124000000000018a7265a400200001c896a00000800f0294000480069e8f70000007119
:20b14400972b14000001e01e99680000000c126df40000000000000000000265a800001473
:20b16400045da500c0050000683c0000a3600c896c0800000100000000003400000000001b
:0db184000001958402000000001c896c0091
:20b1910000000000f000be5800020402dddca0000150000a2c400004000160800000000883
:20b1b1008941c88000a3c282e96010402000000000000080000000000000032580000000a4
:20b1d10000100f000005900df9000000014282fe2000000709538840000024000000000072
:0db1f1000000000000000000000000000051
:20b1fe00000000008005225a40000000408c500003a3881fec40200000007aa0020000100f
:20b21e001832c448000000549968004110000000000001400000000085800225a400020ef3
:20b23e00380a0f00001080092e90000002605dae20000008015a61040000200000000000d3
:0db25e0000000000000000000000000000e3
:20b26b000000000000e0a258040000c2c39e40100000000ff1404000020020c100000010ff
:20b28b0001c000a000000002a96080000000bc1404000000000000000f0002a5802000008d
:20b2ab000000000000050001ac84800000664c0d800400194002e580000000000bd10800e6
:0db2cb000000000000000000000000000076
:20b2d8000000000001f5225a000000005fce4000000000577140000006007cc1020000d852
:20b2f800e168200c00000004896800005000563d404000000000000000000225a00002069a
:20b31800000000000002000926100000006661ee40200028005265a000000001ebd1000083
:0db338000000000000000000000000000008
:20b34500000000000000be580000c343808b10000000100f6c40000000001ba30100020025
:20b365000543fc0000702240c9600000000000000000400000000003000002a58040000cd3
:20b3850000000f00000000002e58000002402e0ff0000200000365800000000000000000ba
:0db3a500000000000000000000000000009b
:20b3b200000000000007225a8000020204db100800500e536c4840000e31cda30000000029
:20b3d200856bdc0800886040996a000800000000000000000000000003000265a000100c2e
:20b3f200001c0f0000000000225a0000020626ee50200400000225a000000000000000003d
:0db41200000000000000000000000000002d
:20b41f000000028000002258801002c0019b100000000c0431400022007c10c5000000001f
:20b43f00a0a68c0000000000d96000000f0e000000000000000000000000026588000002d4
:20b45f0000000f00000000002a5800000000070fa00000070903258000002602485300808b
:0db47f0000000000000004e00000000000dc
:20b48c00000001000001a25a0010000216ab10000000091731488040007c6ac50380000038
:20b4ac0013ea8c01000000009968000000010000000000000000000003800225a000001694
:20b4cc00000c0f0000000080265a0000000016ae502000001f0225a000003e020ca30080bc
:0db4ec000000000000000a00000000000049
:20b4f9000000040000b02e58000002c00100f008000900521c82000600383da310000059be
:20b51900906b900200080002996000000000000000000a00000000000110032580000000bf
:20b5390000000f00000070e02a58000000029c0fa00000000003a58200000020100f000259
:0db5590000000000000000000000000000e5
:20b56600000004000001265a000002e00080f000000d9e866c4000001c696da30000001963
:20b58600d5bf9000000002949968000050000000000080000000000000080265a0400000cb
:20b5a600001e0f0000007191a65a00000960158a000000059a1225a00000006c080f100045
:0db5c6000000000000000000c000000000b8
:20b5d30000000000f1f02258200001c3420e409800050c0eb1400040142c0000000002500f
:20b5f300007a8c2000016000b9600001800e00000000000000000000000003a5800480005d
:20b6130000000f00000000a026580004002280000000000d0003658000001c000000000033
:0db63300000000000000000000000000000a
:20b640000000000000e5225a0000014046ae402000080f177148000c200000000000385059
:20b66000077a8c020003e3009968000000010000000200000000000001000265a8040000bd
:20b68000701c0f00003801c0265a000a01e2000000004008000225a000002060000000001a
:0db6a000000000000000000000000000009d
:20b6ad00000000000890be58040000303c000014002b09575c82000800680000000000f181
:20b6cd00e943c80000e00002a96000038710d0280000080000000000000003a582080000b2
:20b6ed000010fa000200b8d03658000002c2818d120001800003e5800100003e6b21010082
:0db70d00000000000000000004000000002b
:20b71a00000002801811a25a000040670ea082a0000d0106ec4000000c7c0000000000f930
:20b73a0089e3d4080200039489680000081e363d480040000000001000000225a00a020019
:20b75a0001defa6000001811a25a000002c054bd10004000001265a0000000054984004025
:0db77a00000000000000000006800000003c
:20b7870010000000d0002258300005c3eca53010000b800e28c04000000039c5080000d0e8
:20b7a7009702a8000000000209602000000000000000000000000000000902e58140000005
