:02000000ff00ff
:080002004c6174746963650030
:17000a00694345637562653220323031372e30382e32373934300069
:15002100506172743a2069434534304c50384b2d434d3831003f
:1a003600446174653a20466562203420323032302031393a35323a343700c3
:0200500000ffaf
:040052007eaa997e6b
:02005600510057
:020058000105a0
:03005a00920020f1
:03005d00620367d4
:030060007201101a
:0300630082000018
:02006600110087
:02006800010194
:20006a00000000000000000000000000000000002000000000000000000000000000000056
:20008a00000000000000000000000000000000000000000000000000000000000000000056
:2000aa00000000000000000000000000000000000000000000000000000000000000000036
:0d00ca000000000000000000000000000029
:2000d700000000000000000000000000000000000000000000000000000000000000000009
:2000f7000000000000000000000000000000000000000000000000000000000000000000e9
:200117000000000000000000000000000000000000000000000000000000000000000000c8
:0d01370000000000000000000000000000bb
:2001440000000000000000000000000000000000100000000000000000000000000000008b
:2001640000000000000000000000000000000000000000000000000000000000000000007b
:2001840000000000000000000000000000000000000000000000000000000000000000005b
:0d01a400000000000000000000000000004e
:2001b10000000000000000000000000000000000000000000000000000000000000000002e
:2001d10000000000000000000000000000000000000000000000000000000000000000000e
:2001f1000000000000000000000000000000000000000000000000000000000000000000ee
:0d02110000000000000000000000000000e0
:20021e000000000000000000000000000000000020000000000000000000000000000000a0
:20023e000000000000000000000000000000000000000000000000000000000000000000a0
:20025e00000000000000000000000000000000000000000000000000000000000000000080
:0d027e000000000000000000000000000073
:20028b00000000000000000000000000000000000000000000000000000000000000000053
:2002ab00000000000000000000000000000000000000000000000000000000000000000033
:2002cb00000000000000000000000000000000000000000000000000000000000000000013
:0d02eb000000000000000000000000000006
:2002f8000000000000000000000000000000000000000000000000000000000000000000e6
:200318000000000000000000000000000000000000000000000000000000000000000000c5
:200338000000000000000000000000000000000000000000000000000000000000000000a5
:0d0358000000000000000000000000000098
:20036500000000000000000000000000000000000000000000000000000000000000000078
:20038500000000000000000000000000000000000000000000000000000000000000000058
:2003a500000000000000000000000000000000000000000000000000000000000000000038
:0d03c500000000000000000000000000002b
:2003d20000000000000000000000000000000000000000800000000000000000000000008b
:2003f2000000000000000000000000000000000000000000000000000000000000000000eb
:200412000000000000000000000000000000000000000000000000000000000000000000ca
:0d04320000000000000000000000000000bd
:20043f0000000000000000000000000000000000000000000000000000000000000000009d
:20045f0000000000000000000000000000000000000000000000000000000000000000007d
:20047f0000000000000000000000000000000000000000000000000000000000000000005d
:0d049f000000000000000000000000000050
:2004ac00000000000000000000000000000000000000000000000000000000000000000030
:2004cc00000000000000000000000000000000000000000000000000000000000000000010
:2004ec000000000000000000000000000000000000000000000000000000000000000000f0
:0d050c0000000000000000000000000000e2
:200519000000000000000000000000000000000020000000000000000000000000000000a2
:200539000000000000000000000000000000000000000000000000000000000000000000a2
:20055900000000000000000000000000000000000000000000000000000000000000000082
:0d0579000000000000000000000000000075
:20058600000000000000000000000000000000000000000000000000000000000000000055
:2005a600000000000000000000000000000000000000000000000000000000000000000035
:2005c600000000000000000000000000000000000000000000000000000000000000000015
:0d05e6000000000000000000000000000008
:2005f3000000000000000000000000000000000010000000000000000000000000000000d8
:200613000000000000000000000000000000000000000000000000000000000000000000c7
:200633000000000000000000000000000000000000000000000000000000000000000000a7
:0d065300000000000000000000000000009a
:2006600000000000000000000000000000000000000000400000000000000000000000003a
:2006800000000000000000000000000000000000000000000000000000000000000000005a
:2006a00000000000000000000000000000000000000000000000000000000000000000003a
:0d06c000000000000000000000000000002d
:2006cd000000000000000000000000000000000020000000000000000000000000000000ed
:2006ed000000000000000000000000000000000000000000000000000000000000000000ed
:20070d000000000000000000000000000000000000000000000000000000000000000000cc
:0d072d0000000000000000000000000000bf
:20073a0000000000000000000000000000000000000000000000000000000000000000009f
:205c15000000000000000000000000038000000000000000000000000000000000000000ec
:205c350000000000000000000000000000000000000000000000000000000000000000004f
:0d5c55000000000000000000000000000042
:205c6200000000000000000000000000000000000000000000000000000000000000000022
:205c8200000000000000000000000000000000000000000000000000000000000000000002
:205ca2000000000000000000000000000000000000000000000000000000000000000000e2
:0d5cc20000000000000000000000000000d5
:205ccf000000000000000000000000000000000000000000000000000000000000000000b5
:205cef00000000000000000000000000000000000000000000000000000000000000000095
:205d0f00000000000000000000000000000000000000000000000000000000000000000074
:0d5d2f000000000000000000000000000067
:205d3c00000000000000000000000000000000000000000000000000000000000000000047
:205d5c00000000000000000000000000000000000000000000000000000000000000000027
:205d7c00000000000000000000000000000000000000000000000000000000000000000007
:0d5d9c0000000000000000000000000000fa
:205da9000000000000000000000000000000000000000000000000000000000000000000da
:205dc9000000000000000000000000000000000000000000000000000000000000000000ba
:205de90000000000000000000000000000000000000000000000000000000000000000009a
:0d5e0900000000000000000000000000008c
:205e160000000000000000000000000000000000000000000000000000000000000000006c
:205e36000000000000000000000000008000000000000000000000000000000000000000cc
:205e560000000000000000000000000000000000000000000000000000000000000000002c
:0d5e7600000000000000000000000000001f
:205e83000000000000000000000000000000000000000000000000000000000000000000ff
:205ea3000000000000000000000000000000000000000000000000000000000000000000df
:205ec3000000000000000000000000000000000000000000000000000000000000000000bf
:0d5ee30000000000000000000000000000b2
:205ef000000000000000000000000000000000000000000000000000000000000000000092
:205f1000000000000000000000000000000000000000000000000000000000000000000071
:205f3000000000000000000000000000000000000000000000000000000000000000000051
:0d5f50000000000000000000000000000044
:205f5d00000000000000000000000000000000000000000000000000000000000000000024
:205f7d00000000000000000000000000000000000000000000000000000000000000000004
:205f9d000000000000000000000000000000000000000000000000000000000000000000e4
:0d5fbd0000000000000000000000000000d7
:205fca000000000000000000000000000000000000000000000000000000000000000000b7
:205fea000000000000000006896800000000000000000000000000000000000000000000a0
:20600a00000000000000000000000000000000000000000000000000000000000000000076
:0d602a000000000000000000000000000069
:20603700000000000000000000000000000000000000000000000000000000000000000049
:20605700000000000000000209602400000000000000000000000008000000000000000092
:20607700000000000000000000000000000000000000000000000000000000000000000009
:0d60970000000000000000000000000000fc
:2060a4000000000000000000000000000000000000000000000000000000000000000000dc
:2060c400000000000000020e996800000000000000000000000000000000000000000000ab
:2060e40000000000000000000000000000000000000000000000000000000000000000009c
:0d610400000000000000000000000000008e
:2061110000000000000000000000000000000000000000000000000000000000000000006e
:206131000000000000000400e96004000000000000000000000000000000000000000200fb
:206151000000000000000000000000000000000000000080000000000000000000000000ae
:0d6171000000000000000000000000000021
:20617e00000000000000000000000000000000000000000000000000000000000000000001
:20619e000000000000000000996800000000000000000000000000000000000000000000e0
:2061be000000000000000000000000000000000000000000000000000000000000000000c1
:0d61de0000000000000000000000000000b4
:2061eb00000000000000000000000000000000000000000000000000000000000000000094
:20620b000000000000000000d9600400000000000000000000000000000000000000000036
:20622b00000000000000000000000000000000000000000000000000000000000000000053
:0d624b000000000000000000000000000046
:20625800000000000000000000000000000000000000000000000000000000000000000026
:20627800000000000001e016996800000000000000000000000000004000000000000000ce
:206298000000000000000000000000000000000000000040000000000000000000000000a6
:0d62b80000000000000000000000000000d9
:2062c5000000000000000000000000000000000000000000000000000000000000000000b9
:2062e5000000000000000000d960040000000000000000000000000000000000000000005c
:20630500000000000000000000000000000000000000000000000000000000000000000078
:0d632500000000000000000000000000006b
:2063320000000000000000000000000000000000000000000000000000000000000000004b
:206352000000000000000380896800000000003fc840000000000000000000000000000070
:2063720000000000000000000000000000000000000000000000000000000000000000000b
:0d63920000000000000000000000000000fe
:20639f000000000000000000000000000000000000000000000000000000000000000000de
:2063bf000000000000000000e96200000000003fc0400000000000005000000000000000e4
:2063df0000000000000000000000000000000000000000000000000000000000000000009e
:0d63ff000000000000000000000000000091
:20640c000000000000000000000000000000000000000000000000000000000000028000ee
:20642c0000000000000003808968000000000000000000000000000040000000000000009c
:20644c00000000000000000000000000000000000000000000000000000000000000000030
:0d646c000000000000000000000000000023
:20647900000000000000000000000000000000000000000000000000000000000001000002
:206499000000000000024340d9600400000000000000000000000000000000000000000021
:2064b9000000000000000000000000000000000000000000000000000000000000000000c3
:0d64d90000000000000000000000000000b6
:2064e600000000000000000000000000000000000000000000000000800000000000000016
:20650600000000000001c79e8968000000000000000000000000000000000000000000001e
:20652600000000000000000000000000000000000000000000000000000000000000000055
:0d6546000000000000000000000000000048
:20655300000000000000000000000000000000000000000000000000000000000000000028
:206573000000000000000380f9600400000000000000000000000000000000000000000028
:206593000000000000000000000000000000000000000000000000000000000000000000e8
:0d65b30000000000000000000000000000db
:2065c0000000000000000000000000000000000000000000000000000000000000000000bb
:2065e000000000000002001689680000000000000000000000000000000000000000000092
:2066000000000000000000000000000000000000000000000000000000000000000000007a
:0d662000000000000000000000000000006d
:20662d0000000000000000000000000000000000000000000000000000000000000000004d
:20664d000000000000014000f9620000000000000000000000000000000000000000000091
:20666d0000000000000000000000000000000000000000000000000000000000000000000d
:0d668d000000000000000000000000000000
:20669a000000000000000000000000000000000000000000000000000000000000000000e0
:2066ba000000000000000016996a00000000000000000000000000000000000000000000a7
:2066da000000000000000000000000000000000000000000000000000000000000000000a0
:0d66fa000000000000000000000000000093
:20670700000000000000000000000000000000000000000000000000000000000000000072
:206727000000000000000000e96040000000000000000000000000000000000000000000c9
:20674700000000000000000000000000000000000000000000000000000000000000000032
:0d6767000000000000000000000000000025
:20677400000000000000000000000000000000000000000000000000000000000000000005
:206794000000000000020006996800000000000000000000000000200000000000000000bc
:2067b4000000000000000000000000000000000000001000000000000000000000000000b5
:0d67d40000000000000000000000000000b8
:2067e100000000000000000000000000000000000000000000000000000000000000000098
:206801000000000000024000c96004000000000000000000000000100000000000000000f8
:2068210000000000000000000000000000000000000008000000000000000000000000004f
:0d684100000000000000000000000000004a
:20684e0000000000000000000000000000000000000000000000000000000000000000002a
:20686e00000000000000039699680000000000000000000000000000000000000000000070
:20688e000000000000000000000000000000000000000000000000000000000000000000ea
:0d68ae0000000000000000000000000000dd
:2068bb000000000000000000000000000000000000000000000000000000000000000000bd
:2068db000000000000000000f9600400000000000000000000000000000000000000000040
:2068fb0000000000000000000000000000000000000000000000000000000000000000007d
:0d691b00000000000000000000000000006f
:2069280000000000000000000000000000000000000000000000000000000000000000004f
:20694800000000000002000699680000000000000000000000000000000000000000200006
:2069680000000000000000000000000000000000000000000000000000000000000000000f
:0d6988000000000000000000000000000002
:206995000000000000000000000000000000000000000000000000000000000000000000e2
:2069b5000000000000024000f96000000040000000000000000000002000000000000000c7
:2069d5000000000000000000000000000000000000000000000000000000000000000000a2
:0d69f5000000000000000000000000000095
:206a0200000000000000000000000000000000000000000000000000000000000000000074
:206a220000000000000000169968100000000000000000000000000000000000000000002d
:206a4200000000000000000000000000000000000000000000000000000000000000000034
:0d6a62000000000000000000000000000027
:206a6f00000000000000000000000000000000000000000000000000000000000000000007
:206a8f000000000000000000c96000000000000000000000000000000000000000000000be
:206aaf000000000000000000000000000000000000000000000000000000000000000000c7
:0d6acf0000000000000000000000000000ba
:206adc0000000000000000000000000000000000000000000000000000000000000000009a
:206afc00000000000001c006896800000000000000000000000000000000000000000000c2
:206b1c00000000000000000000000000000000000000000000000000000000000000000059
:0d6b3c00000000000000000000000000004c
:206b490000000000000000000000000000000000000000000000000000000000000000002c
:206b6900000000000001c000f96200000000000000000000000000000000000000000000f0
:206b89000000000000000000000000000000000000000000000000000000000000000000ec
:0d6ba90000000000000000000000000000df
:206bb6000000000000000000000000000000000000000000000000000000000000000000bf
:206bd600000000000001e016896800000000000000000000000000000000000000000000b7
:206bf60000000000000000000000000000000000000000000000000000000000000000007f
:0d6c16000000000000000000000000000071
:206c2300000000000000000000000000000000000000000000000000000000000000000051
:206c43000000000000000380b9600400000000000000000000000000000000000000000091
:206c6300000000000000000000000000000000000000000000000000000000000000000011
:0d6c83000000000000000000000000000004
:206c90000000000000000000000000000000000000000000000000000000000000000000e4
:206cb000000000000000e21c99680000000000000000400000000000000000000000000085
:206cd0000000000000000000000000000000000000000000000000000000000000000000a4
:0d6cf0000000000000000000000000000097
:206cfd00000000000000000000000000000000000000000000000000000000000000000077
:206d1d000000000000002640a96008000000000000002000000000000000000000000000bf
:206d3d00000000000000000000000000000000000000000000000000000000000000000036
:0d6d5d000000000000000000000000000029
:206d6a00000000000000000000000000000000000000000000000000000000000000000009
:206d8a00000000000000000e896800000000000000000000000000000000000000000000ea
:206daa000000000000000000000000000000000000000000000000000000000000000000c9
:0d6dca0000000000000000000000000000bc
:206dd70000000000000000000000000000000000000000000000000000000000000000009c
:206df7000000000000000002c9604000000000000000000000000000000000000000000011
:206e170000000000000000000000000000000000000000000000000000000000000000005b
:0d6e3700000000000000000000000000004e
:206e440000000000000000000000000000000000000000000000000000000000000000002e
:206e6400000000000000000c89680000000000000000000000000000000000000000000011
:206e84000000000000000000000000000000000000000000000000000000000000000000ee
:0d6ea40000000000000000000000000000e1
:206eb1000000000000000000000000000000000000000000000000000000000000000000c1
:206ed1000000000000000000d9600002000000000000000000000010000000000000000056
:206ef100000000000000000000000000000000000000000000000000000000000000000081
:0d6f11000000000000000000000000000073
:206f1e00000000000000000000000000000000000000000000000000000000000000000053
:206f3e00000000000000000c89680000000a0000000000000000000000000000000000002c
:206f5e00000000000000000000000000000000000000000000000000000000000000000013
:0d6f7e000000000000000000000000000006
:206f8b000000000000000000000000000000000000000000000000000000000000000000e6
:206fab000000000000004000c961000000100000000000000000000000000000000000004c
:206fcb000000000000000000000000000000000000000000000000000000000000000000a6
:0d6feb000000000000000000000000000099
:206ff800000000000000000000000000000000000000000000000000000000000000000079
:20701800000000000000000e89680000000000000000400000000000000000000000000019
:20703800000000000000000000000000000000000000000000000000000000000000000038
:0d705800000000000000000000000000002b
:2070650000000000000000000000000000000000000000000000000000000000000000000b
:207085000000000000000000a9600400100000000000a0000000000000000000000000002e
:2070a5000000000000080000000000000000000000000000000000000000000000000000c3
:0d70c50000000000000000000000000000be
:2070d20000000000000000000000000000000000000000000000000000000000000000009e
:2070f200000000000203e71e89680000001837b1480000000000000000000000000000003b
:2071120000000000000000000000000000000000000000000000000000000000000000005d
:0d7132000000000000000000000000000050
:20713f00000000000000000000000000000000000000000000000000000000000000000030
:20715f00000000000403c400c960000000100af140000000000000000000000000000000d1
:20717f000000000000000000000000000000000000000000000000000000000000000000f0
:0d719f0000000000000000000000000000e3
:2071ac000000000000000000000000000000000000000000000000000000000000000000c3
:2071cc00000000000003770e896804005000004f0200010000000000000000000000000084
:2071ec00000000000000000000000000000000000000000000000000000000000000000083
:0d720c000000000000000000000000000075
:20721900000000000000000000000000000000000000000000000000000000000000000055
:20723900000000000003c742a96000000000038f000000000000000000000000000000008e
:20725900000000000000000000000000000000000000000000000000000000000000000015
:0d7279000000000000000000000000000008
:207286000000000000000000000000000000000000000000000000000000000000000000e8
:2072a600000000000000431489680000200000000000000000000000000000000000000060
:2072c6000000000000000000000000000000000000000000000000000000000000000000a8
:0d72e600000000000000000000000000009b
:2072f30000000000000000000000000000000000000000000000000000000000000000007b
:207313000000000000002400e96004004000000000000000000000000000000000000000a9
:2073330000000000000000000000000000000000000000000000000000000000000000003a
:0d735300000000000000000000000000002d
:2073600000000000000000000000000000000000000000000000000000000000000000000d
:20738000000000000002001c9c0004300000000000004000000000000000000000000000bf
:2073a0000000000000000000000000000000000000000000000000000000000000000000cd
:0d73c00000000000000000000000000000c0
:2073cd000000000000000000000000000000000000000000000000000000000000000000a0
:2073ed00000000000002c016c03000298700000000002000000000000000000000010000e7
:20740d0000000000000000000000000000000000000000000000000000000000000000005f
:0d742d000000000000000000000000000052
:02743a00000050
:02743c0011013c
:02743e0001014a
:2074400000000000000000000000000000000000000000000000000000000000000200002a
:2074600000000000000000000000000000000000000000000000000000000000000000000c
:207480000000000000000000000000000000000000000000000000000000000000000000ec
:0d74a00000000000000000000000000000df
:2074ad000000000000000000000000000000000000000000000000000000000000000000bf
:2074cd0000000000000000000000000000000000000000000000000000000000000000009f
:2074ed0000000000000000000000000000000000000000000000000000000000000000007f
:0d750d000000000000000000000000000071
:20751a00000000000000000000040000000000000000000000000000000000000001002c20
:20753a00000000000000000000000000000000000000000000000000000000000000000031
:20755a00000000000000000000000000000000000000000000000000000000000000000011
:0d757a000000000000000000000000000004
:207587000000000000000000000000000000000000000000000000000000000000000020c4
:2075a7000000000000000000000000000000000000000000000000000000000000000000c4
:2075c7000000000000000000000000000000000000000000000000000000000000000000a4
:0d75e7000000000000000000000000000097
:2075f400000000000000000000000000000000000000000000000000000000000002000075
:20761400000c0000000000000000000000000000000000000000000000000000000000004a
:20763400000000000000000000000000000000000000000000000000000000000000000036
:0d7654000000000000000000000000000029
:20766100000000000000000000000000000000000000000000000000000000000000000009
:207681000004000000000000000000000000000000000000000000000000000000000000e5
:2076a1000000000000000000000000000000000000000000000000000000000000000000c9
:0d76c10000000000000000000000000000bc
:2076ce0000000000000000000000000100000000000000000000000000000000000000009b
:2076ee0000000000000000000000000000000000000000000000000000000000000000007c
:20770e0000000000000000000000000000000000000000000000000000000000000000005b
:0d772e00000000000000000000000000004e
:20773b0000000000000000000000000000000000000000000000000000000000000000002e
:20775b0000000000000000000000000000000000000000000000000000000000000000000e
:20777b000000000000000000000000000000000000000000000000000000000000000000ee
:0d779b0000000000000000000000000000e1
:2077a8000000000000000000000000001000000000000000000000000000000000000000b1
:2077c800000000000000002000000000000000000000000000000000000000000000000081
:2077e800000000000000000000000000000000000000000000000000000000000000000081
:0d7808000000000000000000000000000073
:20781500000000000000000000000000000000000000000000000000000000000000000053
:20783500000000000000000000000000000000000000000000000000000000000000000033
:20785500000000000000000000000000000000000000000000000000000000000000000013
:0d7875000000000000000000000000000006
:207882000000000000000000000000000000000000000000000000000000000000000000e6
:2078a2000000000000000000000000000000000000000000000000000000000000000000c6
:2078c2000000000000000000000000000000000000000000000000000000000000000000a6
:0d78e2000000000000000000000000000099
:2078ef00000000000000000000000000000000000000000000000000000000000000000079
:20790f00000000000800000000000000000000000000000000000000000000000000000050
:20792f00000000000000000000000000000000000000000000000000000000000000000038
:0d794f00000000000000000000000000002b
:20795c0000000000000000000000000000000000000000000000000000000000000000000b
:20797c000000000000000000000000000000000000000000000000000000000000000000eb
:20799c000000000000000000000000000000000000000000000000000000000000000000cb
:0d79bc0000000000000000000000000000be
:2079c90000000000000000000000000000000000000000000000000000000000000000009e
:2079e90000000000040000000000000000000000000000000000000000000000000000007a
:207a090000000000000000000000000000000000000000000000000000000000000000005d
:0d7a29000000000000000000000000000050
:207a3600000000000000000000000000100000000000000000000000000000000000000020
:207a560004000000000000000000000000000000000000000000000000000000000000000c
:207a76000000000000000000000000000000000000000000000000000000000000000000f0
:0d7a960000000000000000000000000000e3
:207aa3000000000000000000000000000000000000000000000000000000000000000000c3
:207ac30000000000080000000000000000000000000000000000000000000000000000009b
:207ae300000000000000000000000000000000000000000000000000000000000000000083
:0d7b03000000000000000000000000000075
:207b10000000000000c00000000000000000000000000f0ab4400000002400000000005014
:207b300000c3dc0000000200000000000000f354001000000000000000000000000000003d
:207b5000035bf00010001000825802000000040aa00000000000000000000000000000001d
:0d7b70000000000000000000000000000008
:207b7d00000000005810000000000000000000000000005334401000000000000000008029
:207b9d000323dc08000000000000000000001ef49400000000000000000000000000000018
:207bbd00625af80030009805a2590004084000a552000000000000000000000000000008e1
:0d7bdd00000000000000000000000000009b
:207bea00000000000100000000000040000a5000000100000000000002000000000000508d
:207c0a0000af1400000002038d100000000f000000000000000000002000000000002000a6
:207c2a00000000000000100082580000000407cff01000000900000000000070100f0800d6
:0d7c4a00000000000000000000000000002d
:207c5700000000000080000000000260040a5400000398000000000004000000000000d852
:207c770001fb1420000062148d100000000100000000000000000000500000000000401efb
:207c97000000000000009805a25b000000632dbf7000000000000000000000600e0f0000f7
:0d7cb70000000000000000000000000000c0
:207cc40000000000000000000000002015cdf00000000000000000000000000000000000ae
:207ce400c0000000000000050720000000001420000000000000000000000000000000045c
:207d04000070c3080000700002580000014000000000000000000000000000000000000019
:0d7d24000000000000000000000000000052
:207d31000000000030000000000000e0249ff0000000180000000000000000000000000057
:207d510010000000000160208b123000001816a8008000000000000000000000000000045a
:207d710003e8d10200000007a25b00000200000000008000000000000000000000000000ae
:0d7d910000000000000000000000000000e5
:207d9e0000000000000000000000000000000000000f0f97afc000000040505500000000bc
:207dbe00a03714000014401eb0001000000006684000000000000040000000000000008218
:207dde0002405200000500000258000000031ddf000000010004154000001c03e0c3000077
:0d7dfe000000000000000010000000000068
:207e0b0000000000100000000000000000000000000801dfbbc8000c007b6ca560000000e4
:207e2b00177f14200000001fc082000000001ee84000000000000000000000000000005c6a
:207e4b007a6ab50200020007a25b000001e6cd8f820000038053954000000070cacb0200ff
:0d7e6b00000000000000000000000000000a
:207e780000000000000303fc800000c000000000000700fc3d4220001c025be300000000aa
:207e9800900000000000400000000000008a0000000000000000000000000000000000026e
:207eb8003ccdee0000000080825800000163a50ff000000000973dc000001c0140aa1000a6
:0d7ed800000000000000000000000000009d
:207ee5000000000001cd7bf408000200000000000007009ba810000000024ae700000000a9
:207f0500100000000003400000000000078a00000000000000000000000000000000000672
:207f25002afa770000000195225b000001e677af702000000832bfc0000000020c550000d5
:0d7f4500000000000000000000000000002f
:207f52000000000030ddac000000000000000000000b1053484020003c7c00000000040084
:207f720000bb140400024380aa300400000000000000000000000000000000000000001465
:207f92002010a300000000808258000000041c0e700000010d00000000002c0000000000ca
:0d7fb20000000000000000000000000000c2
:207fbf000000000439d536000000000000000000000018f2210000000060000000000000cf
:207fdf0085fb140000020715ba300000000000000000000000000000000000000000001cca
:207fff0000daa30200000195225b000001c72daef02000080b0000000000200000000000ea
:0d801f0000000000000000a00000000000b4
:20802c0000000000300fa884008000000009600200000a0365800800044010c000000001cf
:20804c000000000000026002fc500200090a0000000000000000000000000000000000004f
:20806c002b40a00020000000025800000240030550020000000000000000140000a300001c
:0d808c0000000000000000000000000000e7
:2080990000000000000f221080a000001c8965028007015a65a00a00202008c0020000015e
:2080b900800000000002601d8c500280050100000000000000000000000000000000001430
:2080d900014ef50028000007225b000042071ca550028000000000000000202858a3020076
:0d80f900000000000000000000000000007a
:20810600000001000000a258100022c340096040000900022581400e24242ec51001000035
:20812600800000000002468e00f04000050000000000000000000000000000000000003c72
:20814600200000000000000002581000000000000000000080d43e8000001400d0a50000f4
:0d8166000000000000000008000000000004
:20817300000000000007a65a800002405c896e000008001a25a000002005eac50002800093
:20819300100000000000071e8f000000050000000000000000000000000000000000000003
:2081b3000400000000000007225b000000e00000000000039a92a8100000200178f00000d4
:0d81d300000000000000001400000000008b
:2081e00000000000f0e0a258000a00400209600000000a02a580000016001ac50000025088
:20820000803cf08000000282b960000001990fb9000000000000000000000000000000141f
:2082200028d0aa001300100082588000024434072000000f8900000000000220e0a0000044
:0d8240000000000000000000000000000031
:20824d00000000008017225a400062061e896d000000013225a000001e29eec500001180bf
:20826d000004f000000166c68968000009997af904000000000000000000000000000014b2
:20828d000208550010009801a25b0000036201eb1030000900000000000016045ef5600065
:0d82ad0000000000000000000000000000c4
:2082ba00000000000000b6580000004002096000000b00032580000096280fb1000000506a
:2082da000d81000000014002a9600000091932328000040000000008000b00000000402429
:2082fa0023407200000010008258000011e00305500000000f143d400000004350a0000089
:0d831a000000000000000000000000000056
:208327000000000000e3265a4000026016896d00000d807265a000017461ccb1000000804e
:208347000de204080002001489680000081987b148000000000000100001000000000e2034
:20836700020eb10202009805a25b04000a6014855010000001b6a8120000007948f5000009
:0d83870000000000000000000000000000e9
:208394000000000011f03a580104000000096000080900036580000000400000000000503f
:2083b400a0f3440000000000e96000280900141c80000000000000000000000000000002a6
:2083d40028305500000000000258040003c40000000000001e141c800008340000000000ad
:0d83f400000000000000000000000000007c
:208401000000000001e0265a000a000016896d0000001a0265a0000000280000000000504b
:208421000567448000c0000089680010080003ac40800000000000000000000000000004cf
:20844100057c550000000007a25b040002028000000000001d032c4080000060000000004d
:0d846100000000000000000000000000000e
:20846e0000000000000032588000000000096000000b0002658000000200003c000000004b
:20848e00ad37880004000000f96000000008183fc200000000000040000092e940000014d5
:2084ae002ae0ff200080000002580000024283055000000f0a00154000a040000000000041
:0d84ce00000000003c000000000000000065
:2084db000000000000e0265a000000001e896c0000080e0225a000001e68003c22000058f5
:2084fb00006b44800a016000996800000001fbb94080000000000000000096304000001437
:20851b0029ecf70301000007a25b0000020047a5500000090917954000008c7800000000ec
:0d853b00000000283c0400000000000000cb
:20854800000000000000b658000200020209600000000003e58000000001f80400003830c9
:20856800a0ba8c40000002c2c9600000050d0030000000000000000000000000000000029c
:2085880001cdff000000f080825800000003ef0a500000000a0015400000b5280000000034
:0d85a80000000000000000000000000000c6
:2085b500000000000007265a4000006054896c000000003265a0000000035e0a1000000183
:2085d500b3f28c0000000004896a0000000107b00080000000000000000000000000000422
:2085f50032def70000008015225b000000002de5222000000017954000000000000000000d
:0d8615000000000000000000000000000058
:208622000000000000e022588000000202096000000f0003a580004036403ea300800000a3
:20864200b073904000002240e960000000800ea8c0000000000000000010140d40400024af
:2086620000005508000800000258000000028c0ff000000000bf3fc000001600d0c3000045
:0d86820000300000000000000000000000bb
:20868f00000000000010225a0000000654896c000000000225a000000c28e8a30800000161
:2086af00b7af90000001400099680000038a5ba8c000000000000000000c838e80800020e6
:2086cf00006a550000000185a25b80000003bdef7020000100f73dc00000346b7ed10200a5
:0d86ef0000800000000000000000000000fe
:2086fc00000000000000be580084000000096000000080022580000000001dc5000000f062
:20871c00d000000000000342f9600000070e0fac4400000000000000018e1e34c000000218
:20873c0000000000200030e0025800000000240da00200070eb43d4008000002c0f80000b8
:0d875c000000000000000000000000000010
:20876900000000000007265a40a200001c896c000001803265a000000c014ec5000030501e
:208789000000000000000044996800000000166c40000000000000000b001ae9c0000004f7
:2087a9000000000028008017225b800001c39cca50228000005228100a000000eae0020078
:0d87c90000000000000000000000000000a3
:2087d60000000000d8008258080000000009604000000f082580800002002fb10000000002
:2087f600013198000000020209602000050a0368c000000000000000008000000000000052
:2088160021505a0000000000025810000000350ff00000010a9c140000001c347fff000050
:0d8836000000000000000000000000000035
:2088430000000000f005225a800000001c896c000000003225a010001429d8b10000000046
:208863000b069440000000168968000005005fa8c00000000000000003000000000000003a
:20888300034ef00000000007225b80000006878f5000000980b7bd500000202d7c330000db
:0d88a30000000000000000000000000000c8
:2088b0000000300000000000000000400209600000099a06e8c040003428d9d8010000012d
:2088d000f003dc0000004003bc500000000072c8400000000000000001000003c20c003ce2
:2088f00028000000100010008258800000241c9d800300850008258400000040000f0000e1
:0d8910000500000000000000000000000055
:20891d000000300038000000000002061e896c0000038e73a8c00000146a1ae400000000cf
:20893d00f1b3dc080002039ecc50000010001a61084000000000000000000303c004000036
:20895d000400000011008001a25b000001c701ce4601000800722590000040780e0f000085
:0d897d0002000000000000000000000000eb
:20898a000000000010000000000004400209600000000a33bfc00000000010c508000078fd
:2089aa0090e744800000c394d66010000b0002658000000000000000009000000000408093
:2089ca0028308700000010008258000003c0368e70040000100025800000000240f50000dd
:0d89ea00000100403c000000000000000003
:2089f70000000000980000000000026016896c0000051afb4cc040000e00c8c5020000d088
:208a1700037b4400000000260a50000008007265a000000000000000071e00000000a14672
:208a37006c5c875200009805a25b400000000faef00000000c7a25a000000402caa04100fb
:0d8a5700001880603c80000000000000005e
:208a6400000001000000000000000000000960001007100ff1400000166c705500011000c9
:208a84000003800000000003ac50040000000225800000000000000000000000000080160f
:208aa4000070a10000000000025880000566420f510000090008258000000000c0a500009f
:0d8ac40000000043c0200000000000000082
:208ad10000000080000000000000000016896c0028080e53f140000014286aa500020800e3
:208af10005bb800800000604dc50000100000265a040000000000000000000000000401c43
:208b11002ac8b50200000005a25b80000a625fef500000059a1225a800010000005a000036
:0d8b31000000003bc100000000000000003b
:208b3e002402800000000000000000000009600000000a00000000000200003c000000d1ef
:208b5e000fc1400000004202cd1000000b00026580000000000000280f100000000000008d
:208b7e0075ebc300000000000258010000000000000008000008258000000400000f000091
:0d8b9e000000000000000000000100f200d7
:208bab000400000000000000000000001e896c0000238100000000041400003c2300000078
:208bcb00af63d4800000e05ced10000008000225a0000000000000100f8e0000000000006f
:208beb003cdfcb0000000007a25b000000068000000000005e3a25a0000024001a0f000050
:0d8c0b000000000000002000000080f600c6
:208c180000000000000000000000000202096000000700ba084200000043d9000040000068
:208c38000d43fc000002674c09900000050a02658000040000000000000000000000000088
:208c580040000000028000808258000a16e01700f08000000000258000001c034053000002
:0d8c780000000000000000000000000000ef
:208c850000030000000000000000006054896c000008009a61001000002bdf0800000059a5
:208ca500a56bdc08000266440a502000080a3265a000000000000000000000000000001e2e
:208cc5002800000001001815225b0004ca4007ca50000007001a25a0002000000ca30200d6
:0d8ce5000018000000000008000000000062
:208cf2000000000000000000000000020209600000001b0be580000002403cc5080000001f
:208d1200a0b34440080542650f000000000002e58000000000000000000077ffc200000008
:208d32000240720000000080825800000144170fa00000000008258000001428507200005d
:0d8d52000000000000000000000000000014
:208d5f0000000000000000000000000654896c0000000a7265a010001c28e9c500000058ca
:208d7f00113b440004014647af10200000000265a00000000000000000007b3dc0000080d4
:208d9f00021cb10200000195225b0000000724ca04000000003225a00000203008b10200d5
:0d8dbf0000000000000000000000000000a7
:208dcc00800020000000025804800000000960000200890aa580000c007819b1008030d117
:208dec00000000000000000daf3000000d0a026580000000000000000080000000080002f3
:208e0c003c205500210070e0025801800b436d0f01020baf00002580480000381055102008
:0d8e2c000001092388008000000000000004
:208e39000000a8000007225900a000001c896c000001017a65a0000000395cb10000000077
:208e59008000000000014015ee300000059b3225a00000000000000307800000000a0014c6
:208e7900007c550028b80017225b00a01000668f80229800003a25a00a4000005e55202871
:0d8e99000001c5b9d100a0000000000000dc
:208ea600000000000000025811000000000960400000000b6581200002001ec500000000a2
:208ec600b0403c0000024335bf300000000b002580800000000000000000702940000000ee
:208ee60020ffff00000200000258100000438005500000000c0025810000140350aa010006
:0d8f0600000000000000000004000000005a
:208f1300180000000007225b000000001c896c000000003a25a000000661e9c50800000174
:208f3300a0603c010002005fdf100000001a5a25a0000000000000000000363c00000000e6
:208f53007fdef72000000007225b0000020255c550000000013a25a0000000280a55000011
:0d8f73000050a000000000000200000000ff
:208f800000003000180082580100004002096000000000032580004016001aa30100001037
:208fa00000000000006242838e20000000000628c000000000000000008070168004003c28
:208fc00028000000100010008258050003c03f05000000000000258000000030000f00007f
:0d8fe00000000d7c88000000200000000053
:208fed0000003000b987a25b000002061e896c0000000a5225a010801401eba30100000087
:20900d0000000000000a00158e20000100007328c040000000000010010000295404001c2c
:20902d000400000030008187a25b000000000e8f54000005807225a0400000000e0f0000e0
:0d904d00000005a22100000040000000000e
:20905a000000000010008258010800400209600000050003e580000000280b3c000000700c
:20907a0000ff88000000400000f0000000109b40c0000000000000000f007c3fc4000000e6
:20909a0034000000000010008258010003d2b407200000000008258000002443d0a0000063
:0d90ba000000b0000000000003c10f001016
:2090c700000000009805a25b0000026016896c000028001265a040001c28003c20000080e3
:2090e700e5ab88000001c000a0f00000018eb230004000000000000008009715400000005b
:209107002800000000009805a25b00000006e18b10300005805a25a000002471ccf540009a
:0d91270000181000000020000001cf04001f
:209134000000000000000258000000000009600000200a00258000000042d0a0000000f0e7
:2091540080403c04006000050ca00000000002258000000000000000001000000000000033
:2091740000000000000030000258010001624305500000050000258000000020100f00006c
:0d91940000000000000004000400000000c6
:2091a100000000000005a25b0400000016896c000045803225a0000000295af500000070f9
:2091c10000683c0000000000ac50200000000265a000000000000000000e000000000000b9
:2091e1007800000000008005a25b000003c016c5501000081a7a25a000001e7c080f000064
:0d9201000000000000000000070000000059
:20920e000000000000000258010000000009600000550002a58000001e0020b10000000011
:20922e008003c020000240009e200000001b022580000000000000400000000000000c00af
:20924e000000000000000000025800000966c000f00000000008258000000000100f0000bb
:0d926e0000000d230c000000000100f100c5
:20927b00000000000007a25b000000001e896c000005000265a000001479ccb12200000084
:20929b00803bc1800060001dfe20000287980265a0000000000000000000000000000000f4
:2092bb000000000000000007a25b000007c201e0f0000000003a25a0000000301e0f000099
:0d92db0000180d67890000000000e0f000a1
:2092e80000000000008082580400000202096000000080026580400014405000010000004f
:2093080090403c0000024280fc50100000000aa580400000000000000000000000000e009c
:2093280000305500400200808258001000000d0aa000000b0e00258000005c6afca5000018
:0d93480000080143c000000000000000000c
:20935500180000001815225b0000006054896c000005005265a00000267ace0812000001a8
:20937500d0703c20000202dcdc50000100001a25a000000000000000000000000000000050
:20939500004e550000051815225b001020060dca56008008001a25a0000200677d30000086
:0d93b500005189eb002900000000000000bd
:2093c2000000000000808258040000020209600000000003658000003601d0000000800051
:2093e200a003c00000144400be400000050003e5800000000000000000000000000c4000f9
:2094020000105500000000808258020000002cce20100000000025800000003bd0f50000ba
:0d9422000510a08154000003c000000000f0
:20942f00000000000195225b0000100654896c000003800265a000001c635ca102010000a2
:20944f000073c18000000707ae40000008000225a000000000000000000000000004a000da
:20946f0071fe552000000195225b0000000021dd14000000005a25a0000000017aa040005a
:0d948f0002800531540000020000000000c2
:20949c000000200000000258008000000009600010001003a5800000022c10e000200000c7
:2094bc000b42802400000243ae200000090c0a258000000000000200000000000008001ca2
:2094dc0000000000203000000258808000042f0fa10000038000258008800038100f0020bc
:0d94fc0000180d41940280000000000000e7
:20950900000028000007225b02a000001c896c0020000a5225a00000040178e0022800001b
:2095290003ebd4000000e055ae20000055811a25a00004000000028000000000000a0020f8
:20954900000000002a800007225b00a001420eea0400004f003a25a40a021600180f002832
:0d95690000d0076a9508a000000000000077
:209576000000000000000258090000000009602000000000258080000041d0aa0000000009
:209596000b81400100002001be400400100000258080000000000000200000000000000070
:2095b60039f00a90000000000258880008026e0a00000050000025810001403be0f5000027
:0d95d6000000d9e888000000201c0a008079
:2095e300000000000007225b000000001c896c000003803a25a000000029e8a50000020099
:20960300037bd4020000e007ae40000025803225a000000000000003100e00000000000061
:2096230007dc505040000007225b0000140026ef54000020001a25a00000800158a04000ab
:0d9643000000053e20000000c024af5500cf
:2096500000000000000000000000000241ab100808058af0388060011e2030b1080000002d
:209670008f038822000002bc099000000f1f03e58000000000000000000c0403c0000000de
:2096900000000f0040000007016800080003bf0a00001000000025801080003b400f200038
:0d96b000005001c2a800c800402c00f000ce
:2096bd0000000000000000000000000004db101010019b83b4408000943c58b102000038d8
:2096dd00a87b4408000560440a502000001c02658040000000000000001f0683c40000002c
:2096fd00001a0f00000000000295000000076caf54002800003a25a000001c0748f04180d4
:0d971d000081a36a9500c403c0368f0600ca
:20972a000000000000002380000000400000f00400058a142a8000000c2fe000084080f028
:20974a0000b790000000428308000000000e03658000000000000000008ffc014200000027
:20976a004340a50040007000403c0000024015f400000000000025800000020028960000db
:0d978a0000d00f00000300000002a96100e4
:20979700000000000003af800000000001a0f00000099b3b294800003c02f80822013858ae
:2097b70005b790000000005fc800240000010225a0000600000000000781fe000000001e89
:2097d70078005a000000d800603c400003e6bc9020000000005225a000001e00e996c10022
:0d97f70000800f60940800000016996c00bf
:20980400000000000881c20080000042000000000000097fffc000202c401ca30001025052
:20982400a02a58000041422c0f500000000b03258000000000000000000c00000000001c19
:2098440000000f1000300800000000000142adae1000000d00082580000000342b9601004f
:0d9864000008a774000000000000896000eb
:20987100000040003819f204080000004000000000050bf33dc000403c79cba32002808083
:20989100102658000002469fce50200050000225a04000000000000000010000000000208c
:2098b100001c0f000100700000000000020041bd20000000005225a04000007ce896c100c9
:0d98d10000589b76000000000616996e00fe
:2098de0024028001f100f314000000020ed0300800050f3694c200003c38eb66100280f0cc
:2098fe00a03e5800020000019e400000000902e580000000000000000010bbd6885000004a
:20991e0000100f010000d0000000000003c6bf05500000000000258000003c00089601409c
:0d993e000050f0403c0000000000a9600057
:20994b000400000278e36b14040000007e9c001000058b0328c800040e63c0a50101001877
:20996b0000265a000400068efe40000007810265a800000000000000001e9ee4100000003f
:20998b0000080f0000000000000000000002c7ea54000000005a25a000003e006896c00083
:0d99ab00008010603c800000601e996e007e
:2099b8000000000008e00000000003c000b960000800107c3fc00020000039d110000050ae
:2099d800e03a58000000002e04001000001003e5840000000000000001000000000000023c
:2099f8000020fa000000000003c0000000403e0a009018270a0025800000003c0c9600424c
:0d9a1800850000003c400003e20099620060
:209a25000002000058100000000000000e8968041000187ebdc2804000014cd100000000b1
:209a450017225a0000016027aa402000000e0225a000000000000000080a00000000000ee7
:209a6500006efa600000000033c1010003c62eef54002050001225a000000001e896e00044
:0d9a85000001a0283c0000024056896c0042
:209a920000000000f100000000000003c0896000000180003cc0000080400be410010000da
:209ab20000365800000003819800000000000365800000000000000040000fb8860c000069
:209ad2004000000000000000003c80000004358dd01000250000258000001e7c2c96014467
:0d9af20000080003c000c0004400a960008f
:209aff000000000001e00000000200001c896800000d0002bcc080004028dee40000b8006a
:209b1f0000225a0000e00007f800000000000265a000000000000000200033b8800c00002d
:209b3f007000000000000000703c0000000236c7700000500a1225a0000e2c304896c0043e
:0d9b5f0000780073c10040020696996e0068
:209b6c0000004000f8f003cc000001c380e960002a0000b3d980000000301ec510000001fb
:209b8c000026580000c00382be200000000003a5800000000000020005100003c0080140cd
:209bac003c0000002000d0000154018000043c0a000000000e08258008003e002f96002067
:0d9bcc0000010000000080000000c96000e2
:209bd9000000800070106bcc8800020046896900100000f8694010001601eac510000001db
:209bf90083265a0000006007ee20001000000265a800000000000280001e0603c40a0080be
:209c190004000000280001e7615400a000022ecf56000000011a25a80a402c014996c0a8c7
:0d9c39000051c0000000a0006016896e0000
:209c46001000000000006f14000001c000996240000d000768c0000000203ca3080000002c
:209c66000032580800014024de201000000003e58140000000000010000000168000014049
:209c860000000000000500000000000001c000000000001f0008258080003c000e96044088
:0d9ca60000080000000000000000a961405f
:209cb3000000000000036b14800000001c99680000000037e8c210000024dea300000000dc
:209cd30000265a0000020020fd10000300000265a000000000000028050010168400008061
:209cf3007000000000020000000000000006800000000025005a25a0000000314896c00046
:0d9d130000780000000000000614996c00ac
:209d200000000000f8d00000000003428089620000059004314000003e381fa30000000069
:209d400000003c80000000039e2000004000032580000000000000000909f22a400000022e
:209d600000000f00000000e0403c0000004224dde01010200c0403c000213c640b960002de
:0d9d80008050a3fc000040000002e96000dc
:209d8d000000000070100000000000000c89680010070a3bb148e000046459a300000000a0
:209dad0000703c000000c016ee20000020000265a040000000000000000092655000000652
:209dcd00001e0f1000000010283c400002005c9844002010010703c04000be79e896c1009a
:0d9ded0000d1b37e000040e06016896d00db
:209dfa0000000000008bac84200003c00099600000009d076c40000000380000000000002a
:209e1a000bc2a8400004000000000000100f036580400000000000281f0cb29580004002cc
:209e3a0000000000000000a943d40400000036e9a00000000a0003c0000000000a96000018
:0d9e5a000050a000000000024000d962008e
:209e670000000000000f261000002000049968000003993bec40000000040000000000006a
:209e870005629404000002800000000020010225a0000000000000102809b2657000000486
:209ea700000000000010701df281040000e01e8a6c000000010283c000008001e996c1008c
:0d9ec70000d8b00000000000601c996c0085
:209ed4000000000000d0be582000016000e9600000050a04314000002442cf2118000010bc
:209ef400a028f0000000000000f00000078e02258000000000000000008f73c48000000c18
:209f140000000f20000001092100000a000034cde00000000a083d40000082382b960000de
:0d9f340000000740000000004200e960103e
:209f4100000000000011a65a0000a1c000896800000d0017314080002022e88400000000da
:209f61000000f08000000001e0f000008f810225a0400000000000000589da2df000003ec5
:209f8100001a0f00000001c13c08000000663c984c1000000112bd4000001e044996c10029
:0d9fa1000000efea00080002005e896e007b
:209fae00000000000000b65800000340000960000000007c2a80000040002e9600000008a7
:209fce0080c280000420000100f00000000f032580000000000000001700d2958000a01631
:209fee000340a52000005107a0000000000034e9a0000000000403c00000023c08960141b1
:0da00e000000afc1480000000380c96000e1
:20a01b00000000007805a65a010000001e89680000201a5e2948000000016996800002719c
:20a03b00e1b280000a000300c0f0000000000265a010000000000000031eba657000403cf2
:20a05b0028005a000032d9e130c0000000663e8a6c000000000783c000001e04c896c00063
:0da07b000055a1b294080000001c996e0071
:20a088000000000001e0ba580000000000c9600000150b0f68c4000100680e96000000082c
:20a0a800090388010000028100f00000000002e580000200000000000090b2448000000021
:20a0c80028c05000000071992d0000000142c4dde0004000890003c000001c302f960102a5
:0da0e80080000f7bfc0000000002e9610019
:20a0f5000000000000f3a65a80000000149968000088017ba8ca0000802de9968000001889
:20a11500086b448800000280a0f0000000000225a40000000000000003885a2df0000016f6
:20a1350006f8f508400080a13c0800000203bc884d004001810683c000202c006996e0009e
:0da155000001872bdc0000000614896c005f
:20a16200000000000000ba582000142000c960000000000b79000000b4002b9600000090c5
:20a18200e07790000012e40100f00000000d03658000800000000000000032958000000033
:20a1a20000100f0000000907e0000000000226e9a0000009090403c040001c2c0f960000d7
:0da1c200000000c2a800406000009961008c
:20a1cf00000000020007a65a000028400099680000000017f90000014000e996800000802e
:20a1ef00132790000042e701a0f0000000000265a800000000000000000072657010040062
:20a20f00681a0f00403879e138c000000162d48a6c00000d810383c0000020056996e000cf
:0da22f000000a3a2a880c000061c896c00de
:20a23c000000010090f0b2580100000340f960000000100003c000a0002c0a960100000199
:20a25c0000403c000800000000f00000200003e58400000000000200008012448000007c0e
:20a27c0002c0ff00200000f900000080000014cde000000000d02940080000382c9600402c
:0da29c000001000000008000c000e960002b
:20a2a900000002008003a25a000001e05499680000000e0383c400400001e8968000000146
:20a2c90080303c8004000000a0f0000380000225a000000000000280039e5a6df000002031
:20a2e90001ccfc026800301730c008a04162bc884c000000000016800a0e0004e996c0809f
:0da30900000180000000a002001c896e0011
:20a31600000000000000a2581400e0000009602000050073598000015c002f960400000138
:20a33600000000000400000000f000280580022581400100000000000780fa9583000000e4
:20a356004020fa000280110deb74000000429681202000000a0403c000003c3c0d96050004
:0da37600000000000000000042008961406e
:20a38300000000000007a65a000010400689680000081ad86940000e8000e996800002003a
:20a3a300a000000002000280a0f000100f800225a000000000000000091e3a65700000004a
:20a3c300284cfa00010080afb1dc00000206c68b7c000000010683c0000000014896c00091
:0da3e3000000800000000002005c896c009a
:20a3f0000000000000a0ae580000000281aa300000000afa6640000000400c96200080001e
:20a4100000403c800004002e00f01800000e03658200000000000000008033958001002411
:20a4300000000000000000e0403c000000000003f0000000005bc840100034342996000023
:0da45000005000000000c8042002b96000a8
:20a45d00000000005811265a000001e05eba300000000bf0294800000071689680010870f9
:20a47d0000703c000a0000248f04100000010225a000080000000000010872257000002042
:20a49d0000000000000000e0783c4000800381a3f02000001e3a2100000000046996c18057
:0da4bd00048000000000c4c8e61e896e0087
:20a4ca000000040000003a58000000002cb7200000051b5c3cc0014034002f960000001017
:20a4ea0000403c0400004202996000005010002582000000000000000380da158020002458
:20a50a0024000f0000250000000000000340340ff09400000e0a258000003c000f96010030
:0da52a0000500000000000004002d9600059
:20a53700000004000005265a0000000000ab1000000588df38c081000038e896800000594c
:20a55700c0303c0000020056896c1000230e3225a0000000000000000f003225700000203d
:20a57700041e0f100002000000000000000215cf70200000003225a800001e216896c0000f
:0da5970000d80000000000e26014996e0082
:20a5a4000000000000003e580000000681ba300020091903e8c0000002400e9600000200bb
:20a5c4008b82806000000002896000000d80022580000000000000100088139580000000ab
:20a5e40000000000000000f0003c000001c407aff00002001d0aa580100140382f96000024
:0da604000000a783fc0000a04200b9600028
:20a611000000000001a0265a000001620caa30001000083728c0000014780896a0000401b9
:20a63100a963d40000000604996c100005000265a80000000000000007807a257000000060
:20a651000000000000000000683c8000014727bf700002800e1225a0000080044996c1009c
:0da6710010581b3bd400000a0056896e00f3
:20a67e0000000000500032580200014685072000000b0a0403c00020002c0d96000000988a
:20a69e0000403c840014038099600000009003e584002000000000002f80521580000c004e
:20a6be0000100f00000af000403c000000040100f004000b80022580100e3c0028960100a3
:0da6de000000a000000000000202c96200a0
:20a6eb0000000000d800225a0000000780cb1020000f800203c800401c000896a000001172
:20a70b00a0703c0000086056896c1400050a0225a0000000000000001b9e1a2570000000dd
:20a72b00000e0f2000008000783c4000000380c0f000000f1e3225a000002078c996c1004e
:0da74b000001b000000000000054996c00f7
:20a758000000010000f0b658000001c26f00008000008f0e6c420000000008961000020035
:20a77800094154800000420299600000000003e58000020000000000070093958800000045
:20a7980000000f0000000800403c800003662fe040001000000aa58040203c000e96004215
:0da7b80085000380000000000002b962006f
:20a7c500000000800001265a000002002e8080200005013b2c4000000401699680000500ed
:20a7e50007ba95c008020044896e000000000265a2000000000000004800322570000000e1
:20a8050068180f0040007800703c00000042e7e200002800007a25a000400001c996e0004e
:0da8250000180bea840800006014896c0024
:20a832000000000030002258000003c3cfdf000000000007f142000000000f961002800077
:20a85200018140004014000299600400000003a58000000000000000011092158010400021
:20a87200000000000020000000000000034415050010000b0d0a258040001c000c96000070
:0da8920000000043d40040000202d9600025
:20a89f00000000008000225a010000061faf100000058072714000000000099680010000f0
:20a8bf0003bbd4a4c008001c896c000000000225a800000000000000071e5a257000a000e7
:20a8df000000000000000000000000000002a1aa00000008013a25a000002001c896e000a5
:0da8ff0000000733d40040000614896e00ed
:20a90c00000000000000b25800000343819c5008280000303080000000000c96002000900c
:20a92c0000003c0480000002c960100000000325800000000000020000803b958010201551
:20a94c0000100f0000000000003c20000362ede0401000200002a58408000c7c2896010054
:0da96c0001000000000080000000b9600044
:20a97900000000000001225a0100020046ac500010000002b04080001601699680280500b7
:20a99900a0383c00a0006004896c000007800265a8000000000002800100fa257000402089
:20a9b900001a0f0040000000303c0000014027e200000000003225a00a000c68e996c000ab
:0da9d900000000000000a000001c896e00be
:20a9e6000000000070e002580a00004264b990000020005794c6000002000096020080f0d3
:20aa0600f382a82000000380996040000000032583000000000000000b8cb21581000d00a0
:20aa260000000f00000000000000000220003ece7000000b080a258500002c3c0896020094
:0daa460000000000000000000380096120f6
:20aa530000000000f811225a00020007ae0a500800401a8228c0000006004896900000818c
:20aa730081b294200020061c896c080300000265a0000e00000000000b1cd2257800088067
:20aa9300000e0f1000b00000000000000002041810800008005225a0000000014896c080da
:0daab3000000000000000000005c896c0045
:20aac000000000000000000000000026c0bb1200100d900003c00001403a6e0318800000cf
:20aae0000f81404000200002d9600000800002a580400000000000000000ba1580000800ad
:20ab00000070000002209980403c8000024281ee40004000000225840000026009a30000a2
:0dab200000300b0388400003c0000000005f
:20ab2d000000000000000000000001429cbb100028051e0683c0100c8007c8c0000000009f
:20ab4d00a7b3d4000000061e996c100100000265a000000000000000001a926578000000f0
:20ab6d00025c080200049980203c000a0b6044fe40002900001a65a0000c04245fa3000072
:0dab8d0000800863448c00024000000000be
:20ab9a0000000000000000000000080403fa32000000080728c0000024400b96080001104b
:20abba00f0003c0000000402d9620000000002a58000000000000008000053448000003c8c
:20abda006440aa000000090503ec0000000682ec50000820000aa58000003c2bce6600005a
:0dabfa0000f8002e8c00000000000000009c
:20ac07000000000000000000000000e28fba30000000017ea8c0000020206996800000002c
:20ac270000703c040080678e996c000000000265a020000000000010078e1a6df40000207c
:20ac470064faa500000070e5fb8c080000475dec50000050005a65a00000000641a500008b
:0dac67000098e7be8c800000000000000097
:20ac740000000000000000000000000200b3c20000090fd6344000001c402f96000038008e
:20ac94000038f08000004200d9600020000002e58000000000000000050c9a158000002690
:20acb400280a3c000000500583dc00080167c2ca30041300000225800000043ffbff000037
:0dacd40000010043c0000000202cc2110050
:20ace100000000400000000000010002c013c01004098182388040102061699680004050c5
:20ad01000000f00001020756996c103c00000225a0100000000000040d8f5a6578001126ac
:20ad210064013c080040800f7b8c080503c756aa310004031a3265a00010207059f7000043
:0dad41006000c03bc1020100e226984010f6
:20ad4e0000000000000000000000000003ac5004000719b7d4c040000000299600003850f0
:20ad6e00a000000000000002c9610010000e03658000000000000000050072958000000067
:20ad8e0038100f000020000703ec000a1023f60d7000000d0002a5800020020000f300003f
:0dadae000250003a8c0000080240e96000ed
:20adbb000000000200000000000001401fbc500400080b8368c0000000006896800000903a
:20addb00100000000000000e996c0020011f0225a2000000000000000800526570000000fd
:20adfb00000e0f1000000005e38c080408405fee70200000003a65a0004c160018f30208b0
:0dae1b00018085ba8c040004001e996810a7
:20ae2800000000000800000000000026410f700000008a767fc0000000682d960100009021
:20ae48009000000000140002d9610010050a03658200000000000000000fd2158800082457
:20ae68004170c100020050f5c3dc00000000270e300008000f0a2582004100382ea30800f3
:0dae8800007100403c4000014000d9600016
:20ae9500000000003800000000000142c7cf702000170afa7dc00000167d69968000008012
:20aeb5000000000000006014996c0008570a0225a000000000000000070992657000003c21
:20aed5007ace8022010070fdfb8c080008072dce70201287005265a0000c8664fea3000055
:0daef5000081c0203c000002001499680894
:20af020000000000000000000000036025e53010000010d81400000000002a9600010010b5
:20af220000003c20ca00000299601010400a00258000000000000002410a3a9580000c0037
:20af4200004bfb000000080583ac000013601c0eb0000a001002a5800000000000000000df
:0daf6200000100e3140400016000e960102c
:20af6f000000000001e00000000021c021ba320000000a5e3d400000000069968006800009
:20af8f0000683c00c420060e896c000020003225a8000000000000002700d2657000000024
:20afaf0003dba7000000780feb9c08020847b5ee70201000081265a0000000000000000034
:0dafcf000001e373140000024016996800b1
:20afdc00000000000000000000000042c3be4000018098f83ec0000000402b960000000042
:20affc000dc1400080000000d9601000500002e5800000000000020000003a158400002ea4
:20b01c00024a9800000008ddabe400000002adef600000091002658000a01c6ee0ff102283
:0db03c008090db0388200800c002d960006e
:20b049000080000000000000000002001dbe420000010b3739c080001c7969968000000078
:20b069000fb3d401a000101c996c000020000265a0000000000002800700f26570000026c2
:20b089007afba42000003819f7d4000000062f9f50000327085a65a00040347f7af702290e
:0db0a9000080183344080000000c996a0074
:20b0b6000000000000052da4110000003498000000008b96ffc0000000282c9604003800c1
:20b0d600d0268c020000420289605000000002e580800000000000000f1e33c48080003c12
:20b0f60038100f00040400f00000000000400000f0080000000aa58500002c246cff0000c4
:0db116000010f92d4c4000000000e96040e1
:20b1230000000000000822580000400034d8100000079aba7dc00000000469968000000013
:20b1430015328c200002004e896c000000000265a200000000000000081e1a6df00000000e
:20b16300041c0f000000000000000000000001c0f0000287003a65a0000c3c03edf70000f5
:0db183000000183a8c0000000014996800cc
:20b190000000000000003658000002c4029a3000000010541c800000003c0a96000000f1b2
:20b1b000fdb38c0004000002f9600000001d0003c000000000000011011078200800001c26
:20b1d00027db5320000000e00000000010040000000028008a0ba58000001e002aa3000029
:0db1f000147000731400001402c099600078
:20b1fd00000000000003225a000001c717da3004100508832c408000000549968000008056
:20b21d00f5379c000000061e896c1000001d0303c000000000000000081c9e20408000207b
:20b23d000208a30000000410000000008006000000000005003225a400001e787ea30000f3
:0db25d001a0183af140000a8001689688054
:20b26a00000000003000265802000262830c5000200008f800001040803c0d96000286d0aa
:20b28a00b0aa8c0002000382d960040007000003c00000000000000009080ea8c010003c5d
:20b2aa002029e40000a00900000000000000170ff000283b800b2580000002243ee40000bd
:0db2ca000100ed43dc000003c002996000ac
:20b2d70000000000f807225a000000e3d6ec5120030501b70200808000044996800105009b
:20b2f700017e8c040000621c996c100000000303c000000000000000038133a8c40000208c
:20b3170000d8e400410078e00000000001468c8f7020105f005225a000001e00e9e400005e
:0db337000201f1f38c080000038c896810fe
:20b344000000000000002a58000003c28f0aa20000059e9abfc00000043c0f9600000009bd
:20b364009000000000084200f9620000009cdaffc0000000000000100000d7f600000e0074
:20b38400601fa3010000308d01c800000542950f700000008003a5880020247c3fa3000152
:0db3a40000f980fe8c00000000029960009e
:20b3b100000000000003225a0000a0605fca500000030a3b7dc0000000280996800080191f
:20b3d1009000000001020056896c00000198bebdc040000000000028000002b9040020045f
:20b3f1003968a3000000800872c408008a0065ee30200041807a25a0000000615aa3200087
:0db4110000f8b72a8c0011e0001c896810bb
:20b41e000000000031f03a580108000000081000008d8f0f388000403c380c960000007091
:20b43e00ebc3fc0000000002c960002809800403c00000000000000040900fa8c010400208
:20b45e000029e40000803007a40080020440248df000280b0903258000000003ed03000028
:0db47e0000000000000000000402996000c2
:20b48b000000000080f7225a000000e00408102009070e72f888002020040996800000001f
:20b4ab001bebdc080400001c996c101009800703c00000000000000007085ba8c000000429
:20b4cb0078fee40042809885b420800409662dbe50001008013a25a00000000269c02800bb
:0db4eb000000000000000000079e896800be
:20b4f8000000000000b03a5804000006c2ed1000000d0bd01c8200003c000f960100007051
:20b51800877b600000e00002f96010000008fc140010000000000000079e741c8010000277
:20b5380025ec2100000090ab43fc00000140140e300010000e0ba580000040400b96200421
:0db558000470adc3fc4000000002996100ca
:20b56500000000000011225a000000064efd120010000083ac4880442001489680000058b4
:20b58500102790c000006014896c0001051afebd4420000000000000079e06ac4080210639
:20b5a50000698420000080b12bdc080062002cef702020001e5a25a000000031c8968000c0
:0db5c5000281bff3dc080009c21489680090
:20b5d20000000000f000365800000040240f300000008b9a8000200002000c9600000000cf
:20b5f200cb430c00c000000299610400100a0003c000000000000000000cd4000040000062
:20b61200300d96000000000d77fc00000003c0ca30000020090b2580000014600f96008096
:0db6320005b0cd03dc000003c000996008e6
:20b63f00000000000007225a800002002eae3020000500bb020800001e00089680000000b4
:20b65f00c5e38c28c000061c896c000000000703c000000000000000079c5e020680000e37
:20b67f0000c99680403001edffdc0000006007ba30000050005a25a800002071e99680003b
:0db69f000001e5ab8c080002039c896800e7
:20b6ac000000000000e02e58040000039e05000000000ab3dc8c000000002896000000107b
:20b6cc000f03ec0080000000f9608000000074154240000000000000051a1f3fc0000000bf
:20b6ec00240e9600000051b103fc000009c2d70f700000000003a5800000ac2c0b960000b3
:0db70c00000007efc8000400000299600073
:20b71900000000000013265a000000068fef520000000087ac4000000000c89690000081c5
:20b739008863dc08a000001c896c0828000017a94020000000000000079a7a3dc000011ceb
:20b75900054896800028d999b3dc080413402e8e30200000007225a000022078689680008a
:0db7790030700d6bdc0000e00016896a00e6
:20b7860010000001d0e02658140000202ef810000000100403c00000020020961200000059
:20b7a600e0bf14000a004202896040000580f0280600000000000000200a06a8c2004000dc
:20b7c600282d960400041089fffc0000024702fa30000030000b258100a000402c960440a0
:0db7e60000000000000000140600996050f3
:20b7f300000000108017265a00000142240e720000000a0383c800001e00e89680000001b3
:20b81300e77f144004a2005c896c08000d00933d400000000000000057001be8c800a0007d
:20b83300056996a000020181a3dc00000003d5aa30000070007a25a0004a0029499680001b
:0db8530000000000000000080214896800d9
:20b860000000000008f0225880000403fc9e7004000f1e08344200a03e202ae4080005f805
:20b8800080f7144000000000d96200000f0ebc140020a00000000000000d000000002600c2
:20b8a000000d960000021000ff14800809c01c0e200410010903e580004000242d96010176
:0db8c00000000000000002002002d960809e
:20b8cd00000000003817a25a000009600418100800001d1734409042060178e4000002b9db
:20b8ed00f7f7140000000014996c0000080813bd4000400000000000000000000000400080
:20b90d000149968000050005f3140004020020ad1030280f007a65a0000a0000e9968000d7
:0db92d000000000000000400401c996800ac
:20b93a000000000000002e58000820038000000000000e97f880100094282bc5100000f0e3
:20b95a000076c40400004002a9600001ab199c2800600e000000000049001a5980104000c1
:20b97a0000289600000518d0003c04000003828e4108004009002580200140400b96000036
:0db99a00000000000000000007c2e960008e
:20b9a7000000001001a3a25a040000004000000000078983f440000020056ac50000388039
:20b9c70001eec40000020016896e0000480b7a3d40400000000000002000f829440020006f
:20b9e70000e99680000251b0383c0000000054de40000000003a25a000008038e896900093
:0dba07000001e00000000000035c996804ed
:20ba14000000000008a03e58010001600000000000090b028f00108016016fe7100000f1cf
:20ba340095c2a80400000000896000000000ffbfc000000000000010000000000000000078
:20ba5400000d96000000f8f08314000002c015ed8000000080728480400a00242d96000045
:0dba74003000000000000401c602d960008f
:20ba8100000000003800265a0000014000000000000000000f0000003e004181000000019c
:20baa100d5f2940000000614996c004000007e3dc0000000000000080780000000000000c1
:20bac100204996800000700363148800020021be400408079e82612000001e20c996a00062
